{
  "_format": "hh-sol-artifact-1",
  "contractName": "TreeContract",
  "sourceName": "contracts/TreeContract.sol",
  "abi": [
    {
      "inputs": [
        {
          "internalType": "string",
          "name": "baseURI",
          "type": "string"
        },
        {
          "internalType": "address",
          "name": "_tc02",
          "type": "address"
        },
        {
          "internalType": "address",
          "name": "_wrappedNativeToken",
          "type": "address"
        },
        {
          "internalType": "address",
          "name": "_retirementCertificates",
          "type": "address"
        },
        {
          "internalType": "address",
          "name": "_swapRouter",
          "type": "address"
        }
      ],
      "stateMutability": "nonpayable",
      "type": "constructor"
    },
    {
      "inputs": [],
      "name": "ApprovalCallerNotOwnerNorApproved",
      "type": "error"
    },
    {
      "inputs": [],
      "name": "ApprovalQueryForNonexistentToken",
      "type": "error"
    },
    {
      "inputs": [],
      "name": "BalanceQueryForZeroAddress",
      "type": "error"
    },
    {
      "inputs": [],
      "name": "MintERC2309QuantityExceedsLimit",
      "type": "error"
    },
    {
      "inputs": [],
      "name": "MintToZeroAddress",
      "type": "error"
    },
    {
      "inputs": [],
      "name": "MintZeroQuantity",
      "type": "error"
    },
    {
      "inputs": [
        {
          "internalType": "address",
          "name": "owner",
          "type": "address"
        }
      ],
      "name": "OwnableInvalidOwner",
      "type": "error"
    },
    {
      "inputs": [
        {
          "internalType": "address",
          "name": "account",
          "type": "address"
        }
      ],
      "name": "OwnableUnauthorizedAccount",
      "type": "error"
    },
    {
      "inputs": [],
      "name": "OwnerQueryForNonexistentToken",
      "type": "error"
    },
    {
      "inputs": [],
      "name": "OwnershipNotInitializedForExtraData",
      "type": "error"
    },
    {
      "inputs": [],
      "name": "TransferCallerNotOwnerNorApproved",
      "type": "error"
    },
    {
      "inputs": [],
      "name": "TransferFromIncorrectOwner",
      "type": "error"
    },
    {
      "inputs": [],
      "name": "TransferToNonERC721ReceiverImplementer",
      "type": "error"
    },
    {
      "inputs": [],
      "name": "TransferToZeroAddress",
      "type": "error"
    },
    {
      "inputs": [],
      "name": "URIQueryForNonexistentToken",
      "type": "error"
    },
    {
      "anonymous": false,
      "inputs": [
        {
          "indexed": true,
          "internalType": "address",
          "name": "owner",
          "type": "address"
        },
        {
          "indexed": true,
          "internalType": "address",
          "name": "approved",
          "type": "address"
        },
        {
          "indexed": true,
          "internalType": "uint256",
          "name": "tokenId",
          "type": "uint256"
        }
      ],
      "name": "Approval",
      "type": "event"
    },
    {
      "anonymous": false,
      "inputs": [
        {
          "indexed": true,
          "internalType": "address",
          "name": "owner",
          "type": "address"
        },
        {
          "indexed": true,
          "internalType": "address",
          "name": "operator",
          "type": "address"
        },
        {
          "indexed": false,
          "internalType": "bool",
          "name": "approved",
          "type": "bool"
        }
      ],
      "name": "ApprovalForAll",
      "type": "event"
    },
    {
      "anonymous": false,
      "inputs": [
        {
          "indexed": true,
          "internalType": "uint256",
          "name": "fromTokenId",
          "type": "uint256"
        },
        {
          "indexed": false,
          "internalType": "uint256",
          "name": "toTokenId",
          "type": "uint256"
        },
        {
          "indexed": true,
          "internalType": "address",
          "name": "from",
          "type": "address"
        },
        {
          "indexed": true,
          "internalType": "address",
          "name": "to",
          "type": "address"
        }
      ],
      "name": "ConsecutiveTransfer",
      "type": "event"
    },
    {
      "anonymous": false,
      "inputs": [
        {
          "indexed": true,
          "internalType": "address",
          "name": "previousOwner",
          "type": "address"
        },
        {
          "indexed": true,
          "internalType": "address",
          "name": "newOwner",
          "type": "address"
        }
      ],
      "name": "OwnershipTransferred",
      "type": "event"
    },
    {
      "anonymous": false,
      "inputs": [
        {
          "indexed": true,
          "internalType": "address",
          "name": "from",
          "type": "address"
        },
        {
          "indexed": true,
          "internalType": "address",
          "name": "to",
          "type": "address"
        },
        {
          "indexed": true,
          "internalType": "uint256",
          "name": "tokenId",
          "type": "uint256"
        }
      ],
      "name": "Transfer",
      "type": "event"
    },
    {
      "inputs": [],
      "name": "_baseTokenURI",
      "outputs": [
        {
          "internalType": "string",
          "name": "",
          "type": "string"
        }
      ],
      "stateMutability": "view",
      "type": "function"
    },
    {
      "inputs": [
        {
          "internalType": "address",
          "name": "to",
          "type": "address"
        },
        {
          "internalType": "uint256",
          "name": "tokenId",
          "type": "uint256"
        }
      ],
      "name": "approve",
      "outputs": [],
      "stateMutability": "payable",
      "type": "function"
    },
    {
      "inputs": [
        {
          "internalType": "address",
          "name": "owner",
          "type": "address"
        }
      ],
      "name": "balanceOf",
      "outputs": [
        {
          "internalType": "uint256",
          "name": "",
          "type": "uint256"
        }
      ],
      "stateMutability": "view",
      "type": "function"
    },
    {
      "inputs": [],
      "name": "cost",
      "outputs": [
        {
          "internalType": "uint256",
          "name": "",
          "type": "uint256"
        }
      ],
      "stateMutability": "view",
      "type": "function"
    },
    {
      "inputs": [],
      "name": "decayPeriod",
      "outputs": [
        {
          "internalType": "uint256",
          "name": "",
          "type": "uint256"
        }
      ],
      "stateMutability": "view",
      "type": "function"
    },
    {
      "inputs": [],
      "name": "decayRate",
      "outputs": [
        {
          "internalType": "uint256",
          "name": "",
          "type": "uint256"
        }
      ],
      "stateMutability": "view",
      "type": "function"
    },
    {
      "inputs": [
        {
          "internalType": "uint256",
          "name": "_tokenId",
          "type": "uint256"
        },
        {
          "internalType": "uint256",
          "name": "noOfStakes",
          "type": "uint256"
        }
      ],
      "name": "downgradeTree",
      "outputs": [],
      "stateMutability": "nonpayable",
      "type": "function"
    },
    {
      "inputs": [
        {
          "internalType": "uint256",
          "name": "tokenId",
          "type": "uint256"
        }
      ],
      "name": "getApproved",
      "outputs": [
        {
          "internalType": "address",
          "name": "",
          "type": "address"
        }
      ],
      "stateMutability": "view",
      "type": "function"
    },
    {
      "inputs": [
        {
          "internalType": "uint256",
          "name": "_tokenId",
          "type": "uint256"
        }
      ],
      "name": "getLastWatered",
      "outputs": [
        {
          "internalType": "uint256",
          "name": "",
          "type": "uint256"
        }
      ],
      "stateMutability": "view",
      "type": "function"
    },
    {
      "inputs": [],
      "name": "greenDonationContract",
      "outputs": [
        {
          "internalType": "address",
          "name": "",
          "type": "address"
        }
      ],
      "stateMutability": "view",
      "type": "function"
    },
    {
      "inputs": [
        {
          "internalType": "address",
          "name": "owner",
          "type": "address"
        },
        {
          "internalType": "address",
          "name": "operator",
          "type": "address"
        }
      ],
      "name": "isApprovedForAll",
      "outputs": [
        {
          "internalType": "bool",
          "name": "",
          "type": "bool"
        }
      ],
      "stateMutability": "view",
      "type": "function"
    },
    {
      "inputs": [],
      "name": "maxSupply",
      "outputs": [
        {
          "internalType": "uint256",
          "name": "",
          "type": "uint256"
        }
      ],
      "stateMutability": "view",
      "type": "function"
    },
    {
      "inputs": [
        {
          "internalType": "string",
          "name": "beneficiaryString",
          "type": "string"
        },
        {
          "internalType": "string",
          "name": "retirementMessage",
          "type": "string"
        },
        {
          "internalType": "uint256",
          "name": "minAmountOut",
          "type": "uint256"
        },
        {
          "internalType": "uint256",
          "name": "deadline",
          "type": "uint256"
        }
      ],
      "name": "mint",
      "outputs": [],
      "stateMutability": "payable",
      "type": "function"
    },
    {
      "inputs": [],
      "name": "name",
      "outputs": [
        {
          "internalType": "string",
          "name": "",
          "type": "string"
        }
      ],
      "stateMutability": "view",
      "type": "function"
    },
    {
      "inputs": [
        {
          "internalType": "address",
          "name": "",
          "type": "address"
        },
        {
          "internalType": "address",
          "name": "from",
          "type": "address"
        },
        {
          "internalType": "uint256",
          "name": "tokenId",
          "type": "uint256"
        },
        {
          "internalType": "bytes",
          "name": "",
          "type": "bytes"
        }
      ],
      "name": "onERC721Received",
      "outputs": [
        {
          "internalType": "bytes4",
          "name": "",
          "type": "bytes4"
        }
      ],
      "stateMutability": "nonpayable",
      "type": "function"
    },
    {
      "inputs": [],
      "name": "owner",
      "outputs": [
        {
          "internalType": "address",
          "name": "",
          "type": "address"
        }
      ],
      "stateMutability": "view",
      "type": "function"
    },
    {
      "inputs": [
        {
          "internalType": "uint256",
          "name": "tokenId",
          "type": "uint256"
        }
      ],
      "name": "ownerOf",
      "outputs": [
        {
          "internalType": "address",
          "name": "",
          "type": "address"
        }
      ],
      "stateMutability": "view",
      "type": "function"
    },
    {
      "inputs": [],
      "name": "redemptionRate",
      "outputs": [
        {
          "internalType": "uint256",
          "name": "",
          "type": "uint256"
        }
      ],
      "stateMutability": "view",
      "type": "function"
    },
    {
      "inputs": [],
      "name": "renounceOwnership",
      "outputs": [],
      "stateMutability": "nonpayable",
      "type": "function"
    },
    {
      "inputs": [],
      "name": "retirementCertificateEscrow",
      "outputs": [
        {
          "internalType": "contract RetirementCertificateEscrow",
          "name": "",
          "type": "address"
        }
      ],
      "stateMutability": "view",
      "type": "function"
    },
    {
      "inputs": [],
      "name": "retirementCertificates",
      "outputs": [
        {
          "internalType": "contract IRetirementCertificates",
          "name": "",
          "type": "address"
        }
      ],
      "stateMutability": "view",
      "type": "function"
    },
    {
      "inputs": [
        {
          "internalType": "address",
          "name": "from",
          "type": "address"
        },
        {
          "internalType": "address",
          "name": "to",
          "type": "address"
        },
        {
          "internalType": "uint256",
          "name": "tokenId",
          "type": "uint256"
        }
      ],
      "name": "safeTransferFrom",
      "outputs": [],
      "stateMutability": "payable",
      "type": "function"
    },
    {
      "inputs": [
        {
          "internalType": "address",
          "name": "from",
          "type": "address"
        },
        {
          "internalType": "address",
          "name": "to",
          "type": "address"
        },
        {
          "internalType": "uint256",
          "name": "tokenId",
          "type": "uint256"
        },
        {
          "internalType": "bytes",
          "name": "_data",
          "type": "bytes"
        }
      ],
      "name": "safeTransferFrom",
      "outputs": [],
      "stateMutability": "payable",
      "type": "function"
    },
    {
      "inputs": [
        {
          "internalType": "address",
          "name": "operator",
          "type": "address"
        },
        {
          "internalType": "bool",
          "name": "approved",
          "type": "bool"
        }
      ],
      "name": "setApprovalForAll",
      "outputs": [],
      "stateMutability": "nonpayable",
      "type": "function"
    },
    {
      "inputs": [
        {
          "internalType": "string",
          "name": "_uri",
          "type": "string"
        }
      ],
      "name": "setBaseURI",
      "outputs": [],
      "stateMutability": "nonpayable",
      "type": "function"
    },
    {
      "inputs": [
        {
          "internalType": "uint256",
          "name": "_cost",
          "type": "uint256"
        }
      ],
      "name": "setCost",
      "outputs": [],
      "stateMutability": "nonpayable",
      "type": "function"
    },
    {
      "inputs": [
        {
          "internalType": "address",
          "name": "_greenDonationContract",
          "type": "address"
        }
      ],
      "name": "setGreenDonationContract",
      "outputs": [],
      "stateMutability": "nonpayable",
      "type": "function"
    },
    {
      "inputs": [
        {
          "internalType": "uint256",
          "name": "_rate",
          "type": "uint256"
        }
      ],
      "name": "setRedemptionRate",
      "outputs": [],
      "stateMutability": "nonpayable",
      "type": "function"
    },
    {
      "inputs": [
        {
          "internalType": "address",
          "name": "_retirementCertificateEscrow",
          "type": "address"
        }
      ],
      "name": "setRetirementCertificateEscrow",
      "outputs": [],
      "stateMutability": "nonpayable",
      "type": "function"
    },
    {
      "inputs": [
        {
          "internalType": "address",
          "name": "router",
          "type": "address"
        }
      ],
      "name": "setSwapRouter",
      "outputs": [],
      "stateMutability": "nonpayable",
      "type": "function"
    },
    {
      "inputs": [
        {
          "internalType": "bytes4",
          "name": "interfaceId",
          "type": "bytes4"
        }
      ],
      "name": "supportsInterface",
      "outputs": [
        {
          "internalType": "bool",
          "name": "",
          "type": "bool"
        }
      ],
      "stateMutability": "view",
      "type": "function"
    },
    {
      "inputs": [],
      "name": "swapRouter",
      "outputs": [
        {
          "internalType": "contract IUniswapV2Router02",
          "name": "",
          "type": "address"
        }
      ],
      "stateMutability": "view",
      "type": "function"
    },
    {
      "inputs": [],
      "name": "symbol",
      "outputs": [
        {
          "internalType": "string",
          "name": "",
          "type": "string"
        }
      ],
      "stateMutability": "view",
      "type": "function"
    },
    {
      "inputs": [],
      "name": "tc02",
      "outputs": [
        {
          "internalType": "contract ITC02",
          "name": "",
          "type": "address"
        }
      ],
      "stateMutability": "view",
      "type": "function"
    },
    {
      "inputs": [
        {
          "internalType": "uint256",
          "name": "tokenId",
          "type": "uint256"
        }
      ],
      "name": "tokenURI",
      "outputs": [
        {
          "internalType": "string",
          "name": "",
          "type": "string"
        }
      ],
      "stateMutability": "view",
      "type": "function"
    },
    {
      "inputs": [],
      "name": "totalSupply",
      "outputs": [
        {
          "internalType": "uint256",
          "name": "",
          "type": "uint256"
        }
      ],
      "stateMutability": "view",
      "type": "function"
    },
    {
      "inputs": [
        {
          "internalType": "address",
          "name": "from",
          "type": "address"
        },
        {
          "internalType": "address",
          "name": "to",
          "type": "address"
        },
        {
          "internalType": "uint256",
          "name": "tokenId",
          "type": "uint256"
        }
      ],
      "name": "transferFrom",
      "outputs": [],
      "stateMutability": "payable",
      "type": "function"
    },
    {
      "inputs": [
        {
          "internalType": "address",
          "name": "newOwner",
          "type": "address"
        }
      ],
      "name": "transferOwnership",
      "outputs": [],
      "stateMutability": "nonpayable",
      "type": "function"
    },
    {
      "inputs": [
        {
          "internalType": "uint256",
          "name": "",
          "type": "uint256"
        }
      ],
      "name": "trees",
      "outputs": [
        {
          "internalType": "uint256",
          "name": "level",
          "type": "uint256"
        },
        {
          "internalType": "uint256",
          "name": "lastWatered",
          "type": "uint256"
        }
      ],
      "stateMutability": "view",
      "type": "function"
    },
    {
      "inputs": [
        {
          "internalType": "uint256",
          "name": "_tokenId",
          "type": "uint256"
        },
        {
          "internalType": "uint256",
          "name": "noOfStakes",
          "type": "uint256"
        }
      ],
      "name": "upgradeTree",
      "outputs": [],
      "stateMutability": "nonpayable",
      "type": "function"
    },
    {
      "inputs": [],
      "name": "withdraw",
      "outputs": [],
      "stateMutability": "nonpayable",
      "type": "function"
    },
    {
      "inputs": [],
      "name": "wrappedNativeToken",
      "outputs": [
        {
          "internalType": "address",
          "name": "",
          "type": "address"
        }
      ],
      "stateMutability": "view",
      "type": "function"
    }
  ],
  "bytecode": "0x60806040526000600955600a80553480156200001a57600080fd5b5060405162002c5e38038062002c5e8339810160408190526200003d9162000229565b604080518082018252600d81526c151c99594810dbdb9d1c9858dd609a1b602080830191909152825180840190935260038352621510d560ea1b90830152903380620000a357604051631e4fbdf760e01b81526000600482015260240160405180910390fd5b620000ae81620001a6565b506003620000bd8382620003d8565b506004620000cc8282620003d8565b50506001805550600b620000e18682620003d8565b50600f80546001600160a01b038681166001600160a01b03199283161790925560108054868416908316811790915560118054868516908416179055600e805493851693909216831790915560405163095ea7b360e01b8152600481019290925260001960248301529063095ea7b3906044016020604051808303816000875af115801562000174573d6000803e3d6000fd5b505050506040513d601f19601f820116820180604052508101906200019a9190620004a4565b505050505050620004cf565b600080546001600160a01b038381166001600160a01b0319831681178455604051919092169283917f8be0079c531659141344cd1fd0a4f28419497f9722a3daafe3b4186f6b6457e09190a35050565b634e487b7160e01b600052604160045260246000fd5b80516001600160a01b03811681146200022457600080fd5b919050565b600080600080600060a086880312156200024257600080fd5b85516001600160401b03808211156200025a57600080fd5b818801915088601f8301126200026f57600080fd5b815181811115620002845762000284620001f6565b604051601f8201601f19908116603f01168101908382118183101715620002af57620002af620001f6565b81604052828152602093508b84848701011115620002cc57600080fd5b600091505b82821015620002f05784820184015181830185015290830190620002d1565b60008484830101528099505050506200030b8189016200020c565b955050506200031d604087016200020c565b92506200032d606087016200020c565b91506200033d608087016200020c565b90509295509295909350565b600181811c908216806200035e57607f821691505b6020821081036200037f57634e487b7160e01b600052602260045260246000fd5b50919050565b601f821115620003d357600081815260208120601f850160051c81016020861015620003ae5750805b601f850160051c820191505b81811015620003cf57828155600101620003ba565b5050505b505050565b81516001600160401b03811115620003f457620003f4620001f6565b6200040c8162000405845462000349565b8462000385565b602080601f8311600181146200044457600084156200042b5750858301515b600019600386901b1c1916600185901b178555620003cf565b600085815260208120601f198616915b82811015620004755788860151825594840194600190910190840162000454565b5085821015620004945787850151600019600388901b60f8161c191681555b5050505050600190811b01905550565b600060208284031215620004b757600080fd5b81518015158114620004c857600080fd5b9392505050565b61277f80620004df6000396000f3fe6080604052600436106102d05760003560e01c80636352211e11610179578063b21aef7d116100d6578063c87b56dd1161008a578063e985e9c511610064578063e985e9c514610782578063f2fde38b146107cb578063f5b88ac2146107eb57600080fd5b8063c87b56dd14610737578063cfc86f7b14610757578063d5abeb011461076c57600080fd5b8063b88d4fde116100bb578063b88d4fde146106f1578063b9a918ce14610704578063c31c9c071461071757600080fd5b8063b21aef7d146106b1578063b6b2196d146106d157600080fd5b80638378e58f1161012d57806395d89b411161011257806395d89b4114610667578063a22cb4651461067c578063a9c1f2f11461069c57600080fd5b80638378e58f146106295780638da5cb5b1461064957600080fd5b806370a082311161015e57806370a08231146105ab578063715018a6146105cb5780637a508022146105e057600080fd5b80636352211e1461056b57806364c902421461058b57600080fd5b8063188d24711161023257806342842e0e116101e6578063540385a3116101c0578063540385a31461051557806355f804b31461052b57806358c836211461054b57600080fd5b806342842e0e146104cb57806344a0d68a146104de57806348d67e1b146104fe57600080fd5b8063370ebd9911610217578063370ebd99146102d55780633ccfd60b1461049657806341273657146104ab57600080fd5b8063188d24711461046357806323b872dd1461048357600080fd5b806313bc513511610289578063150b7a021161026e578063150b7a02146103ed57806317fcb39b1461042657806318160ddd1461044657600080fd5b806313bc51351461039957806313faede6146103d757600080fd5b806306fdde03116102ba57806306fdde031461032c578063081812fc1461034e578063095ea7b31461038657600080fd5b806217a872146102d557806301ffc9a7146102f7575b600080fd5b3480156102e157600080fd5b506102f56102f0366004611e3f565b61080b565b005b34801561030357600080fd5b50610317610312366004611e77565b61097b565b60405190151581526020015b60405180910390f35b34801561033857600080fd5b50610341610a18565b6040516103239190611ee4565b34801561035a57600080fd5b5061036e610369366004611ef7565b610aaa565b6040516001600160a01b039091168152602001610323565b6102f5610394366004611f2c565b610b07565b3480156103a557600080fd5b506103c96103b4366004611ef7565b6000908152600d602052604090206001015490565b604051908152602001610323565b3480156103e357600080fd5b506103c960095481565b3480156103f957600080fd5b5061040d610408366004611f9f565b610bdd565b6040516001600160e01b03199091168152602001610323565b34801561043257600080fd5b5060105461036e906001600160a01b031681565b34801561045257600080fd5b5060025460015403600019016103c9565b34801561046f57600080fd5b5060125461036e906001600160a01b031681565b6102f561049136600461200e565b610c4c565b3480156104a257600080fd5b506102f5610e5b565b3480156104b757600080fd5b506102f56104c636600461204a565b610f1c565b6102f56104d936600461200e565b610f46565b3480156104ea57600080fd5b506102f56104f9366004611ef7565b610f66565b34801561050a57600080fd5b506103c962093a8081565b34801561052157600080fd5b506103c9600a5481565b34801561053757600080fd5b506102f5610546366004612104565b610f73565b34801561055757600080fd5b506102f561056636600461204a565b610f87565b34801561057757600080fd5b5061036e610586366004611ef7565b610fb1565b34801561059757600080fd5b506102f56105a636600461204a565b610fbc565b3480156105b757600080fd5b506103c96105c636600461204a565b610fe6565b3480156105d757600080fd5b506102f561104e565b3480156105ec57600080fd5b506106146105fb366004611ef7565b600d602052600090815260409020805460019091015482565b60408051928352602083019190915201610323565b34801561063557600080fd5b50600c5461036e906001600160a01b031681565b34801561065557600080fd5b506000546001600160a01b031661036e565b34801561067357600080fd5b50610341611062565b34801561068857600080fd5b506102f561069736600461214d565b611071565b3480156106a857600080fd5b506103c9600181565b3480156106bd57600080fd5b5060115461036e906001600160a01b031681565b3480156106dd57600080fd5b506102f56106ec366004611ef7565b6110dd565b6102f56106ff366004612189565b6110ea565b6102f5610712366004612205565b611134565b34801561072357600080fd5b50600e5461036e906001600160a01b031681565b34801561074357600080fd5b50610341610752366004611ef7565b611466565b34801561076357600080fd5b50610341611519565b34801561077857600080fd5b506103c961271081565b34801561078e57600080fd5b5061031761079d366004612283565b6001600160a01b03918216600090815260086020908152604080832093909416825291909152205460ff1690565b3480156107d757600080fd5b506102f56107e636600461204a565b6115a7565b3480156107f757600080fd5b50600f5461036e906001600160a01b031681565b600c546001600160a01b031633146108905760405162461bcd60e51b815260206004820152603360248201527f4f6e6c7920677265656e20646f6e6174696f6e20636f6e74726163742063616e60448201527f2063616c6c20746869732066756e6374696f6e0000000000000000000000000060648201526084015b60405180910390fd5b610899826115fe565b6108e55760405162461bcd60e51b815260206004820152601360248201527f5472656520646f6573206e6f74206578697374000000000000000000000000006044820152606401610887565b600060018210156108f85750600061095f565b600182118015610909575060058211155b156109165750600161095f565b6005821180156109275750600f8211155b156109345750600261095f565b600f821180156109455750601e8211155b156109525750600361095f565b601e82111561095f575060045b6000928352600d60205260409092204260018201559190915550565b60007f01ffc9a7000000000000000000000000000000000000000000000000000000006001600160e01b0319831614806109de57507f80ac58cd000000000000000000000000000000000000000000000000000000006001600160e01b03198316145b80610a1257507f5b5e139f000000000000000000000000000000000000000000000000000000006001600160e01b03198316145b92915050565b606060038054610a27906122b6565b80601f0160208091040260200160405190810160405280929190818152602001828054610a53906122b6565b8015610aa05780601f10610a7557610100808354040283529160200191610aa0565b820191906000526020600020905b815481529060010190602001808311610a8357829003601f168201915b5050505050905090565b6000610ab5826115fe565b610aeb576040517fcf4700e400000000000000000000000000000000000000000000000000000000815260040160405180910390fd5b506000908152600760205260409020546001600160a01b031690565b6000610b1282610fb1565b9050336001600160a01b03821614610b81576001600160a01b038116600090815260086020908152604080832033845290915290205460ff16610b81576040517fcfb3b94200000000000000000000000000000000000000000000000000000000815260040160405180910390fd5b60008281526007602052604080822080546001600160a01b0319166001600160a01b0387811691821790925591518593918516917f8c5be1e5ebec7d5bd14f71427d1e84f3dd0314c0f7b2291e5b200ac8c7c3b92591a4505050565b6011546000906001600160a01b03163314610c3a5760405162461bcd60e51b815260206004820152601a60248201527f4e6f74207265746972656d656e742063657274696669636174650000000000006044820152606401610887565b50630a85bd0160e11b95945050505050565b6000610c5782611633565b9050836001600160a01b0316816001600160a01b031614610ca4576040517fa114810000000000000000000000000000000000000000000000000000000000815260040160405180910390fd5b60008281526007602052604090208054338082146001600160a01b03881690911417610d27576001600160a01b038616600090815260086020908152604080832033845290915290205460ff16610d27576040517f59c896be00000000000000000000000000000000000000000000000000000000815260040160405180910390fd5b6001600160a01b038516610d67576040517fea553b3400000000000000000000000000000000000000000000000000000000815260040160405180910390fd5b610d7486868660016116bb565b8015610d7f57600082555b6001600160a01b038681166000908152600660205260408082208054600019019055918716808252919020805460010190554260a01b17600160e11b17600085815260056020526040812091909155600160e11b84169003610e1157600184016000818152600560205260408120549003610e0f576001548114610e0f5760008181526005602052604090208490555b505b83856001600160a01b0316876001600160a01b03167fddf252ad1be2c89b69c2b068fc378daa952ba7f163c4a11628f55a4df523b3ef60405160405180910390a45b505050505050565b610e636117c9565b476000610e786000546001600160a01b031690565b6001600160a01b03168260405160006040518083038185875af1925050503d8060008114610ec2576040519150601f19603f3d011682016040523d82523d6000602084013e610ec7565b606091505b5050905080610f185760405162461bcd60e51b815260206004820152601460248201527f4661696c656420746f2073656e642045746865720000000000000000000000006044820152606401610887565b5050565b610f246117c9565b600e80546001600160a01b0319166001600160a01b0392909216919091179055565b610f61838383604051806020016040528060008152506110ea565b505050565b610f6e6117c9565b600955565b610f7b6117c9565b600b610f188282612336565b610f8f6117c9565b601280546001600160a01b0319166001600160a01b0392909216919091179055565b6000610a1282611633565b610fc46117c9565b600c80546001600160a01b0319166001600160a01b0392909216919091179055565b60006001600160a01b038216611028576040517f8f4eb60400000000000000000000000000000000000000000000000000000000815260040160405180910390fd5b506001600160a01b031660009081526006602052604090205467ffffffffffffffff1690565b6110566117c9565b611060600061180f565b565b606060048054610a27906122b6565b3360008181526008602090815260408083206001600160a01b03871680855290835292819020805460ff191686151590811790915590519081529192917f17307eab39ab6107e8899845ad3d59bd9653f200f220920489ca2b5937696c31910160405180910390a35050565b6110e56117c9565b600a55565b6110f5848484610c4c565b6001600160a01b0383163b1561112e576111118484848461185f565b61112e576040516368d2bf6b60e11b815260040160405180910390fd5b50505050565b60006111436001546000190190565b336000908152600660205260409081902054919250600191611170911c67ffffffffffffffff168261240c565b11156111be5760405162461bcd60e51b815260206004820152601a60248201527f457863656564206d6178206d696e7461626c6520616d6f756e740000000000006044820152606401610887565b6127106111cc82600161240c565b111561121a5760405162461bcd60e51b815260206004820152601560248201527f457863656564206d6178696d756d20737570706c7900000000000000000000006044820152606401610887565b60095461122890600161241f565b34146112765760405162461bcd60e51b815260206004820152601460248201527f496e636f72726563742076616c75652073656e740000000000000000000000006044820152606401610887565b600061128160015490565b905061128e33600161194b565b6000818152600d6020526040812060018101829055819055601154600a546001600160a01b039091169063163c131990309033908d908d908d908d906112f5906112f0906064906112df903461241f565b6112e99190612436565b8f8f611a89565b611bdd565b6040518863ffffffff1660e01b81526004016113179796959493929190612481565b6020604051808303816000875af1158015611336573d6000803e3d6000fd5b505050506040513d601f19601f8201168201806040525081019061135a9190612540565b6011546012546040517f095ea7b30000000000000000000000000000000000000000000000000000000081526001600160a01b03918216600482015260248101849052929350169063095ea7b390604401600060405180830381600087803b1580156113c557600080fd5b505af11580156113d9573d6000803e3d6000fd5b50506012546040517f4261fbbc00000000000000000000000000000000000000000000000000000000815260048101869052602481018590526001600160a01b039091169250634261fbbc9150604401600060405180830381600087803b15801561144357600080fd5b505af1158015611457573d6000803e3d6000fd5b50505050505050505050505050565b6060611471826115fe565b6114bd5760405162461bcd60e51b815260206004820152601f60248201527f55524920717565727920666f72206e6f6e6578697374656e7420746f6b656e006044820152606401610887565b60006114c7611cae565b905060008151116114e75760405180602001604052806000815250611512565b806114f184611cbd565b604051602001611502929190612559565b6040516020818303038152906040525b9392505050565b600b8054611526906122b6565b80601f0160208091040260200160405190810160405280929190818152602001828054611552906122b6565b801561159f5780601f106115745761010080835404028352916020019161159f565b820191906000526020600020905b81548152906001019060200180831161158257829003601f168201915b505050505081565b6115af6117c9565b6001600160a01b0381166115f2576040517f1e4fbdf700000000000000000000000000000000000000000000000000000000815260006004820152602401610887565b6115fb8161180f565b50565b600081600111158015611612575060015482105b8015610a12575050600090815260056020526040902054600160e01b161590565b60008180600111611689576001548110156116895760008181526005602052604081205490600160e01b82169003611687575b80600003611512575060001901600081815260056020526040902054611666565b505b6040517fdf2d9b4200000000000000000000000000000000000000000000000000000000815260040160405180910390fd5b6001600160a01b0384161561112e576001600160a01b0383166117205760405162461bcd60e51b815260206004820152601160248201527f547265652063616e206e6f74206275726e0000000000000000000000000000006044820152606401610887565b836001600160a01b0316836001600160a01b0316146117815760405162461bcd60e51b815260206004820152601560248201527f547265652063616e206e6f74207472616e7366657200000000000000000000006044820152606401610887565b60405162461bcd60e51b815260206004820152601160248201527f496c6c6567616c206f7065726174696f6e0000000000000000000000000000006044820152606401610887565b6000546001600160a01b03163314611060576040517f118cdaa7000000000000000000000000000000000000000000000000000000008152336004820152602401610887565b600080546001600160a01b038381166001600160a01b0319831681178455604051919092169283917f8be0079c531659141344cd1fd0a4f28419497f9722a3daafe3b4186f6b6457e09190a35050565b604051630a85bd0160e11b81526000906001600160a01b0385169063150b7a02906118949033908990889088906004016125b0565b6020604051808303816000875af19250505080156118cf575060408051601f3d908101601f191682019092526118cc918101906125ec565b60015b61192d573d8080156118fd576040519150601f19603f3d011682016040523d82523d6000602084013e611902565b606091505b508051600003611925576040516368d2bf6b60e11b815260040160405180910390fd5b805181602001fd5b6001600160e01b031916630a85bd0160e11b1490505b949350505050565b6001546000829003611989576040517fb562e8dd00000000000000000000000000000000000000000000000000000000815260040160405180910390fd5b61199660008483856116bb565b6001600160a01b03831660008181526006602090815260408083208054680100000000000000018802019055848352600590915281206001851460e11b4260a01b178317905582840190839083907fddf252ad1be2c89b69c2b068fc378daa952ba7f163c4a11628f55a4df523b3ef8180a4600183015b818114611a4557808360007fddf252ad1be2c89b69c2b068fc378daa952ba7f163c4a11628f55a4df523b3ef600080a4600101611a0d565b5081600003611a80576040517f2e07630000000000000000000000000000000000000000000000000000000000815260040160405180910390fd5b60015550505050565b60408051600280825260608201835260009283929190602083019080368337505060105482519293506001600160a01b031691839150600090611ace57611ace612609565b6001600160a01b039283166020918202929092010152600f54825191169082906001908110611aff57611aff612609565b6001600160a01b039283166020918202929092010152600e546040517f38ed173900000000000000000000000000000000000000000000000000000000815260009291909116906338ed173990611b629089908990879030908b9060040161261f565b6000604051808303816000875af1158015611b81573d6000803e3d6000fd5b505050506040513d6000823e601f3d908101601f19168201604052611ba99190810190612690565b90508060018251611bba9190612736565b81518110611bca57611bca612609565b6020026020010151925050509392505050565b604080516001808252818301909252606091600091906020808301908036833701905050600f546040517f3790cf57000000000000000000000000000000000000000000000000000000008152600481018690529192506001600160a01b031690633790cf57906024016020604051808303816000875af1158015611c66573d6000803e3d6000fd5b505050506040513d601f19601f82011682018060405250810190611c8a9190612540565b81600081518110611c9d57611c9d612609565b602090810291909101015292915050565b6060600b8054610a27906122b6565b60606000611cca83611d5d565b600101905060008167ffffffffffffffff811115611cea57611cea612065565b6040519080825280601f01601f191660200182016040528015611d14576020820181803683370190505b5090508181016020015b600019017f3031323334353637383961626364656600000000000000000000000000000000600a86061a8153600a8504945084611d1e57509392505050565b6000807a184f03e93ff9f4daa797ed6e38ed64bf6a1f0100000000000000008310611da6577a184f03e93ff9f4daa797ed6e38ed64bf6a1f010000000000000000830492506040015b6d04ee2d6d415b85acef81000000008310611dd2576d04ee2d6d415b85acef8100000000830492506020015b662386f26fc100008310611df057662386f26fc10000830492506010015b6305f5e1008310611e08576305f5e100830492506008015b6127108310611e1c57612710830492506004015b60648310611e2e576064830492506002015b600a8310610a125760010192915050565b60008060408385031215611e5257600080fd5b50508035926020909101359150565b6001600160e01b0319811681146115fb57600080fd5b600060208284031215611e8957600080fd5b813561151281611e61565b60005b83811015611eaf578181015183820152602001611e97565b50506000910152565b60008151808452611ed0816020860160208601611e94565b601f01601f19169290920160200192915050565b6020815260006115126020830184611eb8565b600060208284031215611f0957600080fd5b5035919050565b80356001600160a01b0381168114611f2757600080fd5b919050565b60008060408385031215611f3f57600080fd5b611f4883611f10565b946020939093013593505050565b60008083601f840112611f6857600080fd5b50813567ffffffffffffffff811115611f8057600080fd5b602083019150836020828501011115611f9857600080fd5b9250929050565b600080600080600060808688031215611fb757600080fd5b611fc086611f10565b9450611fce60208701611f10565b935060408601359250606086013567ffffffffffffffff811115611ff157600080fd5b611ffd88828901611f56565b969995985093965092949392505050565b60008060006060848603121561202357600080fd5b61202c84611f10565b925061203a60208501611f10565b9150604084013590509250925092565b60006020828403121561205c57600080fd5b61151282611f10565b634e487b7160e01b600052604160045260246000fd5b604051601f8201601f1916810167ffffffffffffffff811182821017156120a4576120a4612065565b604052919050565b600067ffffffffffffffff8311156120c6576120c6612065565b6120d9601f8401601f191660200161207b565b90508281528383830111156120ed57600080fd5b828260208301376000602084830101529392505050565b60006020828403121561211657600080fd5b813567ffffffffffffffff81111561212d57600080fd5b8201601f8101841361213e57600080fd5b611943848235602084016120ac565b6000806040838503121561216057600080fd5b61216983611f10565b91506020830135801515811461217e57600080fd5b809150509250929050565b6000806000806080858703121561219f57600080fd5b6121a885611f10565b93506121b660208601611f10565b925060408501359150606085013567ffffffffffffffff8111156121d957600080fd5b8501601f810187136121ea57600080fd5b6121f9878235602084016120ac565b91505092959194509250565b6000806000806000806080878903121561221e57600080fd5b863567ffffffffffffffff8082111561223657600080fd5b6122428a838b01611f56565b9098509650602089013591508082111561225b57600080fd5b5061226889828a01611f56565b979a9699509760408101359660609091013595509350505050565b6000806040838503121561229657600080fd5b61229f83611f10565b91506122ad60208401611f10565b90509250929050565b600181811c908216806122ca57607f821691505b6020821081036122ea57634e487b7160e01b600052602260045260246000fd5b50919050565b601f821115610f6157600081815260208120601f850160051c810160208610156123175750805b601f850160051c820191505b81811015610e5357828155600101612323565b815167ffffffffffffffff81111561235057612350612065565b6123648161235e84546122b6565b846122f0565b602080601f83116001811461239957600084156123815750858301515b600019600386901b1c1916600185901b178555610e53565b600085815260208120601f198616915b828110156123c8578886015182559484019460019091019084016123a9565b50858210156123e65787850151600019600388901b60f8161c191681555b5050505050600190811b01905550565b634e487b7160e01b600052601160045260246000fd5b80820180821115610a1257610a126123f6565b8082028115828204841417610a1257610a126123f6565b60008261245357634e487b7160e01b600052601260045260246000fd5b500490565b81835281816020850137506000828201602090810191909152601f909101601f19169091010190565b60006001600160a01b03808a168352602060c081850152601860c08501527f496e746f2054686520566572736520547265652055736572000000000000000060e0850152610100828b1660408601528060608601526124e38186018a8c612458565b92505083820360808501526124f9828789612458565b84810360a0860152855180825282870193509082019060005b8181101561252e57845183529383019391830191600101612512565b50909c9b505050505050505050505050565b60006020828403121561255257600080fd5b5051919050565b6000835161256b818460208801611e94565b83519083019061257f818360208801611e94565b7f2e6a736f6e0000000000000000000000000000000000000000000000000000009101908152600501949350505050565b60006001600160a01b038087168352808616602084015250836040830152608060608301526125e26080830184611eb8565b9695505050505050565b6000602082840312156125fe57600080fd5b815161151281611e61565b634e487b7160e01b600052603260045260246000fd5b600060a082018783526020878185015260a0604085015281875180845260c086019150828901935060005b8181101561266f5784516001600160a01b03168352938301939183019160010161264a565b50506001600160a01b03969096166060850152505050608001529392505050565b600060208083850312156126a357600080fd5b825167ffffffffffffffff808211156126bb57600080fd5b818501915085601f8301126126cf57600080fd5b8151818111156126e1576126e1612065565b8060051b91506126f284830161207b565b818152918301840191848101908884111561270c57600080fd5b938501935b8385101561272a57845182529385019390850190612711565b98975050505050505050565b81810381811115610a1257610a126123f656fea264697066735822122076b9a789fdff9da4de6ce4fd33a20c101608b8d3c0ea93778b87d14fc1f183b564736f6c63430008140033",
  "linkReferences": {},
  "deployedLinkReferences": {}
}