{
  "_format": "hh-sol-artifact-1",
  "contractName": "TreeContract",
  "sourceName": "contracts/TreeContract.sol",
  "abi": [
    {
      "inputs": [
        {
          "internalType": "string",
          "name": "baseURI",
          "type": "string"
        }
      ],
      "stateMutability": "nonpayable",
      "type": "constructor"
    },
    {
      "inputs": [],
      "name": "ApprovalCallerNotOwnerNorApproved",
      "type": "error"
    },
    {
      "inputs": [],
      "name": "ApprovalQueryForNonexistentToken",
      "type": "error"
    },
    {
      "inputs": [],
      "name": "BalanceQueryForZeroAddress",
      "type": "error"
    },
    {
      "inputs": [],
      "name": "MintERC2309QuantityExceedsLimit",
      "type": "error"
    },
    {
      "inputs": [],
      "name": "MintToZeroAddress",
      "type": "error"
    },
    {
      "inputs": [],
      "name": "MintZeroQuantity",
      "type": "error"
    },
    {
      "inputs": [
        {
          "internalType": "address",
          "name": "owner",
          "type": "address"
        }
      ],
      "name": "OwnableInvalidOwner",
      "type": "error"
    },
    {
      "inputs": [
        {
          "internalType": "address",
          "name": "account",
          "type": "address"
        }
      ],
      "name": "OwnableUnauthorizedAccount",
      "type": "error"
    },
    {
      "inputs": [],
      "name": "OwnerQueryForNonexistentToken",
      "type": "error"
    },
    {
      "inputs": [],
      "name": "OwnershipNotInitializedForExtraData",
      "type": "error"
    },
    {
      "inputs": [],
      "name": "TransferCallerNotOwnerNorApproved",
      "type": "error"
    },
    {
      "inputs": [],
      "name": "TransferFromIncorrectOwner",
      "type": "error"
    },
    {
      "inputs": [],
      "name": "TransferToNonERC721ReceiverImplementer",
      "type": "error"
    },
    {
      "inputs": [],
      "name": "TransferToZeroAddress",
      "type": "error"
    },
    {
      "inputs": [],
      "name": "URIQueryForNonexistentToken",
      "type": "error"
    },
    {
      "anonymous": false,
      "inputs": [
        {
          "indexed": true,
          "internalType": "address",
          "name": "owner",
          "type": "address"
        },
        {
          "indexed": true,
          "internalType": "address",
          "name": "approved",
          "type": "address"
        },
        {
          "indexed": true,
          "internalType": "uint256",
          "name": "tokenId",
          "type": "uint256"
        }
      ],
      "name": "Approval",
      "type": "event"
    },
    {
      "anonymous": false,
      "inputs": [
        {
          "indexed": true,
          "internalType": "address",
          "name": "owner",
          "type": "address"
        },
        {
          "indexed": true,
          "internalType": "address",
          "name": "operator",
          "type": "address"
        },
        {
          "indexed": false,
          "internalType": "bool",
          "name": "approved",
          "type": "bool"
        }
      ],
      "name": "ApprovalForAll",
      "type": "event"
    },
    {
      "anonymous": false,
      "inputs": [
        {
          "indexed": true,
          "internalType": "uint256",
          "name": "fromTokenId",
          "type": "uint256"
        },
        {
          "indexed": false,
          "internalType": "uint256",
          "name": "toTokenId",
          "type": "uint256"
        },
        {
          "indexed": true,
          "internalType": "address",
          "name": "from",
          "type": "address"
        },
        {
          "indexed": true,
          "internalType": "address",
          "name": "to",
          "type": "address"
        }
      ],
      "name": "ConsecutiveTransfer",
      "type": "event"
    },
    {
      "anonymous": false,
      "inputs": [
        {
          "indexed": true,
          "internalType": "address",
          "name": "previousOwner",
          "type": "address"
        },
        {
          "indexed": true,
          "internalType": "address",
          "name": "newOwner",
          "type": "address"
        }
      ],
      "name": "OwnershipTransferred",
      "type": "event"
    },
    {
      "anonymous": false,
      "inputs": [
        {
          "indexed": true,
          "internalType": "address",
          "name": "from",
          "type": "address"
        },
        {
          "indexed": true,
          "internalType": "address",
          "name": "to",
          "type": "address"
        },
        {
          "indexed": true,
          "internalType": "uint256",
          "name": "tokenId",
          "type": "uint256"
        }
      ],
      "name": "Transfer",
      "type": "event"
    },
    {
      "inputs": [],
      "name": "_baseTokenURI",
      "outputs": [
        {
          "internalType": "string",
          "name": "",
          "type": "string"
        }
      ],
      "stateMutability": "view",
      "type": "function"
    },
    {
      "inputs": [
        {
          "internalType": "address",
          "name": "to",
          "type": "address"
        },
        {
          "internalType": "uint256",
          "name": "tokenId",
          "type": "uint256"
        }
      ],
      "name": "approve",
      "outputs": [],
      "stateMutability": "payable",
      "type": "function"
    },
    {
      "inputs": [
        {
          "internalType": "address",
          "name": "owner",
          "type": "address"
        }
      ],
      "name": "balanceOf",
      "outputs": [
        {
          "internalType": "uint256",
          "name": "",
          "type": "uint256"
        }
      ],
      "stateMutability": "view",
      "type": "function"
    },
    {
      "inputs": [],
      "name": "cost",
      "outputs": [
        {
          "internalType": "uint256",
          "name": "",
          "type": "uint256"
        }
      ],
      "stateMutability": "view",
      "type": "function"
    },
    {
      "inputs": [],
      "name": "decayPeriod",
      "outputs": [
        {
          "internalType": "uint256",
          "name": "",
          "type": "uint256"
        }
      ],
      "stateMutability": "view",
      "type": "function"
    },
    {
      "inputs": [],
      "name": "decayRate",
      "outputs": [
        {
          "internalType": "uint256",
          "name": "",
          "type": "uint256"
        }
      ],
      "stateMutability": "view",
      "type": "function"
    },
    {
      "inputs": [
        {
          "internalType": "uint256",
          "name": "_tokenId",
          "type": "uint256"
        }
      ],
      "name": "downgradeTree",
      "outputs": [],
      "stateMutability": "nonpayable",
      "type": "function"
    },
    {
      "inputs": [
        {
          "internalType": "uint256",
          "name": "tokenId",
          "type": "uint256"
        }
      ],
      "name": "getApproved",
      "outputs": [
        {
          "internalType": "address",
          "name": "",
          "type": "address"
        }
      ],
      "stateMutability": "view",
      "type": "function"
    },
    {
      "inputs": [
        {
          "internalType": "uint256",
          "name": "_tokenId",
          "type": "uint256"
        }
      ],
      "name": "getLastWatered",
      "outputs": [
        {
          "internalType": "uint256",
          "name": "",
          "type": "uint256"
        }
      ],
      "stateMutability": "view",
      "type": "function"
    },
    {
      "inputs": [],
      "name": "greenDonationContract",
      "outputs": [
        {
          "internalType": "address",
          "name": "",
          "type": "address"
        }
      ],
      "stateMutability": "view",
      "type": "function"
    },
    {
      "inputs": [
        {
          "internalType": "address",
          "name": "owner",
          "type": "address"
        },
        {
          "internalType": "address",
          "name": "operator",
          "type": "address"
        }
      ],
      "name": "isApprovedForAll",
      "outputs": [
        {
          "internalType": "bool",
          "name": "",
          "type": "bool"
        }
      ],
      "stateMutability": "view",
      "type": "function"
    },
    {
      "inputs": [],
      "name": "maxSupply",
      "outputs": [
        {
          "internalType": "uint256",
          "name": "",
          "type": "uint256"
        }
      ],
      "stateMutability": "view",
      "type": "function"
    },
    {
      "inputs": [
        {
          "internalType": "uint256",
          "name": "_quantity",
          "type": "uint256"
        }
      ],
      "name": "mint",
      "outputs": [],
      "stateMutability": "payable",
      "type": "function"
    },
    {
      "inputs": [],
      "name": "name",
      "outputs": [
        {
          "internalType": "string",
          "name": "",
          "type": "string"
        }
      ],
      "stateMutability": "view",
      "type": "function"
    },
    {
      "inputs": [],
      "name": "owner",
      "outputs": [
        {
          "internalType": "address",
          "name": "",
          "type": "address"
        }
      ],
      "stateMutability": "view",
      "type": "function"
    },
    {
      "inputs": [
        {
          "internalType": "uint256",
          "name": "tokenId",
          "type": "uint256"
        }
      ],
      "name": "ownerOf",
      "outputs": [
        {
          "internalType": "address",
          "name": "",
          "type": "address"
        }
      ],
      "stateMutability": "view",
      "type": "function"
    },
    {
      "inputs": [],
      "name": "renounceOwnership",
      "outputs": [],
      "stateMutability": "nonpayable",
      "type": "function"
    },
    {
      "inputs": [
        {
          "internalType": "address",
          "name": "from",
          "type": "address"
        },
        {
          "internalType": "address",
          "name": "to",
          "type": "address"
        },
        {
          "internalType": "uint256",
          "name": "tokenId",
          "type": "uint256"
        }
      ],
      "name": "safeTransferFrom",
      "outputs": [],
      "stateMutability": "payable",
      "type": "function"
    },
    {
      "inputs": [
        {
          "internalType": "address",
          "name": "from",
          "type": "address"
        },
        {
          "internalType": "address",
          "name": "to",
          "type": "address"
        },
        {
          "internalType": "uint256",
          "name": "tokenId",
          "type": "uint256"
        },
        {
          "internalType": "bytes",
          "name": "_data",
          "type": "bytes"
        }
      ],
      "name": "safeTransferFrom",
      "outputs": [],
      "stateMutability": "payable",
      "type": "function"
    },
    {
      "inputs": [
        {
          "internalType": "address",
          "name": "operator",
          "type": "address"
        },
        {
          "internalType": "bool",
          "name": "approved",
          "type": "bool"
        }
      ],
      "name": "setApprovalForAll",
      "outputs": [],
      "stateMutability": "nonpayable",
      "type": "function"
    },
    {
      "inputs": [
        {
          "internalType": "string",
          "name": "_uri",
          "type": "string"
        }
      ],
      "name": "setBaseURI",
      "outputs": [],
      "stateMutability": "nonpayable",
      "type": "function"
    },
    {
      "inputs": [
        {
          "internalType": "uint256",
          "name": "_cost",
          "type": "uint256"
        }
      ],
      "name": "setCost",
      "outputs": [],
      "stateMutability": "nonpayable",
      "type": "function"
    },
    {
      "inputs": [
        {
          "internalType": "address",
          "name": "_greenDonationContract",
          "type": "address"
        }
      ],
      "name": "setGreenDonationContract",
      "outputs": [],
      "stateMutability": "nonpayable",
      "type": "function"
    },
    {
      "inputs": [
        {
          "internalType": "bytes4",
          "name": "interfaceId",
          "type": "bytes4"
        }
      ],
      "name": "supportsInterface",
      "outputs": [
        {
          "internalType": "bool",
          "name": "",
          "type": "bool"
        }
      ],
      "stateMutability": "view",
      "type": "function"
    },
    {
      "inputs": [],
      "name": "symbol",
      "outputs": [
        {
          "internalType": "string",
          "name": "",
          "type": "string"
        }
      ],
      "stateMutability": "view",
      "type": "function"
    },
    {
      "inputs": [
        {
          "internalType": "uint256",
          "name": "tokenId",
          "type": "uint256"
        }
      ],
      "name": "tokenURI",
      "outputs": [
        {
          "internalType": "string",
          "name": "",
          "type": "string"
        }
      ],
      "stateMutability": "view",
      "type": "function"
    },
    {
      "inputs": [],
      "name": "totalSupply",
      "outputs": [
        {
          "internalType": "uint256",
          "name": "",
          "type": "uint256"
        }
      ],
      "stateMutability": "view",
      "type": "function"
    },
    {
      "inputs": [
        {
          "internalType": "address",
          "name": "from",
          "type": "address"
        },
        {
          "internalType": "address",
          "name": "to",
          "type": "address"
        },
        {
          "internalType": "uint256",
          "name": "tokenId",
          "type": "uint256"
        }
      ],
      "name": "transferFrom",
      "outputs": [],
      "stateMutability": "payable",
      "type": "function"
    },
    {
      "inputs": [
        {
          "internalType": "address",
          "name": "newOwner",
          "type": "address"
        }
      ],
      "name": "transferOwnership",
      "outputs": [],
      "stateMutability": "nonpayable",
      "type": "function"
    },
    {
      "inputs": [
        {
          "internalType": "uint256",
          "name": "",
          "type": "uint256"
        }
      ],
      "name": "trees",
      "outputs": [
        {
          "internalType": "uint256",
          "name": "level",
          "type": "uint256"
        },
        {
          "internalType": "uint256",
          "name": "lastWatered",
          "type": "uint256"
        }
      ],
      "stateMutability": "view",
      "type": "function"
    },
    {
      "inputs": [
        {
          "internalType": "uint256",
          "name": "_tokenId",
          "type": "uint256"
        }
      ],
      "name": "waterTree",
      "outputs": [],
      "stateMutability": "nonpayable",
      "type": "function"
    },
    {
      "inputs": [],
      "name": "withdraw",
      "outputs": [],
      "stateMutability": "nonpayable",
      "type": "function"
    }
  ],
  "bytecode": "0x608060405260006009553480156200001657600080fd5b5060405162003ae538038062003ae583398181016040528101906200003c9190620003e5565b6040518060400160405280600d81526020017f5472656520436f6e7472616374000000000000000000000000000000000000008152506040518060400160405280600381526020017f544354000000000000000000000000000000000000000000000000000000000081525033600073ffffffffffffffffffffffffffffffffffffffff168173ffffffffffffffffffffffffffffffffffffffff16036200011e5760006040517f1e4fbdf70000000000000000000000000000000000000000000000000000000081526004016200011591906200047b565b60405180910390fd5b6200012f816200018560201b60201c565b508160039081620001419190620006e3565b508060049081620001539190620006e3565b50620001646200024960201b60201c565b600181905550505080600a90816200017d9190620006e3565b5050620007ca565b60008060009054906101000a900473ffffffffffffffffffffffffffffffffffffffff169050816000806101000a81548173ffffffffffffffffffffffffffffffffffffffff021916908373ffffffffffffffffffffffffffffffffffffffff1602179055508173ffffffffffffffffffffffffffffffffffffffff168173ffffffffffffffffffffffffffffffffffffffff167f8be0079c531659141344cd1fd0a4f28419497f9722a3daafe3b4186f6b6457e060405160405180910390a35050565b60006001905090565b6000604051905090565b600080fd5b600080fd5b600080fd5b600080fd5b6000601f19601f8301169050919050565b7f4e487b7100000000000000000000000000000000000000000000000000000000600052604160045260246000fd5b620002bb8262000270565b810181811067ffffffffffffffff82111715620002dd57620002dc62000281565b5b80604052505050565b6000620002f262000252565b9050620003008282620002b0565b919050565b600067ffffffffffffffff82111562000323576200032262000281565b5b6200032e8262000270565b9050602081019050919050565b60005b838110156200035b5780820151818401526020810190506200033e565b60008484015250505050565b60006200037e620003788462000305565b620002e6565b9050828152602081018484840111156200039d576200039c6200026b565b5b620003aa8482856200033b565b509392505050565b600082601f830112620003ca57620003c962000266565b5b8151620003dc84826020860162000367565b91505092915050565b600060208284031215620003fe57620003fd6200025c565b5b600082015167ffffffffffffffff8111156200041f576200041e62000261565b5b6200042d84828501620003b2565b91505092915050565b600073ffffffffffffffffffffffffffffffffffffffff82169050919050565b6000620004638262000436565b9050919050565b620004758162000456565b82525050565b60006020820190506200049260008301846200046a565b92915050565b600081519050919050565b7f4e487b7100000000000000000000000000000000000000000000000000000000600052602260045260246000fd5b60006002820490506001821680620004eb57607f821691505b602082108103620005015762000500620004a3565b5b50919050565b60008190508160005260206000209050919050565b60006020601f8301049050919050565b600082821b905092915050565b6000600883026200056b7fffffffffffffffffffffffffffffffffffffffffffffffffffffffffffffffff826200052c565b6200057786836200052c565b95508019841693508086168417925050509392505050565b6000819050919050565b6000819050919050565b6000620005c4620005be620005b8846200058f565b62000599565b6200058f565b9050919050565b6000819050919050565b620005e083620005a3565b620005f8620005ef82620005cb565b84845462000539565b825550505050565b600090565b6200060f62000600565b6200061c818484620005d5565b505050565b5b8181101562000644576200063860008262000605565b60018101905062000622565b5050565b601f82111562000693576200065d8162000507565b62000668846200051c565b8101602085101562000678578190505b6200069062000687856200051c565b83018262000621565b50505b505050565b600082821c905092915050565b6000620006b86000198460080262000698565b1980831691505092915050565b6000620006d38383620006a5565b9150826002028217905092915050565b620006ee8262000498565b67ffffffffffffffff8111156200070a576200070962000281565b5b620007168254620004d2565b6200072382828562000648565b600060209050601f8311600181146200075b576000841562000746578287015190505b620007528582620006c5565b865550620007c2565b601f1984166200076b8662000507565b60005b8281101562000795578489015182556001820191506020850194506020810190506200076e565b86831015620007b55784890151620007b1601f891682620006a5565b8355505b6001600288020188555050505b505050505050565b61330b80620007da6000396000f3fe6080604052600436106101e35760003560e01c8063715018a611610102578063a9c1f2f111610095578063d5abeb0111610064578063d5abeb011461069e578063e3a3ed75146106c9578063e985e9c5146106f2578063f2fde38b1461072f576101e3565b8063a9c1f2f1146105ef578063b88d4fde1461061a578063c87b56dd14610636578063cfc86f7b14610673576101e3565b806395d89b41116100d157806395d89b4114610556578063998b723b14610581578063a0712d68146105aa578063a22cb465146105c6576101e3565b8063715018a6146104ab5780637a508022146104c25780638378e58f146105005780638da5cb5b1461052b576101e3565b80633ccfd60b1161017a57806355f804b31161014957806355f804b3146103df5780636352211e1461040857806364c902421461044557806370a082311461046e576101e3565b80633ccfd60b1461035857806342842e0e1461036f57806344a0d68a1461038b57806348d67e1b146103b4576101e3565b806313bc5135116101b657806313bc5135146102a957806313faede6146102e657806318160ddd1461031157806323b872dd1461033c576101e3565b806301ffc9a7146101e857806306fdde0314610225578063081812fc14610250578063095ea7b31461028d575b600080fd5b3480156101f457600080fd5b5061020f600480360381019061020a91906122f2565b610758565b60405161021c919061233a565b60405180910390f35b34801561023157600080fd5b5061023a6107ea565b60405161024791906123e5565b60405180910390f35b34801561025c57600080fd5b506102776004803603810190610272919061243d565b61087c565b60405161028491906124ab565b60405180910390f35b6102a760048036038101906102a291906124f2565b6108fb565b005b3480156102b557600080fd5b506102d060048036038101906102cb919061243d565b610a3f565b6040516102dd9190612541565b60405180910390f35b3480156102f257600080fd5b506102fb610a5f565b6040516103089190612541565b60405180910390f35b34801561031d57600080fd5b50610326610a65565b6040516103339190612541565b60405180910390f35b6103566004803603810190610351919061255c565b610a7c565b005b34801561036457600080fd5b5061036d610d9e565b005b6103896004803603810190610384919061255c565b610e62565b005b34801561039757600080fd5b506103b260048036038101906103ad919061243d565b610e82565b005b3480156103c057600080fd5b506103c9610e94565b6040516103d69190612541565b60405180910390f35b3480156103eb57600080fd5b50610406600480360381019061040191906126e4565b610e9b565b005b34801561041457600080fd5b5061042f600480360381019061042a919061243d565b610eb6565b60405161043c91906124ab565b60405180910390f35b34801561045157600080fd5b5061046c6004803603810190610467919061272d565b610ec8565b005b34801561047a57600080fd5b506104956004803603810190610490919061272d565b610f14565b6040516104a29190612541565b60405180910390f35b3480156104b757600080fd5b506104c0610fcc565b005b3480156104ce57600080fd5b506104e960048036038101906104e4919061243d565b610fe0565b6040516104f792919061275a565b60405180910390f35b34801561050c57600080fd5b50610515611004565b60405161052291906124ab565b60405180910390f35b34801561053757600080fd5b5061054061102a565b60405161054d91906124ab565b60405180910390f35b34801561056257600080fd5b5061056b611053565b60405161057891906123e5565b60405180910390f35b34801561058d57600080fd5b506105a860048036038101906105a3919061243d565b6110e5565b005b6105c460048036038101906105bf919061243d565b61128c565b005b3480156105d257600080fd5b506105ed60048036038101906105e891906127af565b61139c565b005b3480156105fb57600080fd5b506106046114a7565b6040516106119190612541565b60405180910390f35b610634600480360381019061062f9190612890565b6114ac565b005b34801561064257600080fd5b5061065d6004803603810190610658919061243d565b61151f565b60405161066a91906123e5565b60405180910390f35b34801561067f57600080fd5b506106886115c6565b60405161069591906123e5565b60405180910390f35b3480156106aa57600080fd5b506106b3611654565b6040516106c09190612541565b60405180910390f35b3480156106d557600080fd5b506106f060048036038101906106eb919061243d565b61165a565b005b3480156106fe57600080fd5b5061071960048036038101906107149190612913565b611781565b604051610726919061233a565b60405180910390f35b34801561073b57600080fd5b506107566004803603810190610751919061272d565b611815565b005b60006301ffc9a760e01b827bffffffffffffffffffffffffffffffffffffffffffffffffffffffff191614806107b357506380ac58cd60e01b827bffffffffffffffffffffffffffffffffffffffffffffffffffffffff1916145b806107e35750635b5e139f60e01b827bffffffffffffffffffffffffffffffffffffffffffffffffffffffff1916145b9050919050565b6060600380546107f990612982565b80601f016020809104026020016040519081016040528092919081815260200182805461082590612982565b80156108725780601f1061084757610100808354040283529160200191610872565b820191906000526020600020905b81548152906001019060200180831161085557829003601f168201915b5050505050905090565b60006108878261189b565b6108bd576040517fcf4700e400000000000000000000000000000000000000000000000000000000815260040160405180910390fd5b6007600083815260200190815260200160002060000160009054906101000a900473ffffffffffffffffffffffffffffffffffffffff169050919050565b600061090682610eb6565b90508073ffffffffffffffffffffffffffffffffffffffff166109276118fa565b73ffffffffffffffffffffffffffffffffffffffff161461098a576109538161094e6118fa565b611781565b610989576040517fcfb3b94200000000000000000000000000000000000000000000000000000000815260040160405180910390fd5b5b826007600084815260200190815260200160002060000160006101000a81548173ffffffffffffffffffffffffffffffffffffffff021916908373ffffffffffffffffffffffffffffffffffffffff160217905550818373ffffffffffffffffffffffffffffffffffffffff168273ffffffffffffffffffffffffffffffffffffffff167f8c5be1e5ebec7d5bd14f71427d1e84f3dd0314c0f7b2291e5b200ac8c7c3b92560405160405180910390a4505050565b6000600c6000838152602001908152602001600020600101549050919050565b60095481565b6000610a6f611902565b6002546001540303905090565b6000610a878261190b565b90508373ffffffffffffffffffffffffffffffffffffffff168173ffffffffffffffffffffffffffffffffffffffff1614610aee576040517fa114810000000000000000000000000000000000000000000000000000000000815260040160405180910390fd5b600080610afa846119d7565b91509150610b108187610b0b6118fa565b6119fe565b610b5c57610b2586610b206118fa565b611781565b610b5b576040517f59c896be00000000000000000000000000000000000000000000000000000000815260040160405180910390fd5b5b600073ffffffffffffffffffffffffffffffffffffffff168573ffffffffffffffffffffffffffffffffffffffff1603610bc2576040517fea553b3400000000000000000000000000000000000000000000000000000000815260040160405180910390fd5b610bcf8686866001611a42565b8015610bda57600082555b600660008773ffffffffffffffffffffffffffffffffffffffff1673ffffffffffffffffffffffffffffffffffffffff168152602001908152602001600020600081546001900391905081905550600660008673ffffffffffffffffffffffffffffffffffffffff1673ffffffffffffffffffffffffffffffffffffffff1681526020019081526020016000206000815460010191905081905550610ca885610c84888887611a48565b7c020000000000000000000000000000000000000000000000000000000017611a70565b600560008681526020019081526020016000208190555060007c0200000000000000000000000000000000000000000000000000000000841603610d2e5760006001850190506000600560008381526020019081526020016000205403610d2c576001548114610d2b578360056000838152602001908152602001600020819055505b5b505b838573ffffffffffffffffffffffffffffffffffffffff168773ffffffffffffffffffffffffffffffffffffffff167fddf252ad1be2c89b69c2b068fc378daa952ba7f163c4a11628f55a4df523b3ef60405160405180910390a4610d968686866001611a9b565b505050505050565b610da6611aa1565b60004790506000610db561102a565b73ffffffffffffffffffffffffffffffffffffffff1682604051610dd8906129e4565b60006040518083038185875af1925050503d8060008114610e15576040519150601f19603f3d011682016040523d82523d6000602084013e610e1a565b606091505b5050905080610e5e576040517f08c379a0000000000000000000000000000000000000000000000000000000008152600401610e5590612a45565b60405180910390fd5b5050565b610e7d838383604051806020016040528060008152506114ac565b505050565b610e8a611aa1565b8060098190555050565b62093a8081565b610ea3611aa1565b80600a9081610eb29190612c11565b5050565b6000610ec18261190b565b9050919050565b610ed0611aa1565b80600b60006101000a81548173ffffffffffffffffffffffffffffffffffffffff021916908373ffffffffffffffffffffffffffffffffffffffff16021790555050565b60008073ffffffffffffffffffffffffffffffffffffffff168273ffffffffffffffffffffffffffffffffffffffff1603610f7b576040517f8f4eb60400000000000000000000000000000000000000000000000000000000815260040160405180910390fd5b67ffffffffffffffff600660008473ffffffffffffffffffffffffffffffffffffffff1673ffffffffffffffffffffffffffffffffffffffff16815260200190815260200160002054169050919050565b610fd4611aa1565b610fde6000611b28565b565b600c6020528060005260406000206000915090508060000154908060010154905082565b600b60009054906101000a900473ffffffffffffffffffffffffffffffffffffffff1681565b60008060009054906101000a900473ffffffffffffffffffffffffffffffffffffffff16905090565b60606004805461106290612982565b80601f016020809104026020016040519081016040528092919081815260200182805461108e90612982565b80156110db5780601f106110b0576101008083540402835291602001916110db565b820191906000526020600020905b8154815290600101906020018083116110be57829003601f168201915b5050505050905090565b600b60009054906101000a900473ffffffffffffffffffffffffffffffffffffffff1673ffffffffffffffffffffffffffffffffffffffff163373ffffffffffffffffffffffffffffffffffffffff1614611175576040517f08c379a000000000000000000000000000000000000000000000000000000000815260040161116c90612d55565b60405180910390fd5b61117e8161189b565b6111bd576040517f08c379a00000000000000000000000000000000000000000000000000000000081526004016111b490612dc1565b60405180910390fd5b60006111c882611bec565b905060008111156112415780600c60008481526020019081526020016000206000015411156112235780600c600084815260200190815260200160002060000160008282546112179190612e10565b92505081905550611240565b6001600c6000848152602001908152602001600020600001819055505b5b42600c600084815260200190815260200160002060010181905550600c6000838152602001908152602001600020600001600081548092919061128390612e44565b91905055505050565b6000611296611c3c565b9050600a826112a433611c4f565b6112ae9190612e8c565b11156112ef576040517f08c379a00000000000000000000000000000000000000000000000000000000081526004016112e690612f0c565b60405180910390fd5b61271082826112fe9190612e8c565b111561133f576040517f08c379a000000000000000000000000000000000000000000000000000000000815260040161133690612f78565b60405180910390fd5b8160095461134d9190612f98565b341461138e576040517f08c379a000000000000000000000000000000000000000000000000000000000815260040161138590613026565b60405180910390fd5b6113983383611ca6565b5050565b80600860006113a96118fa565b73ffffffffffffffffffffffffffffffffffffffff1673ffffffffffffffffffffffffffffffffffffffff16815260200190815260200160002060008473ffffffffffffffffffffffffffffffffffffffff1673ffffffffffffffffffffffffffffffffffffffff16815260200190815260200160002060006101000a81548160ff0219169083151502179055508173ffffffffffffffffffffffffffffffffffffffff166114566118fa565b73ffffffffffffffffffffffffffffffffffffffff167f17307eab39ab6107e8899845ad3d59bd9653f200f220920489ca2b5937696c318360405161149b919061233a565b60405180910390a35050565b600181565b6114b7848484610a7c565b60008373ffffffffffffffffffffffffffffffffffffffff163b14611519576114e284848484611e62565b611518576040517fd1a57ed600000000000000000000000000000000000000000000000000000000815260040160405180910390fd5b5b50505050565b606061152a8261189b565b611569576040517f08c379a000000000000000000000000000000000000000000000000000000000815260040161156090613092565b60405180910390fd5b6000611573611fb2565b9050600081511161159357604051806020016040528060008152506115be565b8061159d84612044565b6040516020016115ae92919061313a565b6040516020818303038152906040525b915050919050565b600a80546115d390612982565b80601f01602080910402602001604051908101604052809291908181526020018280546115ff90612982565b801561164c5780601f106116215761010080835404028352916020019161164c565b820191906000526020600020905b81548152906001019060200180831161162f57829003601f168201915b505050505081565b61271081565b600b60009054906101000a900473ffffffffffffffffffffffffffffffffffffffff1673ffffffffffffffffffffffffffffffffffffffff163373ffffffffffffffffffffffffffffffffffffffff16146116ea576040517f08c379a00000000000000000000000000000000000000000000000000000000081526004016116e190612d55565b60405180910390fd5b6116f38161189b565b611732576040517f08c379a000000000000000000000000000000000000000000000000000000000815260040161172990612dc1565b60405180910390fd5b6001600c600083815260200190815260200160002060000154111561177e57600c6000828152602001908152602001600020600001600081548092919061177890613169565b91905055505b50565b6000600860008473ffffffffffffffffffffffffffffffffffffffff1673ffffffffffffffffffffffffffffffffffffffff16815260200190815260200160002060008373ffffffffffffffffffffffffffffffffffffffff1673ffffffffffffffffffffffffffffffffffffffff16815260200190815260200160002060009054906101000a900460ff16905092915050565b61181d611aa1565b600073ffffffffffffffffffffffffffffffffffffffff168173ffffffffffffffffffffffffffffffffffffffff160361188f5760006040517f1e4fbdf700000000000000000000000000000000000000000000000000000000815260040161188691906124ab565b60405180910390fd5b61189881611b28565b50565b6000816118a6611902565b111580156118b5575060015482105b80156118f3575060007c0100000000000000000000000000000000000000000000000000000000600560008581526020019081526020016000205416145b9050919050565b600033905090565b60006001905090565b6000808290508061191a611902565b116119a05760015481101561199f5760006005600083815260200190815260200160002054905060007c010000000000000000000000000000000000000000000000000000000082160361199d575b60008103611993576005600083600190039350838152602001908152602001600020549050611969565b80925050506119d2565b505b5b6040517fdf2d9b4200000000000000000000000000000000000000000000000000000000815260040160405180910390fd5b919050565b60008060006007600085815260200190815260200160002090508092508254915050915091565b600073ffffffffffffffffffffffffffffffffffffffff8316925073ffffffffffffffffffffffffffffffffffffffff821691508382148383141790509392505050565b50505050565b60008060e883901c905060e8611a5f868684612112565b62ffffff16901b9150509392505050565b600073ffffffffffffffffffffffffffffffffffffffff83169250814260a01b178317905092915050565b50505050565b611aa961211b565b73ffffffffffffffffffffffffffffffffffffffff16611ac761102a565b73ffffffffffffffffffffffffffffffffffffffff1614611b2657611aea61211b565b6040517f118cdaa7000000000000000000000000000000000000000000000000000000008152600401611b1d91906124ab565b60405180910390fd5b565b60008060009054906101000a900473ffffffffffffffffffffffffffffffffffffffff169050816000806101000a81548173ffffffffffffffffffffffffffffffffffffffff021916908373ffffffffffffffffffffffffffffffffffffffff1602179055508173ffffffffffffffffffffffffffffffffffffffff168173ffffffffffffffffffffffffffffffffffffffff167f8be0079c531659141344cd1fd0a4f28419497f9722a3daafe3b4186f6b6457e060405160405180910390a35050565b600080600c60008481526020019081526020016000206001015442611c119190612e10565b9050600062093a8082611c2491906131c1565b9050600181611c339190612f98565b92505050919050565b6000611c46611902565b60015403905090565b600067ffffffffffffffff6040600660008573ffffffffffffffffffffffffffffffffffffffff1673ffffffffffffffffffffffffffffffffffffffff16815260200190815260200160002054901c169050919050565b6000600154905060008203611ce7576040517fb562e8dd00000000000000000000000000000000000000000000000000000000815260040160405180910390fd5b611cf46000848385611a42565b600160406001901b178202600660008573ffffffffffffffffffffffffffffffffffffffff1673ffffffffffffffffffffffffffffffffffffffff16815260200190815260200160002060008282540192505081905550611d6b83611d5c6000866000611a48565b611d6585612123565b17611a70565b6005600083815260200190815260200160002081905550600080838301905073ffffffffffffffffffffffffffffffffffffffff85169150828260007fddf252ad1be2c89b69c2b068fc378daa952ba7f163c4a11628f55a4df523b3ef600080a4600183015b818114611e0c57808360007fddf252ad1be2c89b69c2b068fc378daa952ba7f163c4a11628f55a4df523b3ef600080a4600181019050611dd1565b5060008203611e47576040517f2e07630000000000000000000000000000000000000000000000000000000000815260040160405180910390fd5b806001819055505050611e5d6000848385611a9b565b505050565b60008373ffffffffffffffffffffffffffffffffffffffff1663150b7a02611e886118fa565b8786866040518563ffffffff1660e01b8152600401611eaa9493929190613247565b6020604051808303816000875af1925050508015611ee657506040513d601f19601f82011682018060405250810190611ee391906132a8565b60015b611f5f573d8060008114611f16576040519150601f19603f3d011682016040523d82523d6000602084013e611f1b565b606091505b506000815103611f57576040517fd1a57ed600000000000000000000000000000000000000000000000000000000815260040160405180910390fd5b805181602001fd5b63150b7a0260e01b7bffffffffffffffffffffffffffffffffffffffffffffffffffffffff1916817bffffffffffffffffffffffffffffffffffffffffffffffffffffffff191614915050949350505050565b6060600a8054611fc190612982565b80601f0160208091040260200160405190810160405280929190818152602001828054611fed90612982565b801561203a5780601f1061200f5761010080835404028352916020019161203a565b820191906000526020600020905b81548152906001019060200180831161201d57829003601f168201915b5050505050905090565b60606000600161205384612133565b01905060008167ffffffffffffffff811115612072576120716125b9565b5b6040519080825280601f01601f1916602001820160405280156120a45781602001600182028036833780820191505090505b509050600082602001820190505b600115612107578080600190039150507f3031323334353637383961626364656600000000000000000000000000000000600a86061a8153600a85816120fb576120fa613192565b5b049450600085036120b2575b819350505050919050565b60009392505050565b600033905090565b60006001821460e11b9050919050565b600080600090507a184f03e93ff9f4daa797ed6e38ed64bf6a1f0100000000000000008310612191577a184f03e93ff9f4daa797ed6e38ed64bf6a1f010000000000000000838161218757612186613192565b5b0492506040810190505b6d04ee2d6d415b85acef810000000083106121ce576d04ee2d6d415b85acef810000000083816121c4576121c3613192565b5b0492506020810190505b662386f26fc1000083106121fd57662386f26fc1000083816121f3576121f2613192565b5b0492506010810190505b6305f5e1008310612226576305f5e100838161221c5761221b613192565b5b0492506008810190505b612710831061224b57612710838161224157612240613192565b5b0492506004810190505b6064831061226e576064838161226457612263613192565b5b0492506002810190505b600a831061227d576001810190505b80915050919050565b6000604051905090565b600080fd5b600080fd5b60007fffffffff0000000000000000000000000000000000000000000000000000000082169050919050565b6122cf8161229a565b81146122da57600080fd5b50565b6000813590506122ec816122c6565b92915050565b60006020828403121561230857612307612290565b5b6000612316848285016122dd565b91505092915050565b60008115159050919050565b6123348161231f565b82525050565b600060208201905061234f600083018461232b565b92915050565b600081519050919050565b600082825260208201905092915050565b60005b8381101561238f578082015181840152602081019050612374565b60008484015250505050565b6000601f19601f8301169050919050565b60006123b782612355565b6123c18185612360565b93506123d1818560208601612371565b6123da8161239b565b840191505092915050565b600060208201905081810360008301526123ff81846123ac565b905092915050565b6000819050919050565b61241a81612407565b811461242557600080fd5b50565b60008135905061243781612411565b92915050565b60006020828403121561245357612452612290565b5b600061246184828501612428565b91505092915050565b600073ffffffffffffffffffffffffffffffffffffffff82169050919050565b60006124958261246a565b9050919050565b6124a58161248a565b82525050565b60006020820190506124c0600083018461249c565b92915050565b6124cf8161248a565b81146124da57600080fd5b50565b6000813590506124ec816124c6565b92915050565b6000806040838503121561250957612508612290565b5b6000612517858286016124dd565b925050602061252885828601612428565b9150509250929050565b61253b81612407565b82525050565b60006020820190506125566000830184612532565b92915050565b60008060006060848603121561257557612574612290565b5b6000612583868287016124dd565b9350506020612594868287016124dd565b92505060406125a586828701612428565b9150509250925092565b600080fd5b600080fd5b7f4e487b7100000000000000000000000000000000000000000000000000000000600052604160045260246000fd5b6125f18261239b565b810181811067ffffffffffffffff821117156126105761260f6125b9565b5b80604052505050565b6000612623612286565b905061262f82826125e8565b919050565b600067ffffffffffffffff82111561264f5761264e6125b9565b5b6126588261239b565b9050602081019050919050565b82818337600083830152505050565b600061268761268284612634565b612619565b9050828152602081018484840111156126a3576126a26125b4565b5b6126ae848285612665565b509392505050565b600082601f8301126126cb576126ca6125af565b5b81356126db848260208601612674565b91505092915050565b6000602082840312156126fa576126f9612290565b5b600082013567ffffffffffffffff81111561271857612717612295565b5b612724848285016126b6565b91505092915050565b60006020828403121561274357612742612290565b5b6000612751848285016124dd565b91505092915050565b600060408201905061276f6000830185612532565b61277c6020830184612532565b9392505050565b61278c8161231f565b811461279757600080fd5b50565b6000813590506127a981612783565b92915050565b600080604083850312156127c6576127c5612290565b5b60006127d4858286016124dd565b92505060206127e58582860161279a565b9150509250929050565b600067ffffffffffffffff82111561280a576128096125b9565b5b6128138261239b565b9050602081019050919050565b600061283361282e846127ef565b612619565b90508281526020810184848401111561284f5761284e6125b4565b5b61285a848285612665565b509392505050565b600082601f830112612877576128766125af565b5b8135612887848260208601612820565b91505092915050565b600080600080608085870312156128aa576128a9612290565b5b60006128b8878288016124dd565b94505060206128c9878288016124dd565b93505060406128da87828801612428565b925050606085013567ffffffffffffffff8111156128fb576128fa612295565b5b61290787828801612862565b91505092959194509250565b6000806040838503121561292a57612929612290565b5b6000612938858286016124dd565b9250506020612949858286016124dd565b9150509250929050565b7f4e487b7100000000000000000000000000000000000000000000000000000000600052602260045260246000fd5b6000600282049050600182168061299a57607f821691505b6020821081036129ad576129ac612953565b5b50919050565b600081905092915050565b50565b60006129ce6000836129b3565b91506129d9826129be565b600082019050919050565b60006129ef826129c1565b9150819050919050565b7f4661696c656420746f2073656e64204574686572000000000000000000000000600082015250565b6000612a2f601483612360565b9150612a3a826129f9565b602082019050919050565b60006020820190508181036000830152612a5e81612a22565b9050919050565b60008190508160005260206000209050919050565b60006020601f8301049050919050565b600082821b905092915050565b600060088302612ac77fffffffffffffffffffffffffffffffffffffffffffffffffffffffffffffffff82612a8a565b612ad18683612a8a565b95508019841693508086168417925050509392505050565b6000819050919050565b6000612b0e612b09612b0484612407565b612ae9565b612407565b9050919050565b6000819050919050565b612b2883612af3565b612b3c612b3482612b15565b848454612a97565b825550505050565b600090565b612b51612b44565b612b5c818484612b1f565b505050565b5b81811015612b8057612b75600082612b49565b600181019050612b62565b5050565b601f821115612bc557612b9681612a65565b612b9f84612a7a565b81016020851015612bae578190505b612bc2612bba85612a7a565b830182612b61565b50505b505050565b600082821c905092915050565b6000612be860001984600802612bca565b1980831691505092915050565b6000612c018383612bd7565b9150826002028217905092915050565b612c1a82612355565b67ffffffffffffffff811115612c3357612c326125b9565b5b612c3d8254612982565b612c48828285612b84565b600060209050601f831160018114612c7b5760008415612c69578287015190505b612c738582612bf5565b865550612cdb565b601f198416612c8986612a65565b60005b82811015612cb157848901518255600182019150602085019450602081019050612c8c565b86831015612cce5784890151612cca601f891682612bd7565b8355505b6001600288020188555050505b505050505050565b7f4f6e6c7920677265656e20646f6e6174696f6e20636f6e74726163742063616e60008201527f2063616c6c20746869732066756e6374696f6e00000000000000000000000000602082015250565b6000612d3f603383612360565b9150612d4a82612ce3565b604082019050919050565b60006020820190508181036000830152612d6e81612d32565b9050919050565b7f5472656520646f6573206e6f7420657869737400000000000000000000000000600082015250565b6000612dab601383612360565b9150612db682612d75565b602082019050919050565b60006020820190508181036000830152612dda81612d9e565b9050919050565b7f4e487b7100000000000000000000000000000000000000000000000000000000600052601160045260246000fd5b6000612e1b82612407565b9150612e2683612407565b9250828203905081811115612e3e57612e3d612de1565b5b92915050565b6000612e4f82612407565b91507fffffffffffffffffffffffffffffffffffffffffffffffffffffffffffffffff8203612e8157612e80612de1565b5b600182019050919050565b6000612e9782612407565b9150612ea283612407565b9250828201905080821115612eba57612eb9612de1565b5b92915050565b7f457863656564206d6178206d696e7461626c6520616d6f756e74000000000000600082015250565b6000612ef6601a83612360565b9150612f0182612ec0565b602082019050919050565b60006020820190508181036000830152612f2581612ee9565b9050919050565b7f457863656564206d6178696d756d20737570706c790000000000000000000000600082015250565b6000612f62601583612360565b9150612f6d82612f2c565b602082019050919050565b60006020820190508181036000830152612f9181612f55565b9050919050565b6000612fa382612407565b9150612fae83612407565b9250828202612fbc81612407565b91508282048414831517612fd357612fd2612de1565b5b5092915050565b7f496e636f72726563742076616c75652073656e74000000000000000000000000600082015250565b6000613010601483612360565b915061301b82612fda565b602082019050919050565b6000602082019050818103600083015261303f81613003565b9050919050565b7f55524920717565727920666f72206e6f6e6578697374656e7420746f6b656e00600082015250565b600061307c601f83612360565b915061308782613046565b602082019050919050565b600060208201905081810360008301526130ab8161306f565b9050919050565b600081905092915050565b60006130c882612355565b6130d281856130b2565b93506130e2818560208601612371565b80840191505092915050565b7f2e6a736f6e000000000000000000000000000000000000000000000000000000600082015250565b60006131246005836130b2565b915061312f826130ee565b600582019050919050565b600061314682856130bd565b915061315282846130bd565b915061315d82613117565b91508190509392505050565b600061317482612407565b91506000820361318757613186612de1565b5b600182039050919050565b7f4e487b7100000000000000000000000000000000000000000000000000000000600052601260045260246000fd5b60006131cc82612407565b91506131d783612407565b9250826131e7576131e6613192565b5b828204905092915050565b600081519050919050565b600082825260208201905092915050565b6000613219826131f2565b61322381856131fd565b9350613233818560208601612371565b61323c8161239b565b840191505092915050565b600060808201905061325c600083018761249c565b613269602083018661249c565b6132766040830185612532565b8181036060830152613288818461320e565b905095945050505050565b6000815190506132a2816122c6565b92915050565b6000602082840312156132be576132bd612290565b5b60006132cc84828501613293565b9150509291505056fea2646970667358221220810105fc8e674be75df2ba1f6f432b73cac944f3c85a4a6acf5b797e2e29508164736f6c63430008140033",
  "linkReferences": {},
  "deployedLinkReferences": {}
}