{
  "_format": "hh-sol-artifact-1",
  "contractName": "TreeContract",
  "sourceName": "contracts/TreeContract.sol",
  "abi": [
    {
      "inputs": [
        {
          "internalType": "string",
          "name": "baseURI",
          "type": "string"
        },
        {
          "internalType": "address",
          "name": "_tc02",
          "type": "address"
        },
        {
          "internalType": "address",
          "name": "_wrappedNativeToken",
          "type": "address"
        },
        {
          "internalType": "address",
          "name": "_retirementCertificates",
          "type": "address"
        },
        {
          "internalType": "address",
          "name": "_swapRouter",
          "type": "address"
        }
      ],
      "stateMutability": "nonpayable",
      "type": "constructor"
    },
    {
      "inputs": [],
      "name": "ApprovalCallerNotOwnerNorApproved",
      "type": "error"
    },
    {
      "inputs": [],
      "name": "ApprovalQueryForNonexistentToken",
      "type": "error"
    },
    {
      "inputs": [],
      "name": "BalanceQueryForZeroAddress",
      "type": "error"
    },
    {
      "inputs": [],
      "name": "MintERC2309QuantityExceedsLimit",
      "type": "error"
    },
    {
      "inputs": [],
      "name": "MintToZeroAddress",
      "type": "error"
    },
    {
      "inputs": [],
      "name": "MintZeroQuantity",
      "type": "error"
    },
    {
      "inputs": [
        {
          "internalType": "address",
          "name": "owner",
          "type": "address"
        }
      ],
      "name": "OwnableInvalidOwner",
      "type": "error"
    },
    {
      "inputs": [
        {
          "internalType": "address",
          "name": "account",
          "type": "address"
        }
      ],
      "name": "OwnableUnauthorizedAccount",
      "type": "error"
    },
    {
      "inputs": [],
      "name": "OwnerQueryForNonexistentToken",
      "type": "error"
    },
    {
      "inputs": [],
      "name": "OwnershipNotInitializedForExtraData",
      "type": "error"
    },
    {
      "inputs": [],
      "name": "TransferCallerNotOwnerNorApproved",
      "type": "error"
    },
    {
      "inputs": [],
      "name": "TransferFromIncorrectOwner",
      "type": "error"
    },
    {
      "inputs": [],
      "name": "TransferToNonERC721ReceiverImplementer",
      "type": "error"
    },
    {
      "inputs": [],
      "name": "TransferToZeroAddress",
      "type": "error"
    },
    {
      "inputs": [],
      "name": "URIQueryForNonexistentToken",
      "type": "error"
    },
    {
      "anonymous": false,
      "inputs": [
        {
          "indexed": true,
          "internalType": "address",
          "name": "owner",
          "type": "address"
        },
        {
          "indexed": true,
          "internalType": "address",
          "name": "approved",
          "type": "address"
        },
        {
          "indexed": true,
          "internalType": "uint256",
          "name": "tokenId",
          "type": "uint256"
        }
      ],
      "name": "Approval",
      "type": "event"
    },
    {
      "anonymous": false,
      "inputs": [
        {
          "indexed": true,
          "internalType": "address",
          "name": "owner",
          "type": "address"
        },
        {
          "indexed": true,
          "internalType": "address",
          "name": "operator",
          "type": "address"
        },
        {
          "indexed": false,
          "internalType": "bool",
          "name": "approved",
          "type": "bool"
        }
      ],
      "name": "ApprovalForAll",
      "type": "event"
    },
    {
      "anonymous": false,
      "inputs": [
        {
          "indexed": true,
          "internalType": "uint256",
          "name": "fromTokenId",
          "type": "uint256"
        },
        {
          "indexed": false,
          "internalType": "uint256",
          "name": "toTokenId",
          "type": "uint256"
        },
        {
          "indexed": true,
          "internalType": "address",
          "name": "from",
          "type": "address"
        },
        {
          "indexed": true,
          "internalType": "address",
          "name": "to",
          "type": "address"
        }
      ],
      "name": "ConsecutiveTransfer",
      "type": "event"
    },
    {
      "anonymous": false,
      "inputs": [
        {
          "indexed": true,
          "internalType": "address",
          "name": "previousOwner",
          "type": "address"
        },
        {
          "indexed": true,
          "internalType": "address",
          "name": "newOwner",
          "type": "address"
        }
      ],
      "name": "OwnershipTransferred",
      "type": "event"
    },
    {
      "anonymous": false,
      "inputs": [
        {
          "indexed": true,
          "internalType": "address",
          "name": "from",
          "type": "address"
        },
        {
          "indexed": true,
          "internalType": "address",
          "name": "to",
          "type": "address"
        },
        {
          "indexed": true,
          "internalType": "uint256",
          "name": "tokenId",
          "type": "uint256"
        }
      ],
      "name": "Transfer",
      "type": "event"
    },
    {
      "inputs": [],
      "name": "_baseTokenURI",
      "outputs": [
        {
          "internalType": "string",
          "name": "",
          "type": "string"
        }
      ],
      "stateMutability": "view",
      "type": "function"
    },
    {
      "inputs": [
        {
          "internalType": "address",
          "name": "to",
          "type": "address"
        },
        {
          "internalType": "uint256",
          "name": "tokenId",
          "type": "uint256"
        }
      ],
      "name": "approve",
      "outputs": [],
      "stateMutability": "payable",
      "type": "function"
    },
    {
      "inputs": [
        {
          "internalType": "address",
          "name": "owner",
          "type": "address"
        }
      ],
      "name": "balanceOf",
      "outputs": [
        {
          "internalType": "uint256",
          "name": "",
          "type": "uint256"
        }
      ],
      "stateMutability": "view",
      "type": "function"
    },
    {
      "inputs": [],
      "name": "cost",
      "outputs": [
        {
          "internalType": "uint256",
          "name": "",
          "type": "uint256"
        }
      ],
      "stateMutability": "view",
      "type": "function"
    },
    {
      "inputs": [],
      "name": "decayPeriod",
      "outputs": [
        {
          "internalType": "uint256",
          "name": "",
          "type": "uint256"
        }
      ],
      "stateMutability": "view",
      "type": "function"
    },
    {
      "inputs": [],
      "name": "decayRate",
      "outputs": [
        {
          "internalType": "uint256",
          "name": "",
          "type": "uint256"
        }
      ],
      "stateMutability": "view",
      "type": "function"
    },
    {
      "inputs": [
        {
          "internalType": "uint256",
          "name": "_tokenId",
          "type": "uint256"
        }
      ],
      "name": "downgradeTree",
      "outputs": [],
      "stateMutability": "nonpayable",
      "type": "function"
    },
    {
      "inputs": [
        {
          "internalType": "uint256",
          "name": "tokenId",
          "type": "uint256"
        }
      ],
      "name": "getApproved",
      "outputs": [
        {
          "internalType": "address",
          "name": "",
          "type": "address"
        }
      ],
      "stateMutability": "view",
      "type": "function"
    },
    {
      "inputs": [
        {
          "internalType": "uint256",
          "name": "_tokenId",
          "type": "uint256"
        }
      ],
      "name": "getLastWatered",
      "outputs": [
        {
          "internalType": "uint256",
          "name": "",
          "type": "uint256"
        }
      ],
      "stateMutability": "view",
      "type": "function"
    },
    {
      "inputs": [],
      "name": "greenDonationContract",
      "outputs": [
        {
          "internalType": "address",
          "name": "",
          "type": "address"
        }
      ],
      "stateMutability": "view",
      "type": "function"
    },
    {
      "inputs": [
        {
          "internalType": "address",
          "name": "owner",
          "type": "address"
        },
        {
          "internalType": "address",
          "name": "operator",
          "type": "address"
        }
      ],
      "name": "isApprovedForAll",
      "outputs": [
        {
          "internalType": "bool",
          "name": "",
          "type": "bool"
        }
      ],
      "stateMutability": "view",
      "type": "function"
    },
    {
      "inputs": [],
      "name": "maxSupply",
      "outputs": [
        {
          "internalType": "uint256",
          "name": "",
          "type": "uint256"
        }
      ],
      "stateMutability": "view",
      "type": "function"
    },
    {
      "inputs": [
        {
          "internalType": "string",
          "name": "beneficiaryString",
          "type": "string"
        },
        {
          "internalType": "string",
          "name": "retirementMessage",
          "type": "string"
        }
      ],
      "name": "mint",
      "outputs": [],
      "stateMutability": "payable",
      "type": "function"
    },
    {
      "inputs": [],
      "name": "name",
      "outputs": [
        {
          "internalType": "string",
          "name": "",
          "type": "string"
        }
      ],
      "stateMutability": "view",
      "type": "function"
    },
    {
      "inputs": [
        {
          "internalType": "address",
          "name": "",
          "type": "address"
        },
        {
          "internalType": "address",
          "name": "from",
          "type": "address"
        },
        {
          "internalType": "uint256",
          "name": "tokenId",
          "type": "uint256"
        },
        {
          "internalType": "bytes",
          "name": "",
          "type": "bytes"
        }
      ],
      "name": "onERC721Received",
      "outputs": [
        {
          "internalType": "bytes4",
          "name": "",
          "type": "bytes4"
        }
      ],
      "stateMutability": "nonpayable",
      "type": "function"
    },
    {
      "inputs": [],
      "name": "owner",
      "outputs": [
        {
          "internalType": "address",
          "name": "",
          "type": "address"
        }
      ],
      "stateMutability": "view",
      "type": "function"
    },
    {
      "inputs": [
        {
          "internalType": "uint256",
          "name": "tokenId",
          "type": "uint256"
        }
      ],
      "name": "ownerOf",
      "outputs": [
        {
          "internalType": "address",
          "name": "",
          "type": "address"
        }
      ],
      "stateMutability": "view",
      "type": "function"
    },
    {
      "inputs": [],
      "name": "redemptionRate",
      "outputs": [
        {
          "internalType": "uint256",
          "name": "",
          "type": "uint256"
        }
      ],
      "stateMutability": "view",
      "type": "function"
    },
    {
      "inputs": [],
      "name": "renounceOwnership",
      "outputs": [],
      "stateMutability": "nonpayable",
      "type": "function"
    },
    {
      "inputs": [],
      "name": "retirementCertificateEscrow",
      "outputs": [
        {
          "internalType": "contract RetirementCertificateEscrow",
          "name": "",
          "type": "address"
        }
      ],
      "stateMutability": "view",
      "type": "function"
    },
    {
      "inputs": [],
      "name": "retirementCertificates",
      "outputs": [
        {
          "internalType": "contract IRetirementCertificates",
          "name": "",
          "type": "address"
        }
      ],
      "stateMutability": "view",
      "type": "function"
    },
    {
      "inputs": [
        {
          "internalType": "address",
          "name": "from",
          "type": "address"
        },
        {
          "internalType": "address",
          "name": "to",
          "type": "address"
        },
        {
          "internalType": "uint256",
          "name": "tokenId",
          "type": "uint256"
        }
      ],
      "name": "safeTransferFrom",
      "outputs": [],
      "stateMutability": "payable",
      "type": "function"
    },
    {
      "inputs": [
        {
          "internalType": "address",
          "name": "from",
          "type": "address"
        },
        {
          "internalType": "address",
          "name": "to",
          "type": "address"
        },
        {
          "internalType": "uint256",
          "name": "tokenId",
          "type": "uint256"
        },
        {
          "internalType": "bytes",
          "name": "_data",
          "type": "bytes"
        }
      ],
      "name": "safeTransferFrom",
      "outputs": [],
      "stateMutability": "payable",
      "type": "function"
    },
    {
      "inputs": [
        {
          "internalType": "address",
          "name": "operator",
          "type": "address"
        },
        {
          "internalType": "bool",
          "name": "approved",
          "type": "bool"
        }
      ],
      "name": "setApprovalForAll",
      "outputs": [],
      "stateMutability": "nonpayable",
      "type": "function"
    },
    {
      "inputs": [
        {
          "internalType": "string",
          "name": "_uri",
          "type": "string"
        }
      ],
      "name": "setBaseURI",
      "outputs": [],
      "stateMutability": "nonpayable",
      "type": "function"
    },
    {
      "inputs": [
        {
          "internalType": "uint256",
          "name": "_cost",
          "type": "uint256"
        }
      ],
      "name": "setCost",
      "outputs": [],
      "stateMutability": "nonpayable",
      "type": "function"
    },
    {
      "inputs": [
        {
          "internalType": "address",
          "name": "_greenDonationContract",
          "type": "address"
        }
      ],
      "name": "setGreenDonationContract",
      "outputs": [],
      "stateMutability": "nonpayable",
      "type": "function"
    },
    {
      "inputs": [
        {
          "internalType": "uint256",
          "name": "_rate",
          "type": "uint256"
        }
      ],
      "name": "setRedemptionRate",
      "outputs": [],
      "stateMutability": "nonpayable",
      "type": "function"
    },
    {
      "inputs": [
        {
          "internalType": "address",
          "name": "_retirementCertificateEscrow",
          "type": "address"
        }
      ],
      "name": "setRetirementCertificateEscrow",
      "outputs": [],
      "stateMutability": "nonpayable",
      "type": "function"
    },
    {
      "inputs": [
        {
          "internalType": "address",
          "name": "router",
          "type": "address"
        }
      ],
      "name": "setSwapRouter",
      "outputs": [],
      "stateMutability": "nonpayable",
      "type": "function"
    },
    {
      "inputs": [
        {
          "internalType": "bytes4",
          "name": "interfaceId",
          "type": "bytes4"
        }
      ],
      "name": "supportsInterface",
      "outputs": [
        {
          "internalType": "bool",
          "name": "",
          "type": "bool"
        }
      ],
      "stateMutability": "view",
      "type": "function"
    },
    {
      "inputs": [],
      "name": "swapRouter",
      "outputs": [
        {
          "internalType": "contract IUniswapV2Router02",
          "name": "",
          "type": "address"
        }
      ],
      "stateMutability": "view",
      "type": "function"
    },
    {
      "inputs": [],
      "name": "symbol",
      "outputs": [
        {
          "internalType": "string",
          "name": "",
          "type": "string"
        }
      ],
      "stateMutability": "view",
      "type": "function"
    },
    {
      "inputs": [],
      "name": "tc02",
      "outputs": [
        {
          "internalType": "contract ITC02",
          "name": "",
          "type": "address"
        }
      ],
      "stateMutability": "view",
      "type": "function"
    },
    {
      "inputs": [
        {
          "internalType": "uint256",
          "name": "tokenId",
          "type": "uint256"
        }
      ],
      "name": "tokenURI",
      "outputs": [
        {
          "internalType": "string",
          "name": "",
          "type": "string"
        }
      ],
      "stateMutability": "view",
      "type": "function"
    },
    {
      "inputs": [],
      "name": "totalSupply",
      "outputs": [
        {
          "internalType": "uint256",
          "name": "",
          "type": "uint256"
        }
      ],
      "stateMutability": "view",
      "type": "function"
    },
    {
      "inputs": [
        {
          "internalType": "address",
          "name": "from",
          "type": "address"
        },
        {
          "internalType": "address",
          "name": "to",
          "type": "address"
        },
        {
          "internalType": "uint256",
          "name": "tokenId",
          "type": "uint256"
        }
      ],
      "name": "transferFrom",
      "outputs": [],
      "stateMutability": "payable",
      "type": "function"
    },
    {
      "inputs": [
        {
          "internalType": "address",
          "name": "newOwner",
          "type": "address"
        }
      ],
      "name": "transferOwnership",
      "outputs": [],
      "stateMutability": "nonpayable",
      "type": "function"
    },
    {
      "inputs": [
        {
          "internalType": "uint256",
          "name": "",
          "type": "uint256"
        }
      ],
      "name": "trees",
      "outputs": [
        {
          "internalType": "uint256",
          "name": "level",
          "type": "uint256"
        },
        {
          "internalType": "uint256",
          "name": "lastWatered",
          "type": "uint256"
        }
      ],
      "stateMutability": "view",
      "type": "function"
    },
    {
      "inputs": [
        {
          "internalType": "uint256",
          "name": "_tokenId",
          "type": "uint256"
        }
      ],
      "name": "waterTree",
      "outputs": [],
      "stateMutability": "nonpayable",
      "type": "function"
    },
    {
      "inputs": [],
      "name": "withdraw",
      "outputs": [],
      "stateMutability": "nonpayable",
      "type": "function"
    },
    {
      "inputs": [],
      "name": "wrappedNativeToken",
      "outputs": [
        {
          "internalType": "address",
          "name": "",
          "type": "address"
        }
      ],
      "stateMutability": "view",
      "type": "function"
    }
  ],
  "bytecode": "0x60806040526000600955600a80553480156200001a57600080fd5b5060405162002dbc38038062002dbc8339810160408190526200003d9162000229565b604080518082018252600d81526c151c99594810dbdb9d1c9858dd609a1b602080830191909152825180840190935260038352621510d560ea1b90830152903380620000a357604051631e4fbdf760e01b81526000600482015260240160405180910390fd5b620000ae81620001a6565b506003620000bd8382620003d8565b506004620000cc8282620003d8565b50506001805550600b620000e18682620003d8565b50600f80546001600160a01b038681166001600160a01b03199283161790925560108054868416908316811790915560118054868516908416179055600e805493851693909216831790915560405163095ea7b360e01b8152600481019290925260001960248301529063095ea7b3906044016020604051808303816000875af115801562000174573d6000803e3d6000fd5b505050506040513d601f19601f820116820180604052508101906200019a9190620004a4565b505050505050620004cf565b600080546001600160a01b038381166001600160a01b0319831681178455604051919092169283917f8be0079c531659141344cd1fd0a4f28419497f9722a3daafe3b4186f6b6457e09190a35050565b634e487b7160e01b600052604160045260246000fd5b80516001600160a01b03811681146200022457600080fd5b919050565b600080600080600060a086880312156200024257600080fd5b85516001600160401b03808211156200025a57600080fd5b818801915088601f8301126200026f57600080fd5b815181811115620002845762000284620001f6565b604051601f8201601f19908116603f01168101908382118183101715620002af57620002af620001f6565b81604052828152602093508b84848701011115620002cc57600080fd5b600091505b82821015620002f05784820184015181830185015290830190620002d1565b60008484830101528099505050506200030b8189016200020c565b955050506200031d604087016200020c565b92506200032d606087016200020c565b91506200033d608087016200020c565b90509295509295909350565b600181811c908216806200035e57607f821691505b6020821081036200037f57634e487b7160e01b600052602260045260246000fd5b50919050565b601f821115620003d357600081815260208120601f850160051c81016020861015620003ae5750805b601f850160051c820191505b81811015620003cf57828155600101620003ba565b5050505b505050565b81516001600160401b03811115620003f457620003f4620001f6565b6200040c8162000405845462000349565b8462000385565b602080601f8311600181146200044457600084156200042b5750858301515b600019600386901b1c1916600185901b178555620003cf565b600085815260208120601f198616915b82811015620004755788860151825594840194600190910190840162000454565b5085821015620004945787850151600019600388901b60f8161c191681555b5050505050600190811b01905550565b600060208284031215620004b757600080fd5b81518015158114620004c857600080fd5b9392505050565b6128dd80620004df6000396000f3fe6080604052600436106102d15760003560e01c806370a0823111610179578063b21aef7d116100d6578063cfc86f7b1161008a578063e985e9c511610064578063e985e9c5146107a3578063f2fde38b146107ec578063f5b88ac21461080c57600080fd5b8063cfc86f7b14610758578063d5abeb011461076d578063e3a3ed751461078357600080fd5b8063b88d4fde116100bb578063b88d4fde14610705578063c31c9c0714610718578063c87b56dd1461073857600080fd5b8063b21aef7d146106c5578063b6b2196d146106e557600080fd5b80638da5cb5b1161012d578063998b723b11610112578063998b723b14610670578063a22cb46514610690578063a9c1f2f1146106b057600080fd5b80638da5cb5b1461063d57806395d89b411461065b57600080fd5b80637a5080221161015e5780637a508022146105c15780638378e58f1461060a5780638aa0fdad1461062a57600080fd5b806370a082311461058c578063715018a6146105ac57600080fd5b806323b872dd1161023257806348d67e1b116101e657806358c83621116101c057806358c836211461052c5780636352211e1461054c57806364c902421461056c57600080fd5b806348d67e1b146104df578063540385a3146104f657806355f804b31461050c57600080fd5b80634127365711610217578063412736571461048c57806342842e0e146104ac57806344a0d68a146104bf57600080fd5b806323b872dd146104645780633ccfd60b1461047757600080fd5b806313faede61161028957806317fcb39b1161026e57806317fcb39b1461040757806318160ddd14610427578063188d24711461044457600080fd5b806313faede6146103b8578063150b7a02146103ce57600080fd5b8063081812fc116102ba578063081812fc1461032d578063095ea7b31461036557806313bc51351461037a57600080fd5b806301ffc9a7146102d657806306fdde031461030b575b600080fd5b3480156102e257600080fd5b506102f66102f1366004611fb7565b61082c565b60405190151581526020015b60405180910390f35b34801561031757600080fd5b506103206108c9565b6040516103029190612024565b34801561033957600080fd5b5061034d610348366004612037565b61095b565b6040516001600160a01b039091168152602001610302565b61037861037336600461206c565b6109b8565b005b34801561038657600080fd5b506103aa610395366004612037565b6000908152600d602052604090206001015490565b604051908152602001610302565b3480156103c457600080fd5b506103aa60095481565b3480156103da57600080fd5b506103ee6103e93660046120df565b610a8e565b6040516001600160e01b03199091168152602001610302565b34801561041357600080fd5b5060105461034d906001600160a01b031681565b34801561043357600080fd5b5060025460015403600019016103aa565b34801561045057600080fd5b5060125461034d906001600160a01b031681565b61037861047236600461214e565b610b02565b34801561048357600080fd5b50610378610d11565b34801561049857600080fd5b506103786104a736600461218a565b610dd2565b6103786104ba36600461214e565b610dfc565b3480156104cb57600080fd5b506103786104da366004612037565b610e1c565b3480156104eb57600080fd5b506103aa62093a8081565b34801561050257600080fd5b506103aa600a5481565b34801561051857600080fd5b50610378610527366004612244565b610e29565b34801561053857600080fd5b5061037861054736600461218a565b610e3d565b34801561055857600080fd5b5061034d610567366004612037565b610e67565b34801561057857600080fd5b5061037861058736600461218a565b610e72565b34801561059857600080fd5b506103aa6105a736600461218a565b610e9c565b3480156105b857600080fd5b50610378610f04565b3480156105cd57600080fd5b506105f56105dc366004612037565b600d602052600090815260409020805460019091015482565b60408051928352602083019190915201610302565b34801561061657600080fd5b50600c5461034d906001600160a01b031681565b61037861063836600461228d565b610f18565b34801561064957600080fd5b506000546001600160a01b031661034d565b34801561066757600080fd5b50610320611246565b34801561067c57600080fd5b5061037861068b366004612037565b611255565b34801561069c57600080fd5b506103786106ab3660046122f9565b6113b8565b3480156106bc57600080fd5b506103aa600181565b3480156106d157600080fd5b5060115461034d906001600160a01b031681565b3480156106f157600080fd5b50610378610700366004612037565b611424565b610378610713366004612335565b611431565b34801561072457600080fd5b50600e5461034d906001600160a01b031681565b34801561074457600080fd5b50610320610753366004612037565b61147b565b34801561076457600080fd5b5061032061152e565b34801561077957600080fd5b506103aa61271081565b34801561078f57600080fd5b5061037861079e366004612037565b6115bc565b3480156107af57600080fd5b506102f66107be3660046123b1565b6001600160a01b03918216600090815260086020908152604080832093909416825291909152205460ff1690565b3480156107f857600080fd5b5061037861080736600461218a565b6116cb565b34801561081857600080fd5b50600f5461034d906001600160a01b031681565b60007f01ffc9a7000000000000000000000000000000000000000000000000000000006001600160e01b03198316148061088f57507f80ac58cd000000000000000000000000000000000000000000000000000000006001600160e01b03198316145b806108c357507f5b5e139f000000000000000000000000000000000000000000000000000000006001600160e01b03198316145b92915050565b6060600380546108d8906123e4565b80601f0160208091040260200160405190810160405280929190818152602001828054610904906123e4565b80156109515780601f1061092657610100808354040283529160200191610951565b820191906000526020600020905b81548152906001019060200180831161093457829003601f168201915b5050505050905090565b60006109668261171f565b61099c576040517fcf4700e400000000000000000000000000000000000000000000000000000000815260040160405180910390fd5b506000908152600760205260409020546001600160a01b031690565b60006109c382610e67565b9050336001600160a01b03821614610a32576001600160a01b038116600090815260086020908152604080832033845290915290205460ff16610a32576040517fcfb3b94200000000000000000000000000000000000000000000000000000000815260040160405180910390fd5b60008281526007602052604080822080546001600160a01b0319166001600160a01b0387811691821790925591518593918516917f8c5be1e5ebec7d5bd14f71427d1e84f3dd0314c0f7b2291e5b200ac8c7c3b92591a4505050565b6011546000906001600160a01b03163314610af05760405162461bcd60e51b815260206004820152601a60248201527f4e6f74207265746972656d656e7420636572746966696361746500000000000060448201526064015b60405180910390fd5b50630a85bd0160e11b95945050505050565b6000610b0d82611754565b9050836001600160a01b0316816001600160a01b031614610b5a576040517fa114810000000000000000000000000000000000000000000000000000000000815260040160405180910390fd5b60008281526007602052604090208054338082146001600160a01b03881690911417610bdd576001600160a01b038616600090815260086020908152604080832033845290915290205460ff16610bdd576040517f59c896be00000000000000000000000000000000000000000000000000000000815260040160405180910390fd5b6001600160a01b038516610c1d576040517fea553b3400000000000000000000000000000000000000000000000000000000815260040160405180910390fd5b610c2a86868660016117dc565b8015610c3557600082555b6001600160a01b038681166000908152600660205260408082208054600019019055918716808252919020805460010190554260a01b17600160e11b17600085815260056020526040812091909155600160e11b84169003610cc757600184016000818152600560205260408120549003610cc5576001548114610cc55760008181526005602052604090208490555b505b83856001600160a01b0316876001600160a01b03167fddf252ad1be2c89b69c2b068fc378daa952ba7f163c4a11628f55a4df523b3ef60405160405180910390a45b505050505050565b610d196118ea565b476000610d2e6000546001600160a01b031690565b6001600160a01b03168260405160006040518083038185875af1925050503d8060008114610d78576040519150601f19603f3d011682016040523d82523d6000602084013e610d7d565b606091505b5050905080610dce5760405162461bcd60e51b815260206004820152601460248201527f4661696c656420746f2073656e642045746865720000000000000000000000006044820152606401610ae7565b5050565b610dda6118ea565b600e80546001600160a01b0319166001600160a01b0392909216919091179055565b610e1783838360405180602001604052806000815250611431565b505050565b610e246118ea565b600955565b610e316118ea565b600b610dce8282612464565b610e456118ea565b601280546001600160a01b0319166001600160a01b0392909216919091179055565b60006108c382611754565b610e7a6118ea565b600c80546001600160a01b0319166001600160a01b0392909216919091179055565b60006001600160a01b038216610ede576040517f8f4eb60400000000000000000000000000000000000000000000000000000000815260040160405180910390fd5b506001600160a01b031660009081526006602052604090205467ffffffffffffffff1690565b610f0c6118ea565b610f166000611930565b565b6000610f276001546000190190565b336000908152600660205260409081902054919250600191610f54911c67ffffffffffffffff168261253a565b1115610fa25760405162461bcd60e51b815260206004820152601a60248201527f457863656564206d6178206d696e7461626c6520616d6f756e740000000000006044820152606401610ae7565b612710610fb082600161253a565b1115610ffe5760405162461bcd60e51b815260206004820152601560248201527f457863656564206d6178696d756d20737570706c7900000000000000000000006044820152606401610ae7565b60095461100c90600161254d565b341461105a5760405162461bcd60e51b815260206004820152601460248201527f496e636f72726563742076616c75652073656e740000000000000000000000006044820152606401610ae7565b600061106560015490565b9050611072336001611980565b6000818152600d6020526040812060018101829055819055601154600a546001600160a01b039091169063163c131990309033908b908b908b908b906110d7906110d2906064906110c3903461254d565b6110cd9190612564565b611abe565b611c10565b6040518863ffffffff1660e01b81526004016110f997969594939291906125af565b6020604051808303816000875af1158015611118573d6000803e3d6000fd5b505050506040513d601f19601f8201168201806040525081019061113c919061266e565b6011546012546040517f095ea7b30000000000000000000000000000000000000000000000000000000081526001600160a01b03918216600482015260248101849052929350169063095ea7b390604401600060405180830381600087803b1580156111a757600080fd5b505af11580156111bb573d6000803e3d6000fd5b50506012546040517f4261fbbc00000000000000000000000000000000000000000000000000000000815260048101869052602481018590526001600160a01b039091169250634261fbbc9150604401600060405180830381600087803b15801561122557600080fd5b505af1158015611239573d6000803e3d6000fd5b5050505050505050505050565b6060600480546108d8906123e4565b600c546001600160a01b031633146112d55760405162461bcd60e51b815260206004820152603360248201527f4f6e6c7920677265656e20646f6e6174696f6e20636f6e74726163742063616e60448201527f2063616c6c20746869732066756e6374696f6e000000000000000000000000006064820152608401610ae7565b6112de8161171f565b61132a5760405162461bcd60e51b815260206004820152601360248201527f5472656520646f6573206e6f74206578697374000000000000000000000000006044820152606401610ae7565b600061133582611ce1565b9050801561138f576000828152600d602052604090205481101561137c576000828152600d602052604081208054839290611371908490612687565b9091555061138f9050565b6000828152600d60205260409020600190555b6000828152600d602052604081204260018201558054916113af8361269a565b91905055505050565b3360008181526008602090815260408083206001600160a01b03871680855290835292819020805460ff191686151590811790915590519081529192917f17307eab39ab6107e8899845ad3d59bd9653f200f220920489ca2b5937696c31910160405180910390a35050565b61142c6118ea565b600a55565b61143c848484610b02565b6001600160a01b0383163b156114755761145884848484611d25565b611475576040516368d2bf6b60e11b815260040160405180910390fd5b50505050565b60606114868261171f565b6114d25760405162461bcd60e51b815260206004820152601f60248201527f55524920717565727920666f72206e6f6e6578697374656e7420746f6b656e006044820152606401610ae7565b60006114dc611e10565b905060008151116114fc5760405180602001604052806000815250611527565b8061150684611e1f565b6040516020016115179291906126b3565b6040516020818303038152906040525b9392505050565b600b805461153b906123e4565b80601f0160208091040260200160405190810160405280929190818152602001828054611567906123e4565b80156115b45780601f10611589576101008083540402835291602001916115b4565b820191906000526020600020905b81548152906001019060200180831161159757829003601f168201915b505050505081565b600c546001600160a01b0316331461163c5760405162461bcd60e51b815260206004820152603360248201527f4f6e6c7920677265656e20646f6e6174696f6e20636f6e74726163742063616e60448201527f2063616c6c20746869732066756e6374696f6e000000000000000000000000006064820152608401610ae7565b6116458161171f565b6116915760405162461bcd60e51b815260206004820152601360248201527f5472656520646f6573206e6f74206578697374000000000000000000000000006044820152606401610ae7565b6000818152600d6020526040902054600110156116c8576000818152600d602052604081208054916116c28361270a565b91905055505b50565b6116d36118ea565b6001600160a01b038116611716576040517f1e4fbdf700000000000000000000000000000000000000000000000000000000815260006004820152602401610ae7565b6116c881611930565b600081600111158015611733575060015482105b80156108c3575050600090815260056020526040902054600160e01b161590565b600081806001116117aa576001548110156117aa5760008181526005602052604081205490600160e01b821690036117a8575b80600003611527575060001901600081815260056020526040902054611787565b505b6040517fdf2d9b4200000000000000000000000000000000000000000000000000000000815260040160405180910390fd5b6001600160a01b03841615611475576001600160a01b0383166118415760405162461bcd60e51b815260206004820152601160248201527f547265652063616e206e6f74206275726e0000000000000000000000000000006044820152606401610ae7565b836001600160a01b0316836001600160a01b0316146118a25760405162461bcd60e51b815260206004820152601560248201527f547265652063616e206e6f74207472616e7366657200000000000000000000006044820152606401610ae7565b60405162461bcd60e51b815260206004820152601160248201527f496c6c6567616c206f7065726174696f6e0000000000000000000000000000006044820152606401610ae7565b6000546001600160a01b03163314610f16576040517f118cdaa7000000000000000000000000000000000000000000000000000000008152336004820152602401610ae7565b600080546001600160a01b038381166001600160a01b0319831681178455604051919092169283917f8be0079c531659141344cd1fd0a4f28419497f9722a3daafe3b4186f6b6457e09190a35050565b60015460008290036119be576040517fb562e8dd00000000000000000000000000000000000000000000000000000000815260040160405180910390fd5b6119cb60008483856117dc565b6001600160a01b03831660008181526006602090815260408083208054680100000000000000018802019055848352600590915281206001851460e11b4260a01b178317905582840190839083907fddf252ad1be2c89b69c2b068fc378daa952ba7f163c4a11628f55a4df523b3ef8180a4600183015b818114611a7a57808360007fddf252ad1be2c89b69c2b068fc378daa952ba7f163c4a11628f55a4df523b3ef600080a4600101611a42565b5081600003611ab5576040517f2e07630000000000000000000000000000000000000000000000000000000000815260040160405180910390fd5b60015550505050565b60408051600280825260608201835260009283929190602083019080368337505060105482519293506001600160a01b031691839150600090611b0357611b03612721565b6001600160a01b039283166020918202929092010152600f54825191169082906001908110611b3457611b34612721565b6001600160a01b039283166020918202929092010152600e546040517f38ed173900000000000000000000000000000000000000000000000000000000815260009291909116906338ed173990611b979087908590879030904290600401612737565b6000604051808303816000875af1158015611bb6573d6000803e3d6000fd5b505050506040513d6000823e601f3d908101601f19168201604052611bde91908101906127a8565b90508060018251611bef9190612687565b81518110611bff57611bff612721565b602002602001015192505050919050565b604080516001808252818301909252606091600091906020808301908036833701905050600f546040517f3790cf57000000000000000000000000000000000000000000000000000000008152600481018690529192506001600160a01b031690633790cf57906024016020604051808303816000875af1158015611c99573d6000803e3d6000fd5b505050506040513d601f19601f82011682018060405250810190611cbd919061266e565b81600081518110611cd057611cd0612721565b602090810291909101015292915050565b6000818152600d60205260408120600101548190611cff9042612687565b90506000611d1062093a8083612564565b9050611d1d60018261254d565b949350505050565b604051630a85bd0160e11b81526000906001600160a01b0385169063150b7a0290611d5a90339089908890889060040161284e565b6020604051808303816000875af1925050508015611d95575060408051601f3d908101601f19168201909252611d929181019061288a565b60015b611df3573d808015611dc3576040519150601f19603f3d011682016040523d82523d6000602084013e611dc8565b606091505b508051600003611deb576040516368d2bf6b60e11b815260040160405180910390fd5b805181602001fd5b6001600160e01b031916630a85bd0160e11b149050949350505050565b6060600b80546108d8906123e4565b60606000611e2c83611ebf565b600101905060008167ffffffffffffffff811115611e4c57611e4c6121a5565b6040519080825280601f01601f191660200182016040528015611e76576020820181803683370190505b5090508181016020015b600019017f3031323334353637383961626364656600000000000000000000000000000000600a86061a8153600a8504945084611e8057509392505050565b6000807a184f03e93ff9f4daa797ed6e38ed64bf6a1f0100000000000000008310611f08577a184f03e93ff9f4daa797ed6e38ed64bf6a1f010000000000000000830492506040015b6d04ee2d6d415b85acef81000000008310611f34576d04ee2d6d415b85acef8100000000830492506020015b662386f26fc100008310611f5257662386f26fc10000830492506010015b6305f5e1008310611f6a576305f5e100830492506008015b6127108310611f7e57612710830492506004015b60648310611f90576064830492506002015b600a83106108c35760010192915050565b6001600160e01b0319811681146116c857600080fd5b600060208284031215611fc957600080fd5b813561152781611fa1565b60005b83811015611fef578181015183820152602001611fd7565b50506000910152565b60008151808452612010816020860160208601611fd4565b601f01601f19169290920160200192915050565b6020815260006115276020830184611ff8565b60006020828403121561204957600080fd5b5035919050565b80356001600160a01b038116811461206757600080fd5b919050565b6000806040838503121561207f57600080fd5b61208883612050565b946020939093013593505050565b60008083601f8401126120a857600080fd5b50813567ffffffffffffffff8111156120c057600080fd5b6020830191508360208285010111156120d857600080fd5b9250929050565b6000806000806000608086880312156120f757600080fd5b61210086612050565b945061210e60208701612050565b935060408601359250606086013567ffffffffffffffff81111561213157600080fd5b61213d88828901612096565b969995985093965092949392505050565b60008060006060848603121561216357600080fd5b61216c84612050565b925061217a60208501612050565b9150604084013590509250925092565b60006020828403121561219c57600080fd5b61152782612050565b634e487b7160e01b600052604160045260246000fd5b604051601f8201601f1916810167ffffffffffffffff811182821017156121e4576121e46121a5565b604052919050565b600067ffffffffffffffff831115612206576122066121a5565b612219601f8401601f19166020016121bb565b905082815283838301111561222d57600080fd5b828260208301376000602084830101529392505050565b60006020828403121561225657600080fd5b813567ffffffffffffffff81111561226d57600080fd5b8201601f8101841361227e57600080fd5b611d1d848235602084016121ec565b600080600080604085870312156122a357600080fd5b843567ffffffffffffffff808211156122bb57600080fd5b6122c788838901612096565b909650945060208701359150808211156122e057600080fd5b506122ed87828801612096565b95989497509550505050565b6000806040838503121561230c57600080fd5b61231583612050565b91506020830135801515811461232a57600080fd5b809150509250929050565b6000806000806080858703121561234b57600080fd5b61235485612050565b935061236260208601612050565b925060408501359150606085013567ffffffffffffffff81111561238557600080fd5b8501601f8101871361239657600080fd5b6123a5878235602084016121ec565b91505092959194509250565b600080604083850312156123c457600080fd5b6123cd83612050565b91506123db60208401612050565b90509250929050565b600181811c908216806123f857607f821691505b60208210810361241857634e487b7160e01b600052602260045260246000fd5b50919050565b601f821115610e1757600081815260208120601f850160051c810160208610156124455750805b601f850160051c820191505b81811015610d0957828155600101612451565b815167ffffffffffffffff81111561247e5761247e6121a5565b6124928161248c84546123e4565b8461241e565b602080601f8311600181146124c757600084156124af5750858301515b600019600386901b1c1916600185901b178555610d09565b600085815260208120601f198616915b828110156124f6578886015182559484019460019091019084016124d7565b50858210156125145787850151600019600388901b60f8161c191681555b5050505050600190811b01905550565b634e487b7160e01b600052601160045260246000fd5b808201808211156108c3576108c3612524565b80820281158282048414176108c3576108c3612524565b60008261258157634e487b7160e01b600052601260045260246000fd5b500490565b81835281816020850137506000828201602090810191909152601f909101601f19169091010190565b60006001600160a01b03808a168352602060c081850152601860c08501527f496e746f2054686520566572736520547265652055736572000000000000000060e0850152610100828b1660408601528060608601526126118186018a8c612586565b9250508382036080850152612627828789612586565b84810360a0860152855180825282870193509082019060005b8181101561265c57845183529383019391830191600101612640565b50909c9b505050505050505050505050565b60006020828403121561268057600080fd5b5051919050565b818103818111156108c3576108c3612524565b6000600182016126ac576126ac612524565b5060010190565b600083516126c5818460208801611fd4565b8351908301906126d9818360208801611fd4565b7f2e6a736f6e0000000000000000000000000000000000000000000000000000009101908152600501949350505050565b60008161271957612719612524565b506000190190565b634e487b7160e01b600052603260045260246000fd5b600060a082018783526020878185015260a0604085015281875180845260c086019150828901935060005b818110156127875784516001600160a01b031683529383019391830191600101612762565b50506001600160a01b03969096166060850152505050608001529392505050565b600060208083850312156127bb57600080fd5b825167ffffffffffffffff808211156127d357600080fd5b818501915085601f8301126127e757600080fd5b8151818111156127f9576127f96121a5565b8060051b915061280a8483016121bb565b818152918301840191848101908884111561282457600080fd5b938501935b8385101561284257845182529385019390850190612829565b98975050505050505050565b60006001600160a01b038087168352808616602084015250836040830152608060608301526128806080830184611ff8565b9695505050505050565b60006020828403121561289c57600080fd5b815161152781611fa156fea2646970667358221220b8fa59c9fe843739e2674766725defb5fd62823ab8f0bf926800f0c04ff4561964736f6c63430008140033",
  "linkReferences": {},
  "deployedLinkReferences": {}
}