{
  "_format": "hh-sol-artifact-1",
  "contractName": "TreeContract",
  "sourceName": "contracts/TreeContract.sol",
  "abi": [
    {
      "inputs": [
        {
          "internalType": "string",
          "name": "baseURI",
          "type": "string"
        }
      ],
      "stateMutability": "nonpayable",
      "type": "constructor"
    },
    {
      "inputs": [],
      "name": "ApprovalCallerNotOwnerNorApproved",
      "type": "error"
    },
    {
      "inputs": [],
      "name": "ApprovalQueryForNonexistentToken",
      "type": "error"
    },
    {
      "inputs": [],
      "name": "BalanceQueryForZeroAddress",
      "type": "error"
    },
    {
      "inputs": [],
      "name": "MintERC2309QuantityExceedsLimit",
      "type": "error"
    },
    {
      "inputs": [],
      "name": "MintToZeroAddress",
      "type": "error"
    },
    {
      "inputs": [],
      "name": "MintZeroQuantity",
      "type": "error"
    },
    {
      "inputs": [
        {
          "internalType": "address",
          "name": "owner",
          "type": "address"
        }
      ],
      "name": "OwnableInvalidOwner",
      "type": "error"
    },
    {
      "inputs": [
        {
          "internalType": "address",
          "name": "account",
          "type": "address"
        }
      ],
      "name": "OwnableUnauthorizedAccount",
      "type": "error"
    },
    {
      "inputs": [],
      "name": "OwnerQueryForNonexistentToken",
      "type": "error"
    },
    {
      "inputs": [],
      "name": "OwnershipNotInitializedForExtraData",
      "type": "error"
    },
    {
      "inputs": [],
      "name": "TransferCallerNotOwnerNorApproved",
      "type": "error"
    },
    {
      "inputs": [],
      "name": "TransferFromIncorrectOwner",
      "type": "error"
    },
    {
      "inputs": [],
      "name": "TransferToNonERC721ReceiverImplementer",
      "type": "error"
    },
    {
      "inputs": [],
      "name": "TransferToZeroAddress",
      "type": "error"
    },
    {
      "inputs": [],
      "name": "URIQueryForNonexistentToken",
      "type": "error"
    },
    {
      "anonymous": false,
      "inputs": [
        {
          "indexed": true,
          "internalType": "address",
          "name": "owner",
          "type": "address"
        },
        {
          "indexed": true,
          "internalType": "address",
          "name": "approved",
          "type": "address"
        },
        {
          "indexed": true,
          "internalType": "uint256",
          "name": "tokenId",
          "type": "uint256"
        }
      ],
      "name": "Approval",
      "type": "event"
    },
    {
      "anonymous": false,
      "inputs": [
        {
          "indexed": true,
          "internalType": "address",
          "name": "owner",
          "type": "address"
        },
        {
          "indexed": true,
          "internalType": "address",
          "name": "operator",
          "type": "address"
        },
        {
          "indexed": false,
          "internalType": "bool",
          "name": "approved",
          "type": "bool"
        }
      ],
      "name": "ApprovalForAll",
      "type": "event"
    },
    {
      "anonymous": false,
      "inputs": [
        {
          "indexed": true,
          "internalType": "uint256",
          "name": "fromTokenId",
          "type": "uint256"
        },
        {
          "indexed": false,
          "internalType": "uint256",
          "name": "toTokenId",
          "type": "uint256"
        },
        {
          "indexed": true,
          "internalType": "address",
          "name": "from",
          "type": "address"
        },
        {
          "indexed": true,
          "internalType": "address",
          "name": "to",
          "type": "address"
        }
      ],
      "name": "ConsecutiveTransfer",
      "type": "event"
    },
    {
      "anonymous": false,
      "inputs": [
        {
          "indexed": true,
          "internalType": "address",
          "name": "previousOwner",
          "type": "address"
        },
        {
          "indexed": true,
          "internalType": "address",
          "name": "newOwner",
          "type": "address"
        }
      ],
      "name": "OwnershipTransferred",
      "type": "event"
    },
    {
      "anonymous": false,
      "inputs": [
        {
          "indexed": true,
          "internalType": "address",
          "name": "from",
          "type": "address"
        },
        {
          "indexed": true,
          "internalType": "address",
          "name": "to",
          "type": "address"
        },
        {
          "indexed": true,
          "internalType": "uint256",
          "name": "tokenId",
          "type": "uint256"
        }
      ],
      "name": "Transfer",
      "type": "event"
    },
    {
      "inputs": [],
      "name": "_baseTokenURI",
      "outputs": [
        {
          "internalType": "string",
          "name": "",
          "type": "string"
        }
      ],
      "stateMutability": "view",
      "type": "function"
    },
    {
      "inputs": [
        {
          "internalType": "address",
          "name": "to",
          "type": "address"
        },
        {
          "internalType": "uint256",
          "name": "tokenId",
          "type": "uint256"
        }
      ],
      "name": "approve",
      "outputs": [],
      "stateMutability": "payable",
      "type": "function"
    },
    {
      "inputs": [
        {
          "internalType": "address",
          "name": "owner",
          "type": "address"
        }
      ],
      "name": "balanceOf",
      "outputs": [
        {
          "internalType": "uint256",
          "name": "",
          "type": "uint256"
        }
      ],
      "stateMutability": "view",
      "type": "function"
    },
    {
      "inputs": [],
      "name": "cost",
      "outputs": [
        {
          "internalType": "uint256",
          "name": "",
          "type": "uint256"
        }
      ],
      "stateMutability": "view",
      "type": "function"
    },
    {
      "inputs": [],
      "name": "decayPeriod",
      "outputs": [
        {
          "internalType": "uint256",
          "name": "",
          "type": "uint256"
        }
      ],
      "stateMutability": "view",
      "type": "function"
    },
    {
      "inputs": [],
      "name": "decayRate",
      "outputs": [
        {
          "internalType": "uint256",
          "name": "",
          "type": "uint256"
        }
      ],
      "stateMutability": "view",
      "type": "function"
    },
    {
      "inputs": [
        {
          "internalType": "uint256",
          "name": "_tokenId",
          "type": "uint256"
        }
      ],
      "name": "downgradeTree",
      "outputs": [],
      "stateMutability": "nonpayable",
      "type": "function"
    },
    {
      "inputs": [
        {
          "internalType": "uint256",
          "name": "tokenId",
          "type": "uint256"
        }
      ],
      "name": "getApproved",
      "outputs": [
        {
          "internalType": "address",
          "name": "",
          "type": "address"
        }
      ],
      "stateMutability": "view",
      "type": "function"
    },
    {
      "inputs": [
        {
          "internalType": "uint256",
          "name": "_tokenId",
          "type": "uint256"
        }
      ],
      "name": "getLastWatered",
      "outputs": [
        {
          "internalType": "uint256",
          "name": "",
          "type": "uint256"
        }
      ],
      "stateMutability": "view",
      "type": "function"
    },
    {
      "inputs": [],
      "name": "greenDonationContract",
      "outputs": [
        {
          "internalType": "address",
          "name": "",
          "type": "address"
        }
      ],
      "stateMutability": "view",
      "type": "function"
    },
    {
      "inputs": [
        {
          "internalType": "address",
          "name": "owner",
          "type": "address"
        },
        {
          "internalType": "address",
          "name": "operator",
          "type": "address"
        }
      ],
      "name": "isApprovedForAll",
      "outputs": [
        {
          "internalType": "bool",
          "name": "",
          "type": "bool"
        }
      ],
      "stateMutability": "view",
      "type": "function"
    },
    {
      "inputs": [],
      "name": "maxLevel",
      "outputs": [
        {
          "internalType": "uint256",
          "name": "",
          "type": "uint256"
        }
      ],
      "stateMutability": "view",
      "type": "function"
    },
    {
      "inputs": [],
      "name": "maxSupply",
      "outputs": [
        {
          "internalType": "uint256",
          "name": "",
          "type": "uint256"
        }
      ],
      "stateMutability": "view",
      "type": "function"
    },
    {
      "inputs": [
        {
          "internalType": "uint256",
          "name": "_quantity",
          "type": "uint256"
        }
      ],
      "name": "mint",
      "outputs": [],
      "stateMutability": "payable",
      "type": "function"
    },
    {
      "inputs": [],
      "name": "name",
      "outputs": [
        {
          "internalType": "string",
          "name": "",
          "type": "string"
        }
      ],
      "stateMutability": "view",
      "type": "function"
    },
    {
      "inputs": [],
      "name": "owner",
      "outputs": [
        {
          "internalType": "address",
          "name": "",
          "type": "address"
        }
      ],
      "stateMutability": "view",
      "type": "function"
    },
    {
      "inputs": [
        {
          "internalType": "uint256",
          "name": "tokenId",
          "type": "uint256"
        }
      ],
      "name": "ownerOf",
      "outputs": [
        {
          "internalType": "address",
          "name": "",
          "type": "address"
        }
      ],
      "stateMutability": "view",
      "type": "function"
    },
    {
      "inputs": [],
      "name": "renounceOwnership",
      "outputs": [],
      "stateMutability": "nonpayable",
      "type": "function"
    },
    {
      "inputs": [
        {
          "internalType": "address",
          "name": "from",
          "type": "address"
        },
        {
          "internalType": "address",
          "name": "to",
          "type": "address"
        },
        {
          "internalType": "uint256",
          "name": "tokenId",
          "type": "uint256"
        }
      ],
      "name": "safeTransferFrom",
      "outputs": [],
      "stateMutability": "payable",
      "type": "function"
    },
    {
      "inputs": [
        {
          "internalType": "address",
          "name": "from",
          "type": "address"
        },
        {
          "internalType": "address",
          "name": "to",
          "type": "address"
        },
        {
          "internalType": "uint256",
          "name": "tokenId",
          "type": "uint256"
        },
        {
          "internalType": "bytes",
          "name": "_data",
          "type": "bytes"
        }
      ],
      "name": "safeTransferFrom",
      "outputs": [],
      "stateMutability": "payable",
      "type": "function"
    },
    {
      "inputs": [
        {
          "internalType": "address",
          "name": "operator",
          "type": "address"
        },
        {
          "internalType": "bool",
          "name": "approved",
          "type": "bool"
        }
      ],
      "name": "setApprovalForAll",
      "outputs": [],
      "stateMutability": "nonpayable",
      "type": "function"
    },
    {
      "inputs": [
        {
          "internalType": "string",
          "name": "_uri",
          "type": "string"
        }
      ],
      "name": "setBaseURI",
      "outputs": [],
      "stateMutability": "nonpayable",
      "type": "function"
    },
    {
      "inputs": [
        {
          "internalType": "uint256",
          "name": "_cost",
          "type": "uint256"
        }
      ],
      "name": "setCost",
      "outputs": [],
      "stateMutability": "nonpayable",
      "type": "function"
    },
    {
      "inputs": [
        {
          "internalType": "address",
          "name": "_greenDonationContract",
          "type": "address"
        }
      ],
      "name": "setGreenDonationContract",
      "outputs": [],
      "stateMutability": "nonpayable",
      "type": "function"
    },
    {
      "inputs": [
        {
          "internalType": "bytes4",
          "name": "interfaceId",
          "type": "bytes4"
        }
      ],
      "name": "supportsInterface",
      "outputs": [
        {
          "internalType": "bool",
          "name": "",
          "type": "bool"
        }
      ],
      "stateMutability": "view",
      "type": "function"
    },
    {
      "inputs": [],
      "name": "symbol",
      "outputs": [
        {
          "internalType": "string",
          "name": "",
          "type": "string"
        }
      ],
      "stateMutability": "view",
      "type": "function"
    },
    {
      "inputs": [
        {
          "internalType": "uint256",
          "name": "tokenId",
          "type": "uint256"
        }
      ],
      "name": "tokenURI",
      "outputs": [
        {
          "internalType": "string",
          "name": "",
          "type": "string"
        }
      ],
      "stateMutability": "view",
      "type": "function"
    },
    {
      "inputs": [],
      "name": "totalSupply",
      "outputs": [
        {
          "internalType": "uint256",
          "name": "",
          "type": "uint256"
        }
      ],
      "stateMutability": "view",
      "type": "function"
    },
    {
      "inputs": [
        {
          "internalType": "address",
          "name": "from",
          "type": "address"
        },
        {
          "internalType": "address",
          "name": "to",
          "type": "address"
        },
        {
          "internalType": "uint256",
          "name": "tokenId",
          "type": "uint256"
        }
      ],
      "name": "transferFrom",
      "outputs": [],
      "stateMutability": "payable",
      "type": "function"
    },
    {
      "inputs": [
        {
          "internalType": "address",
          "name": "newOwner",
          "type": "address"
        }
      ],
      "name": "transferOwnership",
      "outputs": [],
      "stateMutability": "nonpayable",
      "type": "function"
    },
    {
      "inputs": [
        {
          "internalType": "uint256",
          "name": "",
          "type": "uint256"
        }
      ],
      "name": "trees",
      "outputs": [
        {
          "internalType": "uint256",
          "name": "level",
          "type": "uint256"
        },
        {
          "internalType": "uint256",
          "name": "lastWatered",
          "type": "uint256"
        }
      ],
      "stateMutability": "view",
      "type": "function"
    },
    {
      "inputs": [
        {
          "internalType": "uint256",
          "name": "_tokenId",
          "type": "uint256"
        }
      ],
      "name": "waterTree",
      "outputs": [],
      "stateMutability": "nonpayable",
      "type": "function"
    },
    {
      "inputs": [],
      "name": "withdraw",
      "outputs": [],
      "stateMutability": "nonpayable",
      "type": "function"
    }
  ],
  "bytecode": "0x608060405260006009553480156200001657600080fd5b5060405162003b2038038062003b2083398181016040528101906200003c9190620003e5565b6040518060400160405280600d81526020017f5472656520436f6e7472616374000000000000000000000000000000000000008152506040518060400160405280600381526020017f544354000000000000000000000000000000000000000000000000000000000081525033600073ffffffffffffffffffffffffffffffffffffffff168173ffffffffffffffffffffffffffffffffffffffff16036200011e5760006040517f1e4fbdf70000000000000000000000000000000000000000000000000000000081526004016200011591906200047b565b60405180910390fd5b6200012f816200018560201b60201c565b508160039081620001419190620006e3565b508060049081620001539190620006e3565b50620001646200024960201b60201c565b600181905550505080600a90816200017d9190620006e3565b5050620007ca565b60008060009054906101000a900473ffffffffffffffffffffffffffffffffffffffff169050816000806101000a81548173ffffffffffffffffffffffffffffffffffffffff021916908373ffffffffffffffffffffffffffffffffffffffff1602179055508173ffffffffffffffffffffffffffffffffffffffff168173ffffffffffffffffffffffffffffffffffffffff167f8be0079c531659141344cd1fd0a4f28419497f9722a3daafe3b4186f6b6457e060405160405180910390a35050565b60006001905090565b6000604051905090565b600080fd5b600080fd5b600080fd5b600080fd5b6000601f19601f8301169050919050565b7f4e487b7100000000000000000000000000000000000000000000000000000000600052604160045260246000fd5b620002bb8262000270565b810181811067ffffffffffffffff82111715620002dd57620002dc62000281565b5b80604052505050565b6000620002f262000252565b9050620003008282620002b0565b919050565b600067ffffffffffffffff82111562000323576200032262000281565b5b6200032e8262000270565b9050602081019050919050565b60005b838110156200035b5780820151818401526020810190506200033e565b60008484015250505050565b60006200037e620003788462000305565b620002e6565b9050828152602081018484840111156200039d576200039c6200026b565b5b620003aa8482856200033b565b509392505050565b600082601f830112620003ca57620003c962000266565b5b8151620003dc84826020860162000367565b91505092915050565b600060208284031215620003fe57620003fd6200025c565b5b600082015167ffffffffffffffff8111156200041f576200041e62000261565b5b6200042d84828501620003b2565b91505092915050565b600073ffffffffffffffffffffffffffffffffffffffff82169050919050565b6000620004638262000436565b9050919050565b620004758162000456565b82525050565b60006020820190506200049260008301846200046a565b92915050565b600081519050919050565b7f4e487b7100000000000000000000000000000000000000000000000000000000600052602260045260246000fd5b60006002820490506001821680620004eb57607f821691505b602082108103620005015762000500620004a3565b5b50919050565b60008190508160005260206000209050919050565b60006020601f8301049050919050565b600082821b905092915050565b6000600883026200056b7fffffffffffffffffffffffffffffffffffffffffffffffffffffffffffffffff826200052c565b6200057786836200052c565b95508019841693508086168417925050509392505050565b6000819050919050565b6000819050919050565b6000620005c4620005be620005b8846200058f565b62000599565b6200058f565b9050919050565b6000819050919050565b620005e083620005a3565b620005f8620005ef82620005cb565b84845462000539565b825550505050565b600090565b6200060f62000600565b6200061c818484620005d5565b505050565b5b8181101562000644576200063860008262000605565b60018101905062000622565b5050565b601f82111562000693576200065d8162000507565b62000668846200051c565b8101602085101562000678578190505b6200069062000687856200051c565b83018262000621565b50505b505050565b600082821c905092915050565b6000620006b86000198460080262000698565b1980831691505092915050565b6000620006d38383620006a5565b9150826002028217905092915050565b620006ee8262000498565b67ffffffffffffffff8111156200070a576200070962000281565b5b620007168254620004d2565b6200072382828562000648565b600060209050601f8311600181146200075b576000841562000746578287015190505b620007528582620006c5565b865550620007c2565b601f1984166200076b8662000507565b60005b8281101562000795578489015182556001820191506020850194506020810190506200076e565b86831015620007b55784890151620007b1601f891682620006a5565b8355505b6001600288020188555050505b505050505050565b61334680620007da6000396000f3fe6080604052600436106101ee5760003560e01c8063715018a61161010d578063a9c1f2f1116100a0578063cfc86f7b1161006f578063cfc86f7b146106a9578063d5abeb01146106d4578063e3a3ed75146106ff578063e985e9c514610728578063f2fde38b14610765576101ee565b8063a9c1f2f1146105fa578063b88d4fde14610625578063c87b56dd14610641578063cc06c3591461067e576101ee565b806395d89b41116100dc57806395d89b4114610561578063998b723b1461058c578063a0712d68146105b5578063a22cb465146105d1576101ee565b8063715018a6146104b65780637a508022146104cd5780638378e58f1461050b5780638da5cb5b14610536576101ee565b80633ccfd60b1161018557806355f804b31161015457806355f804b3146103ea5780636352211e1461041357806364c902421461045057806370a0823114610479576101ee565b80633ccfd60b1461036357806342842e0e1461037a57806344a0d68a1461039657806348d67e1b146103bf576101ee565b806313bc5135116101c157806313bc5135146102b457806313faede6146102f157806318160ddd1461031c57806323b872dd14610347576101ee565b806301ffc9a7146101f357806306fdde0314610230578063081812fc1461025b578063095ea7b314610298575b600080fd5b3480156101ff57600080fd5b5061021a6004803603810190610215919061232d565b61078e565b6040516102279190612375565b60405180910390f35b34801561023c57600080fd5b50610245610820565b6040516102529190612420565b60405180910390f35b34801561026757600080fd5b50610282600480360381019061027d9190612478565b6108b2565b60405161028f91906124e6565b60405180910390f35b6102b260048036038101906102ad919061252d565b610931565b005b3480156102c057600080fd5b506102db60048036038101906102d69190612478565b610a75565b6040516102e8919061257c565b60405180910390f35b3480156102fd57600080fd5b50610306610a95565b604051610313919061257c565b60405180910390f35b34801561032857600080fd5b50610331610a9b565b60405161033e919061257c565b60405180910390f35b610361600480360381019061035c9190612597565b610ab2565b005b34801561036f57600080fd5b50610378610dd4565b005b610394600480360381019061038f9190612597565b610e98565b005b3480156103a257600080fd5b506103bd60048036038101906103b89190612478565b610eb8565b005b3480156103cb57600080fd5b506103d4610eca565b6040516103e1919061257c565b60405180910390f35b3480156103f657600080fd5b50610411600480360381019061040c919061271f565b610ed1565b005b34801561041f57600080fd5b5061043a60048036038101906104359190612478565b610eec565b60405161044791906124e6565b60405180910390f35b34801561045c57600080fd5b5061047760048036038101906104729190612768565b610efe565b005b34801561048557600080fd5b506104a0600480360381019061049b9190612768565b610f4a565b6040516104ad919061257c565b60405180910390f35b3480156104c257600080fd5b506104cb611002565b005b3480156104d957600080fd5b506104f460048036038101906104ef9190612478565b611016565b604051610502929190612795565b60405180910390f35b34801561051757600080fd5b5061052061103a565b60405161052d91906124e6565b60405180910390f35b34801561054257600080fd5b5061054b611060565b60405161055891906124e6565b60405180910390f35b34801561056d57600080fd5b50610576611089565b6040516105839190612420565b60405180910390f35b34801561059857600080fd5b506105b360048036038101906105ae9190612478565b61111b565b005b6105cf60048036038101906105ca9190612478565b6112c2565b005b3480156105dd57600080fd5b506105f860048036038101906105f391906127ea565b6113d2565b005b34801561060657600080fd5b5061060f6114dd565b60405161061c919061257c565b60405180910390f35b61063f600480360381019061063a91906128cb565b6114e2565b005b34801561064d57600080fd5b5061066860048036038101906106639190612478565b611555565b6040516106759190612420565b60405180910390f35b34801561068a57600080fd5b506106936115fc565b6040516106a0919061257c565b60405180910390f35b3480156106b557600080fd5b506106be611601565b6040516106cb9190612420565b60405180910390f35b3480156106e057600080fd5b506106e961168f565b6040516106f6919061257c565b60405180910390f35b34801561070b57600080fd5b5061072660048036038101906107219190612478565b611695565b005b34801561073457600080fd5b5061074f600480360381019061074a919061294e565b6117bc565b60405161075c9190612375565b60405180910390f35b34801561077157600080fd5b5061078c60048036038101906107879190612768565b611850565b005b60006301ffc9a760e01b827bffffffffffffffffffffffffffffffffffffffffffffffffffffffff191614806107e957506380ac58cd60e01b827bffffffffffffffffffffffffffffffffffffffffffffffffffffffff1916145b806108195750635b5e139f60e01b827bffffffffffffffffffffffffffffffffffffffffffffffffffffffff1916145b9050919050565b60606003805461082f906129bd565b80601f016020809104026020016040519081016040528092919081815260200182805461085b906129bd565b80156108a85780601f1061087d576101008083540402835291602001916108a8565b820191906000526020600020905b81548152906001019060200180831161088b57829003601f168201915b5050505050905090565b60006108bd826118d6565b6108f3576040517fcf4700e400000000000000000000000000000000000000000000000000000000815260040160405180910390fd5b6007600083815260200190815260200160002060000160009054906101000a900473ffffffffffffffffffffffffffffffffffffffff169050919050565b600061093c82610eec565b90508073ffffffffffffffffffffffffffffffffffffffff1661095d611935565b73ffffffffffffffffffffffffffffffffffffffff16146109c05761098981610984611935565b6117bc565b6109bf576040517fcfb3b94200000000000000000000000000000000000000000000000000000000815260040160405180910390fd5b5b826007600084815260200190815260200160002060000160006101000a81548173ffffffffffffffffffffffffffffffffffffffff021916908373ffffffffffffffffffffffffffffffffffffffff160217905550818373ffffffffffffffffffffffffffffffffffffffff168273ffffffffffffffffffffffffffffffffffffffff167f8c5be1e5ebec7d5bd14f71427d1e84f3dd0314c0f7b2291e5b200ac8c7c3b92560405160405180910390a4505050565b6000600c6000838152602001908152602001600020600101549050919050565b60095481565b6000610aa561193d565b6002546001540303905090565b6000610abd82611946565b90508373ffffffffffffffffffffffffffffffffffffffff168173ffffffffffffffffffffffffffffffffffffffff1614610b24576040517fa114810000000000000000000000000000000000000000000000000000000000815260040160405180910390fd5b600080610b3084611a12565b91509150610b468187610b41611935565b611a39565b610b9257610b5b86610b56611935565b6117bc565b610b91576040517f59c896be00000000000000000000000000000000000000000000000000000000815260040160405180910390fd5b5b600073ffffffffffffffffffffffffffffffffffffffff168573ffffffffffffffffffffffffffffffffffffffff1603610bf8576040517fea553b3400000000000000000000000000000000000000000000000000000000815260040160405180910390fd5b610c058686866001611a7d565b8015610c1057600082555b600660008773ffffffffffffffffffffffffffffffffffffffff1673ffffffffffffffffffffffffffffffffffffffff168152602001908152602001600020600081546001900391905081905550600660008673ffffffffffffffffffffffffffffffffffffffff1673ffffffffffffffffffffffffffffffffffffffff1681526020019081526020016000206000815460010191905081905550610cde85610cba888887611a83565b7c020000000000000000000000000000000000000000000000000000000017611aab565b600560008681526020019081526020016000208190555060007c0200000000000000000000000000000000000000000000000000000000841603610d645760006001850190506000600560008381526020019081526020016000205403610d62576001548114610d61578360056000838152602001908152602001600020819055505b5b505b838573ffffffffffffffffffffffffffffffffffffffff168773ffffffffffffffffffffffffffffffffffffffff167fddf252ad1be2c89b69c2b068fc378daa952ba7f163c4a11628f55a4df523b3ef60405160405180910390a4610dcc8686866001611ad6565b505050505050565b610ddc611adc565b60004790506000610deb611060565b73ffffffffffffffffffffffffffffffffffffffff1682604051610e0e90612a1f565b60006040518083038185875af1925050503d8060008114610e4b576040519150601f19603f3d011682016040523d82523d6000602084013e610e50565b606091505b5050905080610e94576040517f08c379a0000000000000000000000000000000000000000000000000000000008152600401610e8b90612a80565b60405180910390fd5b5050565b610eb3838383604051806020016040528060008152506114e2565b505050565b610ec0611adc565b8060098190555050565b62093a8081565b610ed9611adc565b80600a9081610ee89190612c4c565b5050565b6000610ef782611946565b9050919050565b610f06611adc565b80600b60006101000a81548173ffffffffffffffffffffffffffffffffffffffff021916908373ffffffffffffffffffffffffffffffffffffffff16021790555050565b60008073ffffffffffffffffffffffffffffffffffffffff168273ffffffffffffffffffffffffffffffffffffffff1603610fb1576040517f8f4eb60400000000000000000000000000000000000000000000000000000000815260040160405180910390fd5b67ffffffffffffffff600660008473ffffffffffffffffffffffffffffffffffffffff1673ffffffffffffffffffffffffffffffffffffffff16815260200190815260200160002054169050919050565b61100a611adc565b6110146000611b63565b565b600c6020528060005260406000206000915090508060000154908060010154905082565b600b60009054906101000a900473ffffffffffffffffffffffffffffffffffffffff1681565b60008060009054906101000a900473ffffffffffffffffffffffffffffffffffffffff16905090565b606060048054611098906129bd565b80601f01602080910402602001604051908101604052809291908181526020018280546110c4906129bd565b80156111115780601f106110e657610100808354040283529160200191611111565b820191906000526020600020905b8154815290600101906020018083116110f457829003601f168201915b5050505050905090565b600b60009054906101000a900473ffffffffffffffffffffffffffffffffffffffff1673ffffffffffffffffffffffffffffffffffffffff163373ffffffffffffffffffffffffffffffffffffffff16146111ab576040517f08c379a00000000000000000000000000000000000000000000000000000000081526004016111a290612d90565b60405180910390fd5b6111b4816118d6565b6111f3576040517f08c379a00000000000000000000000000000000000000000000000000000000081526004016111ea90612dfc565b60405180910390fd5b60006111fe82611c27565b905060008111156112775780600c60008481526020019081526020016000206000015411156112595780600c6000848152602001908152602001600020600001600082825461124d9190612e4b565b92505081905550611276565b6001600c6000848152602001908152602001600020600001819055505b5b42600c600084815260200190815260200160002060010181905550600c600083815260200190815260200160002060000160008154809291906112b990612e7f565b91905055505050565b60006112cc611c77565b9050600a826112da33611c8a565b6112e49190612ec7565b1115611325576040517f08c379a000000000000000000000000000000000000000000000000000000000815260040161131c90612f47565b60405180910390fd5b61271082826113349190612ec7565b1115611375576040517f08c379a000000000000000000000000000000000000000000000000000000000815260040161136c90612fb3565b60405180910390fd5b816009546113839190612fd3565b34146113c4576040517f08c379a00000000000000000000000000000000000000000000000000000000081526004016113bb90613061565b60405180910390fd5b6113ce3383611ce1565b5050565b80600860006113df611935565b73ffffffffffffffffffffffffffffffffffffffff1673ffffffffffffffffffffffffffffffffffffffff16815260200190815260200160002060008473ffffffffffffffffffffffffffffffffffffffff1673ffffffffffffffffffffffffffffffffffffffff16815260200190815260200160002060006101000a81548160ff0219169083151502179055508173ffffffffffffffffffffffffffffffffffffffff1661148c611935565b73ffffffffffffffffffffffffffffffffffffffff167f17307eab39ab6107e8899845ad3d59bd9653f200f220920489ca2b5937696c31836040516114d19190612375565b60405180910390a35050565b600181565b6114ed848484610ab2565b60008373ffffffffffffffffffffffffffffffffffffffff163b1461154f5761151884848484611e9d565b61154e576040517fd1a57ed600000000000000000000000000000000000000000000000000000000815260040160405180910390fd5b5b50505050565b6060611560826118d6565b61159f576040517f08c379a0000000000000000000000000000000000000000000000000000000008152600401611596906130cd565b60405180910390fd5b60006115a9611fed565b905060008151116115c957604051806020016040528060008152506115f4565b806115d38461207f565b6040516020016115e4929190613175565b6040516020818303038152906040525b915050919050565b600a81565b600a805461160e906129bd565b80601f016020809104026020016040519081016040528092919081815260200182805461163a906129bd565b80156116875780601f1061165c57610100808354040283529160200191611687565b820191906000526020600020905b81548152906001019060200180831161166a57829003601f168201915b505050505081565b61271081565b600b60009054906101000a900473ffffffffffffffffffffffffffffffffffffffff1673ffffffffffffffffffffffffffffffffffffffff163373ffffffffffffffffffffffffffffffffffffffff1614611725576040517f08c379a000000000000000000000000000000000000000000000000000000000815260040161171c90612d90565b60405180910390fd5b61172e816118d6565b61176d576040517f08c379a000000000000000000000000000000000000000000000000000000000815260040161176490612dfc565b60405180910390fd5b6001600c60008381526020019081526020016000206000015411156117b957600c600082815260200190815260200160002060000160008154809291906117b3906131a4565b91905055505b50565b6000600860008473ffffffffffffffffffffffffffffffffffffffff1673ffffffffffffffffffffffffffffffffffffffff16815260200190815260200160002060008373ffffffffffffffffffffffffffffffffffffffff1673ffffffffffffffffffffffffffffffffffffffff16815260200190815260200160002060009054906101000a900460ff16905092915050565b611858611adc565b600073ffffffffffffffffffffffffffffffffffffffff168173ffffffffffffffffffffffffffffffffffffffff16036118ca5760006040517f1e4fbdf70000000000000000000000000000000000000000000000000000000081526004016118c191906124e6565b60405180910390fd5b6118d381611b63565b50565b6000816118e161193d565b111580156118f0575060015482105b801561192e575060007c0100000000000000000000000000000000000000000000000000000000600560008581526020019081526020016000205416145b9050919050565b600033905090565b60006001905090565b6000808290508061195561193d565b116119db576001548110156119da5760006005600083815260200190815260200160002054905060007c01000000000000000000000000000000000000000000000000000000008216036119d8575b600081036119ce5760056000836001900393508381526020019081526020016000205490506119a4565b8092505050611a0d565b505b5b6040517fdf2d9b4200000000000000000000000000000000000000000000000000000000815260040160405180910390fd5b919050565b60008060006007600085815260200190815260200160002090508092508254915050915091565b600073ffffffffffffffffffffffffffffffffffffffff8316925073ffffffffffffffffffffffffffffffffffffffff821691508382148383141790509392505050565b50505050565b60008060e883901c905060e8611a9a86868461214d565b62ffffff16901b9150509392505050565b600073ffffffffffffffffffffffffffffffffffffffff83169250814260a01b178317905092915050565b50505050565b611ae4612156565b73ffffffffffffffffffffffffffffffffffffffff16611b02611060565b73ffffffffffffffffffffffffffffffffffffffff1614611b6157611b25612156565b6040517f118cdaa7000000000000000000000000000000000000000000000000000000008152600401611b5891906124e6565b60405180910390fd5b565b60008060009054906101000a900473ffffffffffffffffffffffffffffffffffffffff169050816000806101000a81548173ffffffffffffffffffffffffffffffffffffffff021916908373ffffffffffffffffffffffffffffffffffffffff1602179055508173ffffffffffffffffffffffffffffffffffffffff168173ffffffffffffffffffffffffffffffffffffffff167f8be0079c531659141344cd1fd0a4f28419497f9722a3daafe3b4186f6b6457e060405160405180910390a35050565b600080600c60008481526020019081526020016000206001015442611c4c9190612e4b565b9050600062093a8082611c5f91906131fc565b9050600181611c6e9190612fd3565b92505050919050565b6000611c8161193d565b60015403905090565b600067ffffffffffffffff6040600660008573ffffffffffffffffffffffffffffffffffffffff1673ffffffffffffffffffffffffffffffffffffffff16815260200190815260200160002054901c169050919050565b6000600154905060008203611d22576040517fb562e8dd00000000000000000000000000000000000000000000000000000000815260040160405180910390fd5b611d2f6000848385611a7d565b600160406001901b178202600660008573ffffffffffffffffffffffffffffffffffffffff1673ffffffffffffffffffffffffffffffffffffffff16815260200190815260200160002060008282540192505081905550611da683611d976000866000611a83565b611da08561215e565b17611aab565b6005600083815260200190815260200160002081905550600080838301905073ffffffffffffffffffffffffffffffffffffffff85169150828260007fddf252ad1be2c89b69c2b068fc378daa952ba7f163c4a11628f55a4df523b3ef600080a4600183015b818114611e4757808360007fddf252ad1be2c89b69c2b068fc378daa952ba7f163c4a11628f55a4df523b3ef600080a4600181019050611e0c565b5060008203611e82576040517f2e07630000000000000000000000000000000000000000000000000000000000815260040160405180910390fd5b806001819055505050611e986000848385611ad6565b505050565b60008373ffffffffffffffffffffffffffffffffffffffff1663150b7a02611ec3611935565b8786866040518563ffffffff1660e01b8152600401611ee59493929190613282565b6020604051808303816000875af1925050508015611f2157506040513d601f19601f82011682018060405250810190611f1e91906132e3565b60015b611f9a573d8060008114611f51576040519150601f19603f3d011682016040523d82523d6000602084013e611f56565b606091505b506000815103611f92576040517fd1a57ed600000000000000000000000000000000000000000000000000000000815260040160405180910390fd5b805181602001fd5b63150b7a0260e01b7bffffffffffffffffffffffffffffffffffffffffffffffffffffffff1916817bffffffffffffffffffffffffffffffffffffffffffffffffffffffff191614915050949350505050565b6060600a8054611ffc906129bd565b80601f0160208091040260200160405190810160405280929190818152602001828054612028906129bd565b80156120755780601f1061204a57610100808354040283529160200191612075565b820191906000526020600020905b81548152906001019060200180831161205857829003601f168201915b5050505050905090565b60606000600161208e8461216e565b01905060008167ffffffffffffffff8111156120ad576120ac6125f4565b5b6040519080825280601f01601f1916602001820160405280156120df5781602001600182028036833780820191505090505b509050600082602001820190505b600115612142578080600190039150507f3031323334353637383961626364656600000000000000000000000000000000600a86061a8153600a8581612136576121356131cd565b5b049450600085036120ed575b819350505050919050565b60009392505050565b600033905090565b60006001821460e11b9050919050565b600080600090507a184f03e93ff9f4daa797ed6e38ed64bf6a1f01000000000000000083106121cc577a184f03e93ff9f4daa797ed6e38ed64bf6a1f01000000000000000083816121c2576121c16131cd565b5b0492506040810190505b6d04ee2d6d415b85acef81000000008310612209576d04ee2d6d415b85acef810000000083816121ff576121fe6131cd565b5b0492506020810190505b662386f26fc10000831061223857662386f26fc10000838161222e5761222d6131cd565b5b0492506010810190505b6305f5e1008310612261576305f5e1008381612257576122566131cd565b5b0492506008810190505b612710831061228657612710838161227c5761227b6131cd565b5b0492506004810190505b606483106122a9576064838161229f5761229e6131cd565b5b0492506002810190505b600a83106122b8576001810190505b80915050919050565b6000604051905090565b600080fd5b600080fd5b60007fffffffff0000000000000000000000000000000000000000000000000000000082169050919050565b61230a816122d5565b811461231557600080fd5b50565b60008135905061232781612301565b92915050565b600060208284031215612343576123426122cb565b5b600061235184828501612318565b91505092915050565b60008115159050919050565b61236f8161235a565b82525050565b600060208201905061238a6000830184612366565b92915050565b600081519050919050565b600082825260208201905092915050565b60005b838110156123ca5780820151818401526020810190506123af565b60008484015250505050565b6000601f19601f8301169050919050565b60006123f282612390565b6123fc818561239b565b935061240c8185602086016123ac565b612415816123d6565b840191505092915050565b6000602082019050818103600083015261243a81846123e7565b905092915050565b6000819050919050565b61245581612442565b811461246057600080fd5b50565b6000813590506124728161244c565b92915050565b60006020828403121561248e5761248d6122cb565b5b600061249c84828501612463565b91505092915050565b600073ffffffffffffffffffffffffffffffffffffffff82169050919050565b60006124d0826124a5565b9050919050565b6124e0816124c5565b82525050565b60006020820190506124fb60008301846124d7565b92915050565b61250a816124c5565b811461251557600080fd5b50565b60008135905061252781612501565b92915050565b60008060408385031215612544576125436122cb565b5b600061255285828601612518565b925050602061256385828601612463565b9150509250929050565b61257681612442565b82525050565b6000602082019050612591600083018461256d565b92915050565b6000806000606084860312156125b0576125af6122cb565b5b60006125be86828701612518565b93505060206125cf86828701612518565b92505060406125e086828701612463565b9150509250925092565b600080fd5b600080fd5b7f4e487b7100000000000000000000000000000000000000000000000000000000600052604160045260246000fd5b61262c826123d6565b810181811067ffffffffffffffff8211171561264b5761264a6125f4565b5b80604052505050565b600061265e6122c1565b905061266a8282612623565b919050565b600067ffffffffffffffff82111561268a576126896125f4565b5b612693826123d6565b9050602081019050919050565b82818337600083830152505050565b60006126c26126bd8461266f565b612654565b9050828152602081018484840111156126de576126dd6125ef565b5b6126e98482856126a0565b509392505050565b600082601f830112612706576127056125ea565b5b81356127168482602086016126af565b91505092915050565b600060208284031215612735576127346122cb565b5b600082013567ffffffffffffffff811115612753576127526122d0565b5b61275f848285016126f1565b91505092915050565b60006020828403121561277e5761277d6122cb565b5b600061278c84828501612518565b91505092915050565b60006040820190506127aa600083018561256d565b6127b7602083018461256d565b9392505050565b6127c78161235a565b81146127d257600080fd5b50565b6000813590506127e4816127be565b92915050565b60008060408385031215612801576128006122cb565b5b600061280f85828601612518565b9250506020612820858286016127d5565b9150509250929050565b600067ffffffffffffffff821115612845576128446125f4565b5b61284e826123d6565b9050602081019050919050565b600061286e6128698461282a565b612654565b90508281526020810184848401111561288a576128896125ef565b5b6128958482856126a0565b509392505050565b600082601f8301126128b2576128b16125ea565b5b81356128c284826020860161285b565b91505092915050565b600080600080608085870312156128e5576128e46122cb565b5b60006128f387828801612518565b945050602061290487828801612518565b935050604061291587828801612463565b925050606085013567ffffffffffffffff811115612936576129356122d0565b5b6129428782880161289d565b91505092959194509250565b60008060408385031215612965576129646122cb565b5b600061297385828601612518565b925050602061298485828601612518565b9150509250929050565b7f4e487b7100000000000000000000000000000000000000000000000000000000600052602260045260246000fd5b600060028204905060018216806129d557607f821691505b6020821081036129e8576129e761298e565b5b50919050565b600081905092915050565b50565b6000612a096000836129ee565b9150612a14826129f9565b600082019050919050565b6000612a2a826129fc565b9150819050919050565b7f4661696c656420746f2073656e64204574686572000000000000000000000000600082015250565b6000612a6a60148361239b565b9150612a7582612a34565b602082019050919050565b60006020820190508181036000830152612a9981612a5d565b9050919050565b60008190508160005260206000209050919050565b60006020601f8301049050919050565b600082821b905092915050565b600060088302612b027fffffffffffffffffffffffffffffffffffffffffffffffffffffffffffffffff82612ac5565b612b0c8683612ac5565b95508019841693508086168417925050509392505050565b6000819050919050565b6000612b49612b44612b3f84612442565b612b24565b612442565b9050919050565b6000819050919050565b612b6383612b2e565b612b77612b6f82612b50565b848454612ad2565b825550505050565b600090565b612b8c612b7f565b612b97818484612b5a565b505050565b5b81811015612bbb57612bb0600082612b84565b600181019050612b9d565b5050565b601f821115612c0057612bd181612aa0565b612bda84612ab5565b81016020851015612be9578190505b612bfd612bf585612ab5565b830182612b9c565b50505b505050565b600082821c905092915050565b6000612c2360001984600802612c05565b1980831691505092915050565b6000612c3c8383612c12565b9150826002028217905092915050565b612c5582612390565b67ffffffffffffffff811115612c6e57612c6d6125f4565b5b612c7882546129bd565b612c83828285612bbf565b600060209050601f831160018114612cb65760008415612ca4578287015190505b612cae8582612c30565b865550612d16565b601f198416612cc486612aa0565b60005b82811015612cec57848901518255600182019150602085019450602081019050612cc7565b86831015612d095784890151612d05601f891682612c12565b8355505b6001600288020188555050505b505050505050565b7f4f6e6c7920677265656e20646f6e6174696f6e20636f6e74726163742063616e60008201527f2063616c6c20746869732066756e6374696f6e00000000000000000000000000602082015250565b6000612d7a60338361239b565b9150612d8582612d1e565b604082019050919050565b60006020820190508181036000830152612da981612d6d565b9050919050565b7f5472656520646f6573206e6f7420657869737400000000000000000000000000600082015250565b6000612de660138361239b565b9150612df182612db0565b602082019050919050565b60006020820190508181036000830152612e1581612dd9565b9050919050565b7f4e487b7100000000000000000000000000000000000000000000000000000000600052601160045260246000fd5b6000612e5682612442565b9150612e6183612442565b9250828203905081811115612e7957612e78612e1c565b5b92915050565b6000612e8a82612442565b91507fffffffffffffffffffffffffffffffffffffffffffffffffffffffffffffffff8203612ebc57612ebb612e1c565b5b600182019050919050565b6000612ed282612442565b9150612edd83612442565b9250828201905080821115612ef557612ef4612e1c565b5b92915050565b7f457863656564206d6178206d696e7461626c6520616d6f756e74000000000000600082015250565b6000612f31601a8361239b565b9150612f3c82612efb565b602082019050919050565b60006020820190508181036000830152612f6081612f24565b9050919050565b7f457863656564206d6178696d756d20737570706c790000000000000000000000600082015250565b6000612f9d60158361239b565b9150612fa882612f67565b602082019050919050565b60006020820190508181036000830152612fcc81612f90565b9050919050565b6000612fde82612442565b9150612fe983612442565b9250828202612ff781612442565b9150828204841483151761300e5761300d612e1c565b5b5092915050565b7f496e636f72726563742076616c75652073656e74000000000000000000000000600082015250565b600061304b60148361239b565b915061305682613015565b602082019050919050565b6000602082019050818103600083015261307a8161303e565b9050919050565b7f55524920717565727920666f72206e6f6e6578697374656e7420746f6b656e00600082015250565b60006130b7601f8361239b565b91506130c282613081565b602082019050919050565b600060208201905081810360008301526130e6816130aa565b9050919050565b600081905092915050565b600061310382612390565b61310d81856130ed565b935061311d8185602086016123ac565b80840191505092915050565b7f2e6a736f6e000000000000000000000000000000000000000000000000000000600082015250565b600061315f6005836130ed565b915061316a82613129565b600582019050919050565b600061318182856130f8565b915061318d82846130f8565b915061319882613152565b91508190509392505050565b60006131af82612442565b9150600082036131c2576131c1612e1c565b5b600182039050919050565b7f4e487b7100000000000000000000000000000000000000000000000000000000600052601260045260246000fd5b600061320782612442565b915061321283612442565b925082613222576132216131cd565b5b828204905092915050565b600081519050919050565b600082825260208201905092915050565b60006132548261322d565b61325e8185613238565b935061326e8185602086016123ac565b613277816123d6565b840191505092915050565b600060808201905061329760008301876124d7565b6132a460208301866124d7565b6132b1604083018561256d565b81810360608301526132c38184613249565b905095945050505050565b6000815190506132dd81612301565b92915050565b6000602082840312156132f9576132f86122cb565b5b6000613307848285016132ce565b9150509291505056fea2646970667358221220602f3775f3adedc242b95c13a05e39fce5a6730195709e3f68831d610d4de12b64736f6c63430008140033",
  "linkReferences": {},
  "deployedLinkReferences": {}
}