{
  "_format": "hh-sol-artifact-1",
  "contractName": "RetirementCertificateEscrow",
  "sourceName": "contracts/RetirementCertificateEscrow.sol",
  "abi": [
    {
      "inputs": [],
      "stateMutability": "nonpayable",
      "type": "constructor"
    },
    {
      "inputs": [
        {
          "internalType": "address",
          "name": "owner",
          "type": "address"
        }
      ],
      "name": "OwnableInvalidOwner",
      "type": "error"
    },
    {
      "inputs": [
        {
          "internalType": "address",
          "name": "account",
          "type": "address"
        }
      ],
      "name": "OwnableUnauthorizedAccount",
      "type": "error"
    },
    {
      "inputs": [],
      "name": "ReentrancyGuardReentrantCall",
      "type": "error"
    },
    {
      "anonymous": false,
      "inputs": [
        {
          "indexed": true,
          "internalType": "uint256",
          "name": "retirementCertificate",
          "type": "uint256"
        },
        {
          "indexed": false,
          "internalType": "uint256",
          "name": "tree",
          "type": "uint256"
        }
      ],
      "name": "AttachCertificateForClaim",
      "type": "event"
    },
    {
      "anonymous": false,
      "inputs": [
        {
          "indexed": true,
          "internalType": "address",
          "name": "previousOwner",
          "type": "address"
        },
        {
          "indexed": true,
          "internalType": "address",
          "name": "newOwner",
          "type": "address"
        }
      ],
      "name": "OwnershipTransferred",
      "type": "event"
    },
    {
      "anonymous": false,
      "inputs": [
        {
          "indexed": true,
          "internalType": "uint256",
          "name": "retirementCertificate",
          "type": "uint256"
        },
        {
          "indexed": false,
          "internalType": "uint256",
          "name": "tree",
          "type": "uint256"
        },
        {
          "indexed": false,
          "internalType": "address",
          "name": "claimer",
          "type": "address"
        }
      ],
      "name": "RetirementCertificateClaimed",
      "type": "event"
    },
    {
      "anonymous": false,
      "inputs": [
        {
          "indexed": false,
          "internalType": "address",
          "name": "oldGreenDonation",
          "type": "address"
        },
        {
          "indexed": false,
          "internalType": "address",
          "name": "newGreenDonation",
          "type": "address"
        }
      ],
      "name": "SetGreenDonation",
      "type": "event"
    },
    {
      "anonymous": false,
      "inputs": [
        {
          "indexed": false,
          "internalType": "address",
          "name": "oldRetirementCertificate",
          "type": "address"
        },
        {
          "indexed": false,
          "internalType": "address",
          "name": "newRetirementCertificate",
          "type": "address"
        }
      ],
      "name": "SetRetirementCertificate",
      "type": "event"
    },
    {
      "anonymous": false,
      "inputs": [
        {
          "indexed": false,
          "internalType": "address",
          "name": "oldTreeContract",
          "type": "address"
        },
        {
          "indexed": false,
          "internalType": "address",
          "name": "newTreeContract",
          "type": "address"
        }
      ],
      "name": "SetTreeContract",
      "type": "event"
    },
    {
      "inputs": [
        {
          "internalType": "uint256",
          "name": "tree",
          "type": "uint256"
        },
        {
          "internalType": "uint256[]",
          "name": "userRetirementCertificatesIndexes",
          "type": "uint256[]"
        }
      ],
      "name": "claimRetirementCertificate",
      "outputs": [],
      "stateMutability": "nonpayable",
      "type": "function"
    },
    {
      "inputs": [
        {
          "internalType": "uint256",
          "name": "tree",
          "type": "uint256"
        }
      ],
      "name": "getUserRetirementCertificates",
      "outputs": [
        {
          "components": [
            {
              "internalType": "uint256",
              "name": "tree",
              "type": "uint256"
            },
            {
              "internalType": "uint256",
              "name": "retirementCertificate",
              "type": "uint256"
            },
            {
              "internalType": "bool",
              "name": "claimed",
              "type": "bool"
            },
            {
              "internalType": "uint256",
              "name": "index",
              "type": "uint256"
            },
            {
              "internalType": "address",
              "name": "ownerContract",
              "type": "address"
            }
          ],
          "internalType": "struct RetirementCertificateEscrow.UserRetirementCertificate[]",
          "name": "",
          "type": "tuple[]"
        },
        {
          "internalType": "uint256",
          "name": "",
          "type": "uint256"
        }
      ],
      "stateMutability": "view",
      "type": "function"
    },
    {
      "inputs": [],
      "name": "greenDonation",
      "outputs": [
        {
          "internalType": "address",
          "name": "",
          "type": "address"
        }
      ],
      "stateMutability": "view",
      "type": "function"
    },
    {
      "inputs": [],
      "name": "owner",
      "outputs": [
        {
          "internalType": "address",
          "name": "",
          "type": "address"
        }
      ],
      "stateMutability": "view",
      "type": "function"
    },
    {
      "inputs": [
        {
          "internalType": "uint256",
          "name": "tree",
          "type": "uint256"
        },
        {
          "internalType": "uint256",
          "name": "_retirementCertificate",
          "type": "uint256"
        }
      ],
      "name": "registerCertificateForClaim",
      "outputs": [],
      "stateMutability": "nonpayable",
      "type": "function"
    },
    {
      "inputs": [],
      "name": "renounceOwnership",
      "outputs": [],
      "stateMutability": "nonpayable",
      "type": "function"
    },
    {
      "inputs": [],
      "name": "retirementCertificate",
      "outputs": [
        {
          "internalType": "contract ERC721Upgradeable",
          "name": "",
          "type": "address"
        }
      ],
      "stateMutability": "view",
      "type": "function"
    },
    {
      "inputs": [
        {
          "internalType": "address",
          "name": "_greenDonation",
          "type": "address"
        }
      ],
      "name": "setGreenDonation",
      "outputs": [],
      "stateMutability": "nonpayable",
      "type": "function"
    },
    {
      "inputs": [
        {
          "internalType": "address",
          "name": "_retirementCertificate",
          "type": "address"
        }
      ],
      "name": "setRetirementCertificate",
      "outputs": [],
      "stateMutability": "nonpayable",
      "type": "function"
    },
    {
      "inputs": [
        {
          "internalType": "address",
          "name": "_treeContract",
          "type": "address"
        }
      ],
      "name": "setTreeContract",
      "outputs": [],
      "stateMutability": "nonpayable",
      "type": "function"
    },
    {
      "inputs": [
        {
          "internalType": "address",
          "name": "newOwner",
          "type": "address"
        }
      ],
      "name": "transferOwnership",
      "outputs": [],
      "stateMutability": "nonpayable",
      "type": "function"
    },
    {
      "inputs": [],
      "name": "treeContract",
      "outputs": [
        {
          "internalType": "contract TreeContract",
          "name": "",
          "type": "address"
        }
      ],
      "stateMutability": "view",
      "type": "function"
    },
    {
      "inputs": [
        {
          "internalType": "uint256",
          "name": "",
          "type": "uint256"
        },
        {
          "internalType": "uint256",
          "name": "",
          "type": "uint256"
        }
      ],
      "name": "userRetirementCertificates",
      "outputs": [
        {
          "internalType": "uint256",
          "name": "tree",
          "type": "uint256"
        },
        {
          "internalType": "uint256",
          "name": "retirementCertificate",
          "type": "uint256"
        },
        {
          "internalType": "bool",
          "name": "claimed",
          "type": "bool"
        },
        {
          "internalType": "uint256",
          "name": "index",
          "type": "uint256"
        },
        {
          "internalType": "address",
          "name": "ownerContract",
          "type": "address"
        }
      ],
      "stateMutability": "view",
      "type": "function"
    }
  ],
  "bytecode": "0x608060405234801561001057600080fd5b50338061003757604051631e4fbdf760e01b81526000600482015260240160405180910390fd5b6100408161004a565b506001805561009a565b600080546001600160a01b038381166001600160a01b0319831681178455604051919092169283917f8be0079c531659141344cd1fd0a4f28419497f9722a3daafe3b4186f6b6457e09190a35050565b610e9d806100a96000396000f3fe608060405234801561001057600080fd5b50600436106100df5760003560e01c80639ce12ae51161008c578063ab67b10411610066578063ab67b104146101d9578063d1a924cf146101fa578063d9a299301461020d578063f2fde38b1461022057600080fd5b80639ce12ae514610168578063a1fe32791461017b578063a3c5ab061461018e57600080fd5b80635260522b116100bd5780635260522b1461013c578063715018a61461014f5780638da5cb5b1461015757600080fd5b806340cf1c95146100e45780634261fbbc1461011457806351ad0fe114610129575b600080fd5b6004546100f7906001600160a01b031681565b6040516001600160a01b0390911681526020015b60405180910390f35b610127610122366004610c39565b610233565b005b610127610137366004610c70565b6103bc565b61012761014a366004610caa565b610438565b6101276108f6565b6000546001600160a01b03166100f7565b6005546100f7906001600160a01b031681565b6002546100f7906001600160a01b031681565b6101a161019c366004610c39565b61090a565b60405161010b9594939291909485526020850193909352901515604084015260608301526001600160a01b0316608082015260a00190565b6101ec6101e7366004610d74565b610964565b60405161010b929190610d8d565b610127610208366004610c70565b610a1a565b61012761021b366004610c70565b610a93565b61012761022e366004610c70565b610b0c565b61023b610b60565b60025433906001600160a01b031681148061026357506004546001600160a01b038281169116145b6102da5760405162461bcd60e51b815260206004820152602960248201527f43616c6c6572206e6f7420477265656e446f6e6174696f6e206f72207472656560448201527f20636f6e7472616374000000000000000000000000000000000000000000000060648201526084015b60405180910390fd5b6040805160a0810182528481526020808201858152600083850181815288825260038085528683208054606088018181523360808a0190815284895260018084018555938752958890208951600590930201918255955191810191909155915160028301805460ff191691151591909117905592519281019290925551600490910180546001600160a01b0319166001600160a01b039092169190911790559151858152909184917fac07944bbb6e9aa27108ead48032a58503354f392321eff2d6b498683d4d61fe910160405180910390a250506103b860018055565b5050565b6103c4610ba3565b6103cc610b60565b600254604080516001600160a01b03928316815291831660208301527fafe08ab6cc3e5fd25fd05ae7fa3669ad96c10f74beeb84525b5df117d4d172c7910160405180910390a1600280546001600160a01b0319166001600160a01b0383161790556001805550565b50565b610440610b60565b600480546040517f6352211e0000000000000000000000000000000000000000000000000000000081529182018490528391339182916001600160a01b0390911690636352211e90602401602060405180830381865afa1580156104a8573d6000803e3d6000fd5b505050506040513d601f19601f820116820180604052508101906104cc9190610e0d565b6001600160a01b0316146105225760405162461bcd60e51b815260206004820152600e60248201527f4e6f742074726565206f776e657200000000000000000000000000000000000060448201526064016102d1565b60025433906001600160a01b0316810361057e5760405162461bcd60e51b815260206004820152601460248201527f43616c6c657220477265656e446f6e6174696f6e00000000000000000000000060448201526064016102d1565b6002546001600160a01b031633036105d85760405162461bcd60e51b815260206004820152601a60248201527f477265656e446f6e6174696f6e2063616e6e6f7420636c61696d00000000000060448201526064016102d1565b600085815260036020526040902080546106345760405162461bcd60e51b815260206004820152601460248201527f4e6f20636572746966696361746520666f756e6400000000000000000000000060448201526064016102d1565b60008551116106855760405162461bcd60e51b815260206004820152601e60248201527f4e6f20636572746966696361746520636c61696d20726571756573746564000060448201526064016102d1565b60005b85518110156108e85760008682815181106106a5576106a5610e2a565b6020026020010151905060008382815481106106c3576106c3610e2a565b60009182526020918290206040805160a081018252600590930290910180548352600181015493830193909352600283015460ff1615801591830191909152600383015460608301526004909201546001600160a01b03166080820152915061076e5760405162461bcd60e51b815260206004820152601b60248201527f436572746966696361746520616c726561647920636c61696d6564000000000060448201526064016102d1565b805189146107be5760405162461bcd60e51b815260206004820152601960248201527f4e6f7420796f757220747265652063657274696669636174650000000000000060448201526064016102d1565b60018483815481106107d2576107d2610e2a565b6000918252602091829020600591820201600201805460ff19169315159390931790925590546080830151918301516040517f42842e0e0000000000000000000000000000000000000000000000000000000081526001600160a01b03938416600482015233602482015260448101919091529116906342842e0e90606401600060405180830381600087803b15801561086b57600080fd5b505af115801561087f573d6000803e3d6000fd5b5050505080602001517ff28108c7d75b2617812b4ba38e47c16671840a404d5cc0684efc05272eef30868a336040516108cb9291909182526001600160a01b0316602082015260400190565b60405180910390a2505080806108e090610e40565b915050610688565b50505050506103b860018055565b6108fe610ba3565b6109086000610be9565b565b6003602052816000526040600020818154811061092657600080fd5b60009182526020909120600590910201805460018201546002830154600384015460049094015492955090935060ff1691906001600160a01b031685565b606060008060036000858152602001908152602001600020805480602002602001604051908101604052809291908181526020016000905b82821015610a085760008481526020908190206040805160a081018252600586029092018054835260018082015484860152600282015460ff1615159284019290925260038101546060840152600401546001600160a01b03166080830152908352909201910161099c565b50508251929792965091945050505050565b610a22610ba3565b610a2a610b60565b600554604080516001600160a01b03928316815291831660208301527f91461b82e0312399e902249f31a0d69758cb92b7c9b2ed42ae0de85049529efb910160405180910390a1600580546001600160a01b0319166001600160a01b0383161790556001805550565b610a9b610ba3565b610aa3610b60565b600454604080516001600160a01b03928316815291831660208301527fafe08ab6cc3e5fd25fd05ae7fa3669ad96c10f74beeb84525b5df117d4d172c7910160405180910390a1600480546001600160a01b0319166001600160a01b0383161790556001805550565b610b14610ba3565b6001600160a01b038116610b57576040517f1e4fbdf7000000000000000000000000000000000000000000000000000000008152600060048201526024016102d1565b61043581610be9565b600260015403610b9c576040517f3ee5aeb500000000000000000000000000000000000000000000000000000000815260040160405180910390fd5b6002600155565b6000546001600160a01b03163314610908576040517f118cdaa70000000000000000000000000000000000000000000000000000000081523360048201526024016102d1565b600080546001600160a01b038381166001600160a01b0319831681178455604051919092169283917f8be0079c531659141344cd1fd0a4f28419497f9722a3daafe3b4186f6b6457e09190a35050565b60008060408385031215610c4c57600080fd5b50508035926020909101359150565b6001600160a01b038116811461043557600080fd5b600060208284031215610c8257600080fd5b8135610c8d81610c5b565b9392505050565b634e487b7160e01b600052604160045260246000fd5b60008060408385031215610cbd57600080fd5b8235915060208084013567ffffffffffffffff80821115610cdd57600080fd5b818601915086601f830112610cf157600080fd5b813581811115610d0357610d03610c94565b8060051b604051601f19603f83011681018181108582111715610d2857610d28610c94565b604052918252848201925083810185019189831115610d4657600080fd5b938501935b82851015610d6457843584529385019392850192610d4b565b8096505050505050509250929050565b600060208284031215610d8657600080fd5b5035919050565b6040808252835182820181905260009190606090818501906020808901865b83811015610df95781518051865283810151848701528781015115158887015286810151878701526080908101516001600160a01b03169086015260a09094019390820190600101610dac565b505095909501959095525092949350505050565b600060208284031215610e1f57600080fd5b8151610c8d81610c5b565b634e487b7160e01b600052603260045260246000fd5b600060018201610e6057634e487b7160e01b600052601160045260246000fd5b506001019056fea2646970667358221220d19290ab334c8be0be2da618c2c14d7d2490848ff3d0e0aa22969ce6955730dc64736f6c63430008140033",
  "linkReferences": {},
  "deployedLinkReferences": {}
}