{
  "_format": "hh-sol-artifact-1",
  "contractName": "RetirementCertificateEscrow",
  "sourceName": "contracts/RetirementCertificateEscrow.sol",
  "abi": [
    {
      "inputs": [],
      "stateMutability": "nonpayable",
      "type": "constructor"
    },
    {
      "inputs": [
        {
          "internalType": "address",
          "name": "owner",
          "type": "address"
        }
      ],
      "name": "OwnableInvalidOwner",
      "type": "error"
    },
    {
      "inputs": [
        {
          "internalType": "address",
          "name": "account",
          "type": "address"
        }
      ],
      "name": "OwnableUnauthorizedAccount",
      "type": "error"
    },
    {
      "inputs": [],
      "name": "ReentrancyGuardReentrantCall",
      "type": "error"
    },
    {
      "anonymous": false,
      "inputs": [
        {
          "indexed": true,
          "internalType": "uint256",
          "name": "retirementCertificate",
          "type": "uint256"
        },
        {
          "indexed": false,
          "internalType": "uint256",
          "name": "tree",
          "type": "uint256"
        }
      ],
      "name": "AttachCertificateForClaim",
      "type": "event"
    },
    {
      "anonymous": false,
      "inputs": [
        {
          "indexed": true,
          "internalType": "address",
          "name": "previousOwner",
          "type": "address"
        },
        {
          "indexed": true,
          "internalType": "address",
          "name": "newOwner",
          "type": "address"
        }
      ],
      "name": "OwnershipTransferred",
      "type": "event"
    },
    {
      "anonymous": false,
      "inputs": [
        {
          "indexed": true,
          "internalType": "uint256",
          "name": "retirementCertificate",
          "type": "uint256"
        },
        {
          "indexed": false,
          "internalType": "uint256",
          "name": "tree",
          "type": "uint256"
        },
        {
          "indexed": false,
          "internalType": "address",
          "name": "claimer",
          "type": "address"
        }
      ],
      "name": "RetirementCertificateClaimed",
      "type": "event"
    },
    {
      "anonymous": false,
      "inputs": [
        {
          "indexed": false,
          "internalType": "address",
          "name": "oldGreenDonation",
          "type": "address"
        },
        {
          "indexed": false,
          "internalType": "address",
          "name": "newGreenDonation",
          "type": "address"
        }
      ],
      "name": "SetGreenDonation",
      "type": "event"
    },
    {
      "anonymous": false,
      "inputs": [
        {
          "indexed": false,
          "internalType": "address",
          "name": "oldRetirementCertificate",
          "type": "address"
        },
        {
          "indexed": false,
          "internalType": "address",
          "name": "newRetirementCertificate",
          "type": "address"
        }
      ],
      "name": "SetRetirementCertificate",
      "type": "event"
    },
    {
      "anonymous": false,
      "inputs": [
        {
          "indexed": false,
          "internalType": "address",
          "name": "oldTreeContract",
          "type": "address"
        },
        {
          "indexed": false,
          "internalType": "address",
          "name": "newTreeContract",
          "type": "address"
        }
      ],
      "name": "SetTreeContract",
      "type": "event"
    },
    {
      "inputs": [
        {
          "internalType": "uint256",
          "name": "tree",
          "type": "uint256"
        },
        {
          "internalType": "uint256[]",
          "name": "userRetirementCertificatesIndexes",
          "type": "uint256[]"
        }
      ],
      "name": "claimRetirementCertificate",
      "outputs": [],
      "stateMutability": "nonpayable",
      "type": "function"
    },
    {
      "inputs": [
        {
          "internalType": "uint256",
          "name": "tree",
          "type": "uint256"
        }
      ],
      "name": "getUserRetirementCertificates",
      "outputs": [
        {
          "components": [
            {
              "internalType": "uint256",
              "name": "tree",
              "type": "uint256"
            },
            {
              "internalType": "uint256",
              "name": "retirementCertificate",
              "type": "uint256"
            },
            {
              "internalType": "bool",
              "name": "claimed",
              "type": "bool"
            },
            {
              "internalType": "uint256",
              "name": "index",
              "type": "uint256"
            }
          ],
          "internalType": "struct RetirementCertificateEscrow.UserRetirementCertificate[]",
          "name": "",
          "type": "tuple[]"
        },
        {
          "internalType": "uint256",
          "name": "",
          "type": "uint256"
        }
      ],
      "stateMutability": "view",
      "type": "function"
    },
    {
      "inputs": [],
      "name": "greenDonation",
      "outputs": [
        {
          "internalType": "address",
          "name": "",
          "type": "address"
        }
      ],
      "stateMutability": "view",
      "type": "function"
    },
    {
      "inputs": [],
      "name": "owner",
      "outputs": [
        {
          "internalType": "address",
          "name": "",
          "type": "address"
        }
      ],
      "stateMutability": "view",
      "type": "function"
    },
    {
      "inputs": [
        {
          "internalType": "uint256",
          "name": "tree",
          "type": "uint256"
        },
        {
          "internalType": "uint256",
          "name": "_retirementCertificate",
          "type": "uint256"
        }
      ],
      "name": "registerCertificateForClaim",
      "outputs": [],
      "stateMutability": "nonpayable",
      "type": "function"
    },
    {
      "inputs": [],
      "name": "renounceOwnership",
      "outputs": [],
      "stateMutability": "nonpayable",
      "type": "function"
    },
    {
      "inputs": [],
      "name": "retirementCertificate",
      "outputs": [
        {
          "internalType": "contract ERC721Upgradeable",
          "name": "",
          "type": "address"
        }
      ],
      "stateMutability": "view",
      "type": "function"
    },
    {
      "inputs": [
        {
          "internalType": "address",
          "name": "_greenDonation",
          "type": "address"
        }
      ],
      "name": "setGreenDonation",
      "outputs": [],
      "stateMutability": "nonpayable",
      "type": "function"
    },
    {
      "inputs": [
        {
          "internalType": "address",
          "name": "_retirementCertificate",
          "type": "address"
        }
      ],
      "name": "setRetirementCertificate",
      "outputs": [],
      "stateMutability": "nonpayable",
      "type": "function"
    },
    {
      "inputs": [
        {
          "internalType": "address",
          "name": "_treeContract",
          "type": "address"
        }
      ],
      "name": "setTreeContract",
      "outputs": [],
      "stateMutability": "nonpayable",
      "type": "function"
    },
    {
      "inputs": [
        {
          "internalType": "address",
          "name": "newOwner",
          "type": "address"
        }
      ],
      "name": "transferOwnership",
      "outputs": [],
      "stateMutability": "nonpayable",
      "type": "function"
    },
    {
      "inputs": [],
      "name": "treeContract",
      "outputs": [
        {
          "internalType": "contract TreeContract",
          "name": "",
          "type": "address"
        }
      ],
      "stateMutability": "view",
      "type": "function"
    },
    {
      "inputs": [
        {
          "internalType": "uint256",
          "name": "",
          "type": "uint256"
        },
        {
          "internalType": "uint256",
          "name": "",
          "type": "uint256"
        }
      ],
      "name": "userRetirementCertificates",
      "outputs": [
        {
          "internalType": "uint256",
          "name": "tree",
          "type": "uint256"
        },
        {
          "internalType": "uint256",
          "name": "retirementCertificate",
          "type": "uint256"
        },
        {
          "internalType": "bool",
          "name": "claimed",
          "type": "bool"
        },
        {
          "internalType": "uint256",
          "name": "index",
          "type": "uint256"
        }
      ],
      "stateMutability": "view",
      "type": "function"
    }
  ],
  "bytecode": "0x60806040523480156200001157600080fd5b5033600073ffffffffffffffffffffffffffffffffffffffff168173ffffffffffffffffffffffffffffffffffffffff1603620000885760006040517f1e4fbdf70000000000000000000000000000000000000000000000000000000081526004016200007f9190620001b0565b60405180910390fd5b6200009981620000a760201b60201c565b5060018081905550620001cd565b60008060009054906101000a900473ffffffffffffffffffffffffffffffffffffffff169050816000806101000a81548173ffffffffffffffffffffffffffffffffffffffff021916908373ffffffffffffffffffffffffffffffffffffffff1602179055508173ffffffffffffffffffffffffffffffffffffffff168173ffffffffffffffffffffffffffffffffffffffff167f8be0079c531659141344cd1fd0a4f28419497f9722a3daafe3b4186f6b6457e060405160405180910390a35050565b600073ffffffffffffffffffffffffffffffffffffffff82169050919050565b600062000198826200016b565b9050919050565b620001aa816200018b565b82525050565b6000602082019050620001c760008301846200019f565b92915050565b611a2080620001dd6000396000f3fe608060405234801561001057600080fd5b50600436106100cf5760003560e01c80639ce12ae51161008c578063ab67b10411610066578063ab67b104146101dd578063d1a924cf1461020e578063d9a299301461022a578063f2fde38b14610246576100cf565b80639ce12ae51461016e578063a1fe32791461018c578063a3c5ab06146101aa576100cf565b806340cf1c95146100d45780634261fbbc146100f257806351ad0fe11461010e5780635260522b1461012a578063715018a6146101465780638da5cb5b14610150575b600080fd5b6100dc610262565b6040516100e99190610fd4565b60405180910390f35b61010c60048036038101906101079190611039565b610288565b005b610128600480360381019061012391906110b7565b610422565b005b610144600480360381019061013f919061123d565b6104d9565b005b61014e610a26565b005b610158610a3a565b60405161016591906112a8565b60405180910390f35b610176610a63565b60405161018391906112e4565b60405180910390f35b610194610a89565b6040516101a191906112a8565b60405180910390f35b6101c460048036038101906101bf9190611039565b610aaf565b6040516101d49493929190611329565b60405180910390f35b6101f760048036038101906101f2919061136e565b610b09565b6040516102059291906114bd565b60405180910390f35b610228600480360381019061022391906110b7565b610bbf565b005b610244600480360381019061023f91906110b7565b610c76565b005b610260600480360381019061025b91906110b7565b610d2d565b005b600460009054906101000a900473ffffffffffffffffffffffffffffffffffffffff1681565b610290610db3565b33600260009054906101000a900473ffffffffffffffffffffffffffffffffffffffff1673ffffffffffffffffffffffffffffffffffffffff168173ffffffffffffffffffffffffffffffffffffffff1614610321576040517f08c379a00000000000000000000000000000000000000000000000000000000081526004016103189061154a565b60405180910390fd5b600060405180608001604052808581526020018481526020016000151581526020016003600087815260200190815260200160002080549050815250905060036000858152602001908152602001600020819080600181540180825580915050600190039060005260206000209060040201600090919091909150600082015181600001556020820151816001015560408201518160020160006101000a81548160ff021916908315150217905550606082015181600301555050827fac07944bbb6e9aa27108ead48032a58503354f392321eff2d6b498683d4d61fe8560405161040c919061156a565b60405180910390a2505061041e610df9565b5050565b61042a610e02565b610432610db3565b7fafe08ab6cc3e5fd25fd05ae7fa3669ad96c10f74beeb84525b5df117d4d172c7600260009054906101000a900473ffffffffffffffffffffffffffffffffffffffff1682604051610485929190611585565b60405180910390a180600260006101000a81548173ffffffffffffffffffffffffffffffffffffffff021916908373ffffffffffffffffffffffffffffffffffffffff1602179055506104d6610df9565b50565b6104e1610db3565b81338073ffffffffffffffffffffffffffffffffffffffff16600460009054906101000a900473ffffffffffffffffffffffffffffffffffffffff1673ffffffffffffffffffffffffffffffffffffffff16636352211e846040518263ffffffff1660e01b8152600401610555919061156a565b602060405180830381865afa158015610572573d6000803e3d6000fd5b505050506040513d601f19601f8201168201806040525081019061059691906115c3565b73ffffffffffffffffffffffffffffffffffffffff16146105ec576040517f08c379a00000000000000000000000000000000000000000000000000000000081526004016105e39061163c565b60405180910390fd5b33600260009054906101000a900473ffffffffffffffffffffffffffffffffffffffff1673ffffffffffffffffffffffffffffffffffffffff168173ffffffffffffffffffffffffffffffffffffffff160361067d576040517f08c379a0000000000000000000000000000000000000000000000000000000008152600401610674906116a8565b60405180910390fd5b600260009054906101000a900473ffffffffffffffffffffffffffffffffffffffff1673ffffffffffffffffffffffffffffffffffffffff163373ffffffffffffffffffffffffffffffffffffffff160361070d576040517f08c379a000000000000000000000000000000000000000000000000000000000815260040161070490611714565b60405180910390fd5b6000600360008781526020019081526020016000209050600081805490501161076b576040517f08c379a000000000000000000000000000000000000000000000000000000000815260040161076290611780565b60405180910390fd5b60008551116107af576040517f08c379a00000000000000000000000000000000000000000000000000000000081526004016107a6906117ec565b60405180910390fd5b60005b8551811015610a155760008682815181106107d0576107cf61180c565b5b6020026020010151905060008382815481106107ef576107ee61180c565b5b906000526020600020906004020160405180608001604052908160008201548152602001600182015481526020016002820160009054906101000a900460ff161515151581526020016003820154815250509050806040015115610888576040517f08c379a000000000000000000000000000000000000000000000000000000000815260040161087f90611887565b60405180910390fd5b806000015189146108ce576040517f08c379a00000000000000000000000000000000000000000000000000000000081526004016108c5906118f3565b60405180910390fd5b60018483815481106108e3576108e261180c565b5b906000526020600020906004020160020160006101000a81548160ff021916908315150217905550600560009054906101000a900473ffffffffffffffffffffffffffffffffffffffff1673ffffffffffffffffffffffffffffffffffffffff166342842e0e600260009054906101000a900473ffffffffffffffffffffffffffffffffffffffff163384602001516040518463ffffffff1660e01b815260040161099093929190611913565b600060405180830381600087803b1580156109aa57600080fd5b505af11580156109be573d6000803e3d6000fd5b5050505080602001517ff28108c7d75b2617812b4ba38e47c16671840a404d5cc0684efc05272eef30868a336040516109f892919061194a565b60405180910390a250508080610a0d906119a2565b9150506107b2565b5050505050610a22610df9565b5050565b610a2e610e02565b610a386000610e89565b565b60008060009054906101000a900473ffffffffffffffffffffffffffffffffffffffff16905090565b600560009054906101000a900473ffffffffffffffffffffffffffffffffffffffff1681565b600260009054906101000a900473ffffffffffffffffffffffffffffffffffffffff1681565b60036020528160005260406000208181548110610acb57600080fd5b9060005260206000209060040201600091509150508060000154908060010154908060020160009054906101000a900460ff16908060030154905084565b606060008060036000858152602001908152602001600020805480602002602001604051908101604052809291908181526020016000905b82821015610bac578382906000526020600020906004020160405180608001604052908160008201548152602001600182015481526020016002820160009054906101000a900460ff1615151515815260200160038201548152505081526020019060010190610b41565b5050505090508081519250925050915091565b610bc7610e02565b610bcf610db3565b7f91461b82e0312399e902249f31a0d69758cb92b7c9b2ed42ae0de85049529efb600560009054906101000a900473ffffffffffffffffffffffffffffffffffffffff1682604051610c22929190611585565b60405180910390a180600560006101000a81548173ffffffffffffffffffffffffffffffffffffffff021916908373ffffffffffffffffffffffffffffffffffffffff160217905550610c73610df9565b50565b610c7e610e02565b610c86610db3565b7fafe08ab6cc3e5fd25fd05ae7fa3669ad96c10f74beeb84525b5df117d4d172c7600460009054906101000a900473ffffffffffffffffffffffffffffffffffffffff1682604051610cd9929190611585565b60405180910390a180600460006101000a81548173ffffffffffffffffffffffffffffffffffffffff021916908373ffffffffffffffffffffffffffffffffffffffff160217905550610d2a610df9565b50565b610d35610e02565b600073ffffffffffffffffffffffffffffffffffffffff168173ffffffffffffffffffffffffffffffffffffffff1603610da75760006040517f1e4fbdf7000000000000000000000000000000000000000000000000000000008152600401610d9e91906112a8565b60405180910390fd5b610db081610e89565b50565b600260015403610def576040517f3ee5aeb500000000000000000000000000000000000000000000000000000000815260040160405180910390fd5b6002600181905550565b60018081905550565b610e0a610f4d565b73ffffffffffffffffffffffffffffffffffffffff16610e28610a3a565b73ffffffffffffffffffffffffffffffffffffffff1614610e8757610e4b610f4d565b6040517f118cdaa7000000000000000000000000000000000000000000000000000000008152600401610e7e91906112a8565b60405180910390fd5b565b60008060009054906101000a900473ffffffffffffffffffffffffffffffffffffffff169050816000806101000a81548173ffffffffffffffffffffffffffffffffffffffff021916908373ffffffffffffffffffffffffffffffffffffffff1602179055508173ffffffffffffffffffffffffffffffffffffffff168173ffffffffffffffffffffffffffffffffffffffff167f8be0079c531659141344cd1fd0a4f28419497f9722a3daafe3b4186f6b6457e060405160405180910390a35050565b600033905090565b600073ffffffffffffffffffffffffffffffffffffffff82169050919050565b6000819050919050565b6000610f9a610f95610f9084610f55565b610f75565b610f55565b9050919050565b6000610fac82610f7f565b9050919050565b6000610fbe82610fa1565b9050919050565b610fce81610fb3565b82525050565b6000602082019050610fe96000830184610fc5565b92915050565b6000604051905090565b600080fd5b600080fd5b6000819050919050565b61101681611003565b811461102157600080fd5b50565b6000813590506110338161100d565b92915050565b600080604083850312156110505761104f610ff9565b5b600061105e85828601611024565b925050602061106f85828601611024565b9150509250929050565b600061108482610f55565b9050919050565b61109481611079565b811461109f57600080fd5b50565b6000813590506110b18161108b565b92915050565b6000602082840312156110cd576110cc610ff9565b5b60006110db848285016110a2565b91505092915050565b600080fd5b6000601f19601f8301169050919050565b7f4e487b7100000000000000000000000000000000000000000000000000000000600052604160045260246000fd5b611132826110e9565b810181811067ffffffffffffffff82111715611151576111506110fa565b5b80604052505050565b6000611164610fef565b90506111708282611129565b919050565b600067ffffffffffffffff8211156111905761118f6110fa565b5b602082029050602081019050919050565b600080fd5b60006111b96111b484611175565b61115a565b905080838252602082019050602084028301858111156111dc576111db6111a1565b5b835b8181101561120557806111f18882611024565b8452602084019350506020810190506111de565b5050509392505050565b600082601f830112611224576112236110e4565b5b81356112348482602086016111a6565b91505092915050565b6000806040838503121561125457611253610ff9565b5b600061126285828601611024565b925050602083013567ffffffffffffffff81111561128357611282610ffe565b5b61128f8582860161120f565b9150509250929050565b6112a281611079565b82525050565b60006020820190506112bd6000830184611299565b92915050565b60006112ce82610fa1565b9050919050565b6112de816112c3565b82525050565b60006020820190506112f960008301846112d5565b92915050565b61130881611003565b82525050565b60008115159050919050565b6113238161130e565b82525050565b600060808201905061133e60008301876112ff565b61134b60208301866112ff565b611358604083018561131a565b61136560608301846112ff565b95945050505050565b60006020828403121561138457611383610ff9565b5b600061139284828501611024565b91505092915050565b600081519050919050565b600082825260208201905092915050565b6000819050602082019050919050565b6113d081611003565b82525050565b6113df8161130e565b82525050565b6080820160008201516113fb60008501826113c7565b50602082015161140e60208501826113c7565b50604082015161142160408501826113d6565b50606082015161143460608501826113c7565b50505050565b600061144683836113e5565b60808301905092915050565b6000602082019050919050565b600061146a8261139b565b61147481856113a6565b935061147f836113b7565b8060005b838110156114b0578151611497888261143a565b97506114a283611452565b925050600181019050611483565b5085935050505092915050565b600060408201905081810360008301526114d7818561145f565b90506114e660208301846112ff565b9392505050565b600082825260208201905092915050565b7f43616c6c6572206e6f7420477265656e446f6e6174696f6e0000000000000000600082015250565b60006115346018836114ed565b915061153f826114fe565b602082019050919050565b6000602082019050818103600083015261156381611527565b9050919050565b600060208201905061157f60008301846112ff565b92915050565b600060408201905061159a6000830185611299565b6115a76020830184611299565b9392505050565b6000815190506115bd8161108b565b92915050565b6000602082840312156115d9576115d8610ff9565b5b60006115e7848285016115ae565b91505092915050565b7f4e6f742074726565206f776e6572000000000000000000000000000000000000600082015250565b6000611626600e836114ed565b9150611631826115f0565b602082019050919050565b6000602082019050818103600083015261165581611619565b9050919050565b7f43616c6c657220477265656e446f6e6174696f6e000000000000000000000000600082015250565b60006116926014836114ed565b915061169d8261165c565b602082019050919050565b600060208201905081810360008301526116c181611685565b9050919050565b7f477265656e446f6e6174696f6e2063616e6e6f7420636c61696d000000000000600082015250565b60006116fe601a836114ed565b9150611709826116c8565b602082019050919050565b6000602082019050818103600083015261172d816116f1565b9050919050565b7f4e6f20636572746966696361746520666f756e64000000000000000000000000600082015250565b600061176a6014836114ed565b915061177582611734565b602082019050919050565b600060208201905081810360008301526117998161175d565b9050919050565b7f4e6f20636572746966696361746520636c61696d207265717565737465640000600082015250565b60006117d6601e836114ed565b91506117e1826117a0565b602082019050919050565b60006020820190508181036000830152611805816117c9565b9050919050565b7f4e487b7100000000000000000000000000000000000000000000000000000000600052603260045260246000fd5b7f436572746966696361746520616c726561647920636c61696d65640000000000600082015250565b6000611871601b836114ed565b915061187c8261183b565b602082019050919050565b600060208201905081810360008301526118a081611864565b9050919050565b7f4e6f7420796f7572207472656520636572746966696361746500000000000000600082015250565b60006118dd6019836114ed565b91506118e8826118a7565b602082019050919050565b6000602082019050818103600083015261190c816118d0565b9050919050565b60006060820190506119286000830186611299565b6119356020830185611299565b61194260408301846112ff565b949350505050565b600060408201905061195f60008301856112ff565b61196c6020830184611299565b9392505050565b7f4e487b7100000000000000000000000000000000000000000000000000000000600052601160045260246000fd5b60006119ad82611003565b91507fffffffffffffffffffffffffffffffffffffffffffffffffffffffffffffffff82036119df576119de611973565b5b60018201905091905056fea26469706673582212205ac1d1fa5f85881f602a4395a14fe8855d7c8f7b281497fbd7df58f20c2add9364736f6c63430008140033",
  "linkReferences": {},
  "deployedLinkReferences": {}
}