{
  "_format": "hh-sol-artifact-1",
  "contractName": "RetirementCertificateEscrow",
  "sourceName": "contracts/RetirementCertificateEscrow.sol",
  "abi": [
    {
      "inputs": [],
      "stateMutability": "nonpayable",
      "type": "constructor"
    },
    {
      "inputs": [
        {
          "internalType": "address",
          "name": "owner",
          "type": "address"
        }
      ],
      "name": "OwnableInvalidOwner",
      "type": "error"
    },
    {
      "inputs": [
        {
          "internalType": "address",
          "name": "account",
          "type": "address"
        }
      ],
      "name": "OwnableUnauthorizedAccount",
      "type": "error"
    },
    {
      "inputs": [],
      "name": "ReentrancyGuardReentrantCall",
      "type": "error"
    },
    {
      "anonymous": false,
      "inputs": [
        {
          "indexed": true,
          "internalType": "uint256",
          "name": "tokenId",
          "type": "uint256"
        },
        {
          "indexed": false,
          "internalType": "address",
          "name": "account",
          "type": "address"
        }
      ],
      "name": "AttachCertificateForClaim",
      "type": "event"
    },
    {
      "anonymous": false,
      "inputs": [
        {
          "indexed": true,
          "internalType": "address",
          "name": "previousOwner",
          "type": "address"
        },
        {
          "indexed": true,
          "internalType": "address",
          "name": "newOwner",
          "type": "address"
        }
      ],
      "name": "OwnershipTransferred",
      "type": "event"
    },
    {
      "anonymous": false,
      "inputs": [
        {
          "indexed": true,
          "internalType": "uint256",
          "name": "tokenid",
          "type": "uint256"
        },
        {
          "indexed": false,
          "internalType": "address",
          "name": "claimer",
          "type": "address"
        }
      ],
      "name": "RetirementCertificateClaimed",
      "type": "event"
    },
    {
      "anonymous": false,
      "inputs": [
        {
          "indexed": false,
          "internalType": "address",
          "name": "oldGreenDonation",
          "type": "address"
        },
        {
          "indexed": false,
          "internalType": "address",
          "name": "newGreenDonation",
          "type": "address"
        }
      ],
      "name": "SetGreenDonation",
      "type": "event"
    },
    {
      "anonymous": false,
      "inputs": [
        {
          "indexed": false,
          "internalType": "address",
          "name": "oldRetirementCertificate",
          "type": "address"
        },
        {
          "indexed": false,
          "internalType": "address",
          "name": "newRetirementCertificate",
          "type": "address"
        }
      ],
      "name": "SetRetirementCertificate",
      "type": "event"
    },
    {
      "inputs": [
        {
          "internalType": "uint256[]",
          "name": "retirementCertificates",
          "type": "uint256[]"
        }
      ],
      "name": "claimRetirementCertificate",
      "outputs": [],
      "stateMutability": "nonpayable",
      "type": "function"
    },
    {
      "inputs": [
        {
          "internalType": "address",
          "name": "account",
          "type": "address"
        }
      ],
      "name": "getUserRetirementCertificates",
      "outputs": [
        {
          "components": [
            {
              "internalType": "uint256",
              "name": "tokenId",
              "type": "uint256"
            },
            {
              "internalType": "bool",
              "name": "claimed",
              "type": "bool"
            }
          ],
          "internalType": "struct RetirementCertificateEscrow.UserRetirementCertificate[]",
          "name": "",
          "type": "tuple[]"
        },
        {
          "internalType": "uint256",
          "name": "",
          "type": "uint256"
        }
      ],
      "stateMutability": "view",
      "type": "function"
    },
    {
      "inputs": [],
      "name": "greenDonation",
      "outputs": [
        {
          "internalType": "address",
          "name": "",
          "type": "address"
        }
      ],
      "stateMutability": "view",
      "type": "function"
    },
    {
      "inputs": [],
      "name": "owner",
      "outputs": [
        {
          "internalType": "address",
          "name": "",
          "type": "address"
        }
      ],
      "stateMutability": "view",
      "type": "function"
    },
    {
      "inputs": [
        {
          "internalType": "address",
          "name": "account",
          "type": "address"
        },
        {
          "internalType": "uint256",
          "name": "tokenId",
          "type": "uint256"
        }
      ],
      "name": "registerCertificateForClaim",
      "outputs": [],
      "stateMutability": "nonpayable",
      "type": "function"
    },
    {
      "inputs": [],
      "name": "renounceOwnership",
      "outputs": [],
      "stateMutability": "nonpayable",
      "type": "function"
    },
    {
      "inputs": [],
      "name": "retirementCertificate",
      "outputs": [
        {
          "internalType": "contract ERC721Upgradeable",
          "name": "",
          "type": "address"
        }
      ],
      "stateMutability": "view",
      "type": "function"
    },
    {
      "inputs": [
        {
          "internalType": "address",
          "name": "_greenDonation",
          "type": "address"
        }
      ],
      "name": "setGreenDonation",
      "outputs": [],
      "stateMutability": "nonpayable",
      "type": "function"
    },
    {
      "inputs": [
        {
          "internalType": "address",
          "name": "_retirementCertificate",
          "type": "address"
        }
      ],
      "name": "setRetirementCertificate",
      "outputs": [],
      "stateMutability": "nonpayable",
      "type": "function"
    },
    {
      "inputs": [
        {
          "internalType": "address",
          "name": "newOwner",
          "type": "address"
        }
      ],
      "name": "transferOwnership",
      "outputs": [],
      "stateMutability": "nonpayable",
      "type": "function"
    },
    {
      "inputs": [
        {
          "internalType": "address",
          "name": "",
          "type": "address"
        },
        {
          "internalType": "uint256",
          "name": "",
          "type": "uint256"
        }
      ],
      "name": "userRetirementCertificates",
      "outputs": [
        {
          "internalType": "uint256",
          "name": "tokenId",
          "type": "uint256"
        },
        {
          "internalType": "bool",
          "name": "claimed",
          "type": "bool"
        }
      ],
      "stateMutability": "view",
      "type": "function"
    }
  ],
  "bytecode": "0x60806040523480156200001157600080fd5b5033600073ffffffffffffffffffffffffffffffffffffffff168173ffffffffffffffffffffffffffffffffffffffff1603620000885760006040517f1e4fbdf70000000000000000000000000000000000000000000000000000000081526004016200007f9190620001b0565b60405180910390fd5b6200009981620000a760201b60201c565b5060018081905550620001cd565b60008060009054906101000a900473ffffffffffffffffffffffffffffffffffffffff169050816000806101000a81548173ffffffffffffffffffffffffffffffffffffffff021916908373ffffffffffffffffffffffffffffffffffffffff1602179055508173ffffffffffffffffffffffffffffffffffffffff168173ffffffffffffffffffffffffffffffffffffffff167f8be0079c531659141344cd1fd0a4f28419497f9722a3daafe3b4186f6b6457e060405160405180910390a35050565b600073ffffffffffffffffffffffffffffffffffffffff82169050919050565b600062000198826200016b565b9050919050565b620001aa816200018b565b82525050565b6000602082019050620001c760008301846200019f565b92915050565b61146980620001dd6000396000f3fe608060405234801561001057600080fd5b50600436106100a95760003560e01c8063a1fe327911610071578063a1fe327914610141578063d1a924cf1461015f578063d7cd94b31461017b578063e02e23c314610197578063ec3fd44d146101c8578063f2fde38b146101e4576100a9565b8063146f679f146100ae57806351ad0fe1146100df578063715018a6146100fb5780638da5cb5b146101055780639ce12ae514610123575b600080fd5b6100c860048036038101906100c39190610c98565b610200565b6040516100d6929190610de6565b60405180910390f35b6100f960048036038101906100f49190610c98565b6102ce565b005b610103610385565b005b61010d610399565b60405161011a9190610e25565b60405180910390f35b61012b6103c2565b6040516101389190610e9f565b60405180910390f35b6101496103e8565b6040516101569190610e25565b60405180910390f35b61017960048036038101906101749190610c98565b61040e565b005b61019560048036038101906101909190610ee6565b6104c5565b005b6101b160048036038101906101ac9190610ee6565b610653565b6040516101bf929190610f35565b60405180910390f35b6101e260048036038101906101dd91906110b7565b6106a1565b005b6101fe60048036038101906101f99190610c98565b6109fe565b005b6060600080600360008573ffffffffffffffffffffffffffffffffffffffff1673ffffffffffffffffffffffffffffffffffffffff168152602001908152602001600020805480602002602001604051908101604052809291908181526020016000905b828210156102bb5783829060005260206000209060020201604051806040016040529081600082015481526020016001820160009054906101000a900460ff16151515158152505081526020019060010190610264565b5050505090508081519250925050915091565b6102d6610a84565b6102de610b0b565b7fafe08ab6cc3e5fd25fd05ae7fa3669ad96c10f74beeb84525b5df117d4d172c7600260009054906101000a900473ffffffffffffffffffffffffffffffffffffffff1682604051610331929190611100565b60405180910390a180600260006101000a81548173ffffffffffffffffffffffffffffffffffffffff021916908373ffffffffffffffffffffffffffffffffffffffff160217905550610382610b51565b50565b61038d610a84565b6103976000610b5a565b565b60008060009054906101000a900473ffffffffffffffffffffffffffffffffffffffff16905090565b600460009054906101000a900473ffffffffffffffffffffffffffffffffffffffff1681565b600260009054906101000a900473ffffffffffffffffffffffffffffffffffffffff1681565b610416610a84565b61041e610b0b565b7f91461b82e0312399e902249f31a0d69758cb92b7c9b2ed42ae0de85049529efb600460009054906101000a900473ffffffffffffffffffffffffffffffffffffffff1682604051610471929190611100565b60405180910390a180600460006101000a81548173ffffffffffffffffffffffffffffffffffffffff021916908373ffffffffffffffffffffffffffffffffffffffff1602179055506104c2610b51565b50565b6104cd610b0b565b600260009054906101000a900473ffffffffffffffffffffffffffffffffffffffff1673ffffffffffffffffffffffffffffffffffffffff163373ffffffffffffffffffffffffffffffffffffffff161461055d576040517f08c379a000000000000000000000000000000000000000000000000000000000815260040161055490611186565b60405180910390fd5b60006040518060400160405280838152602001600015158152509050600360008473ffffffffffffffffffffffffffffffffffffffff1673ffffffffffffffffffffffffffffffffffffffff1681526020019081526020016000208190806001815401808255809150506001900390600052602060002090600202016000909190919091506000820151816000015560208201518160010160006101000a81548160ff0219169083151502179055505050817f78f5cb4398af25318b742bda48b554f64b9cc361cd36a4e25009fbcae93004758460405161063e9190610e25565b60405180910390a25061064f610b51565b5050565b6003602052816000526040600020818154811061066f57600080fd5b9060005260206000209060020201600091509150508060000154908060010160009054906101000a900460ff16905082565b6106a9610b0b565b600260009054906101000a900473ffffffffffffffffffffffffffffffffffffffff1673ffffffffffffffffffffffffffffffffffffffff163373ffffffffffffffffffffffffffffffffffffffff1603610739576040517f08c379a0000000000000000000000000000000000000000000000000000000008152600401610730906111f2565b60405180910390fd5b6000600360003373ffffffffffffffffffffffffffffffffffffffff1673ffffffffffffffffffffffffffffffffffffffff168152602001908152602001600020905060008180549050116107c3576040517f08c379a00000000000000000000000000000000000000000000000000000000081526004016107ba9061125e565b60405180910390fd5b6000825111610807576040517f08c379a00000000000000000000000000000000000000000000000000000000081526004016107fe906112ca565b60405180910390fd5b60005b82518110156109f1576000828281548110610828576108276112ea565b5b9060005260206000209060020201604051806040016040529081600082015481526020016001820160009054906101000a900460ff16151515158152505090508060200151156108ad576040517f08c379a00000000000000000000000000000000000000000000000000000000081526004016108a490611365565b60405180910390fd5b60018383815481106108c2576108c16112ea565b5b906000526020600020906002020160010160006101000a81548160ff021916908315150217905550600460009054906101000a900473ffffffffffffffffffffffffffffffffffffffff1673ffffffffffffffffffffffffffffffffffffffff166342842e0e600260009054906101000a900473ffffffffffffffffffffffffffffffffffffffff163384600001516040518463ffffffff1660e01b815260040161096f93929190611385565b600060405180830381600087803b15801561098957600080fd5b505af115801561099d573d6000803e3d6000fd5b5050505080600001517ff75789ab10d1cfe153312cdc8520ad233a34b59117cdf9653dcdee3ad833b803336040516109d59190610e25565b60405180910390a25080806109e9906113eb565b91505061080a565b50506109fb610b51565b50565b610a06610a84565b600073ffffffffffffffffffffffffffffffffffffffff168173ffffffffffffffffffffffffffffffffffffffff1603610a785760006040517f1e4fbdf7000000000000000000000000000000000000000000000000000000008152600401610a6f9190610e25565b60405180910390fd5b610a8181610b5a565b50565b610a8c610c1e565b73ffffffffffffffffffffffffffffffffffffffff16610aaa610399565b73ffffffffffffffffffffffffffffffffffffffff1614610b0957610acd610c1e565b6040517f118cdaa7000000000000000000000000000000000000000000000000000000008152600401610b009190610e25565b60405180910390fd5b565b600260015403610b47576040517f3ee5aeb500000000000000000000000000000000000000000000000000000000815260040160405180910390fd5b6002600181905550565b60018081905550565b60008060009054906101000a900473ffffffffffffffffffffffffffffffffffffffff169050816000806101000a81548173ffffffffffffffffffffffffffffffffffffffff021916908373ffffffffffffffffffffffffffffffffffffffff1602179055508173ffffffffffffffffffffffffffffffffffffffff168173ffffffffffffffffffffffffffffffffffffffff167f8be0079c531659141344cd1fd0a4f28419497f9722a3daafe3b4186f6b6457e060405160405180910390a35050565b600033905090565b6000604051905090565b600080fd5b600080fd5b600073ffffffffffffffffffffffffffffffffffffffff82169050919050565b6000610c6582610c3a565b9050919050565b610c7581610c5a565b8114610c8057600080fd5b50565b600081359050610c9281610c6c565b92915050565b600060208284031215610cae57610cad610c30565b5b6000610cbc84828501610c83565b91505092915050565b600081519050919050565b600082825260208201905092915050565b6000819050602082019050919050565b6000819050919050565b610d0481610cf1565b82525050565b60008115159050919050565b610d1f81610d0a565b82525050565b604082016000820151610d3b6000850182610cfb565b506020820151610d4e6020850182610d16565b50505050565b6000610d608383610d25565b60408301905092915050565b6000602082019050919050565b6000610d8482610cc5565b610d8e8185610cd0565b9350610d9983610ce1565b8060005b83811015610dca578151610db18882610d54565b9750610dbc83610d6c565b925050600181019050610d9d565b5085935050505092915050565b610de081610cf1565b82525050565b60006040820190508181036000830152610e008185610d79565b9050610e0f6020830184610dd7565b9392505050565b610e1f81610c5a565b82525050565b6000602082019050610e3a6000830184610e16565b92915050565b6000819050919050565b6000610e65610e60610e5b84610c3a565b610e40565b610c3a565b9050919050565b6000610e7782610e4a565b9050919050565b6000610e8982610e6c565b9050919050565b610e9981610e7e565b82525050565b6000602082019050610eb46000830184610e90565b92915050565b610ec381610cf1565b8114610ece57600080fd5b50565b600081359050610ee081610eba565b92915050565b60008060408385031215610efd57610efc610c30565b5b6000610f0b85828601610c83565b9250506020610f1c85828601610ed1565b9150509250929050565b610f2f81610d0a565b82525050565b6000604082019050610f4a6000830185610dd7565b610f576020830184610f26565b9392505050565b600080fd5b6000601f19601f8301169050919050565b7f4e487b7100000000000000000000000000000000000000000000000000000000600052604160045260246000fd5b610fac82610f63565b810181811067ffffffffffffffff82111715610fcb57610fca610f74565b5b80604052505050565b6000610fde610c26565b9050610fea8282610fa3565b919050565b600067ffffffffffffffff82111561100a57611009610f74565b5b602082029050602081019050919050565b600080fd5b600061103361102e84610fef565b610fd4565b905080838252602082019050602084028301858111156110565761105561101b565b5b835b8181101561107f578061106b8882610ed1565b845260208401935050602081019050611058565b5050509392505050565b600082601f83011261109e5761109d610f5e565b5b81356110ae848260208601611020565b91505092915050565b6000602082840312156110cd576110cc610c30565b5b600082013567ffffffffffffffff8111156110eb576110ea610c35565b5b6110f784828501611089565b91505092915050565b60006040820190506111156000830185610e16565b6111226020830184610e16565b9392505050565b600082825260208201905092915050565b7f43616c6c6572206e6f7420477265656e446f6e6174696f6e0000000000000000600082015250565b6000611170601883611129565b915061117b8261113a565b602082019050919050565b6000602082019050818103600083015261119f81611163565b9050919050565b7f477265656e446f6e6174696f6e2063616e6e6f7420636c61696d000000000000600082015250565b60006111dc601a83611129565b91506111e7826111a6565b602082019050919050565b6000602082019050818103600083015261120b816111cf565b9050919050565b7f4e6f20636572746966696361746520666f756e64000000000000000000000000600082015250565b6000611248601483611129565b915061125382611212565b602082019050919050565b600060208201905081810360008301526112778161123b565b9050919050565b7f4e6f20636572746966696361746520636c61696d207265717565737465640000600082015250565b60006112b4601e83611129565b91506112bf8261127e565b602082019050919050565b600060208201905081810360008301526112e3816112a7565b9050919050565b7f4e487b7100000000000000000000000000000000000000000000000000000000600052603260045260246000fd5b7f436572746966696361746520616c726561647920636c61696d65640000000000600082015250565b600061134f601b83611129565b915061135a82611319565b602082019050919050565b6000602082019050818103600083015261137e81611342565b9050919050565b600060608201905061139a6000830186610e16565b6113a76020830185610e16565b6113b46040830184610dd7565b949350505050565b7f4e487b7100000000000000000000000000000000000000000000000000000000600052601160045260246000fd5b60006113f682610cf1565b91507fffffffffffffffffffffffffffffffffffffffffffffffffffffffffffffffff8203611428576114276113bc565b5b60018201905091905056fea2646970667358221220094b623de841d13894be8a54dd881f8121af5bf2a6f55e18a88d8a3da97483d464736f6c63430008140033",
  "linkReferences": {},
  "deployedLinkReferences": {}
}