{"contracts/RetirementCertificateEscrow.sol":{"RetirementCertificateEscrow":{"abi":[{"inputs":[],"stateMutability":"nonpayable","type":"constructor"},{"inputs":[{"internalType":"address","name":"owner","type":"address"}],"name":"OwnableInvalidOwner","type":"error"},{"inputs":[{"internalType":"address","name":"account","type":"address"}],"name":"OwnableUnauthorizedAccount","type":"error"},{"inputs":[],"name":"ReentrancyGuardReentrantCall","type":"error"},{"anonymous":false,"inputs":[{"indexed":true,"internalType":"uint256","name":"retirementCertificate","type":"uint256"},{"indexed":false,"internalType":"uint256","name":"tree","type":"uint256"}],"name":"AttachCertificateForClaim","type":"event"},{"anonymous":false,"inputs":[{"indexed":true,"internalType":"address","name":"previousOwner","type":"address"},{"indexed":true,"internalType":"address","name":"newOwner","type":"address"}],"name":"OwnershipTransferred","type":"event"},{"anonymous":false,"inputs":[{"indexed":true,"internalType":"uint256","name":"retirementCertificate","type":"uint256"},{"indexed":false,"internalType":"uint256","name":"tree","type":"uint256"},{"indexed":false,"internalType":"address","name":"claimer","type":"address"}],"name":"RetirementCertificateClaimed","type":"event"},{"anonymous":false,"inputs":[{"indexed":false,"internalType":"address","name":"oldGreenDonation","type":"address"},{"indexed":false,"internalType":"address","name":"newGreenDonation","type":"address"}],"name":"SetGreenDonation","type":"event"},{"anonymous":false,"inputs":[{"indexed":false,"internalType":"address","name":"oldRetirementCertificate","type":"address"},{"indexed":false,"internalType":"address","name":"newRetirementCertificate","type":"address"}],"name":"SetRetirementCertificate","type":"event"},{"anonymous":false,"inputs":[{"indexed":false,"internalType":"address","name":"oldTreeContract","type":"address"},{"indexed":false,"internalType":"address","name":"newTreeContract","type":"address"}],"name":"SetTreeContract","type":"event"},{"inputs":[{"internalType":"uint256","name":"tree","type":"uint256"},{"internalType":"uint256[]","name":"userRetirementCertificatesIndexes","type":"uint256[]"}],"name":"claimRetirementCertificate","outputs":[],"stateMutability":"nonpayable","type":"function"},{"inputs":[{"internalType":"uint256","name":"tree","type":"uint256"}],"name":"getUserRetirementCertificates","outputs":[{"components":[{"internalType":"uint256","name":"tree","type":"uint256"},{"internalType":"uint256","name":"retirementCertificate","type":"uint256"},{"internalType":"bool","name":"claimed","type":"bool"},{"internalType":"uint256","name":"index","type":"uint256"},{"internalType":"address","name":"ownerContract","type":"address"}],"internalType":"struct RetirementCertificateEscrow.UserRetirementCertificate[]","name":"","type":"tuple[]"},{"internalType":"uint256","name":"","type":"uint256"}],"stateMutability":"view","type":"function"},{"inputs":[],"name":"greenDonation","outputs":[{"internalType":"address","name":"","type":"address"}],"stateMutability":"view","type":"function"},{"inputs":[],"name":"owner","outputs":[{"internalType":"address","name":"","type":"address"}],"stateMutability":"view","type":"function"},{"inputs":[{"internalType":"uint256","name":"tree","type":"uint256"},{"internalType":"uint256","name":"_retirementCertificate","type":"uint256"}],"name":"registerCertificateForClaim","outputs":[],"stateMutability":"nonpayable","type":"function"},{"inputs":[],"name":"renounceOwnership","outputs":[],"stateMutability":"nonpayable","type":"function"},{"inputs":[],"name":"retirementCertificate","outputs":[{"internalType":"contract ERC721Upgradeable","name":"","type":"address"}],"stateMutability":"view","type":"function"},{"inputs":[{"internalType":"address","name":"_greenDonation","type":"address"}],"name":"setGreenDonation","outputs":[],"stateMutability":"nonpayable","type":"function"},{"inputs":[{"internalType":"address","name":"_retirementCertificate","type":"address"}],"name":"setRetirementCertificate","outputs":[],"stateMutability":"nonpayable","type":"function"},{"inputs":[{"internalType":"address","name":"_treeContract","type":"address"}],"name":"setTreeContract","outputs":[],"stateMutability":"nonpayable","type":"function"},{"inputs":[{"internalType":"address","name":"newOwner","type":"address"}],"name":"transferOwnership","outputs":[],"stateMutability":"nonpayable","type":"function"},{"inputs":[],"name":"treeContract","outputs":[{"internalType":"contract TreeContract","name":"","type":"address"}],"stateMutability":"view","type":"function"},{"inputs":[{"internalType":"uint256","name":"","type":"uint256"},{"internalType":"uint256","name":"","type":"uint256"}],"name":"userRetirementCertificates","outputs":[{"internalType":"uint256","name":"tree","type":"uint256"},{"internalType":"uint256","name":"retirementCertificate","type":"uint256"},{"internalType":"bool","name":"claimed","type":"bool"},{"internalType":"uint256","name":"index","type":"uint256"},{"internalType":"address","name":"ownerContract","type":"address"}],"stateMutability":"view","type":"function"}],"evm":{"bytecode":{"linkReferences":{},"object":"608060405234801561001057600080fd5b50338061003757604051631e4fbdf760e01b81526000600482015260240160405180910390fd5b6100408161004a565b506001805561009a565b600080546001600160a01b038381166001600160a01b0319831681178455604051919092169283917f8be0079c531659141344cd1fd0a4f28419497f9722a3daafe3b4186f6b6457e09190a35050565b610e9d806100a96000396000f3fe608060405234801561001057600080fd5b50600436106100df5760003560e01c80639ce12ae51161008c578063ab67b10411610066578063ab67b104146101d9578063d1a924cf146101fa578063d9a299301461020d578063f2fde38b1461022057600080fd5b80639ce12ae514610168578063a1fe32791461017b578063a3c5ab061461018e57600080fd5b80635260522b116100bd5780635260522b1461013c578063715018a61461014f5780638da5cb5b1461015757600080fd5b806340cf1c95146100e45780634261fbbc1461011457806351ad0fe114610129575b600080fd5b6004546100f7906001600160a01b031681565b6040516001600160a01b0390911681526020015b60405180910390f35b610127610122366004610c39565b610233565b005b610127610137366004610c70565b6103bc565b61012761014a366004610caa565b610438565b6101276108f6565b6000546001600160a01b03166100f7565b6005546100f7906001600160a01b031681565b6002546100f7906001600160a01b031681565b6101a161019c366004610c39565b61090a565b60405161010b9594939291909485526020850193909352901515604084015260608301526001600160a01b0316608082015260a00190565b6101ec6101e7366004610d74565b610964565b60405161010b929190610d8d565b610127610208366004610c70565b610a1a565b61012761021b366004610c70565b610a93565b61012761022e366004610c70565b610b0c565b61023b610b60565b60025433906001600160a01b031681148061026357506004546001600160a01b038281169116145b6102da5760405162461bcd60e51b815260206004820152602960248201527f43616c6c6572206e6f7420477265656e446f6e6174696f6e206f72207472656560448201527f20636f6e7472616374000000000000000000000000000000000000000000000060648201526084015b60405180910390fd5b6040805160a0810182528481526020808201858152600083850181815288825260038085528683208054606088018181523360808a0190815284895260018084018555938752958890208951600590930201918255955191810191909155915160028301805460ff191691151591909117905592519281019290925551600490910180546001600160a01b0319166001600160a01b039092169190911790559151858152909184917fac07944bbb6e9aa27108ead48032a58503354f392321eff2d6b498683d4d61fe910160405180910390a250506103b860018055565b5050565b6103c4610ba3565b6103cc610b60565b600254604080516001600160a01b03928316815291831660208301527fafe08ab6cc3e5fd25fd05ae7fa3669ad96c10f74beeb84525b5df117d4d172c7910160405180910390a1600280546001600160a01b0319166001600160a01b0383161790556001805550565b50565b610440610b60565b600480546040517f6352211e0000000000000000000000000000000000000000000000000000000081529182018490528391339182916001600160a01b0390911690636352211e90602401602060405180830381865afa1580156104a8573d6000803e3d6000fd5b505050506040513d601f19601f820116820180604052508101906104cc9190610e0d565b6001600160a01b0316146105225760405162461bcd60e51b815260206004820152600e60248201527f4e6f742074726565206f776e657200000000000000000000000000000000000060448201526064016102d1565b60025433906001600160a01b0316810361057e5760405162461bcd60e51b815260206004820152601460248201527f43616c6c657220477265656e446f6e6174696f6e00000000000000000000000060448201526064016102d1565b6002546001600160a01b031633036105d85760405162461bcd60e51b815260206004820152601a60248201527f477265656e446f6e6174696f6e2063616e6e6f7420636c61696d00000000000060448201526064016102d1565b600085815260036020526040902080546106345760405162461bcd60e51b815260206004820152601460248201527f4e6f20636572746966696361746520666f756e6400000000000000000000000060448201526064016102d1565b60008551116106855760405162461bcd60e51b815260206004820152601e60248201527f4e6f20636572746966696361746520636c61696d20726571756573746564000060448201526064016102d1565b60005b85518110156108e85760008682815181106106a5576106a5610e2a565b6020026020010151905060008382815481106106c3576106c3610e2a565b60009182526020918290206040805160a081018252600590930290910180548352600181015493830193909352600283015460ff1615801591830191909152600383015460608301526004909201546001600160a01b03166080820152915061076e5760405162461bcd60e51b815260206004820152601b60248201527f436572746966696361746520616c726561647920636c61696d6564000000000060448201526064016102d1565b805189146107be5760405162461bcd60e51b815260206004820152601960248201527f4e6f7420796f757220747265652063657274696669636174650000000000000060448201526064016102d1565b60018483815481106107d2576107d2610e2a565b6000918252602091829020600591820201600201805460ff19169315159390931790925590546080830151918301516040517f42842e0e0000000000000000000000000000000000000000000000000000000081526001600160a01b03938416600482015233602482015260448101919091529116906342842e0e90606401600060405180830381600087803b15801561086b57600080fd5b505af115801561087f573d6000803e3d6000fd5b5050505080602001517ff28108c7d75b2617812b4ba38e47c16671840a404d5cc0684efc05272eef30868a336040516108cb9291909182526001600160a01b0316602082015260400190565b60405180910390a2505080806108e090610e40565b915050610688565b50505050506103b860018055565b6108fe610ba3565b6109086000610be9565b565b6003602052816000526040600020818154811061092657600080fd5b60009182526020909120600590910201805460018201546002830154600384015460049094015492955090935060ff1691906001600160a01b031685565b606060008060036000858152602001908152602001600020805480602002602001604051908101604052809291908181526020016000905b82821015610a085760008481526020908190206040805160a081018252600586029092018054835260018082015484860152600282015460ff1615159284019290925260038101546060840152600401546001600160a01b03166080830152908352909201910161099c565b50508251929792965091945050505050565b610a22610ba3565b610a2a610b60565b600554604080516001600160a01b03928316815291831660208301527f91461b82e0312399e902249f31a0d69758cb92b7c9b2ed42ae0de85049529efb910160405180910390a1600580546001600160a01b0319166001600160a01b0383161790556001805550565b610a9b610ba3565b610aa3610b60565b600454604080516001600160a01b03928316815291831660208301527fafe08ab6cc3e5fd25fd05ae7fa3669ad96c10f74beeb84525b5df117d4d172c7910160405180910390a1600480546001600160a01b0319166001600160a01b0383161790556001805550565b610b14610ba3565b6001600160a01b038116610b57576040517f1e4fbdf7000000000000000000000000000000000000000000000000000000008152600060048201526024016102d1565b61043581610be9565b600260015403610b9c576040517f3ee5aeb500000000000000000000000000000000000000000000000000000000815260040160405180910390fd5b6002600155565b6000546001600160a01b03163314610908576040517f118cdaa70000000000000000000000000000000000000000000000000000000081523360048201526024016102d1565b600080546001600160a01b038381166001600160a01b0319831681178455604051919092169283917f8be0079c531659141344cd1fd0a4f28419497f9722a3daafe3b4186f6b6457e09190a35050565b60008060408385031215610c4c57600080fd5b50508035926020909101359150565b6001600160a01b038116811461043557600080fd5b600060208284031215610c8257600080fd5b8135610c8d81610c5b565b9392505050565b634e487b7160e01b600052604160045260246000fd5b60008060408385031215610cbd57600080fd5b8235915060208084013567ffffffffffffffff80821115610cdd57600080fd5b818601915086601f830112610cf157600080fd5b813581811115610d0357610d03610c94565b8060051b604051601f19603f83011681018181108582111715610d2857610d28610c94565b604052918252848201925083810185019189831115610d4657600080fd5b938501935b82851015610d6457843584529385019392850192610d4b565b8096505050505050509250929050565b600060208284031215610d8657600080fd5b5035919050565b6040808252835182820181905260009190606090818501906020808901865b83811015610df95781518051865283810151848701528781015115158887015286810151878701526080908101516001600160a01b03169086015260a09094019390820190600101610dac565b505095909501959095525092949350505050565b600060208284031215610e1f57600080fd5b8151610c8d81610c5b565b634e487b7160e01b600052603260045260246000fd5b600060018201610e6057634e487b7160e01b600052601160045260246000fd5b506001019056fea2646970667358221220d19290ab334c8be0be2da618c2c14d7d2490848ff3d0e0aa22969ce6955730dc64736f6c63430008140033","opcodes":"PUSH1 0x80 PUSH1 0x40 MSTORE CALLVALUE DUP1 ISZERO PUSH2 0x10 JUMPI PUSH1 0x0 DUP1 REVERT JUMPDEST POP CALLER DUP1 PUSH2 0x37 JUMPI PUSH1 0x40 MLOAD PUSH4 0x1E4FBDF7 PUSH1 0xE0 SHL DUP2 MSTORE PUSH1 0x0 PUSH1 0x4 DUP3 ADD MSTORE PUSH1 0x24 ADD PUSH1 0x40 MLOAD DUP1 SWAP2 SUB SWAP1 REVERT JUMPDEST PUSH2 0x40 DUP2 PUSH2 0x4A JUMP JUMPDEST POP PUSH1 0x1 DUP1 SSTORE PUSH2 0x9A JUMP JUMPDEST PUSH1 0x0 DUP1 SLOAD PUSH1 0x1 PUSH1 0x1 PUSH1 0xA0 SHL SUB DUP4 DUP2 AND PUSH1 0x1 PUSH1 0x1 PUSH1 0xA0 SHL SUB NOT DUP4 AND DUP2 OR DUP5 SSTORE PUSH1 0x40 MLOAD SWAP2 SWAP1 SWAP3 AND SWAP3 DUP4 SWAP2 PUSH32 0x8BE0079C531659141344CD1FD0A4F28419497F9722A3DAAFE3B4186F6B6457E0 SWAP2 SWAP1 LOG3 POP POP JUMP JUMPDEST PUSH2 0xE9D DUP1 PUSH2 0xA9 PUSH1 0x0 CODECOPY PUSH1 0x0 RETURN INVALID PUSH1 0x80 PUSH1 0x40 MSTORE CALLVALUE DUP1 ISZERO PUSH2 0x10 JUMPI PUSH1 0x0 DUP1 REVERT JUMPDEST POP PUSH1 0x4 CALLDATASIZE LT PUSH2 0xDF JUMPI PUSH1 0x0 CALLDATALOAD PUSH1 0xE0 SHR DUP1 PUSH4 0x9CE12AE5 GT PUSH2 0x8C JUMPI DUP1 PUSH4 0xAB67B104 GT PUSH2 0x66 JUMPI DUP1 PUSH4 0xAB67B104 EQ PUSH2 0x1D9 JUMPI DUP1 PUSH4 0xD1A924CF EQ PUSH2 0x1FA JUMPI DUP1 PUSH4 0xD9A29930 EQ PUSH2 0x20D JUMPI DUP1 PUSH4 0xF2FDE38B EQ PUSH2 0x220 JUMPI PUSH1 0x0 DUP1 REVERT JUMPDEST DUP1 PUSH4 0x9CE12AE5 EQ PUSH2 0x168 JUMPI DUP1 PUSH4 0xA1FE3279 EQ PUSH2 0x17B JUMPI DUP1 PUSH4 0xA3C5AB06 EQ PUSH2 0x18E JUMPI PUSH1 0x0 DUP1 REVERT JUMPDEST DUP1 PUSH4 0x5260522B GT PUSH2 0xBD JUMPI DUP1 PUSH4 0x5260522B EQ PUSH2 0x13C JUMPI DUP1 PUSH4 0x715018A6 EQ PUSH2 0x14F JUMPI DUP1 PUSH4 0x8DA5CB5B EQ PUSH2 0x157 JUMPI PUSH1 0x0 DUP1 REVERT JUMPDEST DUP1 PUSH4 0x40CF1C95 EQ PUSH2 0xE4 JUMPI DUP1 PUSH4 0x4261FBBC EQ PUSH2 0x114 JUMPI DUP1 PUSH4 0x51AD0FE1 EQ PUSH2 0x129 JUMPI JUMPDEST PUSH1 0x0 DUP1 REVERT JUMPDEST PUSH1 0x4 SLOAD PUSH2 0xF7 SWAP1 PUSH1 0x1 PUSH1 0x1 PUSH1 0xA0 SHL SUB AND DUP2 JUMP JUMPDEST PUSH1 0x40 MLOAD PUSH1 0x1 PUSH1 0x1 PUSH1 0xA0 SHL SUB SWAP1 SWAP2 AND DUP2 MSTORE PUSH1 0x20 ADD JUMPDEST PUSH1 0x40 MLOAD DUP1 SWAP2 SUB SWAP1 RETURN JUMPDEST PUSH2 0x127 PUSH2 0x122 CALLDATASIZE PUSH1 0x4 PUSH2 0xC39 JUMP JUMPDEST PUSH2 0x233 JUMP JUMPDEST STOP JUMPDEST PUSH2 0x127 PUSH2 0x137 CALLDATASIZE PUSH1 0x4 PUSH2 0xC70 JUMP JUMPDEST PUSH2 0x3BC JUMP JUMPDEST PUSH2 0x127 PUSH2 0x14A CALLDATASIZE PUSH1 0x4 PUSH2 0xCAA JUMP JUMPDEST PUSH2 0x438 JUMP JUMPDEST PUSH2 0x127 PUSH2 0x8F6 JUMP JUMPDEST PUSH1 0x0 SLOAD PUSH1 0x1 PUSH1 0x1 PUSH1 0xA0 SHL SUB AND PUSH2 0xF7 JUMP JUMPDEST PUSH1 0x5 SLOAD PUSH2 0xF7 SWAP1 PUSH1 0x1 PUSH1 0x1 PUSH1 0xA0 SHL SUB AND DUP2 JUMP JUMPDEST PUSH1 0x2 SLOAD PUSH2 0xF7 SWAP1 PUSH1 0x1 PUSH1 0x1 PUSH1 0xA0 SHL SUB AND DUP2 JUMP JUMPDEST PUSH2 0x1A1 PUSH2 0x19C CALLDATASIZE PUSH1 0x4 PUSH2 0xC39 JUMP JUMPDEST PUSH2 0x90A JUMP JUMPDEST PUSH1 0x40 MLOAD PUSH2 0x10B SWAP6 SWAP5 SWAP4 SWAP3 SWAP2 SWAP1 SWAP5 DUP6 MSTORE PUSH1 0x20 DUP6 ADD SWAP4 SWAP1 SWAP4 MSTORE SWAP1 ISZERO ISZERO PUSH1 0x40 DUP5 ADD MSTORE PUSH1 0x60 DUP4 ADD MSTORE PUSH1 0x1 PUSH1 0x1 PUSH1 0xA0 SHL SUB AND PUSH1 0x80 DUP3 ADD MSTORE PUSH1 0xA0 ADD SWAP1 JUMP JUMPDEST PUSH2 0x1EC PUSH2 0x1E7 CALLDATASIZE PUSH1 0x4 PUSH2 0xD74 JUMP JUMPDEST PUSH2 0x964 JUMP JUMPDEST PUSH1 0x40 MLOAD PUSH2 0x10B SWAP3 SWAP2 SWAP1 PUSH2 0xD8D JUMP JUMPDEST PUSH2 0x127 PUSH2 0x208 CALLDATASIZE PUSH1 0x4 PUSH2 0xC70 JUMP JUMPDEST PUSH2 0xA1A JUMP JUMPDEST PUSH2 0x127 PUSH2 0x21B CALLDATASIZE PUSH1 0x4 PUSH2 0xC70 JUMP JUMPDEST PUSH2 0xA93 JUMP JUMPDEST PUSH2 0x127 PUSH2 0x22E CALLDATASIZE PUSH1 0x4 PUSH2 0xC70 JUMP JUMPDEST PUSH2 0xB0C JUMP JUMPDEST PUSH2 0x23B PUSH2 0xB60 JUMP JUMPDEST PUSH1 0x2 SLOAD CALLER SWAP1 PUSH1 0x1 PUSH1 0x1 PUSH1 0xA0 SHL SUB AND DUP2 EQ DUP1 PUSH2 0x263 JUMPI POP PUSH1 0x4 SLOAD PUSH1 0x1 PUSH1 0x1 PUSH1 0xA0 SHL SUB DUP3 DUP2 AND SWAP2 AND EQ JUMPDEST PUSH2 0x2DA JUMPI PUSH1 0x40 MLOAD PUSH3 0x461BCD PUSH1 0xE5 SHL DUP2 MSTORE PUSH1 0x20 PUSH1 0x4 DUP3 ADD MSTORE PUSH1 0x29 PUSH1 0x24 DUP3 ADD MSTORE PUSH32 0x43616C6C6572206E6F7420477265656E446F6E6174696F6E206F722074726565 PUSH1 0x44 DUP3 ADD MSTORE PUSH32 0x20636F6E74726163740000000000000000000000000000000000000000000000 PUSH1 0x64 DUP3 ADD MSTORE PUSH1 0x84 ADD JUMPDEST PUSH1 0x40 MLOAD DUP1 SWAP2 SUB SWAP1 REVERT JUMPDEST PUSH1 0x40 DUP1 MLOAD PUSH1 0xA0 DUP2 ADD DUP3 MSTORE DUP5 DUP2 MSTORE PUSH1 0x20 DUP1 DUP3 ADD DUP6 DUP2 MSTORE PUSH1 0x0 DUP4 DUP6 ADD DUP2 DUP2 MSTORE DUP9 DUP3 MSTORE PUSH1 0x3 DUP1 DUP6 MSTORE DUP7 DUP4 KECCAK256 DUP1 SLOAD PUSH1 0x60 DUP9 ADD DUP2 DUP2 MSTORE CALLER PUSH1 0x80 DUP11 ADD SWAP1 DUP2 MSTORE DUP5 DUP10 MSTORE PUSH1 0x1 DUP1 DUP5 ADD DUP6 SSTORE SWAP4 DUP8 MSTORE SWAP6 DUP9 SWAP1 KECCAK256 DUP10 MLOAD PUSH1 0x5 SWAP1 SWAP4 MUL ADD SWAP2 DUP3 SSTORE SWAP6 MLOAD SWAP2 DUP2 ADD SWAP2 SWAP1 SWAP2 SSTORE SWAP2 MLOAD PUSH1 0x2 DUP4 ADD DUP1 SLOAD PUSH1 0xFF NOT AND SWAP2 ISZERO ISZERO SWAP2 SWAP1 SWAP2 OR SWAP1 SSTORE SWAP3 MLOAD SWAP3 DUP2 ADD SWAP3 SWAP1 SWAP3 SSTORE MLOAD PUSH1 0x4 SWAP1 SWAP2 ADD DUP1 SLOAD PUSH1 0x1 PUSH1 0x1 PUSH1 0xA0 SHL SUB NOT AND PUSH1 0x1 PUSH1 0x1 PUSH1 0xA0 SHL SUB SWAP1 SWAP3 AND SWAP2 SWAP1 SWAP2 OR SWAP1 SSTORE SWAP2 MLOAD DUP6 DUP2 MSTORE SWAP1 SWAP2 DUP5 SWAP2 PUSH32 0xAC07944BBB6E9AA27108EAD48032A58503354F392321EFF2D6B498683D4D61FE SWAP2 ADD PUSH1 0x40 MLOAD DUP1 SWAP2 SUB SWAP1 LOG2 POP POP PUSH2 0x3B8 PUSH1 0x1 DUP1 SSTORE JUMP JUMPDEST POP POP JUMP JUMPDEST PUSH2 0x3C4 PUSH2 0xBA3 JUMP JUMPDEST PUSH2 0x3CC PUSH2 0xB60 JUMP JUMPDEST PUSH1 0x2 SLOAD PUSH1 0x40 DUP1 MLOAD PUSH1 0x1 PUSH1 0x1 PUSH1 0xA0 SHL SUB SWAP3 DUP4 AND DUP2 MSTORE SWAP2 DUP4 AND PUSH1 0x20 DUP4 ADD MSTORE PUSH32 0xAFE08AB6CC3E5FD25FD05AE7FA3669AD96C10F74BEEB84525B5DF117D4D172C7 SWAP2 ADD PUSH1 0x40 MLOAD DUP1 SWAP2 SUB SWAP1 LOG1 PUSH1 0x2 DUP1 SLOAD PUSH1 0x1 PUSH1 0x1 PUSH1 0xA0 SHL SUB NOT AND PUSH1 0x1 PUSH1 0x1 PUSH1 0xA0 SHL SUB DUP4 AND OR SWAP1 SSTORE PUSH1 0x1 DUP1 SSTORE POP JUMP JUMPDEST POP JUMP JUMPDEST PUSH2 0x440 PUSH2 0xB60 JUMP JUMPDEST PUSH1 0x4 DUP1 SLOAD PUSH1 0x40 MLOAD PUSH32 0x6352211E00000000000000000000000000000000000000000000000000000000 DUP2 MSTORE SWAP2 DUP3 ADD DUP5 SWAP1 MSTORE DUP4 SWAP2 CALLER SWAP2 DUP3 SWAP2 PUSH1 0x1 PUSH1 0x1 PUSH1 0xA0 SHL SUB SWAP1 SWAP2 AND SWAP1 PUSH4 0x6352211E SWAP1 PUSH1 0x24 ADD PUSH1 0x20 PUSH1 0x40 MLOAD DUP1 DUP4 SUB DUP2 DUP7 GAS STATICCALL ISZERO DUP1 ISZERO PUSH2 0x4A8 JUMPI RETURNDATASIZE PUSH1 0x0 DUP1 RETURNDATACOPY RETURNDATASIZE PUSH1 0x0 REVERT JUMPDEST POP POP POP POP PUSH1 0x40 MLOAD RETURNDATASIZE PUSH1 0x1F NOT PUSH1 0x1F DUP3 ADD AND DUP3 ADD DUP1 PUSH1 0x40 MSTORE POP DUP2 ADD SWAP1 PUSH2 0x4CC SWAP2 SWAP1 PUSH2 0xE0D JUMP JUMPDEST PUSH1 0x1 PUSH1 0x1 PUSH1 0xA0 SHL SUB AND EQ PUSH2 0x522 JUMPI PUSH1 0x40 MLOAD PUSH3 0x461BCD PUSH1 0xE5 SHL DUP2 MSTORE PUSH1 0x20 PUSH1 0x4 DUP3 ADD MSTORE PUSH1 0xE PUSH1 0x24 DUP3 ADD MSTORE PUSH32 0x4E6F742074726565206F776E6572000000000000000000000000000000000000 PUSH1 0x44 DUP3 ADD MSTORE PUSH1 0x64 ADD PUSH2 0x2D1 JUMP JUMPDEST PUSH1 0x2 SLOAD CALLER SWAP1 PUSH1 0x1 PUSH1 0x1 PUSH1 0xA0 SHL SUB AND DUP2 SUB PUSH2 0x57E JUMPI PUSH1 0x40 MLOAD PUSH3 0x461BCD PUSH1 0xE5 SHL DUP2 MSTORE PUSH1 0x20 PUSH1 0x4 DUP3 ADD MSTORE PUSH1 0x14 PUSH1 0x24 DUP3 ADD MSTORE PUSH32 0x43616C6C657220477265656E446F6E6174696F6E000000000000000000000000 PUSH1 0x44 DUP3 ADD MSTORE PUSH1 0x64 ADD PUSH2 0x2D1 JUMP JUMPDEST PUSH1 0x2 SLOAD PUSH1 0x1 PUSH1 0x1 PUSH1 0xA0 SHL SUB AND CALLER SUB PUSH2 0x5D8 JUMPI PUSH1 0x40 MLOAD PUSH3 0x461BCD PUSH1 0xE5 SHL DUP2 MSTORE PUSH1 0x20 PUSH1 0x4 DUP3 ADD MSTORE PUSH1 0x1A PUSH1 0x24 DUP3 ADD MSTORE PUSH32 0x477265656E446F6E6174696F6E2063616E6E6F7420636C61696D000000000000 PUSH1 0x44 DUP3 ADD MSTORE PUSH1 0x64 ADD PUSH2 0x2D1 JUMP JUMPDEST PUSH1 0x0 DUP6 DUP2 MSTORE PUSH1 0x3 PUSH1 0x20 MSTORE PUSH1 0x40 SWAP1 KECCAK256 DUP1 SLOAD PUSH2 0x634 JUMPI PUSH1 0x40 MLOAD PUSH3 0x461BCD PUSH1 0xE5 SHL DUP2 MSTORE PUSH1 0x20 PUSH1 0x4 DUP3 ADD MSTORE PUSH1 0x14 PUSH1 0x24 DUP3 ADD MSTORE PUSH32 0x4E6F20636572746966696361746520666F756E64000000000000000000000000 PUSH1 0x44 DUP3 ADD MSTORE PUSH1 0x64 ADD PUSH2 0x2D1 JUMP JUMPDEST PUSH1 0x0 DUP6 MLOAD GT PUSH2 0x685 JUMPI PUSH1 0x40 MLOAD PUSH3 0x461BCD PUSH1 0xE5 SHL DUP2 MSTORE PUSH1 0x20 PUSH1 0x4 DUP3 ADD MSTORE PUSH1 0x1E PUSH1 0x24 DUP3 ADD MSTORE PUSH32 0x4E6F20636572746966696361746520636C61696D207265717565737465640000 PUSH1 0x44 DUP3 ADD MSTORE PUSH1 0x64 ADD PUSH2 0x2D1 JUMP JUMPDEST PUSH1 0x0 JUMPDEST DUP6 MLOAD DUP2 LT ISZERO PUSH2 0x8E8 JUMPI PUSH1 0x0 DUP7 DUP3 DUP2 MLOAD DUP2 LT PUSH2 0x6A5 JUMPI PUSH2 0x6A5 PUSH2 0xE2A JUMP JUMPDEST PUSH1 0x20 MUL PUSH1 0x20 ADD ADD MLOAD SWAP1 POP PUSH1 0x0 DUP4 DUP3 DUP2 SLOAD DUP2 LT PUSH2 0x6C3 JUMPI PUSH2 0x6C3 PUSH2 0xE2A JUMP JUMPDEST PUSH1 0x0 SWAP2 DUP3 MSTORE PUSH1 0x20 SWAP2 DUP3 SWAP1 KECCAK256 PUSH1 0x40 DUP1 MLOAD PUSH1 0xA0 DUP2 ADD DUP3 MSTORE PUSH1 0x5 SWAP1 SWAP4 MUL SWAP1 SWAP2 ADD DUP1 SLOAD DUP4 MSTORE PUSH1 0x1 DUP2 ADD SLOAD SWAP4 DUP4 ADD SWAP4 SWAP1 SWAP4 MSTORE PUSH1 0x2 DUP4 ADD SLOAD PUSH1 0xFF AND ISZERO DUP1 ISZERO SWAP2 DUP4 ADD SWAP2 SWAP1 SWAP2 MSTORE PUSH1 0x3 DUP4 ADD SLOAD PUSH1 0x60 DUP4 ADD MSTORE PUSH1 0x4 SWAP1 SWAP3 ADD SLOAD PUSH1 0x1 PUSH1 0x1 PUSH1 0xA0 SHL SUB AND PUSH1 0x80 DUP3 ADD MSTORE SWAP2 POP PUSH2 0x76E JUMPI PUSH1 0x40 MLOAD PUSH3 0x461BCD PUSH1 0xE5 SHL DUP2 MSTORE PUSH1 0x20 PUSH1 0x4 DUP3 ADD MSTORE PUSH1 0x1B PUSH1 0x24 DUP3 ADD MSTORE PUSH32 0x436572746966696361746520616C726561647920636C61696D65640000000000 PUSH1 0x44 DUP3 ADD MSTORE PUSH1 0x64 ADD PUSH2 0x2D1 JUMP JUMPDEST DUP1 MLOAD DUP10 EQ PUSH2 0x7BE JUMPI PUSH1 0x40 MLOAD PUSH3 0x461BCD PUSH1 0xE5 SHL DUP2 MSTORE PUSH1 0x20 PUSH1 0x4 DUP3 ADD MSTORE PUSH1 0x19 PUSH1 0x24 DUP3 ADD MSTORE PUSH32 0x4E6F7420796F7572207472656520636572746966696361746500000000000000 PUSH1 0x44 DUP3 ADD MSTORE PUSH1 0x64 ADD PUSH2 0x2D1 JUMP JUMPDEST PUSH1 0x1 DUP5 DUP4 DUP2 SLOAD DUP2 LT PUSH2 0x7D2 JUMPI PUSH2 0x7D2 PUSH2 0xE2A JUMP JUMPDEST PUSH1 0x0 SWAP2 DUP3 MSTORE PUSH1 0x20 SWAP2 DUP3 SWAP1 KECCAK256 PUSH1 0x5 SWAP2 DUP3 MUL ADD PUSH1 0x2 ADD DUP1 SLOAD PUSH1 0xFF NOT AND SWAP4 ISZERO ISZERO SWAP4 SWAP1 SWAP4 OR SWAP1 SWAP3 SSTORE SWAP1 SLOAD PUSH1 0x80 DUP4 ADD MLOAD SWAP2 DUP4 ADD MLOAD PUSH1 0x40 MLOAD PUSH32 0x42842E0E00000000000000000000000000000000000000000000000000000000 DUP2 MSTORE PUSH1 0x1 PUSH1 0x1 PUSH1 0xA0 SHL SUB SWAP4 DUP5 AND PUSH1 0x4 DUP3 ADD MSTORE CALLER PUSH1 0x24 DUP3 ADD MSTORE PUSH1 0x44 DUP2 ADD SWAP2 SWAP1 SWAP2 MSTORE SWAP2 AND SWAP1 PUSH4 0x42842E0E SWAP1 PUSH1 0x64 ADD PUSH1 0x0 PUSH1 0x40 MLOAD DUP1 DUP4 SUB DUP2 PUSH1 0x0 DUP8 DUP1 EXTCODESIZE ISZERO DUP1 ISZERO PUSH2 0x86B JUMPI PUSH1 0x0 DUP1 REVERT JUMPDEST POP GAS CALL ISZERO DUP1 ISZERO PUSH2 0x87F JUMPI RETURNDATASIZE PUSH1 0x0 DUP1 RETURNDATACOPY RETURNDATASIZE PUSH1 0x0 REVERT JUMPDEST POP POP POP POP DUP1 PUSH1 0x20 ADD MLOAD PUSH32 0xF28108C7D75B2617812B4BA38E47C16671840A404D5CC0684EFC05272EEF3086 DUP11 CALLER PUSH1 0x40 MLOAD PUSH2 0x8CB SWAP3 SWAP2 SWAP1 SWAP2 DUP3 MSTORE PUSH1 0x1 PUSH1 0x1 PUSH1 0xA0 SHL SUB AND PUSH1 0x20 DUP3 ADD MSTORE PUSH1 0x40 ADD SWAP1 JUMP JUMPDEST PUSH1 0x40 MLOAD DUP1 SWAP2 SUB SWAP1 LOG2 POP POP DUP1 DUP1 PUSH2 0x8E0 SWAP1 PUSH2 0xE40 JUMP JUMPDEST SWAP2 POP POP PUSH2 0x688 JUMP JUMPDEST POP POP POP POP POP PUSH2 0x3B8 PUSH1 0x1 DUP1 SSTORE JUMP JUMPDEST PUSH2 0x8FE PUSH2 0xBA3 JUMP JUMPDEST PUSH2 0x908 PUSH1 0x0 PUSH2 0xBE9 JUMP JUMPDEST JUMP JUMPDEST PUSH1 0x3 PUSH1 0x20 MSTORE DUP2 PUSH1 0x0 MSTORE PUSH1 0x40 PUSH1 0x0 KECCAK256 DUP2 DUP2 SLOAD DUP2 LT PUSH2 0x926 JUMPI PUSH1 0x0 DUP1 REVERT JUMPDEST PUSH1 0x0 SWAP2 DUP3 MSTORE PUSH1 0x20 SWAP1 SWAP2 KECCAK256 PUSH1 0x5 SWAP1 SWAP2 MUL ADD DUP1 SLOAD PUSH1 0x1 DUP3 ADD SLOAD PUSH1 0x2 DUP4 ADD SLOAD PUSH1 0x3 DUP5 ADD SLOAD PUSH1 0x4 SWAP1 SWAP5 ADD SLOAD SWAP3 SWAP6 POP SWAP1 SWAP4 POP PUSH1 0xFF AND SWAP2 SWAP1 PUSH1 0x1 PUSH1 0x1 PUSH1 0xA0 SHL SUB AND DUP6 JUMP JUMPDEST PUSH1 0x60 PUSH1 0x0 DUP1 PUSH1 0x3 PUSH1 0x0 DUP6 DUP2 MSTORE PUSH1 0x20 ADD SWAP1 DUP2 MSTORE PUSH1 0x20 ADD PUSH1 0x0 KECCAK256 DUP1 SLOAD DUP1 PUSH1 0x20 MUL PUSH1 0x20 ADD PUSH1 0x40 MLOAD SWAP1 DUP2 ADD PUSH1 0x40 MSTORE DUP1 SWAP3 SWAP2 SWAP1 DUP2 DUP2 MSTORE PUSH1 0x20 ADD PUSH1 0x0 SWAP1 JUMPDEST DUP3 DUP3 LT ISZERO PUSH2 0xA08 JUMPI PUSH1 0x0 DUP5 DUP2 MSTORE PUSH1 0x20 SWAP1 DUP2 SWAP1 KECCAK256 PUSH1 0x40 DUP1 MLOAD PUSH1 0xA0 DUP2 ADD DUP3 MSTORE PUSH1 0x5 DUP7 MUL SWAP1 SWAP3 ADD DUP1 SLOAD DUP4 MSTORE PUSH1 0x1 DUP1 DUP3 ADD SLOAD DUP5 DUP7 ADD MSTORE PUSH1 0x2 DUP3 ADD SLOAD PUSH1 0xFF AND ISZERO ISZERO SWAP3 DUP5 ADD SWAP3 SWAP1 SWAP3 MSTORE PUSH1 0x3 DUP2 ADD SLOAD PUSH1 0x60 DUP5 ADD MSTORE PUSH1 0x4 ADD SLOAD PUSH1 0x1 PUSH1 0x1 PUSH1 0xA0 SHL SUB AND PUSH1 0x80 DUP4 ADD MSTORE SWAP1 DUP4 MSTORE SWAP1 SWAP3 ADD SWAP2 ADD PUSH2 0x99C JUMP JUMPDEST POP POP DUP3 MLOAD SWAP3 SWAP8 SWAP3 SWAP7 POP SWAP2 SWAP5 POP POP POP POP POP JUMP JUMPDEST PUSH2 0xA22 PUSH2 0xBA3 JUMP JUMPDEST PUSH2 0xA2A PUSH2 0xB60 JUMP JUMPDEST PUSH1 0x5 SLOAD PUSH1 0x40 DUP1 MLOAD PUSH1 0x1 PUSH1 0x1 PUSH1 0xA0 SHL SUB SWAP3 DUP4 AND DUP2 MSTORE SWAP2 DUP4 AND PUSH1 0x20 DUP4 ADD MSTORE PUSH32 0x91461B82E0312399E902249F31A0D69758CB92B7C9B2ED42AE0DE85049529EFB SWAP2 ADD PUSH1 0x40 MLOAD DUP1 SWAP2 SUB SWAP1 LOG1 PUSH1 0x5 DUP1 SLOAD PUSH1 0x1 PUSH1 0x1 PUSH1 0xA0 SHL SUB NOT AND PUSH1 0x1 PUSH1 0x1 PUSH1 0xA0 SHL SUB DUP4 AND OR SWAP1 SSTORE PUSH1 0x1 DUP1 SSTORE POP JUMP JUMPDEST PUSH2 0xA9B PUSH2 0xBA3 JUMP JUMPDEST PUSH2 0xAA3 PUSH2 0xB60 JUMP JUMPDEST PUSH1 0x4 SLOAD PUSH1 0x40 DUP1 MLOAD PUSH1 0x1 PUSH1 0x1 PUSH1 0xA0 SHL SUB SWAP3 DUP4 AND DUP2 MSTORE SWAP2 DUP4 AND PUSH1 0x20 DUP4 ADD MSTORE PUSH32 0xAFE08AB6CC3E5FD25FD05AE7FA3669AD96C10F74BEEB84525B5DF117D4D172C7 SWAP2 ADD PUSH1 0x40 MLOAD DUP1 SWAP2 SUB SWAP1 LOG1 PUSH1 0x4 DUP1 SLOAD PUSH1 0x1 PUSH1 0x1 PUSH1 0xA0 SHL SUB NOT AND PUSH1 0x1 PUSH1 0x1 PUSH1 0xA0 SHL SUB DUP4 AND OR SWAP1 SSTORE PUSH1 0x1 DUP1 SSTORE POP JUMP JUMPDEST PUSH2 0xB14 PUSH2 0xBA3 JUMP JUMPDEST PUSH1 0x1 PUSH1 0x1 PUSH1 0xA0 SHL SUB DUP2 AND PUSH2 0xB57 JUMPI PUSH1 0x40 MLOAD PUSH32 0x1E4FBDF700000000000000000000000000000000000000000000000000000000 DUP2 MSTORE PUSH1 0x0 PUSH1 0x4 DUP3 ADD MSTORE PUSH1 0x24 ADD PUSH2 0x2D1 JUMP JUMPDEST PUSH2 0x435 DUP2 PUSH2 0xBE9 JUMP JUMPDEST PUSH1 0x2 PUSH1 0x1 SLOAD SUB PUSH2 0xB9C JUMPI PUSH1 0x40 MLOAD PUSH32 0x3EE5AEB500000000000000000000000000000000000000000000000000000000 DUP2 MSTORE PUSH1 0x4 ADD PUSH1 0x40 MLOAD DUP1 SWAP2 SUB SWAP1 REVERT JUMPDEST PUSH1 0x2 PUSH1 0x1 SSTORE JUMP JUMPDEST PUSH1 0x0 SLOAD PUSH1 0x1 PUSH1 0x1 PUSH1 0xA0 SHL SUB AND CALLER EQ PUSH2 0x908 JUMPI PUSH1 0x40 MLOAD PUSH32 0x118CDAA700000000000000000000000000000000000000000000000000000000 DUP2 MSTORE CALLER PUSH1 0x4 DUP3 ADD MSTORE PUSH1 0x24 ADD PUSH2 0x2D1 JUMP JUMPDEST PUSH1 0x0 DUP1 SLOAD PUSH1 0x1 PUSH1 0x1 PUSH1 0xA0 SHL SUB DUP4 DUP2 AND PUSH1 0x1 PUSH1 0x1 PUSH1 0xA0 SHL SUB NOT DUP4 AND DUP2 OR DUP5 SSTORE PUSH1 0x40 MLOAD SWAP2 SWAP1 SWAP3 AND SWAP3 DUP4 SWAP2 PUSH32 0x8BE0079C531659141344CD1FD0A4F28419497F9722A3DAAFE3B4186F6B6457E0 SWAP2 SWAP1 LOG3 POP POP JUMP JUMPDEST PUSH1 0x0 DUP1 PUSH1 0x40 DUP4 DUP6 SUB SLT ISZERO PUSH2 0xC4C JUMPI PUSH1 0x0 DUP1 REVERT JUMPDEST POP POP DUP1 CALLDATALOAD SWAP3 PUSH1 0x20 SWAP1 SWAP2 ADD CALLDATALOAD SWAP2 POP JUMP JUMPDEST PUSH1 0x1 PUSH1 0x1 PUSH1 0xA0 SHL SUB DUP2 AND DUP2 EQ PUSH2 0x435 JUMPI PUSH1 0x0 DUP1 REVERT JUMPDEST PUSH1 0x0 PUSH1 0x20 DUP3 DUP5 SUB SLT ISZERO PUSH2 0xC82 JUMPI PUSH1 0x0 DUP1 REVERT JUMPDEST DUP2 CALLDATALOAD PUSH2 0xC8D DUP2 PUSH2 0xC5B JUMP JUMPDEST SWAP4 SWAP3 POP POP POP JUMP JUMPDEST PUSH4 0x4E487B71 PUSH1 0xE0 SHL PUSH1 0x0 MSTORE PUSH1 0x41 PUSH1 0x4 MSTORE PUSH1 0x24 PUSH1 0x0 REVERT JUMPDEST PUSH1 0x0 DUP1 PUSH1 0x40 DUP4 DUP6 SUB SLT ISZERO PUSH2 0xCBD JUMPI PUSH1 0x0 DUP1 REVERT JUMPDEST DUP3 CALLDATALOAD SWAP2 POP PUSH1 0x20 DUP1 DUP5 ADD CALLDATALOAD PUSH8 0xFFFFFFFFFFFFFFFF DUP1 DUP3 GT ISZERO PUSH2 0xCDD JUMPI PUSH1 0x0 DUP1 REVERT JUMPDEST DUP2 DUP7 ADD SWAP2 POP DUP7 PUSH1 0x1F DUP4 ADD SLT PUSH2 0xCF1 JUMPI PUSH1 0x0 DUP1 REVERT JUMPDEST DUP2 CALLDATALOAD DUP2 DUP2 GT ISZERO PUSH2 0xD03 JUMPI PUSH2 0xD03 PUSH2 0xC94 JUMP JUMPDEST DUP1 PUSH1 0x5 SHL PUSH1 0x40 MLOAD PUSH1 0x1F NOT PUSH1 0x3F DUP4 ADD AND DUP2 ADD DUP2 DUP2 LT DUP6 DUP3 GT OR ISZERO PUSH2 0xD28 JUMPI PUSH2 0xD28 PUSH2 0xC94 JUMP JUMPDEST PUSH1 0x40 MSTORE SWAP2 DUP3 MSTORE DUP5 DUP3 ADD SWAP3 POP DUP4 DUP2 ADD DUP6 ADD SWAP2 DUP10 DUP4 GT ISZERO PUSH2 0xD46 JUMPI PUSH1 0x0 DUP1 REVERT JUMPDEST SWAP4 DUP6 ADD SWAP4 JUMPDEST DUP3 DUP6 LT ISZERO PUSH2 0xD64 JUMPI DUP5 CALLDATALOAD DUP5 MSTORE SWAP4 DUP6 ADD SWAP4 SWAP3 DUP6 ADD SWAP3 PUSH2 0xD4B JUMP JUMPDEST DUP1 SWAP7 POP POP POP POP POP POP POP SWAP3 POP SWAP3 SWAP1 POP JUMP JUMPDEST PUSH1 0x0 PUSH1 0x20 DUP3 DUP5 SUB SLT ISZERO PUSH2 0xD86 JUMPI PUSH1 0x0 DUP1 REVERT JUMPDEST POP CALLDATALOAD SWAP2 SWAP1 POP JUMP JUMPDEST PUSH1 0x40 DUP1 DUP3 MSTORE DUP4 MLOAD DUP3 DUP3 ADD DUP2 SWAP1 MSTORE PUSH1 0x0 SWAP2 SWAP1 PUSH1 0x60 SWAP1 DUP2 DUP6 ADD SWAP1 PUSH1 0x20 DUP1 DUP10 ADD DUP7 JUMPDEST DUP4 DUP2 LT ISZERO PUSH2 0xDF9 JUMPI DUP2 MLOAD DUP1 MLOAD DUP7 MSTORE DUP4 DUP2 ADD MLOAD DUP5 DUP8 ADD MSTORE DUP8 DUP2 ADD MLOAD ISZERO ISZERO DUP9 DUP8 ADD MSTORE DUP7 DUP2 ADD MLOAD DUP8 DUP8 ADD MSTORE PUSH1 0x80 SWAP1 DUP2 ADD MLOAD PUSH1 0x1 PUSH1 0x1 PUSH1 0xA0 SHL SUB AND SWAP1 DUP7 ADD MSTORE PUSH1 0xA0 SWAP1 SWAP5 ADD SWAP4 SWAP1 DUP3 ADD SWAP1 PUSH1 0x1 ADD PUSH2 0xDAC JUMP JUMPDEST POP POP SWAP6 SWAP1 SWAP6 ADD SWAP6 SWAP1 SWAP6 MSTORE POP SWAP3 SWAP5 SWAP4 POP POP POP POP JUMP JUMPDEST PUSH1 0x0 PUSH1 0x20 DUP3 DUP5 SUB SLT ISZERO PUSH2 0xE1F JUMPI PUSH1 0x0 DUP1 REVERT JUMPDEST DUP2 MLOAD PUSH2 0xC8D DUP2 PUSH2 0xC5B JUMP JUMPDEST PUSH4 0x4E487B71 PUSH1 0xE0 SHL PUSH1 0x0 MSTORE PUSH1 0x32 PUSH1 0x4 MSTORE PUSH1 0x24 PUSH1 0x0 REVERT JUMPDEST PUSH1 0x0 PUSH1 0x1 DUP3 ADD PUSH2 0xE60 JUMPI PUSH4 0x4E487B71 PUSH1 0xE0 SHL PUSH1 0x0 MSTORE PUSH1 0x11 PUSH1 0x4 MSTORE PUSH1 0x24 PUSH1 0x0 REVERT JUMPDEST POP PUSH1 0x1 ADD SWAP1 JUMP INVALID LOG2 PUSH5 0x6970667358 0x22 SLT KECCAK256 0xD1 SWAP3 SWAP1 0xAB CALLER 0x4C DUP12 0xE0 0xBE 0x2D 0xA6 XOR 0xC2 0xC1 0x4D PUSH30 0x2490848FF3D0E0AA22969CE6955730DC64736F6C63430008140033000000 "},"methodIdentifiers":{"claimRetirementCertificate(uint256,uint256[])":"5260522b","getUserRetirementCertificates(uint256)":"ab67b104","greenDonation()":"a1fe3279","owner()":"8da5cb5b","registerCertificateForClaim(uint256,uint256)":"4261fbbc","renounceOwnership()":"715018a6","retirementCertificate()":"9ce12ae5","setGreenDonation(address)":"51ad0fe1","setRetirementCertificate(address)":"d1a924cf","setTreeContract(address)":"d9a29930","transferOwnership(address)":"f2fde38b","treeContract()":"40cf1c95","userRetirementCertificates(uint256,uint256)":"a3c5ab06"}}}}}