{
  "_format": "hh-sol-artifact-1",
  "contractName": "MockRetirementCertificate",
  "sourceName": "contracts/mock/MockRetirementCertificate.sol",
  "abi": [
    {
      "inputs": [
        {
          "internalType": "string",
          "name": "name_",
          "type": "string"
        },
        {
          "internalType": "string",
          "name": "symbol_",
          "type": "string"
        }
      ],
      "stateMutability": "nonpayable",
      "type": "constructor"
    },
    {
      "inputs": [
        {
          "internalType": "address",
          "name": "sender",
          "type": "address"
        },
        {
          "internalType": "uint256",
          "name": "tokenId",
          "type": "uint256"
        },
        {
          "internalType": "address",
          "name": "owner",
          "type": "address"
        }
      ],
      "name": "ERC721IncorrectOwner",
      "type": "error"
    },
    {
      "inputs": [
        {
          "internalType": "address",
          "name": "operator",
          "type": "address"
        },
        {
          "internalType": "uint256",
          "name": "tokenId",
          "type": "uint256"
        }
      ],
      "name": "ERC721InsufficientApproval",
      "type": "error"
    },
    {
      "inputs": [
        {
          "internalType": "address",
          "name": "approver",
          "type": "address"
        }
      ],
      "name": "ERC721InvalidApprover",
      "type": "error"
    },
    {
      "inputs": [
        {
          "internalType": "address",
          "name": "operator",
          "type": "address"
        }
      ],
      "name": "ERC721InvalidOperator",
      "type": "error"
    },
    {
      "inputs": [
        {
          "internalType": "address",
          "name": "owner",
          "type": "address"
        }
      ],
      "name": "ERC721InvalidOwner",
      "type": "error"
    },
    {
      "inputs": [
        {
          "internalType": "address",
          "name": "receiver",
          "type": "address"
        }
      ],
      "name": "ERC721InvalidReceiver",
      "type": "error"
    },
    {
      "inputs": [
        {
          "internalType": "address",
          "name": "sender",
          "type": "address"
        }
      ],
      "name": "ERC721InvalidSender",
      "type": "error"
    },
    {
      "inputs": [
        {
          "internalType": "uint256",
          "name": "tokenId",
          "type": "uint256"
        }
      ],
      "name": "ERC721NonexistentToken",
      "type": "error"
    },
    {
      "anonymous": false,
      "inputs": [
        {
          "indexed": true,
          "internalType": "address",
          "name": "owner",
          "type": "address"
        },
        {
          "indexed": true,
          "internalType": "address",
          "name": "approved",
          "type": "address"
        },
        {
          "indexed": true,
          "internalType": "uint256",
          "name": "tokenId",
          "type": "uint256"
        }
      ],
      "name": "Approval",
      "type": "event"
    },
    {
      "anonymous": false,
      "inputs": [
        {
          "indexed": true,
          "internalType": "address",
          "name": "owner",
          "type": "address"
        },
        {
          "indexed": true,
          "internalType": "address",
          "name": "operator",
          "type": "address"
        },
        {
          "indexed": false,
          "internalType": "bool",
          "name": "approved",
          "type": "bool"
        }
      ],
      "name": "ApprovalForAll",
      "type": "event"
    },
    {
      "anonymous": false,
      "inputs": [
        {
          "indexed": true,
          "internalType": "address",
          "name": "from",
          "type": "address"
        },
        {
          "indexed": true,
          "internalType": "address",
          "name": "to",
          "type": "address"
        },
        {
          "indexed": true,
          "internalType": "uint256",
          "name": "tokenId",
          "type": "uint256"
        }
      ],
      "name": "Transfer",
      "type": "event"
    },
    {
      "inputs": [
        {
          "internalType": "address",
          "name": "to",
          "type": "address"
        },
        {
          "internalType": "uint256",
          "name": "tokenId",
          "type": "uint256"
        }
      ],
      "name": "approve",
      "outputs": [],
      "stateMutability": "nonpayable",
      "type": "function"
    },
    {
      "inputs": [
        {
          "internalType": "address",
          "name": "owner",
          "type": "address"
        }
      ],
      "name": "balanceOf",
      "outputs": [
        {
          "internalType": "uint256",
          "name": "",
          "type": "uint256"
        }
      ],
      "stateMutability": "view",
      "type": "function"
    },
    {
      "inputs": [
        {
          "internalType": "uint256",
          "name": "tokenId",
          "type": "uint256"
        }
      ],
      "name": "getApproved",
      "outputs": [
        {
          "internalType": "address",
          "name": "",
          "type": "address"
        }
      ],
      "stateMutability": "view",
      "type": "function"
    },
    {
      "inputs": [
        {
          "internalType": "address",
          "name": "owner",
          "type": "address"
        },
        {
          "internalType": "address",
          "name": "operator",
          "type": "address"
        }
      ],
      "name": "isApprovedForAll",
      "outputs": [
        {
          "internalType": "bool",
          "name": "",
          "type": "bool"
        }
      ],
      "stateMutability": "view",
      "type": "function"
    },
    {
      "inputs": [
        {
          "internalType": "address",
          "name": "retiringEntity",
          "type": "address"
        },
        {
          "internalType": "string",
          "name": "retiringEntityString",
          "type": "string"
        },
        {
          "internalType": "address",
          "name": "beneficiary",
          "type": "address"
        },
        {
          "internalType": "string",
          "name": "beneficiaryString",
          "type": "string"
        },
        {
          "internalType": "string",
          "name": "retirementMessage",
          "type": "string"
        },
        {
          "internalType": "uint256[]",
          "name": "retirementEventIds",
          "type": "uint256[]"
        }
      ],
      "name": "mintCertificate",
      "outputs": [
        {
          "internalType": "uint256",
          "name": "",
          "type": "uint256"
        }
      ],
      "stateMutability": "nonpayable",
      "type": "function"
    },
    {
      "inputs": [],
      "name": "name",
      "outputs": [
        {
          "internalType": "string",
          "name": "",
          "type": "string"
        }
      ],
      "stateMutability": "view",
      "type": "function"
    },
    {
      "inputs": [
        {
          "internalType": "uint256",
          "name": "tokenId",
          "type": "uint256"
        }
      ],
      "name": "ownerOf",
      "outputs": [
        {
          "internalType": "address",
          "name": "",
          "type": "address"
        }
      ],
      "stateMutability": "view",
      "type": "function"
    },
    {
      "inputs": [
        {
          "internalType": "address",
          "name": "from",
          "type": "address"
        },
        {
          "internalType": "address",
          "name": "to",
          "type": "address"
        },
        {
          "internalType": "uint256",
          "name": "tokenId",
          "type": "uint256"
        }
      ],
      "name": "safeTransferFrom",
      "outputs": [],
      "stateMutability": "nonpayable",
      "type": "function"
    },
    {
      "inputs": [
        {
          "internalType": "address",
          "name": "from",
          "type": "address"
        },
        {
          "internalType": "address",
          "name": "to",
          "type": "address"
        },
        {
          "internalType": "uint256",
          "name": "tokenId",
          "type": "uint256"
        },
        {
          "internalType": "bytes",
          "name": "data",
          "type": "bytes"
        }
      ],
      "name": "safeTransferFrom",
      "outputs": [],
      "stateMutability": "nonpayable",
      "type": "function"
    },
    {
      "inputs": [
        {
          "internalType": "address",
          "name": "operator",
          "type": "address"
        },
        {
          "internalType": "bool",
          "name": "approved",
          "type": "bool"
        }
      ],
      "name": "setApprovalForAll",
      "outputs": [],
      "stateMutability": "nonpayable",
      "type": "function"
    },
    {
      "inputs": [
        {
          "internalType": "bytes4",
          "name": "interfaceId",
          "type": "bytes4"
        }
      ],
      "name": "supportsInterface",
      "outputs": [
        {
          "internalType": "bool",
          "name": "",
          "type": "bool"
        }
      ],
      "stateMutability": "view",
      "type": "function"
    },
    {
      "inputs": [],
      "name": "symbol",
      "outputs": [
        {
          "internalType": "string",
          "name": "",
          "type": "string"
        }
      ],
      "stateMutability": "view",
      "type": "function"
    },
    {
      "inputs": [
        {
          "internalType": "uint256",
          "name": "tokenId",
          "type": "uint256"
        }
      ],
      "name": "tokenURI",
      "outputs": [
        {
          "internalType": "string",
          "name": "",
          "type": "string"
        }
      ],
      "stateMutability": "view",
      "type": "function"
    },
    {
      "inputs": [
        {
          "internalType": "address",
          "name": "from",
          "type": "address"
        },
        {
          "internalType": "address",
          "name": "to",
          "type": "address"
        },
        {
          "internalType": "uint256",
          "name": "tokenId",
          "type": "uint256"
        }
      ],
      "name": "transferFrom",
      "outputs": [],
      "stateMutability": "nonpayable",
      "type": "function"
    }
  ],
  "bytecode": "0x608060405260006006553480156200001657600080fd5b506040516200158c3803806200158c833981016040819052620000399162000128565b8181600062000049838262000221565b50600162000058828262000221565b5050505050620002ed565b634e487b7160e01b600052604160045260246000fd5b600082601f8301126200008b57600080fd5b81516001600160401b0380821115620000a857620000a862000063565b604051601f8301601f19908116603f01168101908282118183101715620000d357620000d362000063565b81604052838152602092508683858801011115620000f057600080fd5b600091505b83821015620001145785820183015181830184015290820190620000f5565b600093810190920192909252949350505050565b600080604083850312156200013c57600080fd5b82516001600160401b03808211156200015457600080fd5b620001628683870162000079565b935060208501519150808211156200017957600080fd5b50620001888582860162000079565b9150509250929050565b600181811c90821680620001a757607f821691505b602082108103620001c857634e487b7160e01b600052602260045260246000fd5b50919050565b601f8211156200021c57600081815260208120601f850160051c81016020861015620001f75750805b601f850160051c820191505b81811015620002185782815560010162000203565b5050505b505050565b81516001600160401b038111156200023d576200023d62000063565b62000255816200024e845462000192565b84620001ce565b602080601f8311600181146200028d5760008415620002745750858301515b600019600386901b1c1916600185901b17855562000218565b600085815260208120601f198616915b82811015620002be578886015182559484019460019091019084016200029d565b5085821015620002dd5787850151600019600388901b60f8161c191681555b5050505050600190811b01905550565b61128f80620002fd6000396000f3fe608060405234801561001057600080fd5b50600436106100ea5760003560e01c80636352211e1161008c578063a22cb46511610066578063a22cb465146101e1578063b88d4fde146101f4578063c87b56dd14610207578063e985e9c51461021a57600080fd5b80636352211e146101b357806370a08231146101c657806395d89b41146101d957600080fd5b8063095ea7b3116100c8578063095ea7b314610157578063163c13191461016c57806323b872dd1461018d57806342842e0e146101a057600080fd5b806301ffc9a7146100ef57806306fdde0314610117578063081812fc1461012c575b600080fd5b6101026100fd366004610d60565b610256565b60405190151581526020015b60405180910390f35b61011f6102f3565b60405161010e9190610dcd565b61013f61013a366004610de0565b610385565b6040516001600160a01b03909116815260200161010e565b61016a610165366004610e15565b6103ae565b005b61017f61017a366004610ecd565b6103bd565b60405190815260200161010e565b61016a61019b366004610fb8565b6103f1565b61016a6101ae366004610fb8565b61049a565b61013f6101c1366004610de0565b6104ba565b61017f6101d4366004610ff4565b6104c5565b61011f610526565b61016a6101ef36600461100f565b610535565b61016a610202366004611061565b610540565b61011f610215366004610de0565b610557565b61010261022836600461113d565b6001600160a01b03918216600090815260056020908152604080832093909416825291909152205460ff1690565b60006001600160e01b031982167f80ac58cd0000000000000000000000000000000000000000000000000000000014806102b957506001600160e01b031982167f5b5e139f00000000000000000000000000000000000000000000000000000000145b806102ed57507f01ffc9a7000000000000000000000000000000000000000000000000000000006001600160e01b03198316145b92915050565b60606000805461030290611170565b80601f016020809104026020016040519081016040528092919081815260200182805461032e90611170565b801561037b5780601f106103505761010080835404028352916020019161037b565b820191906000526020600020905b81548152906001019060200180831161035e57829003601f168201915b5050505050905090565b6000610390826105cc565b506000828152600460205260409020546001600160a01b03166102ed565b6103b9828233610605565b5050565b60068054600091826103ce836111aa565b91905055506103df8b600654610612565b506006549a9950505050505050505050565b6001600160a01b03821661042057604051633250574960e11b8152600060048201526024015b60405180910390fd5b600061042d838333610690565b9050836001600160a01b0316816001600160a01b031614610494576040517f64283d7b0000000000000000000000000000000000000000000000000000000081526001600160a01b0380861660048301526024820184905282166044820152606401610417565b50505050565b6104b583838360405180602001604052806000815250610540565b505050565b60006102ed826105cc565b60006001600160a01b03821661050a576040517f89c62b6400000000000000000000000000000000000000000000000000000000815260006004820152602401610417565b506001600160a01b031660009081526003602052604090205490565b60606001805461030290611170565b6103b9338383610796565b61054b8484846103f1565b6104948484848461084e565b6060610562826105cc565b50600061057a60408051602081019091526000815290565b9050600081511161059a57604051806020016040528060008152506105c5565b806105a484610977565b6040516020016105b59291906111d1565b6040516020818303038152906040525b9392505050565b6000818152600260205260408120546001600160a01b0316806102ed57604051637e27328960e01b815260048101849052602401610417565b6104b58383836001610a17565b6001600160a01b03821661063c57604051633250574960e11b815260006004820152602401610417565b600061064a83836000610690565b90506001600160a01b038116156104b5576040517f73c6ac6e00000000000000000000000000000000000000000000000000000000815260006004820152602401610417565b6000828152600260205260408120546001600160a01b03908116908316156106bd576106bd818486610b62565b6001600160a01b038116156106fb576106da600085600080610a17565b6001600160a01b038116600090815260036020526040902080546000190190555b6001600160a01b0385161561072a576001600160a01b0385166000908152600360205260409020805460010190555b600084815260026020526040808220805473ffffffffffffffffffffffffffffffffffffffff19166001600160a01b0389811691821790925591518793918516917fddf252ad1be2c89b69c2b068fc378daa952ba7f163c4a11628f55a4df523b3ef91a4949350505050565b6001600160a01b0382166107e1576040517f5b08ba180000000000000000000000000000000000000000000000000000000081526001600160a01b0383166004820152602401610417565b6001600160a01b03838116600081815260056020908152604080832094871680845294825291829020805460ff191686151590811790915591519182527f17307eab39ab6107e8899845ad3d59bd9653f200f220920489ca2b5937696c31910160405180910390a3505050565b6001600160a01b0383163b1561049457604051630a85bd0160e11b81526001600160a01b0384169063150b7a0290610890903390889087908790600401611200565b6020604051808303816000875af19250505080156108cb575060408051601f3d908101601f191682019092526108c89181019061123c565b60015b610934573d8080156108f9576040519150601f19603f3d011682016040523d82523d6000602084013e6108fe565b606091505b50805160000361092c57604051633250574960e11b81526001600160a01b0385166004820152602401610417565b805181602001fd5b6001600160e01b03198116630a85bd0160e11b1461097057604051633250574960e11b81526001600160a01b0385166004820152602401610417565b5050505050565b6060600061098483610bdf565b600101905060008167ffffffffffffffff8111156109a4576109a461104b565b6040519080825280601f01601f1916602001820160405280156109ce576020820181803683370190505b5090508181016020015b600019017f3031323334353637383961626364656600000000000000000000000000000000600a86061a8153600a85049450846109d857509392505050565b8080610a2b57506001600160a01b03821615155b15610b25576000610a3b846105cc565b90506001600160a01b03831615801590610a675750826001600160a01b0316816001600160a01b031614155b8015610a9957506001600160a01b0380821660009081526005602090815260408083209387168352929052205460ff16155b15610adb576040517fa9fbf51f0000000000000000000000000000000000000000000000000000000081526001600160a01b0384166004820152602401610417565b8115610b235783856001600160a01b0316826001600160a01b03167f8c5be1e5ebec7d5bd14f71427d1e84f3dd0314c0f7b2291e5b200ac8c7c3b92560405160405180910390a45b505b50506000908152600460205260409020805473ffffffffffffffffffffffffffffffffffffffff19166001600160a01b0392909216919091179055565b610b6d838383610cc1565b6104b5576001600160a01b038316610b9b57604051637e27328960e01b815260048101829052602401610417565b6040517f177e802f0000000000000000000000000000000000000000000000000000000081526001600160a01b038316600482015260248101829052604401610417565b6000807a184f03e93ff9f4daa797ed6e38ed64bf6a1f0100000000000000008310610c28577a184f03e93ff9f4daa797ed6e38ed64bf6a1f010000000000000000830492506040015b6d04ee2d6d415b85acef81000000008310610c54576d04ee2d6d415b85acef8100000000830492506020015b662386f26fc100008310610c7257662386f26fc10000830492506010015b6305f5e1008310610c8a576305f5e100830492506008015b6127108310610c9e57612710830492506004015b60648310610cb0576064830492506002015b600a83106102ed5760010192915050565b60006001600160a01b03831615801590610d3f5750826001600160a01b0316846001600160a01b03161480610d1b57506001600160a01b0380851660009081526005602090815260408083209387168352929052205460ff165b80610d3f57506000828152600460205260409020546001600160a01b038481169116145b949350505050565b6001600160e01b031981168114610d5d57600080fd5b50565b600060208284031215610d7257600080fd5b81356105c581610d47565b60005b83811015610d98578181015183820152602001610d80565b50506000910152565b60008151808452610db9816020860160208601610d7d565b601f01601f19169290920160200192915050565b6020815260006105c56020830184610da1565b600060208284031215610df257600080fd5b5035919050565b80356001600160a01b0381168114610e1057600080fd5b919050565b60008060408385031215610e2857600080fd5b610e3183610df9565b946020939093013593505050565b60008083601f840112610e5157600080fd5b50813567ffffffffffffffff811115610e6957600080fd5b602083019150836020828501011115610e8157600080fd5b9250929050565b60008083601f840112610e9a57600080fd5b50813567ffffffffffffffff811115610eb257600080fd5b6020830191508360208260051b8501011115610e8157600080fd5b60008060008060008060008060008060c08b8d031215610eec57600080fd5b610ef58b610df9565b995060208b013567ffffffffffffffff80821115610f1257600080fd5b610f1e8e838f01610e3f565b909b509950899150610f3260408e01610df9565b985060608d0135915080821115610f4857600080fd5b610f548e838f01610e3f565b909850965060808d0135915080821115610f6d57600080fd5b610f798e838f01610e3f565b909650945060a08d0135915080821115610f9257600080fd5b50610f9f8d828e01610e88565b915080935050809150509295989b9194979a5092959850565b600080600060608486031215610fcd57600080fd5b610fd684610df9565b9250610fe460208501610df9565b9150604084013590509250925092565b60006020828403121561100657600080fd5b6105c582610df9565b6000806040838503121561102257600080fd5b61102b83610df9565b91506020830135801515811461104057600080fd5b809150509250929050565b634e487b7160e01b600052604160045260246000fd5b6000806000806080858703121561107757600080fd5b61108085610df9565b935061108e60208601610df9565b925060408501359150606085013567ffffffffffffffff808211156110b257600080fd5b818701915087601f8301126110c657600080fd5b8135818111156110d8576110d861104b565b604051601f8201601f19908116603f011681019083821181831017156111005761110061104b565b816040528281528a602084870101111561111957600080fd5b82602086016020830137600060208483010152809550505050505092959194509250565b6000806040838503121561115057600080fd5b61115983610df9565b915061116760208401610df9565b90509250929050565b600181811c9082168061118457607f821691505b6020821081036111a457634e487b7160e01b600052602260045260246000fd5b50919050565b6000600182016111ca57634e487b7160e01b600052601160045260246000fd5b5060010190565b600083516111e3818460208801610d7d565b8351908301906111f7818360208801610d7d565b01949350505050565b60006001600160a01b038087168352808616602084015250836040830152608060608301526112326080830184610da1565b9695505050505050565b60006020828403121561124e57600080fd5b81516105c581610d4756fea2646970667358221220a20fb18a724e6b37fadaa603c33662d397a9bc10496d0567675b9188c445827e64736f6c63430008140033",
  "linkReferences": {},
  "deployedLinkReferences": {}
}