{
  "_format": "hh-sol-artifact-1",
  "contractName": "MockRetirementCertificate",
  "sourceName": "contracts/mock/MockRetirementCertificate.sol",
  "abi": [
    {
      "inputs": [
        {
          "internalType": "string",
          "name": "name_",
          "type": "string"
        },
        {
          "internalType": "string",
          "name": "symbol_",
          "type": "string"
        }
      ],
      "stateMutability": "nonpayable",
      "type": "constructor"
    },
    {
      "inputs": [
        {
          "internalType": "address",
          "name": "sender",
          "type": "address"
        },
        {
          "internalType": "uint256",
          "name": "tokenId",
          "type": "uint256"
        },
        {
          "internalType": "address",
          "name": "owner",
          "type": "address"
        }
      ],
      "name": "ERC721IncorrectOwner",
      "type": "error"
    },
    {
      "inputs": [
        {
          "internalType": "address",
          "name": "operator",
          "type": "address"
        },
        {
          "internalType": "uint256",
          "name": "tokenId",
          "type": "uint256"
        }
      ],
      "name": "ERC721InsufficientApproval",
      "type": "error"
    },
    {
      "inputs": [
        {
          "internalType": "address",
          "name": "approver",
          "type": "address"
        }
      ],
      "name": "ERC721InvalidApprover",
      "type": "error"
    },
    {
      "inputs": [
        {
          "internalType": "address",
          "name": "operator",
          "type": "address"
        }
      ],
      "name": "ERC721InvalidOperator",
      "type": "error"
    },
    {
      "inputs": [
        {
          "internalType": "address",
          "name": "owner",
          "type": "address"
        }
      ],
      "name": "ERC721InvalidOwner",
      "type": "error"
    },
    {
      "inputs": [
        {
          "internalType": "address",
          "name": "receiver",
          "type": "address"
        }
      ],
      "name": "ERC721InvalidReceiver",
      "type": "error"
    },
    {
      "inputs": [
        {
          "internalType": "address",
          "name": "sender",
          "type": "address"
        }
      ],
      "name": "ERC721InvalidSender",
      "type": "error"
    },
    {
      "inputs": [
        {
          "internalType": "uint256",
          "name": "tokenId",
          "type": "uint256"
        }
      ],
      "name": "ERC721NonexistentToken",
      "type": "error"
    },
    {
      "anonymous": false,
      "inputs": [
        {
          "indexed": true,
          "internalType": "address",
          "name": "owner",
          "type": "address"
        },
        {
          "indexed": true,
          "internalType": "address",
          "name": "approved",
          "type": "address"
        },
        {
          "indexed": true,
          "internalType": "uint256",
          "name": "tokenId",
          "type": "uint256"
        }
      ],
      "name": "Approval",
      "type": "event"
    },
    {
      "anonymous": false,
      "inputs": [
        {
          "indexed": true,
          "internalType": "address",
          "name": "owner",
          "type": "address"
        },
        {
          "indexed": true,
          "internalType": "address",
          "name": "operator",
          "type": "address"
        },
        {
          "indexed": false,
          "internalType": "bool",
          "name": "approved",
          "type": "bool"
        }
      ],
      "name": "ApprovalForAll",
      "type": "event"
    },
    {
      "anonymous": false,
      "inputs": [
        {
          "indexed": true,
          "internalType": "address",
          "name": "from",
          "type": "address"
        },
        {
          "indexed": true,
          "internalType": "address",
          "name": "to",
          "type": "address"
        },
        {
          "indexed": true,
          "internalType": "uint256",
          "name": "tokenId",
          "type": "uint256"
        }
      ],
      "name": "Transfer",
      "type": "event"
    },
    {
      "inputs": [
        {
          "internalType": "address",
          "name": "to",
          "type": "address"
        },
        {
          "internalType": "uint256",
          "name": "tokenId",
          "type": "uint256"
        }
      ],
      "name": "approve",
      "outputs": [],
      "stateMutability": "nonpayable",
      "type": "function"
    },
    {
      "inputs": [
        {
          "internalType": "address",
          "name": "owner",
          "type": "address"
        }
      ],
      "name": "balanceOf",
      "outputs": [
        {
          "internalType": "uint256",
          "name": "",
          "type": "uint256"
        }
      ],
      "stateMutability": "view",
      "type": "function"
    },
    {
      "inputs": [
        {
          "internalType": "uint256",
          "name": "tokenId",
          "type": "uint256"
        }
      ],
      "name": "getApproved",
      "outputs": [
        {
          "internalType": "address",
          "name": "",
          "type": "address"
        }
      ],
      "stateMutability": "view",
      "type": "function"
    },
    {
      "inputs": [
        {
          "internalType": "address",
          "name": "owner",
          "type": "address"
        },
        {
          "internalType": "address",
          "name": "operator",
          "type": "address"
        }
      ],
      "name": "isApprovedForAll",
      "outputs": [
        {
          "internalType": "bool",
          "name": "",
          "type": "bool"
        }
      ],
      "stateMutability": "view",
      "type": "function"
    },
    {
      "inputs": [
        {
          "internalType": "address",
          "name": "retiringEntity",
          "type": "address"
        },
        {
          "internalType": "string",
          "name": "retiringEntityString",
          "type": "string"
        },
        {
          "internalType": "address",
          "name": "beneficiary",
          "type": "address"
        },
        {
          "internalType": "string",
          "name": "beneficiaryString",
          "type": "string"
        },
        {
          "internalType": "string",
          "name": "retirementMessage",
          "type": "string"
        },
        {
          "internalType": "uint256[]",
          "name": "retirementEventIds",
          "type": "uint256[]"
        }
      ],
      "name": "mintCertificate",
      "outputs": [
        {
          "internalType": "uint256",
          "name": "",
          "type": "uint256"
        }
      ],
      "stateMutability": "nonpayable",
      "type": "function"
    },
    {
      "inputs": [],
      "name": "name",
      "outputs": [
        {
          "internalType": "string",
          "name": "",
          "type": "string"
        }
      ],
      "stateMutability": "view",
      "type": "function"
    },
    {
      "inputs": [
        {
          "internalType": "uint256",
          "name": "tokenId",
          "type": "uint256"
        }
      ],
      "name": "ownerOf",
      "outputs": [
        {
          "internalType": "address",
          "name": "",
          "type": "address"
        }
      ],
      "stateMutability": "view",
      "type": "function"
    },
    {
      "inputs": [
        {
          "internalType": "address",
          "name": "from",
          "type": "address"
        },
        {
          "internalType": "address",
          "name": "to",
          "type": "address"
        },
        {
          "internalType": "uint256",
          "name": "tokenId",
          "type": "uint256"
        }
      ],
      "name": "safeTransferFrom",
      "outputs": [],
      "stateMutability": "nonpayable",
      "type": "function"
    },
    {
      "inputs": [
        {
          "internalType": "address",
          "name": "from",
          "type": "address"
        },
        {
          "internalType": "address",
          "name": "to",
          "type": "address"
        },
        {
          "internalType": "uint256",
          "name": "tokenId",
          "type": "uint256"
        },
        {
          "internalType": "bytes",
          "name": "data",
          "type": "bytes"
        }
      ],
      "name": "safeTransferFrom",
      "outputs": [],
      "stateMutability": "nonpayable",
      "type": "function"
    },
    {
      "inputs": [
        {
          "internalType": "address",
          "name": "operator",
          "type": "address"
        },
        {
          "internalType": "bool",
          "name": "approved",
          "type": "bool"
        }
      ],
      "name": "setApprovalForAll",
      "outputs": [],
      "stateMutability": "nonpayable",
      "type": "function"
    },
    {
      "inputs": [
        {
          "internalType": "bytes4",
          "name": "interfaceId",
          "type": "bytes4"
        }
      ],
      "name": "supportsInterface",
      "outputs": [
        {
          "internalType": "bool",
          "name": "",
          "type": "bool"
        }
      ],
      "stateMutability": "view",
      "type": "function"
    },
    {
      "inputs": [],
      "name": "symbol",
      "outputs": [
        {
          "internalType": "string",
          "name": "",
          "type": "string"
        }
      ],
      "stateMutability": "view",
      "type": "function"
    },
    {
      "inputs": [
        {
          "internalType": "uint256",
          "name": "tokenId",
          "type": "uint256"
        }
      ],
      "name": "tokenURI",
      "outputs": [
        {
          "internalType": "string",
          "name": "",
          "type": "string"
        }
      ],
      "stateMutability": "view",
      "type": "function"
    },
    {
      "inputs": [
        {
          "internalType": "address",
          "name": "from",
          "type": "address"
        },
        {
          "internalType": "address",
          "name": "to",
          "type": "address"
        },
        {
          "internalType": "uint256",
          "name": "tokenId",
          "type": "uint256"
        }
      ],
      "name": "transferFrom",
      "outputs": [],
      "stateMutability": "nonpayable",
      "type": "function"
    }
  ],
  "bytecode": "0x608060405260006006553480156200001657600080fd5b50604051620025fc380380620025fc83398181016040528101906200003c9190620001ff565b818181600090816200004f9190620004cf565b508060019081620000619190620004cf565b5050505050620005b6565b6000604051905090565b600080fd5b600080fd5b600080fd5b600080fd5b6000601f19601f8301169050919050565b7f4e487b7100000000000000000000000000000000000000000000000000000000600052604160045260246000fd5b620000d5826200008a565b810181811067ffffffffffffffff82111715620000f757620000f66200009b565b5b80604052505050565b60006200010c6200006c565b90506200011a8282620000ca565b919050565b600067ffffffffffffffff8211156200013d576200013c6200009b565b5b62000148826200008a565b9050602081019050919050565b60005b838110156200017557808201518184015260208101905062000158565b60008484015250505050565b60006200019862000192846200011f565b62000100565b905082815260208101848484011115620001b757620001b662000085565b5b620001c484828562000155565b509392505050565b600082601f830112620001e457620001e362000080565b5b8151620001f684826020860162000181565b91505092915050565b6000806040838503121562000219576200021862000076565b5b600083015167ffffffffffffffff8111156200023a57620002396200007b565b5b6200024885828601620001cc565b925050602083015167ffffffffffffffff8111156200026c576200026b6200007b565b5b6200027a85828601620001cc565b9150509250929050565b600081519050919050565b7f4e487b7100000000000000000000000000000000000000000000000000000000600052602260045260246000fd5b60006002820490506001821680620002d757607f821691505b602082108103620002ed57620002ec6200028f565b5b50919050565b60008190508160005260206000209050919050565b60006020601f8301049050919050565b600082821b905092915050565b600060088302620003577fffffffffffffffffffffffffffffffffffffffffffffffffffffffffffffffff8262000318565b62000363868362000318565b95508019841693508086168417925050509392505050565b6000819050919050565b6000819050919050565b6000620003b0620003aa620003a4846200037b565b62000385565b6200037b565b9050919050565b6000819050919050565b620003cc836200038f565b620003e4620003db82620003b7565b84845462000325565b825550505050565b600090565b620003fb620003ec565b62000408818484620003c1565b505050565b5b81811015620004305762000424600082620003f1565b6001810190506200040e565b5050565b601f8211156200047f576200044981620002f3565b620004548462000308565b8101602085101562000464578190505b6200047c620004738562000308565b8301826200040d565b50505b505050565b600082821c905092915050565b6000620004a46000198460080262000484565b1980831691505092915050565b6000620004bf838362000491565b9150826002028217905092915050565b620004da8262000284565b67ffffffffffffffff811115620004f657620004f56200009b565b5b620005028254620002be565b6200050f82828562000434565b600060209050601f83116001811462000547576000841562000532578287015190505b6200053e8582620004b1565b865550620005ae565b601f1984166200055786620002f3565b60005b8281101562000581578489015182556001820191506020850194506020810190506200055a565b86831015620005a157848901516200059d601f89168262000491565b8355505b6001600288020188555050505b505050505050565b61203680620005c66000396000f3fe608060405234801561001057600080fd5b50600436106100ea5760003560e01c80636352211e1161008c578063a22cb46511610066578063a22cb4651461026f578063b88d4fde1461028b578063c87b56dd146102a7578063e985e9c5146102d7576100ea565b80636352211e146101f157806370a082311461022157806395d89b4114610251576100ea565b8063095ea7b3116100c8578063095ea7b31461016d578063163c13191461018957806323b872dd146101b957806342842e0e146101d5576100ea565b806301ffc9a7146100ef57806306fdde031461011f578063081812fc1461013d575b600080fd5b61010960048036038101906101049190611643565b610307565b604051610116919061168b565b60405180910390f35b6101276103e9565b6040516101349190611736565b60405180910390f35b6101576004803603810190610152919061178e565b61047b565b60405161016491906117fc565b60405180910390f35b61018760048036038101906101829190611843565b610497565b005b6101a3600480360381019061019e919061193e565b6104ad565b6040516101b09190611a5d565b60405180910390f35b6101d360048036038101906101ce9190611a78565b6104e6565b005b6101ef60048036038101906101ea9190611a78565b6105e8565b005b61020b6004803603810190610206919061178e565b610608565b60405161021891906117fc565b60405180910390f35b61023b60048036038101906102369190611acb565b61061a565b6040516102489190611a5d565b60405180910390f35b6102596106d4565b6040516102669190611736565b60405180910390f35b61028960048036038101906102849190611b24565b610766565b005b6102a560048036038101906102a09190611c94565b61077c565b005b6102c160048036038101906102bc919061178e565b610799565b6040516102ce9190611736565b60405180910390f35b6102f160048036038101906102ec9190611d17565b610802565b6040516102fe919061168b565b60405180910390f35b60007f80ac58cd000000000000000000000000000000000000000000000000000000007bffffffffffffffffffffffffffffffffffffffffffffffffffffffff1916827bffffffffffffffffffffffffffffffffffffffffffffffffffffffff191614806103d257507f5b5e139f000000000000000000000000000000000000000000000000000000007bffffffffffffffffffffffffffffffffffffffffffffffffffffffff1916827bffffffffffffffffffffffffffffffffffffffffffffffffffffffff1916145b806103e257506103e182610896565b5b9050919050565b6060600080546103f890611d86565b80601f016020809104026020016040519081016040528092919081815260200182805461042490611d86565b80156104715780601f1061044657610100808354040283529160200191610471565b820191906000526020600020905b81548152906001019060200180831161045457829003601f168201915b5050505050905090565b600061048682610900565b5061049082610988565b9050919050565b6104a982826104a46109c5565b6109cd565b5050565b6000600660008154809291906104c290611de6565b91905055506104d38b6006546109df565b60065490509a9950505050505050505050565b600073ffffffffffffffffffffffffffffffffffffffff168273ffffffffffffffffffffffffffffffffffffffff16036105585760006040517f64a0ae9200000000000000000000000000000000000000000000000000000000815260040161054f91906117fc565b60405180910390fd5b600061056c83836105676109c5565b610ad8565b90508373ffffffffffffffffffffffffffffffffffffffff168173ffffffffffffffffffffffffffffffffffffffff16146105e2578382826040517f64283d7b0000000000000000000000000000000000000000000000000000000081526004016105d993929190611e2e565b60405180910390fd5b50505050565b6106038383836040518060200160405280600081525061077c565b505050565b600061061382610900565b9050919050565b60008073ffffffffffffffffffffffffffffffffffffffff168273ffffffffffffffffffffffffffffffffffffffff160361068d5760006040517f89c62b6400000000000000000000000000000000000000000000000000000000815260040161068491906117fc565b60405180910390fd5b600360008373ffffffffffffffffffffffffffffffffffffffff1673ffffffffffffffffffffffffffffffffffffffff168152602001908152602001600020549050919050565b6060600180546106e390611d86565b80601f016020809104026020016040519081016040528092919081815260200182805461070f90611d86565b801561075c5780601f106107315761010080835404028352916020019161075c565b820191906000526020600020905b81548152906001019060200180831161073f57829003601f168201915b5050505050905090565b6107786107716109c5565b8383610cf2565b5050565b6107878484846104e6565b61079384848484610e61565b50505050565b60606107a482610900565b5060006107af611018565b905060008151116107cf57604051806020016040528060008152506107fa565b806107d98461102f565b6040516020016107ea929190611ea1565b6040516020818303038152906040525b915050919050565b6000600560008473ffffffffffffffffffffffffffffffffffffffff1673ffffffffffffffffffffffffffffffffffffffff16815260200190815260200160002060008373ffffffffffffffffffffffffffffffffffffffff1673ffffffffffffffffffffffffffffffffffffffff16815260200190815260200160002060009054906101000a900460ff16905092915050565b60007f01ffc9a7000000000000000000000000000000000000000000000000000000007bffffffffffffffffffffffffffffffffffffffffffffffffffffffff1916827bffffffffffffffffffffffffffffffffffffffffffffffffffffffff1916149050919050565b60008061090c836110fd565b9050600073ffffffffffffffffffffffffffffffffffffffff168173ffffffffffffffffffffffffffffffffffffffff160361097f57826040517f7e2732890000000000000000000000000000000000000000000000000000000081526004016109769190611a5d565b60405180910390fd5b80915050919050565b60006004600083815260200190815260200160002060009054906101000a900473ffffffffffffffffffffffffffffffffffffffff169050919050565b600033905090565b6109da838383600161113a565b505050565b600073ffffffffffffffffffffffffffffffffffffffff168273ffffffffffffffffffffffffffffffffffffffff1603610a515760006040517f64a0ae92000000000000000000000000000000000000000000000000000000008152600401610a4891906117fc565b60405180910390fd5b6000610a5f83836000610ad8565b9050600073ffffffffffffffffffffffffffffffffffffffff168173ffffffffffffffffffffffffffffffffffffffff1614610ad35760006040517f73c6ac6e000000000000000000000000000000000000000000000000000000008152600401610aca91906117fc565b60405180910390fd5b505050565b600080610ae4846110fd565b9050600073ffffffffffffffffffffffffffffffffffffffff168373ffffffffffffffffffffffffffffffffffffffff1614610b2657610b258184866112ff565b5b600073ffffffffffffffffffffffffffffffffffffffff168173ffffffffffffffffffffffffffffffffffffffff1614610bb757610b6860008560008061113a565b6001600360008373ffffffffffffffffffffffffffffffffffffffff1673ffffffffffffffffffffffffffffffffffffffff168152602001908152602001600020600082825403925050819055505b600073ffffffffffffffffffffffffffffffffffffffff168573ffffffffffffffffffffffffffffffffffffffff1614610c3a576001600360008773ffffffffffffffffffffffffffffffffffffffff1673ffffffffffffffffffffffffffffffffffffffff168152602001908152602001600020600082825401925050819055505b846002600086815260200190815260200160002060006101000a81548173ffffffffffffffffffffffffffffffffffffffff021916908373ffffffffffffffffffffffffffffffffffffffff160217905550838573ffffffffffffffffffffffffffffffffffffffff168273ffffffffffffffffffffffffffffffffffffffff167fddf252ad1be2c89b69c2b068fc378daa952ba7f163c4a11628f55a4df523b3ef60405160405180910390a4809150509392505050565b600073ffffffffffffffffffffffffffffffffffffffff168273ffffffffffffffffffffffffffffffffffffffff1603610d6357816040517f5b08ba18000000000000000000000000000000000000000000000000000000008152600401610d5a91906117fc565b60405180910390fd5b80600560008573ffffffffffffffffffffffffffffffffffffffff1673ffffffffffffffffffffffffffffffffffffffff16815260200190815260200160002060008473ffffffffffffffffffffffffffffffffffffffff1673ffffffffffffffffffffffffffffffffffffffff16815260200190815260200160002060006101000a81548160ff0219169083151502179055508173ffffffffffffffffffffffffffffffffffffffff168373ffffffffffffffffffffffffffffffffffffffff167f17307eab39ab6107e8899845ad3d59bd9653f200f220920489ca2b5937696c3183604051610e54919061168b565b60405180910390a3505050565b60008373ffffffffffffffffffffffffffffffffffffffff163b1115611012578273ffffffffffffffffffffffffffffffffffffffff1663150b7a02610ea56109c5565b8685856040518563ffffffff1660e01b8152600401610ec79493929190611f1a565b6020604051808303816000875af1925050508015610f0357506040513d601f19601f82011682018060405250810190610f009190611f7b565b60015b610f87573d8060008114610f33576040519150601f19603f3d011682016040523d82523d6000602084013e610f38565b606091505b506000815103610f7f57836040517f64a0ae92000000000000000000000000000000000000000000000000000000008152600401610f7691906117fc565b60405180910390fd5b805181602001fd5b63150b7a0260e01b7bffffffffffffffffffffffffffffffffffffffffffffffffffffffff1916817bffffffffffffffffffffffffffffffffffffffffffffffffffffffff19161461101057836040517f64a0ae9200000000000000000000000000000000000000000000000000000000815260040161100791906117fc565b60405180910390fd5b505b50505050565b606060405180602001604052806000815250905090565b60606000600161103e846113c3565b01905060008167ffffffffffffffff81111561105d5761105c611b69565b5b6040519080825280601f01601f19166020018201604052801561108f5781602001600182028036833780820191505090505b509050600082602001820190505b6001156110f2578080600190039150507f3031323334353637383961626364656600000000000000000000000000000000600a86061a8153600a85816110e6576110e5611fa8565b5b0494506000850361109d575b819350505050919050565b60006002600083815260200190815260200160002060009054906101000a900473ffffffffffffffffffffffffffffffffffffffff169050919050565b80806111735750600073ffffffffffffffffffffffffffffffffffffffff168273ffffffffffffffffffffffffffffffffffffffff1614155b156112a757600061118384610900565b9050600073ffffffffffffffffffffffffffffffffffffffff168373ffffffffffffffffffffffffffffffffffffffff16141580156111ee57508273ffffffffffffffffffffffffffffffffffffffff168173ffffffffffffffffffffffffffffffffffffffff1614155b801561120157506111ff8184610802565b155b1561124357826040517fa9fbf51f00000000000000000000000000000000000000000000000000000000815260040161123a91906117fc565b60405180910390fd5b81156112a557838573ffffffffffffffffffffffffffffffffffffffff168273ffffffffffffffffffffffffffffffffffffffff167f8c5be1e5ebec7d5bd14f71427d1e84f3dd0314c0f7b2291e5b200ac8c7c3b92560405160405180910390a45b505b836004600085815260200190815260200160002060006101000a81548173ffffffffffffffffffffffffffffffffffffffff021916908373ffffffffffffffffffffffffffffffffffffffff16021790555050505050565b61130a838383611516565b6113be57600073ffffffffffffffffffffffffffffffffffffffff168373ffffffffffffffffffffffffffffffffffffffff160361137f57806040517f7e2732890000000000000000000000000000000000000000000000000000000081526004016113769190611a5d565b60405180910390fd5b81816040517f177e802f0000000000000000000000000000000000000000000000000000000081526004016113b5929190611fd7565b60405180910390fd5b505050565b600080600090507a184f03e93ff9f4daa797ed6e38ed64bf6a1f0100000000000000008310611421577a184f03e93ff9f4daa797ed6e38ed64bf6a1f010000000000000000838161141757611416611fa8565b5b0492506040810190505b6d04ee2d6d415b85acef8100000000831061145e576d04ee2d6d415b85acef8100000000838161145457611453611fa8565b5b0492506020810190505b662386f26fc10000831061148d57662386f26fc10000838161148357611482611fa8565b5b0492506010810190505b6305f5e10083106114b6576305f5e10083816114ac576114ab611fa8565b5b0492506008810190505b61271083106114db5761271083816114d1576114d0611fa8565b5b0492506004810190505b606483106114fe57606483816114f4576114f3611fa8565b5b0492506002810190505b600a831061150d576001810190505b80915050919050565b60008073ffffffffffffffffffffffffffffffffffffffff168373ffffffffffffffffffffffffffffffffffffffff16141580156115ce57508273ffffffffffffffffffffffffffffffffffffffff168473ffffffffffffffffffffffffffffffffffffffff16148061158f575061158e8484610802565b5b806115cd57508273ffffffffffffffffffffffffffffffffffffffff166115b583610988565b73ffffffffffffffffffffffffffffffffffffffff16145b5b90509392505050565b6000604051905090565b600080fd5b600080fd5b60007fffffffff0000000000000000000000000000000000000000000000000000000082169050919050565b611620816115eb565b811461162b57600080fd5b50565b60008135905061163d81611617565b92915050565b600060208284031215611659576116586115e1565b5b60006116678482850161162e565b91505092915050565b60008115159050919050565b61168581611670565b82525050565b60006020820190506116a0600083018461167c565b92915050565b600081519050919050565b600082825260208201905092915050565b60005b838110156116e05780820151818401526020810190506116c5565b60008484015250505050565b6000601f19601f8301169050919050565b6000611708826116a6565b61171281856116b1565b93506117228185602086016116c2565b61172b816116ec565b840191505092915050565b6000602082019050818103600083015261175081846116fd565b905092915050565b6000819050919050565b61176b81611758565b811461177657600080fd5b50565b60008135905061178881611762565b92915050565b6000602082840312156117a4576117a36115e1565b5b60006117b284828501611779565b91505092915050565b600073ffffffffffffffffffffffffffffffffffffffff82169050919050565b60006117e6826117bb565b9050919050565b6117f6816117db565b82525050565b600060208201905061181160008301846117ed565b92915050565b611820816117db565b811461182b57600080fd5b50565b60008135905061183d81611817565b92915050565b6000806040838503121561185a576118596115e1565b5b60006118688582860161182e565b925050602061187985828601611779565b9150509250929050565b600080fd5b600080fd5b600080fd5b60008083601f8401126118a8576118a7611883565b5b8235905067ffffffffffffffff8111156118c5576118c4611888565b5b6020830191508360018202830111156118e1576118e061188d565b5b9250929050565b60008083601f8401126118fe576118fd611883565b5b8235905067ffffffffffffffff81111561191b5761191a611888565b5b6020830191508360208202830111156119375761193661188d565b5b9250929050565b60008060008060008060008060008060c08b8d031215611961576119606115e1565b5b600061196f8d828e0161182e565b9a505060208b013567ffffffffffffffff8111156119905761198f6115e6565b5b61199c8d828e01611892565b995099505060406119af8d828e0161182e565b97505060608b013567ffffffffffffffff8111156119d0576119cf6115e6565b5b6119dc8d828e01611892565b965096505060808b013567ffffffffffffffff8111156119ff576119fe6115e6565b5b611a0b8d828e01611892565b945094505060a08b013567ffffffffffffffff811115611a2e57611a2d6115e6565b5b611a3a8d828e016118e8565b92509250509295989b9194979a5092959850565b611a5781611758565b82525050565b6000602082019050611a726000830184611a4e565b92915050565b600080600060608486031215611a9157611a906115e1565b5b6000611a9f8682870161182e565b9350506020611ab08682870161182e565b9250506040611ac186828701611779565b9150509250925092565b600060208284031215611ae157611ae06115e1565b5b6000611aef8482850161182e565b91505092915050565b611b0181611670565b8114611b0c57600080fd5b50565b600081359050611b1e81611af8565b92915050565b60008060408385031215611b3b57611b3a6115e1565b5b6000611b498582860161182e565b9250506020611b5a85828601611b0f565b9150509250929050565b600080fd5b7f4e487b7100000000000000000000000000000000000000000000000000000000600052604160045260246000fd5b611ba1826116ec565b810181811067ffffffffffffffff82111715611bc057611bbf611b69565b5b80604052505050565b6000611bd36115d7565b9050611bdf8282611b98565b919050565b600067ffffffffffffffff821115611bff57611bfe611b69565b5b611c08826116ec565b9050602081019050919050565b82818337600083830152505050565b6000611c37611c3284611be4565b611bc9565b905082815260208101848484011115611c5357611c52611b64565b5b611c5e848285611c15565b509392505050565b600082601f830112611c7b57611c7a611883565b5b8135611c8b848260208601611c24565b91505092915050565b60008060008060808587031215611cae57611cad6115e1565b5b6000611cbc8782880161182e565b9450506020611ccd8782880161182e565b9350506040611cde87828801611779565b925050606085013567ffffffffffffffff811115611cff57611cfe6115e6565b5b611d0b87828801611c66565b91505092959194509250565b60008060408385031215611d2e57611d2d6115e1565b5b6000611d3c8582860161182e565b9250506020611d4d8582860161182e565b9150509250929050565b7f4e487b7100000000000000000000000000000000000000000000000000000000600052602260045260246000fd5b60006002820490506001821680611d9e57607f821691505b602082108103611db157611db0611d57565b5b50919050565b7f4e487b7100000000000000000000000000000000000000000000000000000000600052601160045260246000fd5b6000611df182611758565b91507fffffffffffffffffffffffffffffffffffffffffffffffffffffffffffffffff8203611e2357611e22611db7565b5b600182019050919050565b6000606082019050611e4360008301866117ed565b611e506020830185611a4e565b611e5d60408301846117ed565b949350505050565b600081905092915050565b6000611e7b826116a6565b611e858185611e65565b9350611e958185602086016116c2565b80840191505092915050565b6000611ead8285611e70565b9150611eb98284611e70565b91508190509392505050565b600081519050919050565b600082825260208201905092915050565b6000611eec82611ec5565b611ef68185611ed0565b9350611f068185602086016116c2565b611f0f816116ec565b840191505092915050565b6000608082019050611f2f60008301876117ed565b611f3c60208301866117ed565b611f496040830185611a4e565b8181036060830152611f5b8184611ee1565b905095945050505050565b600081519050611f7581611617565b92915050565b600060208284031215611f9157611f906115e1565b5b6000611f9f84828501611f66565b91505092915050565b7f4e487b7100000000000000000000000000000000000000000000000000000000600052601260045260246000fd5b6000604082019050611fec60008301856117ed565b611ff96020830184611a4e565b939250505056fea2646970667358221220eaca84cf368f9035e00ef508602bb18cc766ee783007c82beefd0f09809d666d64736f6c63430008140033",
  "linkReferences": {},
  "deployedLinkReferences": {}
}