{
  "_format": "hh-sol-artifact-1",
  "contractName": "MockUniswapV2Router",
  "sourceName": "contracts/mock/MockUniswapV2Router.sol",
  "abi": [
    {
      "inputs": [
        {
          "internalType": "uint256",
          "name": "amountIn",
          "type": "uint256"
        },
        {
          "internalType": "uint256",
          "name": "minAmountOut",
          "type": "uint256"
        },
        {
          "internalType": "address[]",
          "name": "path",
          "type": "address[]"
        },
        {
          "internalType": "address",
          "name": "to",
          "type": "address"
        },
        {
          "internalType": "uint256",
          "name": "deadline",
          "type": "uint256"
        }
      ],
      "name": "swapExactTokensForTokens",
      "outputs": [],
      "stateMutability": "nonpayable",
      "type": "function"
    }
  ],
  "bytecode": "0x608060405234801561001057600080fd5b50610609806100206000396000f3fe608060405234801561001057600080fd5b506004361061002b5760003560e01c806338ed173914610030575b600080fd5b61004a6004803603810190610045919061037a565b61004c565b005b6b204fce5e3e25026110000000841061009a576040517f08c379a00000000000000000000000000000000000000000000000000000000081526004016100919061046e565b60405180910390fd5b60008110156100de576040517f08c379a00000000000000000000000000000000000000000000000000000000081526004016100d5906104da565b60405180910390fd5b82600184516100ed9190610529565b815181106100fe576100fd61055d565b5b602002602001015173ffffffffffffffffffffffffffffffffffffffff166340c10f1983876040518363ffffffff1660e01b81526004016101409291906105aa565b600060405180830381600087803b15801561015a57600080fd5b505af115801561016e573d6000803e3d6000fd5b505050505050505050565b6000604051905090565b600080fd5b600080fd5b6000819050919050565b6101a08161018d565b81146101ab57600080fd5b50565b6000813590506101bd81610197565b92915050565b600080fd5b6000601f19601f8301169050919050565b7f4e487b7100000000000000000000000000000000000000000000000000000000600052604160045260246000fd5b610211826101c8565b810181811067ffffffffffffffff821117156102305761022f6101d9565b5b80604052505050565b6000610243610179565b905061024f8282610208565b919050565b600067ffffffffffffffff82111561026f5761026e6101d9565b5b602082029050602081019050919050565b600080fd5b600073ffffffffffffffffffffffffffffffffffffffff82169050919050565b60006102b082610285565b9050919050565b6102c0816102a5565b81146102cb57600080fd5b50565b6000813590506102dd816102b7565b92915050565b60006102f66102f184610254565b610239565b9050808382526020820190506020840283018581111561031957610318610280565b5b835b81811015610342578061032e88826102ce565b84526020840193505060208101905061031b565b5050509392505050565b600082601f830112610361576103606101c3565b5b81356103718482602086016102e3565b91505092915050565b600080600080600060a0868803121561039657610395610183565b5b60006103a4888289016101ae565b95505060206103b5888289016101ae565b945050604086013567ffffffffffffffff8111156103d6576103d5610188565b5b6103e28882890161034c565b93505060606103f3888289016102ce565b9250506080610404888289016101ae565b9150509295509295909350565b600082825260208201905092915050565b7f6d696e416d6f756e744f75740000000000000000000000000000000000000000600082015250565b6000610458600c83610411565b915061046382610422565b602082019050919050565b600060208201905081810360008301526104878161044b565b9050919050565b7f496e76616c696420646561646c696e6500000000000000000000000000000000600082015250565b60006104c4601083610411565b91506104cf8261048e565b602082019050919050565b600060208201905081810360008301526104f3816104b7565b9050919050565b7f4e487b7100000000000000000000000000000000000000000000000000000000600052601160045260246000fd5b60006105348261018d565b915061053f8361018d565b9250828203905081811115610557576105566104fa565b5b92915050565b7f4e487b7100000000000000000000000000000000000000000000000000000000600052603260045260246000fd5b610595816102a5565b82525050565b6105a48161018d565b82525050565b60006040820190506105bf600083018561058c565b6105cc602083018461059b565b939250505056fea26469706673582212203f5d1dac7f568bd39bd7c5cd31d192c63cdffbf54683578ac2663dbe3104890964736f6c63430008140033",
  "linkReferences": {},
  "deployedLinkReferences": {}
}