{
  "_format": "hh-sol-artifact-1",
  "contractName": "MockUniswapV2Router",
  "sourceName": "contracts/mock/MockUniswapV2Router.sol",
  "abi": [
    {
      "inputs": [
        {
          "internalType": "uint256",
          "name": "minAmountOut",
          "type": "uint256"
        },
        {
          "internalType": "address[]",
          "name": "path",
          "type": "address[]"
        },
        {
          "internalType": "address",
          "name": "to",
          "type": "address"
        },
        {
          "internalType": "uint256",
          "name": "deadline",
          "type": "uint256"
        }
      ],
      "name": "swapExactETHForTokens",
      "outputs": [
        {
          "internalType": "uint256[]",
          "name": "",
          "type": "uint256[]"
        }
      ],
      "stateMutability": "payable",
      "type": "function"
    },
    {
      "inputs": [
        {
          "internalType": "uint256",
          "name": "amountIn",
          "type": "uint256"
        },
        {
          "internalType": "uint256",
          "name": "minAmountOut",
          "type": "uint256"
        },
        {
          "internalType": "address[]",
          "name": "path",
          "type": "address[]"
        },
        {
          "internalType": "address",
          "name": "to",
          "type": "address"
        },
        {
          "internalType": "uint256",
          "name": "deadline",
          "type": "uint256"
        }
      ],
      "name": "swapExactTokensForTokens",
      "outputs": [
        {
          "internalType": "uint256[]",
          "name": "",
          "type": "uint256[]"
        }
      ],
      "stateMutability": "nonpayable",
      "type": "function"
    }
  ],
  "bytecode": "0x608060405234801561001057600080fd5b5061063d806100206000396000f3fe6080604052600436106100295760003560e01c806338ed17391461002e5780637ff36ab514610064575b600080fd5b34801561003a57600080fd5b5061004e61004936600461049d565b610077565b60405161005b9190610506565b60405180910390f35b61004e61007236600461054a565b61021d565b60606b204fce5e3e2502611000000085106100c85760405162461bcd60e51b815260206004820152600c60248201526b1b5a5b905b5bdd5b9d13dd5d60a21b60448201526064015b60405180910390fd5b83600185516100d791906105bf565b815181106100e7576100e76105d8565b60209081029190910101516040516340c10f1960e01b815273ffffffffffffffffffffffffffffffffffffffff858116600483015260248201899052909116906340c10f1990604401600060405180830381600087803b15801561014a57600080fd5b505af115801561015e573d6000803e3d6000fd5b505050506000845167ffffffffffffffff81111561017e5761017e6103bc565b6040519080825280602002602001820160405280156101a7578160200160208202803683370190505b50905060005b85518110156101e75760008282815181106101ca576101ca6105d8565b6020908102919091010152806101df816105ee565b9150506101ad565b508681600183516101f891906105bf565b81518110610208576102086105d8565b60209081029190910101529695505050505050565b60606b204fce5e3e2502611000000085106102695760405162461bcd60e51b815260206004820152600c60248201526b1b5a5b905b5bdd5b9d13dd5d60a21b60448201526064016100bf565b836001855161027891906105bf565b81518110610288576102886105d8565b60209081029190910101516040516340c10f1960e01b815273ffffffffffffffffffffffffffffffffffffffff8581166004830152346024830152909116906340c10f1990604401600060405180830381600087803b1580156102ea57600080fd5b505af11580156102fe573d6000803e3d6000fd5b505050506000845167ffffffffffffffff81111561031e5761031e6103bc565b604051908082528060200260200182016040528015610347578160200160208202803683370190505b50905060005b855181101561038757600082828151811061036a5761036a6105d8565b60209081029190910101528061037f816105ee565b91505061034d565b5034816001835161039891906105bf565b815181106103a8576103a86105d8565b602090810291909101015295945050505050565b634e487b7160e01b600052604160045260246000fd5b803573ffffffffffffffffffffffffffffffffffffffff811681146103f657600080fd5b919050565b600082601f83011261040c57600080fd5b8135602067ffffffffffffffff80831115610429576104296103bc565b8260051b604051601f19603f8301168101818110848211171561044e5761044e6103bc565b60405293845285810183019383810192508785111561046c57600080fd5b83870191505b8482101561049257610483826103d2565b83529183019190830190610472565b979650505050505050565b600080600080600060a086880312156104b557600080fd5b8535945060208601359350604086013567ffffffffffffffff8111156104da57600080fd5b6104e6888289016103fb565b9350506104f5606087016103d2565b949793965091946080013592915050565b6020808252825182820181905260009190848201906040850190845b8181101561053e57835183529284019291840191600101610522565b50909695505050505050565b6000806000806080858703121561056057600080fd5b84359350602085013567ffffffffffffffff81111561057e57600080fd5b61058a878288016103fb565b935050610599604086016103d2565b9396929550929360600135925050565b634e487b7160e01b600052601160045260246000fd5b818103818111156105d2576105d26105a9565b92915050565b634e487b7160e01b600052603260045260246000fd5b600060018201610600576106006105a9565b506001019056fea2646970667358221220442eaea6831c9e0480d690d58583194323c69ab438ba0c6dcc2b0bc12125f18464736f6c63430008140033",
  "linkReferences": {},
  "deployedLinkReferences": {}
}