{
  "_format": "hh-sol-artifact-1",
  "contractName": "MockUniswapV2Router",
  "sourceName": "contracts/mock/MockUniswapV2Router.sol",
  "abi": [
    {
      "inputs": [
        {
          "internalType": "uint256",
          "name": "amountIn",
          "type": "uint256"
        },
        {
          "internalType": "uint256",
          "name": "minAmountOut",
          "type": "uint256"
        },
        {
          "internalType": "address[]",
          "name": "path",
          "type": "address[]"
        },
        {
          "internalType": "address",
          "name": "to",
          "type": "address"
        },
        {
          "internalType": "uint256",
          "name": "deadline",
          "type": "uint256"
        }
      ],
      "name": "swapExactTokensForTokens",
      "outputs": [
        {
          "internalType": "uint256[]",
          "name": "",
          "type": "uint256[]"
        }
      ],
      "stateMutability": "nonpayable",
      "type": "function"
    }
  ],
  "bytecode": "0x608060405234801561001057600080fd5b50610809806100206000396000f3fe608060405234801561001057600080fd5b506004361061002b5760003560e01c806338ed173914610030575b600080fd5b61004a60048036038101906100459190610452565b610060565b60405161005791906105a7565b60405180910390f35b60606b204fce5e3e2502611000000085106100b0576040517f08c379a00000000000000000000000000000000000000000000000000000000081526004016100a790610626565b60405180910390fd5b60008210156100f4576040517f08c379a00000000000000000000000000000000000000000000000000000000081526004016100eb90610692565b60405180910390fd5b836001855161010391906106e1565b8151811061011457610113610715565b5b602002602001015173ffffffffffffffffffffffffffffffffffffffff166340c10f1984886040518363ffffffff1660e01b8152600401610156929190610762565b600060405180830381600087803b15801561017057600080fd5b505af1158015610184573d6000803e3d6000fd5b505050506000845167ffffffffffffffff8111156101a5576101a46102b1565b5b6040519080825280602002602001820160405280156101d35781602001602082028036833780820191505090505b50905060005b85518110156102165760008282815181106101f7576101f6610715565b5b602002602001018181525050808061020e9061078b565b9150506101d9565b5086816001835161022791906106e1565b8151811061023857610237610715565b5b6020026020010181815250508091505095945050505050565b6000604051905090565b600080fd5b600080fd5b6000819050919050565b61027881610265565b811461028357600080fd5b50565b6000813590506102958161026f565b92915050565b600080fd5b6000601f19601f8301169050919050565b7f4e487b7100000000000000000000000000000000000000000000000000000000600052604160045260246000fd5b6102e9826102a0565b810181811067ffffffffffffffff82111715610308576103076102b1565b5b80604052505050565b600061031b610251565b905061032782826102e0565b919050565b600067ffffffffffffffff821115610347576103466102b1565b5b602082029050602081019050919050565b600080fd5b600073ffffffffffffffffffffffffffffffffffffffff82169050919050565b60006103888261035d565b9050919050565b6103988161037d565b81146103a357600080fd5b50565b6000813590506103b58161038f565b92915050565b60006103ce6103c98461032c565b610311565b905080838252602082019050602084028301858111156103f1576103f0610358565b5b835b8181101561041a578061040688826103a6565b8452602084019350506020810190506103f3565b5050509392505050565b600082601f8301126104395761043861029b565b5b81356104498482602086016103bb565b91505092915050565b600080600080600060a0868803121561046e5761046d61025b565b5b600061047c88828901610286565b955050602061048d88828901610286565b945050604086013567ffffffffffffffff8111156104ae576104ad610260565b5b6104ba88828901610424565b93505060606104cb888289016103a6565b92505060806104dc88828901610286565b9150509295509295909350565b600081519050919050565b600082825260208201905092915050565b6000819050602082019050919050565b61051e81610265565b82525050565b60006105308383610515565b60208301905092915050565b6000602082019050919050565b6000610554826104e9565b61055e81856104f4565b935061056983610505565b8060005b8381101561059a5781516105818882610524565b975061058c8361053c565b92505060018101905061056d565b5085935050505092915050565b600060208201905081810360008301526105c18184610549565b905092915050565b600082825260208201905092915050565b7f6d696e416d6f756e744f75740000000000000000000000000000000000000000600082015250565b6000610610600c836105c9565b915061061b826105da565b602082019050919050565b6000602082019050818103600083015261063f81610603565b9050919050565b7f496e76616c696420646561646c696e6500000000000000000000000000000000600082015250565b600061067c6010836105c9565b915061068782610646565b602082019050919050565b600060208201905081810360008301526106ab8161066f565b9050919050565b7f4e487b7100000000000000000000000000000000000000000000000000000000600052601160045260246000fd5b60006106ec82610265565b91506106f783610265565b925082820390508181111561070f5761070e6106b2565b5b92915050565b7f4e487b7100000000000000000000000000000000000000000000000000000000600052603260045260246000fd5b61074d8161037d565b82525050565b61075c81610265565b82525050565b60006040820190506107776000830185610744565b6107846020830184610753565b9392505050565b600061079682610265565b91507fffffffffffffffffffffffffffffffffffffffffffffffffffffffffffffffff82036107c8576107c76106b2565b5b60018201905091905056fea2646970667358221220cf20da0325540ac08e7ebad2f83fcbd1fa29494863b8153fe7236da305b7c68f64736f6c63430008140033",
  "linkReferences": {},
  "deployedLinkReferences": {}
}