{
  "_format": "hh-sol-artifact-1",
  "contractName": "GreenDonation",
  "sourceName": "contracts/GreenDonation.sol",
  "abi": [
    {
      "inputs": [
        {
          "internalType": "address",
          "name": "_rewardsDistribution",
          "type": "address"
        },
        {
          "internalType": "address",
          "name": "_rewardsToken",
          "type": "address"
        },
        {
          "internalType": "address",
          "name": "_stakingToken",
          "type": "address"
        },
        {
          "internalType": "uint256",
          "name": "_rewardsDuration",
          "type": "uint256"
        },
        {
          "internalType": "address",
          "name": "_swapRouter",
          "type": "address"
        },
        {
          "internalType": "address",
          "name": "_tc02",
          "type": "address"
        },
        {
          "internalType": "address",
          "name": "_retirementCertificate",
          "type": "address"
        },
        {
          "internalType": "address",
          "name": "_treeContract",
          "type": "address"
        },
        {
          "internalType": "address",
          "name": "_retirementCertificateEscrow",
          "type": "address"
        }
      ],
      "stateMutability": "nonpayable",
      "type": "constructor"
    },
    {
      "inputs": [
        {
          "internalType": "address",
          "name": "target",
          "type": "address"
        }
      ],
      "name": "AddressEmptyCode",
      "type": "error"
    },
    {
      "inputs": [
        {
          "internalType": "address",
          "name": "account",
          "type": "address"
        }
      ],
      "name": "AddressInsufficientBalance",
      "type": "error"
    },
    {
      "inputs": [],
      "name": "FailedInnerCall",
      "type": "error"
    },
    {
      "inputs": [
        {
          "internalType": "address",
          "name": "owner",
          "type": "address"
        }
      ],
      "name": "OwnableInvalidOwner",
      "type": "error"
    },
    {
      "inputs": [
        {
          "internalType": "address",
          "name": "account",
          "type": "address"
        }
      ],
      "name": "OwnableUnauthorizedAccount",
      "type": "error"
    },
    {
      "inputs": [],
      "name": "ReentrancyGuardReentrantCall",
      "type": "error"
    },
    {
      "inputs": [
        {
          "internalType": "address",
          "name": "token",
          "type": "address"
        }
      ],
      "name": "SafeERC20FailedOperation",
      "type": "error"
    },
    {
      "anonymous": false,
      "inputs": [
        {
          "indexed": true,
          "internalType": "address",
          "name": "previousOwner",
          "type": "address"
        },
        {
          "indexed": true,
          "internalType": "address",
          "name": "newOwner",
          "type": "address"
        }
      ],
      "name": "OwnershipTransferred",
      "type": "event"
    },
    {
      "anonymous": false,
      "inputs": [
        {
          "indexed": false,
          "internalType": "uint256",
          "name": "reward",
          "type": "uint256"
        }
      ],
      "name": "RewardAdded",
      "type": "event"
    },
    {
      "anonymous": false,
      "inputs": [
        {
          "indexed": true,
          "internalType": "uint256",
          "name": "tree",
          "type": "uint256"
        },
        {
          "indexed": false,
          "internalType": "address",
          "name": "user",
          "type": "address"
        },
        {
          "indexed": false,
          "internalType": "uint256",
          "name": "reward",
          "type": "uint256"
        }
      ],
      "name": "RewardPaid",
      "type": "event"
    },
    {
      "anonymous": false,
      "inputs": [
        {
          "indexed": false,
          "internalType": "uint256",
          "name": "oldInterval",
          "type": "uint256"
        },
        {
          "indexed": false,
          "internalType": "uint256",
          "name": "newInterval",
          "type": "uint256"
        }
      ],
      "name": "SetClaimInterval",
      "type": "event"
    },
    {
      "anonymous": false,
      "inputs": [
        {
          "indexed": false,
          "internalType": "address",
          "name": "oldEscrow",
          "type": "address"
        },
        {
          "indexed": false,
          "internalType": "address",
          "name": "newEscrow",
          "type": "address"
        }
      ],
      "name": "SetRetirementCertificateEscrow",
      "type": "event"
    },
    {
      "anonymous": false,
      "inputs": [
        {
          "indexed": false,
          "internalType": "address",
          "name": "oldRouter",
          "type": "address"
        },
        {
          "indexed": false,
          "internalType": "address",
          "name": "newRouter",
          "type": "address"
        }
      ],
      "name": "SetSwapRouter",
      "type": "event"
    },
    {
      "anonymous": false,
      "inputs": [
        {
          "indexed": false,
          "internalType": "address",
          "name": "oldTreeContract",
          "type": "address"
        },
        {
          "indexed": false,
          "internalType": "address",
          "name": "newTreeContract",
          "type": "address"
        }
      ],
      "name": "SetTreeContract",
      "type": "event"
    },
    {
      "anonymous": false,
      "inputs": [
        {
          "indexed": true,
          "internalType": "uint256",
          "name": "tree",
          "type": "uint256"
        },
        {
          "indexed": false,
          "internalType": "address",
          "name": "user",
          "type": "address"
        },
        {
          "indexed": false,
          "internalType": "uint256",
          "name": "amount",
          "type": "uint256"
        }
      ],
      "name": "Staked",
      "type": "event"
    },
    {
      "anonymous": false,
      "inputs": [
        {
          "indexed": true,
          "internalType": "uint256",
          "name": "tree",
          "type": "uint256"
        },
        {
          "indexed": false,
          "internalType": "address",
          "name": "user",
          "type": "address"
        },
        {
          "indexed": false,
          "internalType": "uint256",
          "name": "amount",
          "type": "uint256"
        }
      ],
      "name": "Withdrawn",
      "type": "event"
    },
    {
      "inputs": [
        {
          "internalType": "uint256",
          "name": "tree",
          "type": "uint256"
        }
      ],
      "name": "balanceOf",
      "outputs": [
        {
          "internalType": "uint256",
          "name": "",
          "type": "uint256"
        }
      ],
      "stateMutability": "view",
      "type": "function"
    },
    {
      "inputs": [],
      "name": "claimInterval",
      "outputs": [
        {
          "internalType": "uint256",
          "name": "",
          "type": "uint256"
        }
      ],
      "stateMutability": "view",
      "type": "function"
    },
    {
      "inputs": [
        {
          "internalType": "uint256",
          "name": "tree",
          "type": "uint256"
        }
      ],
      "name": "earned",
      "outputs": [
        {
          "internalType": "uint256",
          "name": "",
          "type": "uint256"
        }
      ],
      "stateMutability": "view",
      "type": "function"
    },
    {
      "inputs": [
        {
          "internalType": "uint256",
          "name": "tree",
          "type": "uint256"
        },
        {
          "internalType": "string",
          "name": "beneficiaryString",
          "type": "string"
        },
        {
          "internalType": "string",
          "name": "retirementMessage",
          "type": "string"
        }
      ],
      "name": "exit",
      "outputs": [],
      "stateMutability": "nonpayable",
      "type": "function"
    },
    {
      "inputs": [
        {
          "internalType": "uint256",
          "name": "tree",
          "type": "uint256"
        },
        {
          "internalType": "string",
          "name": "beneficiaryString",
          "type": "string"
        },
        {
          "internalType": "string",
          "name": "retirementMessage",
          "type": "string"
        }
      ],
      "name": "getReward",
      "outputs": [],
      "stateMutability": "nonpayable",
      "type": "function"
    },
    {
      "inputs": [],
      "name": "getRewardForDuration",
      "outputs": [
        {
          "internalType": "uint256",
          "name": "",
          "type": "uint256"
        }
      ],
      "stateMutability": "view",
      "type": "function"
    },
    {
      "inputs": [
        {
          "internalType": "uint256",
          "name": "",
          "type": "uint256"
        }
      ],
      "name": "lastClaimTimestamp",
      "outputs": [
        {
          "internalType": "uint256",
          "name": "",
          "type": "uint256"
        }
      ],
      "stateMutability": "view",
      "type": "function"
    },
    {
      "inputs": [],
      "name": "lastTimeRewardApplicable",
      "outputs": [
        {
          "internalType": "uint256",
          "name": "",
          "type": "uint256"
        }
      ],
      "stateMutability": "view",
      "type": "function"
    },
    {
      "inputs": [],
      "name": "lastUpdateTime",
      "outputs": [
        {
          "internalType": "uint256",
          "name": "",
          "type": "uint256"
        }
      ],
      "stateMutability": "view",
      "type": "function"
    },
    {
      "inputs": [
        {
          "internalType": "uint256",
          "name": "reward",
          "type": "uint256"
        }
      ],
      "name": "notifyRewardAmount",
      "outputs": [],
      "stateMutability": "nonpayable",
      "type": "function"
    },
    {
      "inputs": [
        {
          "internalType": "address",
          "name": "",
          "type": "address"
        },
        {
          "internalType": "address",
          "name": "from",
          "type": "address"
        },
        {
          "internalType": "uint256",
          "name": "tokenId",
          "type": "uint256"
        },
        {
          "internalType": "bytes",
          "name": "",
          "type": "bytes"
        }
      ],
      "name": "onERC721Received",
      "outputs": [
        {
          "internalType": "bytes4",
          "name": "",
          "type": "bytes4"
        }
      ],
      "stateMutability": "nonpayable",
      "type": "function"
    },
    {
      "inputs": [],
      "name": "owner",
      "outputs": [
        {
          "internalType": "address",
          "name": "",
          "type": "address"
        }
      ],
      "stateMutability": "view",
      "type": "function"
    },
    {
      "inputs": [],
      "name": "periodFinish",
      "outputs": [
        {
          "internalType": "uint256",
          "name": "",
          "type": "uint256"
        }
      ],
      "stateMutability": "view",
      "type": "function"
    },
    {
      "inputs": [],
      "name": "renounceOwnership",
      "outputs": [],
      "stateMutability": "nonpayable",
      "type": "function"
    },
    {
      "inputs": [],
      "name": "retirementCertificate",
      "outputs": [
        {
          "internalType": "contract IRetirementCertificates",
          "name": "",
          "type": "address"
        }
      ],
      "stateMutability": "view",
      "type": "function"
    },
    {
      "inputs": [],
      "name": "retirementCertificateEscrow",
      "outputs": [
        {
          "internalType": "contract RetirementCertificateEscrow",
          "name": "",
          "type": "address"
        }
      ],
      "stateMutability": "view",
      "type": "function"
    },
    {
      "inputs": [],
      "name": "rewardPerToken",
      "outputs": [
        {
          "internalType": "uint256",
          "name": "",
          "type": "uint256"
        }
      ],
      "stateMutability": "view",
      "type": "function"
    },
    {
      "inputs": [],
      "name": "rewardPerTokenStored",
      "outputs": [
        {
          "internalType": "uint256",
          "name": "",
          "type": "uint256"
        }
      ],
      "stateMutability": "view",
      "type": "function"
    },
    {
      "inputs": [],
      "name": "rewardRate",
      "outputs": [
        {
          "internalType": "uint256",
          "name": "",
          "type": "uint256"
        }
      ],
      "stateMutability": "view",
      "type": "function"
    },
    {
      "inputs": [
        {
          "internalType": "uint256",
          "name": "",
          "type": "uint256"
        }
      ],
      "name": "rewards",
      "outputs": [
        {
          "internalType": "uint256",
          "name": "",
          "type": "uint256"
        }
      ],
      "stateMutability": "view",
      "type": "function"
    },
    {
      "inputs": [],
      "name": "rewardsDistribution",
      "outputs": [
        {
          "internalType": "address",
          "name": "",
          "type": "address"
        }
      ],
      "stateMutability": "view",
      "type": "function"
    },
    {
      "inputs": [],
      "name": "rewardsDuration",
      "outputs": [
        {
          "internalType": "uint256",
          "name": "",
          "type": "uint256"
        }
      ],
      "stateMutability": "view",
      "type": "function"
    },
    {
      "inputs": [],
      "name": "rewardsToken",
      "outputs": [
        {
          "internalType": "contract IERC20",
          "name": "",
          "type": "address"
        }
      ],
      "stateMutability": "view",
      "type": "function"
    },
    {
      "inputs": [
        {
          "internalType": "uint256",
          "name": "interval",
          "type": "uint256"
        }
      ],
      "name": "setClaimInterval",
      "outputs": [],
      "stateMutability": "nonpayable",
      "type": "function"
    },
    {
      "inputs": [
        {
          "internalType": "address",
          "name": "_escrow",
          "type": "address"
        }
      ],
      "name": "setRetirementCertificateEscrow",
      "outputs": [],
      "stateMutability": "nonpayable",
      "type": "function"
    },
    {
      "inputs": [
        {
          "internalType": "address",
          "name": "router",
          "type": "address"
        }
      ],
      "name": "setSwapRouter",
      "outputs": [],
      "stateMutability": "nonpayable",
      "type": "function"
    },
    {
      "inputs": [
        {
          "internalType": "address",
          "name": "_treeContract",
          "type": "address"
        }
      ],
      "name": "setTreeContract",
      "outputs": [],
      "stateMutability": "nonpayable",
      "type": "function"
    },
    {
      "inputs": [
        {
          "internalType": "uint256",
          "name": "tree",
          "type": "uint256"
        },
        {
          "internalType": "uint256",
          "name": "amount",
          "type": "uint256"
        }
      ],
      "name": "stake",
      "outputs": [],
      "stateMutability": "nonpayable",
      "type": "function"
    },
    {
      "inputs": [],
      "name": "stakingToken",
      "outputs": [
        {
          "internalType": "contract IERC20",
          "name": "",
          "type": "address"
        }
      ],
      "stateMutability": "view",
      "type": "function"
    },
    {
      "inputs": [],
      "name": "swapRotuer",
      "outputs": [
        {
          "internalType": "contract IUniswapV2Router02",
          "name": "",
          "type": "address"
        }
      ],
      "stateMutability": "view",
      "type": "function"
    },
    {
      "inputs": [],
      "name": "tc02",
      "outputs": [
        {
          "internalType": "contract ITC02",
          "name": "",
          "type": "address"
        }
      ],
      "stateMutability": "view",
      "type": "function"
    },
    {
      "inputs": [],
      "name": "totalSupply",
      "outputs": [
        {
          "internalType": "uint256",
          "name": "",
          "type": "uint256"
        }
      ],
      "stateMutability": "view",
      "type": "function"
    },
    {
      "inputs": [
        {
          "internalType": "address",
          "name": "newOwner",
          "type": "address"
        }
      ],
      "name": "transferOwnership",
      "outputs": [],
      "stateMutability": "nonpayable",
      "type": "function"
    },
    {
      "inputs": [],
      "name": "treeContract",
      "outputs": [
        {
          "internalType": "contract TreeContract",
          "name": "",
          "type": "address"
        }
      ],
      "stateMutability": "view",
      "type": "function"
    },
    {
      "inputs": [
        {
          "internalType": "uint256",
          "name": "",
          "type": "uint256"
        }
      ],
      "name": "userRewardPerTokenPaid",
      "outputs": [
        {
          "internalType": "uint256",
          "name": "",
          "type": "uint256"
        }
      ],
      "stateMutability": "view",
      "type": "function"
    },
    {
      "inputs": [
        {
          "internalType": "uint256",
          "name": "tree",
          "type": "uint256"
        },
        {
          "internalType": "uint256",
          "name": "amount",
          "type": "uint256"
        }
      ],
      "name": "withdraw",
      "outputs": [],
      "stateMutability": "nonpayable",
      "type": "function"
    }
  ],
  "bytecode": "0x60806040526000600555600060085562093a80600e553480156200002257600080fd5b5060405162003d0b38038062003d0b833981810160405281019062000048919062000547565b3360018081905550600073ffffffffffffffffffffffffffffffffffffffff168173ffffffffffffffffffffffffffffffffffffffff1603620000c55760006040517f1e4fbdf7000000000000000000000000000000000000000000000000000000008152600401620000bc919062000637565b60405180910390fd5b620000d681620003dc60201b60201c565b5087600360006101000a81548173ffffffffffffffffffffffffffffffffffffffff021916908373ffffffffffffffffffffffffffffffffffffffff16021790555086600460006101000a81548173ffffffffffffffffffffffffffffffffffffffff021916908373ffffffffffffffffffffffffffffffffffffffff160217905550886000806101000a81548173ffffffffffffffffffffffffffffffffffffffff021916908373ffffffffffffffffffffffffffffffffffffffff1602179055508560078190555084601260006101000a81548173ffffffffffffffffffffffffffffffffffffffff021916908373ffffffffffffffffffffffffffffffffffffffff16021790555083601060006101000a81548173ffffffffffffffffffffffffffffffffffffffff021916908373ffffffffffffffffffffffffffffffffffffffff16021790555081601160006101000a81548173ffffffffffffffffffffffffffffffffffffffff021916908373ffffffffffffffffffffffffffffffffffffffff16021790555082601360006101000a81548173ffffffffffffffffffffffffffffffffffffffff021916908373ffffffffffffffffffffffffffffffffffffffff16021790555080601460006101000a81548173ffffffffffffffffffffffffffffffffffffffff021916908373ffffffffffffffffffffffffffffffffffffffff160217905550600360009054906101000a900473ffffffffffffffffffffffffffffffffffffffff1673ffffffffffffffffffffffffffffffffffffffff1663095ea7b3601260009054906101000a900473ffffffffffffffffffffffffffffffffffffffff167fffffffffffffffffffffffffffffffffffffffffffffffffffffffffffffffff6040518363ffffffff1660e01b81526004016200038692919062000665565b6020604051808303816000875af1158015620003a6573d6000803e3d6000fd5b505050506040513d601f19601f82011682018060405250810190620003cc9190620006cf565b5050505050505050505062000701565b6000600260009054906101000a900473ffffffffffffffffffffffffffffffffffffffff16905081600260006101000a81548173ffffffffffffffffffffffffffffffffffffffff021916908373ffffffffffffffffffffffffffffffffffffffff1602179055508173ffffffffffffffffffffffffffffffffffffffff168173ffffffffffffffffffffffffffffffffffffffff167f8be0079c531659141344cd1fd0a4f28419497f9722a3daafe3b4186f6b6457e060405160405180910390a35050565b600080fd5b600073ffffffffffffffffffffffffffffffffffffffff82169050919050565b6000620004d482620004a7565b9050919050565b620004e681620004c7565b8114620004f257600080fd5b50565b6000815190506200050681620004db565b92915050565b6000819050919050565b62000521816200050c565b81146200052d57600080fd5b50565b600081519050620005418162000516565b92915050565b60008060008060008060008060006101208a8c0312156200056d576200056c620004a2565b5b60006200057d8c828d01620004f5565b9950506020620005908c828d01620004f5565b9850506040620005a38c828d01620004f5565b9750506060620005b68c828d0162000530565b9650506080620005c98c828d01620004f5565b95505060a0620005dc8c828d01620004f5565b94505060c0620005ef8c828d01620004f5565b93505060e0620006028c828d01620004f5565b925050610100620006168c828d01620004f5565b9150509295985092959850929598565b6200063181620004c7565b82525050565b60006020820190506200064e600083018462000626565b92915050565b6200065f816200050c565b82525050565b60006040820190506200067c600083018562000626565b6200068b602083018462000654565b9392505050565b60008115159050919050565b620006a98162000692565b8114620006b557600080fd5b50565b600081519050620006c9816200069e565b92915050565b600060208284031215620006e857620006e7620004a2565b5b6000620006f884828501620006b8565b91505092915050565b6135fa80620007116000396000f3fe608060405234801561001057600080fd5b506004361061021c5760003560e01c80637b0472f011610125578063cd3daf9d116100ad578063ebe2b12b1161007c578063ebe2b12b146105f9578063f2d57adf14610617578063f2fde38b14610633578063f301af421461064f578063f5b88ac21461067f5761021c565b8063cd3daf9d14610583578063d1af0c7d146105a1578063d9a29930146105bf578063df136d65146105db5761021c565b80639cc7f708116100f45780639cc7f708146104dd5780639ce12ae51461050d578063a9cc04f91461052b578063bc852d5014610547578063c8f33c91146105655761021c565b80637b0472f0146104675780637b0a47ee1461048357806380faa57d146104a15780638da5cb5b146104bf5761021c565b80633fc6df6e116101a85780634d6ed8c4116101775780634d6ed8c4146103c357806358c83621146103f35780636c6f858b1461040f578063715018a61461043f57806372f702f3146104495761021c565b80633fc6df6e1461034f57806340cf1c951461036d578063412736571461038b578063441a3e70146103a75761021c565b8063188d2471116101ef578063188d2471146102a95780631c1f78eb146102c75780632b84bf0d146102e5578063386a9525146103155780633c6b16ab146103335761021c565b80630b433a12146102215780631109a9df1461023f578063150b7a021461025b57806318160ddd1461028b575b600080fd5b61022961069d565b60405161023691906124c1565b60405180910390f35b61025960048036038101906102549190612581565b6106a3565b005b610275600480360381019061027091906126ca565b610bb7565b604051610282919061278d565b60405180910390f35b610293610c5c565b6040516102a091906124c1565b60405180910390f35b6102b1610c66565b6040516102be9190612807565b60405180910390f35b6102cf610c8c565b6040516102dc91906124c1565b60405180910390f35b6102ff60048036038101906102fa9190612822565b610caa565b60405161030c91906124c1565b60405180910390f35b61031d610cc2565b60405161032a91906124c1565b60405180910390f35b61034d60048036038101906103489190612822565b610cc8565b005b610357610f99565b604051610364919061285e565b60405180910390f35b610375610fbd565b604051610382919061289a565b60405180910390f35b6103a560048036038101906103a091906128b5565b610fe3565b005b6103c160048036038101906103bc91906128e2565b61109a565b005b6103dd60048036038101906103d89190612822565b6113cb565b6040516103ea91906124c1565b60405180910390f35b61040d600480360381019061040891906128b5565b611465565b005b61042960048036038101906104249190612822565b61151c565b60405161043691906124c1565b60405180910390f35b610447611534565b005b610451611548565b60405161045e9190612943565b60405180910390f35b610481600480360381019061047c91906128e2565b61156e565b005b61048b6118a1565b60405161049891906124c1565b60405180910390f35b6104a96118a7565b6040516104b691906124c1565b60405180910390f35b6104c76118ba565b6040516104d4919061285e565b60405180910390f35b6104f760048036038101906104f29190612822565b6118e4565b60405161050491906124c1565b60405180910390f35b610515611901565b604051610522919061297f565b60405180910390f35b61054560048036038101906105409190612581565b611927565b005b61054f611958565b60405161055c91906129bb565b60405180910390f35b61056d61197e565b60405161057a91906124c1565b60405180910390f35b61058b611984565b60405161059891906124c1565b60405180910390f35b6105a9611a11565b6040516105b69190612943565b60405180910390f35b6105d960048036038101906105d491906128b5565b611a37565b005b6105e3611aee565b6040516105f091906124c1565b60405180910390f35b610601611af4565b60405161060e91906124c1565b60405180910390f35b610631600480360381019061062c9190612822565b611afa565b005b61064d600480360381019061064891906128b5565b611b57565b005b61066960048036038101906106649190612822565b611bdd565b60405161067691906124c1565b60405180910390f35b610687611bf5565b60405161069491906129f7565b60405180910390f35b600e5481565b6106ab611c1b565b846106b4611984565b6009819055506106c26118a7565b6006819055506000811461070b576106d9816113cb565b600b600083815260200190815260200160002081905550600954600a6000838152602001908152602001600020819055505b8542600e54600f60008481526020019081526020016000205461072e9190612a41565b111561076f576040517f08c379a000000000000000000000000000000000000000000000000000000000815260040161076690612af8565b60405180910390fd5b86338073ffffffffffffffffffffffffffffffffffffffff16601160009054906101000a900473ffffffffffffffffffffffffffffffffffffffff1673ffffffffffffffffffffffffffffffffffffffff16636352211e846040518263ffffffff1660e01b81526004016107e391906124c1565b602060405180830381865afa158015610800573d6000803e3d6000fd5b505050506040513d601f19601f820116820180604052508101906108249190612b2d565b73ffffffffffffffffffffffffffffffffffffffff161461087a576040517f08c379a000000000000000000000000000000000000000000000000000000000815260040161087190612ba6565b60405180910390fd5b6000600b60008b81526020019081526020016000205490506000811115610ba3576000600b60008c81526020019081526020016000208190555042600f60008c81526020019081526020016000208190555060006108f560646108e7600a85611c6190919063ffffffff16565b611c7790919063ffffffff16565b90506109563361090e8385611c8d90919063ffffffff16565b600360009054906101000a900473ffffffffffffffffffffffffffffffffffffffff1673ffffffffffffffffffffffffffffffffffffffff16611ca39092919063ffffffff16565b8a7f04492fab062412e7e4e5f46c9e919f1640652946a5e163ad6e6c1c03d87954d23361098c8486611c8d90919063ffffffff16565b60405161099a929190612bc6565b60405180910390a26000601360009054906101000a900473ffffffffffffffffffffffffffffffffffffffff1673ffffffffffffffffffffffffffffffffffffffff1663163c131930338e8e8e8e6109f96109f48b611d22565b611f34565b6040518863ffffffff1660e01b8152600401610a1b9796959493929190612d6c565b6020604051808303816000875af1158015610a3a573d6000803e3d6000fd5b505050506040513d601f19601f82011682018060405250810190610a5e9190612e00565b9050601360009054906101000a900473ffffffffffffffffffffffffffffffffffffffff1673ffffffffffffffffffffffffffffffffffffffff1663095ea7b3601460009054906101000a900473ffffffffffffffffffffffffffffffffffffffff16836040518363ffffffff1660e01b8152600401610adf929190612bc6565b600060405180830381600087803b158015610af957600080fd5b505af1158015610b0d573d6000803e3d6000fd5b50505050601460009054906101000a900473ffffffffffffffffffffffffffffffffffffffff1673ffffffffffffffffffffffffffffffffffffffff16634261fbbc8d836040518363ffffffff1660e01b8152600401610b6e929190612e2d565b600060405180830381600087803b158015610b8857600080fd5b505af1158015610b9c573d6000803e3d6000fd5b5050505050505b5050505050610bb061204b565b5050505050565b6000601360009054906101000a900473ffffffffffffffffffffffffffffffffffffffff1673ffffffffffffffffffffffffffffffffffffffff163373ffffffffffffffffffffffffffffffffffffffff1614610c49576040517f08c379a0000000000000000000000000000000000000000000000000000000008152600401610c4090612ea2565b60405180910390fd5b63150b7a0260e01b905095945050505050565b6000600c54905090565b601460009054906101000a900473ffffffffffffffffffffffffffffffffffffffff1681565b6000610ca5600754600554611c6190919063ffffffff16565b905090565b600f6020528060005260406000206000915090505481565b60075481565b60008054906101000a900473ffffffffffffffffffffffffffffffffffffffff1673ffffffffffffffffffffffffffffffffffffffff163373ffffffffffffffffffffffffffffffffffffffff1614610d56576040517f08c379a0000000000000000000000000000000000000000000000000000000008152600401610d4d90612f34565b60405180910390fd5b6000610d60611984565b600981905550610d6e6118a7565b60068190555060008114610db757610d85816113cb565b600b600083815260200190815260200160002081905550600954600a6000838152602001908152602001600020819055505b6008544210610de057610dd560075483611c7790919063ffffffff16565b600581905550610e42565b6000610df742600854611c8d90919063ffffffff16565b90506000610e1060055483611c6190919063ffffffff16565b9050610e39600754610e2b838761205490919063ffffffff16565b611c7790919063ffffffff16565b60058190555050505b6000600360009054906101000a900473ffffffffffffffffffffffffffffffffffffffff1673ffffffffffffffffffffffffffffffffffffffff166370a08231306040518263ffffffff1660e01b8152600401610e9f919061285e565b602060405180830381865afa158015610ebc573d6000803e3d6000fd5b505050506040513d601f19601f82011682018060405250810190610ee09190612e00565b9050610ef760075482611c7790919063ffffffff16565b6005541115610f3b576040517f08c379a0000000000000000000000000000000000000000000000000000000008152600401610f3290612fa0565b60405180910390fd5b42600681905550610f576007544261205490919063ffffffff16565b6008819055507fde88a922e0d3b88b24e9623efeb464919c6bf9f66857a65e2bfcf2ce87a9433d83604051610f8c91906124c1565b60405180910390a1505050565b60008054906101000a900473ffffffffffffffffffffffffffffffffffffffff1681565b601160009054906101000a900473ffffffffffffffffffffffffffffffffffffffff1681565b610feb611c1b565b610ff361206a565b7f363499fd428e59a25f711ed7c86a7e7029242e3f1066dcbc0bc0e49fb0bfb90e601260009054906101000a900473ffffffffffffffffffffffffffffffffffffffff1682604051611046929190612fc0565b60405180910390a180601260006101000a81548173ffffffffffffffffffffffffffffffffffffffff021916908373ffffffffffffffffffffffffffffffffffffffff16021790555061109761204b565b50565b6110a2611c1b565b816110ab611984565b6009819055506110b96118a7565b60068190555060008114611102576110d0816113cb565b600b600083815260200190815260200160002081905550600954600a6000838152602001908152602001600020819055505b82338073ffffffffffffffffffffffffffffffffffffffff16601160009054906101000a900473ffffffffffffffffffffffffffffffffffffffff1673ffffffffffffffffffffffffffffffffffffffff16636352211e846040518263ffffffff1660e01b815260040161117691906124c1565b602060405180830381865afa158015611193573d6000803e3d6000fd5b505050506040513d601f19601f820116820180604052508101906111b79190612b2d565b73ffffffffffffffffffffffffffffffffffffffff161461120d576040517f08c379a000000000000000000000000000000000000000000000000000000000815260040161120490612ba6565b60405180910390fd5b60008411611250576040517f08c379a000000000000000000000000000000000000000000000000000000000815260040161124790613035565b60405180910390fd5b61126584600c54611c8d90919063ffffffff16565b600c8190555061129184600d600088815260200190815260200160002054611c8d90919063ffffffff16565b600d6000878152602001908152602001600020819055506112f53385600460009054906101000a900473ffffffffffffffffffffffffffffffffffffffff1673ffffffffffffffffffffffffffffffffffffffff16611ca39092919063ffffffff16565b847fcf7d23a3cbe4e8b36ff82fd1b05b1b17373dc7804b4ebbd6e2356716ef2023723386604051611327929190612bc6565b60405180910390a2601160009054906101000a900473ffffffffffffffffffffffffffffffffffffffff1673ffffffffffffffffffffffffffffffffffffffff1663e3a3ed75866040518263ffffffff1660e01b815260040161138a91906124c1565b600060405180830381600087803b1580156113a457600080fd5b505af11580156113b8573d6000803e3d6000fd5b505050505050506113c761204b565b5050565b600061145e600b600084815260200190815260200160002054611450670de0b6b3a7640000611442611420600a600089815260200190815260200160002054611412611984565b611c8d90919063ffffffff16565b600d600089815260200190815260200160002054611c6190919063ffffffff16565b611c7790919063ffffffff16565b61205490919063ffffffff16565b9050919050565b61146d611c1b565b61147561206a565b7f89bd2768fd7547268736aac7cd37faa074c71f109b7c98d22f28c55629c0279d601460009054906101000a900473ffffffffffffffffffffffffffffffffffffffff16826040516114c8929190612fc0565b60405180910390a180601460006101000a81548173ffffffffffffffffffffffffffffffffffffffff021916908373ffffffffffffffffffffffffffffffffffffffff16021790555061151961204b565b50565b600a6020528060005260406000206000915090505481565b61153c61206a565b61154660006120f1565b565b600460009054906101000a900473ffffffffffffffffffffffffffffffffffffffff1681565b611576611c1b565b8161157f611984565b60098190555061158d6118a7565b600681905550600081146115d6576115a4816113cb565b600b600083815260200190815260200160002081905550600954600a6000838152602001908152602001600020819055505b82338073ffffffffffffffffffffffffffffffffffffffff16601160009054906101000a900473ffffffffffffffffffffffffffffffffffffffff1673ffffffffffffffffffffffffffffffffffffffff16636352211e846040518263ffffffff1660e01b815260040161164a91906124c1565b602060405180830381865afa158015611667573d6000803e3d6000fd5b505050506040513d601f19601f8201168201806040525081019061168b9190612b2d565b73ffffffffffffffffffffffffffffffffffffffff16146116e1576040517f08c379a00000000000000000000000000000000000000000000000000000000081526004016116d890612ba6565b60405180910390fd5b60008411611724576040517f08c379a000000000000000000000000000000000000000000000000000000000815260040161171b906130a1565b60405180910390fd5b61173984600c5461205490919063ffffffff16565b600c8190555061176584600d60008881526020019081526020016000205461205490919063ffffffff16565b600d6000878152602001908152602001600020819055506117cb333086600460009054906101000a900473ffffffffffffffffffffffffffffffffffffffff1673ffffffffffffffffffffffffffffffffffffffff166121b7909392919063ffffffff16565b847f18dcd430020e4d4899772fd94a8b40451dc5044dfb70bc46b532eeae431c864f33866040516117fd929190612bc6565b60405180910390a2601160009054906101000a900473ffffffffffffffffffffffffffffffffffffffff1673ffffffffffffffffffffffffffffffffffffffff1663998b723b866040518263ffffffff1660e01b815260040161186091906124c1565b600060405180830381600087803b15801561187a57600080fd5b505af115801561188e573d6000803e3d6000fd5b5050505050505061189d61204b565b5050565b60055481565b60006118b542600854612239565b905090565b6000600260009054906101000a900473ffffffffffffffffffffffffffffffffffffffff16905090565b6000600d6000838152602001908152602001600020549050919050565b601360009054906101000a900473ffffffffffffffffffffffffffffffffffffffff1681565b61194485600d60008881526020019081526020016000205461109a565b61195185858585856106a3565b5050505050565b601260009054906101000a900473ffffffffffffffffffffffffffffffffffffffff1681565b60065481565b600080600c5403611999576009549050611a0e565b611a0b6119fa600c546119ec670de0b6b3a76400006119de6005546119d06006546119c26118a7565b611c8d90919063ffffffff16565b611c6190919063ffffffff16565b611c6190919063ffffffff16565b611c7790919063ffffffff16565b60095461205490919063ffffffff16565b90505b90565b600360009054906101000a900473ffffffffffffffffffffffffffffffffffffffff1681565b611a3f611c1b565b611a4761206a565b7f97e184ff06e0f2dd43ea90aa42d61e72d7fe8934155b00bfd5a31c31e896878f601160009054906101000a900473ffffffffffffffffffffffffffffffffffffffff1682604051611a9a929190612fc0565b60405180910390a180601160006101000a81548173ffffffffffffffffffffffffffffffffffffffff021916908373ffffffffffffffffffffffffffffffffffffffff160217905550611aeb61204b565b50565b60095481565b60085481565b611b02611c1b565b611b0a61206a565b7f0d8e7a61135a0b471ca4c20f606c82e40bfdfa34727d5bb209bda99fdaf9d6c1600e5482604051611b3d929190612e2d565b60405180910390a180600e81905550611b5461204b565b50565b611b5f61206a565b600073ffffffffffffffffffffffffffffffffffffffff168173ffffffffffffffffffffffffffffffffffffffff1603611bd15760006040517f1e4fbdf7000000000000000000000000000000000000000000000000000000008152600401611bc8919061285e565b60405180910390fd5b611bda816120f1565b50565b600b6020528060005260406000206000915090505481565b601060009054906101000a900473ffffffffffffffffffffffffffffffffffffffff1681565b600260015403611c57576040517f3ee5aeb500000000000000000000000000000000000000000000000000000000815260040160405180910390fd5b6002600181905550565b60008183611c6f91906130c1565b905092915050565b60008183611c859190613132565b905092915050565b60008183611c9b9190613163565b905092915050565b611d1d838473ffffffffffffffffffffffffffffffffffffffff1663a9059cbb8585604051602401611cd6929190612bc6565b604051602081830303815290604052915060e01b6020820180517bffffffffffffffffffffffffffffffffffffffffffffffffffffffff8381831617835250505050612252565b505050565b600080600267ffffffffffffffff811115611d4057611d3f613197565b5b604051908082528060200260200182016040528015611d6e5781602001602082028036833780820191505090505b509050600360009054906101000a900473ffffffffffffffffffffffffffffffffffffffff1681600081518110611da857611da76131c6565b5b602002602001019073ffffffffffffffffffffffffffffffffffffffff16908173ffffffffffffffffffffffffffffffffffffffff1681525050601060009054906101000a900473ffffffffffffffffffffffffffffffffffffffff1681600181518110611e1957611e186131c6565b5b602002602001019073ffffffffffffffffffffffffffffffffffffffff16908173ffffffffffffffffffffffffffffffffffffffff16815250506000601260009054906101000a900473ffffffffffffffffffffffffffffffffffffffff1673ffffffffffffffffffffffffffffffffffffffff166338ed17398560008530426040518663ffffffff1660e01b8152600401611eb99594939291906132ee565b6000604051808303816000875af1158015611ed8573d6000803e3d6000fd5b505050506040513d6000823e3d601f19601f82011682018060405250810190611f019190613457565b90508060018251611f129190613163565b81518110611f2357611f226131c6565b5b602002602001015192505050919050565b60606000600167ffffffffffffffff811115611f5357611f52613197565b5b604051908082528060200260200182016040528015611f815781602001602082028036833780820191505090505b509050601060009054906101000a900473ffffffffffffffffffffffffffffffffffffffff1673ffffffffffffffffffffffffffffffffffffffff16633790cf57846040518263ffffffff1660e01b8152600401611fdf91906124c1565b6020604051808303816000875af1158015611ffe573d6000803e3d6000fd5b505050506040513d601f19601f820116820180604052508101906120229190612e00565b81600081518110612036576120356131c6565b5b60200260200101818152505080915050919050565b60018081905550565b600081836120629190612a41565b905092915050565b6120726122e9565b73ffffffffffffffffffffffffffffffffffffffff166120906118ba565b73ffffffffffffffffffffffffffffffffffffffff16146120ef576120b36122e9565b6040517f118cdaa70000000000000000000000000000000000000000000000000000000081526004016120e6919061285e565b60405180910390fd5b565b6000600260009054906101000a900473ffffffffffffffffffffffffffffffffffffffff16905081600260006101000a81548173ffffffffffffffffffffffffffffffffffffffff021916908373ffffffffffffffffffffffffffffffffffffffff1602179055508173ffffffffffffffffffffffffffffffffffffffff168173ffffffffffffffffffffffffffffffffffffffff167f8be0079c531659141344cd1fd0a4f28419497f9722a3daafe3b4186f6b6457e060405160405180910390a35050565b612233848573ffffffffffffffffffffffffffffffffffffffff166323b872dd8686866040516024016121ec939291906134a0565b604051602081830303815290604052915060e01b6020820180517bffffffffffffffffffffffffffffffffffffffffffffffffffffffff8381831617835250505050612252565b50505050565b6000818310612248578161224a565b825b905092915050565b600061227d828473ffffffffffffffffffffffffffffffffffffffff166122f190919063ffffffff16565b905060008151141580156122a25750808060200190518101906122a0919061350f565b155b156122e457826040517f5274afe70000000000000000000000000000000000000000000000000000000081526004016122db919061285e565b60405180910390fd5b505050565b600033905090565b60606122ff83836000612307565b905092915050565b60608147101561234e57306040517fcd786059000000000000000000000000000000000000000000000000000000008152600401612345919061285e565b60405180910390fd5b6000808573ffffffffffffffffffffffffffffffffffffffff16848660405161237791906135ad565b60006040518083038185875af1925050503d80600081146123b4576040519150601f19603f3d011682016040523d82523d6000602084013e6123b9565b606091505b50915091506123c98683836123d4565b925050509392505050565b6060826123e9576123e482612463565b61245b565b60008251148015612411575060008473ffffffffffffffffffffffffffffffffffffffff163b145b1561245357836040517f9996b31500000000000000000000000000000000000000000000000000000000815260040161244a919061285e565b60405180910390fd5b81905061245c565b5b9392505050565b6000815111156124765780518082602001fd5b6040517f1425ea4200000000000000000000000000000000000000000000000000000000815260040160405180910390fd5b6000819050919050565b6124bb816124a8565b82525050565b60006020820190506124d660008301846124b2565b92915050565b6000604051905090565b600080fd5b600080fd5b6124f9816124a8565b811461250457600080fd5b50565b600081359050612516816124f0565b92915050565b600080fd5b600080fd5b600080fd5b60008083601f8401126125415761254061251c565b5b8235905067ffffffffffffffff81111561255e5761255d612521565b5b60208301915083600182028301111561257a57612579612526565b5b9250929050565b60008060008060006060868803121561259d5761259c6124e6565b5b60006125ab88828901612507565b955050602086013567ffffffffffffffff8111156125cc576125cb6124eb565b5b6125d88882890161252b565b9450945050604086013567ffffffffffffffff8111156125fb576125fa6124eb565b5b6126078882890161252b565b92509250509295509295909350565b600073ffffffffffffffffffffffffffffffffffffffff82169050919050565b600061264182612616565b9050919050565b61265181612636565b811461265c57600080fd5b50565b60008135905061266e81612648565b92915050565b60008083601f84011261268a5761268961251c565b5b8235905067ffffffffffffffff8111156126a7576126a6612521565b5b6020830191508360018202830111156126c3576126c2612526565b5b9250929050565b6000806000806000608086880312156126e6576126e56124e6565b5b60006126f48882890161265f565b95505060206127058882890161265f565b945050604061271688828901612507565b935050606086013567ffffffffffffffff811115612737576127366124eb565b5b61274388828901612674565b92509250509295509295909350565b60007fffffffff0000000000000000000000000000000000000000000000000000000082169050919050565b61278781612752565b82525050565b60006020820190506127a2600083018461277e565b92915050565b6000819050919050565b60006127cd6127c86127c384612616565b6127a8565b612616565b9050919050565b60006127df826127b2565b9050919050565b60006127f1826127d4565b9050919050565b612801816127e6565b82525050565b600060208201905061281c60008301846127f8565b92915050565b600060208284031215612838576128376124e6565b5b600061284684828501612507565b91505092915050565b61285881612636565b82525050565b6000602082019050612873600083018461284f565b92915050565b6000612884826127d4565b9050919050565b61289481612879565b82525050565b60006020820190506128af600083018461288b565b92915050565b6000602082840312156128cb576128ca6124e6565b5b60006128d98482850161265f565b91505092915050565b600080604083850312156128f9576128f86124e6565b5b600061290785828601612507565b925050602061291885828601612507565b9150509250929050565b600061292d826127d4565b9050919050565b61293d81612922565b82525050565b60006020820190506129586000830184612934565b92915050565b6000612969826127d4565b9050919050565b6129798161295e565b82525050565b60006020820190506129946000830184612970565b92915050565b60006129a5826127d4565b9050919050565b6129b58161299a565b82525050565b60006020820190506129d060008301846129ac565b92915050565b60006129e1826127d4565b9050919050565b6129f1816129d6565b82525050565b6000602082019050612a0c60008301846129e8565b92915050565b7f4e487b7100000000000000000000000000000000000000000000000000000000600052601160045260246000fd5b6000612a4c826124a8565b9150612a57836124a8565b9250828201905080821115612a6f57612a6e612a12565b5b92915050565b600082825260208201905092915050565b7f43616e6e6f7420636c61696d20747769636520696e2073616d6520636c61696d60008201527f2065706f63680000000000000000000000000000000000000000000000000000602082015250565b6000612ae2602683612a75565b9150612aed82612a86565b604082019050919050565b60006020820190508181036000830152612b1181612ad5565b9050919050565b600081519050612b2781612648565b92915050565b600060208284031215612b4357612b426124e6565b5b6000612b5184828501612b18565b91505092915050565b7f4e6f742074726565206f776e6572000000000000000000000000000000000000600082015250565b6000612b90600e83612a75565b9150612b9b82612b5a565b602082019050919050565b60006020820190508181036000830152612bbf81612b83565b9050919050565b6000604082019050612bdb600083018561284f565b612be860208301846124b2565b9392505050565b7f496e746f2054686520566572736520477265656e20446f6e6174696f6e20557360008201527f6572000000000000000000000000000000000000000000000000000000000000602082015250565b6000612c4b602283612a75565b9150612c5682612bef565b604082019050919050565b82818337600083830152505050565b6000601f19601f8301169050919050565b6000612c8d8385612a75565b9350612c9a838584612c61565b612ca383612c70565b840190509392505050565b600081519050919050565b600082825260208201905092915050565b6000819050602082019050919050565b612ce3816124a8565b82525050565b6000612cf58383612cda565b60208301905092915050565b6000602082019050919050565b6000612d1982612cae565b612d238185612cb9565b9350612d2e83612cca565b8060005b83811015612d5f578151612d468882612ce9565b9750612d5183612d01565b925050600181019050612d32565b5085935050505092915050565b600060c082019050612d81600083018a61284f565b8181036020830152612d9281612c3e565b9050612da1604083018961284f565b8181036060830152612db4818789612c81565b90508181036080830152612dc9818587612c81565b905081810360a0830152612ddd8184612d0e565b905098975050505050505050565b600081519050612dfa816124f0565b92915050565b600060208284031215612e1657612e156124e6565b5b6000612e2484828501612deb565b91505092915050565b6000604082019050612e4260008301856124b2565b612e4f60208301846124b2565b9392505050565b7f4e6f74207265746972656d656e74206365727469666963617465000000000000600082015250565b6000612e8c601a83612a75565b9150612e9782612e56565b602082019050919050565b60006020820190508181036000830152612ebb81612e7f565b9050919050565b7f43616c6c6572206973206e6f742052657761726473446973747269627574696f60008201527f6e20636f6e747261637400000000000000000000000000000000000000000000602082015250565b6000612f1e602a83612a75565b9150612f2982612ec2565b604082019050919050565b60006020820190508181036000830152612f4d81612f11565b9050919050565b7f50726f76696465642072657761726420746f6f20686967680000000000000000600082015250565b6000612f8a601883612a75565b9150612f9582612f54565b602082019050919050565b60006020820190508181036000830152612fb981612f7d565b9050919050565b6000604082019050612fd5600083018561284f565b612fe2602083018461284f565b9392505050565b7f43616e6e6f742077697468647261772030000000000000000000000000000000600082015250565b600061301f601183612a75565b915061302a82612fe9565b602082019050919050565b6000602082019050818103600083015261304e81613012565b9050919050565b7f43616e6e6f74207374616b652030000000000000000000000000000000000000600082015250565b600061308b600e83612a75565b915061309682613055565b602082019050919050565b600060208201905081810360008301526130ba8161307e565b9050919050565b60006130cc826124a8565b91506130d7836124a8565b92508282026130e5816124a8565b915082820484148315176130fc576130fb612a12565b5b5092915050565b7f4e487b7100000000000000000000000000000000000000000000000000000000600052601260045260246000fd5b600061313d826124a8565b9150613148836124a8565b92508261315857613157613103565b5b828204905092915050565b600061316e826124a8565b9150613179836124a8565b925082820390508181111561319157613190612a12565b5b92915050565b7f4e487b7100000000000000000000000000000000000000000000000000000000600052604160045260246000fd5b7f4e487b7100000000000000000000000000000000000000000000000000000000600052603260045260246000fd5b6000819050919050565b600061321a613215613210846131f5565b6127a8565b6124a8565b9050919050565b61322a816131ff565b82525050565b600081519050919050565b600082825260208201905092915050565b6000819050602082019050919050565b61326581612636565b82525050565b6000613277838361325c565b60208301905092915050565b6000602082019050919050565b600061329b82613230565b6132a5818561323b565b93506132b08361324c565b8060005b838110156132e15781516132c8888261326b565b97506132d383613283565b9250506001810190506132b4565b5085935050505092915050565b600060a08201905061330360008301886124b2565b6133106020830187613221565b81810360408301526133228186613290565b9050613331606083018561284f565b61333e60808301846124b2565b9695505050505050565b61335182612c70565b810181811067ffffffffffffffff821117156133705761336f613197565b5b80604052505050565b60006133836124dc565b905061338f8282613348565b919050565b600067ffffffffffffffff8211156133af576133ae613197565b5b602082029050602081019050919050565b60006133d36133ce84613394565b613379565b905080838252602082019050602084028301858111156133f6576133f5612526565b5b835b8181101561341f578061340b8882612deb565b8452602084019350506020810190506133f8565b5050509392505050565b600082601f83011261343e5761343d61251c565b5b815161344e8482602086016133c0565b91505092915050565b60006020828403121561346d5761346c6124e6565b5b600082015167ffffffffffffffff81111561348b5761348a6124eb565b5b61349784828501613429565b91505092915050565b60006060820190506134b5600083018661284f565b6134c2602083018561284f565b6134cf60408301846124b2565b949350505050565b60008115159050919050565b6134ec816134d7565b81146134f757600080fd5b50565b600081519050613509816134e3565b92915050565b600060208284031215613525576135246124e6565b5b6000613533848285016134fa565b91505092915050565b600081519050919050565b600081905092915050565b60005b83811015613570578082015181840152602081019050613555565b60008484015250505050565b60006135878261353c565b6135918185613547565b93506135a1818560208601613552565b80840191505092915050565b60006135b9828461357c565b91508190509291505056fea2646970667358221220c5e2544a01964666979458741c2282fd04c9bfd52856eb0adba90ce75d32c16964736f6c63430008140033",
  "linkReferences": {},
  "deployedLinkReferences": {}
}