{
  "_format": "hh-sol-artifact-1",
  "contractName": "GreenDonation",
  "sourceName": "contracts/GreenDonation.sol",
  "abi": [
    {
      "inputs": [
        {
          "internalType": "address",
          "name": "_rewardsDistribution",
          "type": "address"
        },
        {
          "internalType": "address",
          "name": "_rewardsToken",
          "type": "address"
        },
        {
          "internalType": "address",
          "name": "_stakingToken",
          "type": "address"
        },
        {
          "internalType": "uint256",
          "name": "_rewardsDuration",
          "type": "uint256"
        },
        {
          "internalType": "address",
          "name": "_swapRouter",
          "type": "address"
        },
        {
          "internalType": "address",
          "name": "_tc02",
          "type": "address"
        },
        {
          "internalType": "address",
          "name": "_retirementCertificate",
          "type": "address"
        },
        {
          "internalType": "address",
          "name": "_treeContract",
          "type": "address"
        },
        {
          "internalType": "address",
          "name": "_retirementCertificateEscrow",
          "type": "address"
        }
      ],
      "stateMutability": "nonpayable",
      "type": "constructor"
    },
    {
      "inputs": [
        {
          "internalType": "address",
          "name": "target",
          "type": "address"
        }
      ],
      "name": "AddressEmptyCode",
      "type": "error"
    },
    {
      "inputs": [
        {
          "internalType": "address",
          "name": "account",
          "type": "address"
        }
      ],
      "name": "AddressInsufficientBalance",
      "type": "error"
    },
    {
      "inputs": [],
      "name": "FailedInnerCall",
      "type": "error"
    },
    {
      "inputs": [
        {
          "internalType": "address",
          "name": "owner",
          "type": "address"
        }
      ],
      "name": "OwnableInvalidOwner",
      "type": "error"
    },
    {
      "inputs": [
        {
          "internalType": "address",
          "name": "account",
          "type": "address"
        }
      ],
      "name": "OwnableUnauthorizedAccount",
      "type": "error"
    },
    {
      "inputs": [],
      "name": "ReentrancyGuardReentrantCall",
      "type": "error"
    },
    {
      "inputs": [
        {
          "internalType": "address",
          "name": "token",
          "type": "address"
        }
      ],
      "name": "SafeERC20FailedOperation",
      "type": "error"
    },
    {
      "anonymous": false,
      "inputs": [
        {
          "indexed": true,
          "internalType": "address",
          "name": "previousOwner",
          "type": "address"
        },
        {
          "indexed": true,
          "internalType": "address",
          "name": "newOwner",
          "type": "address"
        }
      ],
      "name": "OwnershipTransferred",
      "type": "event"
    },
    {
      "anonymous": false,
      "inputs": [
        {
          "indexed": false,
          "internalType": "uint256",
          "name": "reward",
          "type": "uint256"
        }
      ],
      "name": "RewardAdded",
      "type": "event"
    },
    {
      "anonymous": false,
      "inputs": [
        {
          "indexed": true,
          "internalType": "address",
          "name": "user",
          "type": "address"
        },
        {
          "indexed": false,
          "internalType": "uint256",
          "name": "reward",
          "type": "uint256"
        }
      ],
      "name": "RewardPaid",
      "type": "event"
    },
    {
      "anonymous": false,
      "inputs": [
        {
          "indexed": false,
          "internalType": "uint256",
          "name": "oldInterval",
          "type": "uint256"
        },
        {
          "indexed": false,
          "internalType": "uint256",
          "name": "newInterval",
          "type": "uint256"
        }
      ],
      "name": "SetClaimInterval",
      "type": "event"
    },
    {
      "anonymous": false,
      "inputs": [
        {
          "indexed": false,
          "internalType": "address",
          "name": "oldEscrow",
          "type": "address"
        },
        {
          "indexed": false,
          "internalType": "address",
          "name": "newEscrow",
          "type": "address"
        }
      ],
      "name": "SetRetirementCertificateEscrow",
      "type": "event"
    },
    {
      "anonymous": false,
      "inputs": [
        {
          "indexed": false,
          "internalType": "address",
          "name": "oldRouter",
          "type": "address"
        },
        {
          "indexed": false,
          "internalType": "address",
          "name": "newRouter",
          "type": "address"
        }
      ],
      "name": "SetSwapRouter",
      "type": "event"
    },
    {
      "anonymous": false,
      "inputs": [
        {
          "indexed": false,
          "internalType": "address",
          "name": "oldTreeContract",
          "type": "address"
        },
        {
          "indexed": false,
          "internalType": "address",
          "name": "newTreeContract",
          "type": "address"
        }
      ],
      "name": "SetTreeContract",
      "type": "event"
    },
    {
      "anonymous": false,
      "inputs": [
        {
          "indexed": true,
          "internalType": "address",
          "name": "user",
          "type": "address"
        },
        {
          "indexed": false,
          "internalType": "uint256",
          "name": "amount",
          "type": "uint256"
        }
      ],
      "name": "Staked",
      "type": "event"
    },
    {
      "anonymous": false,
      "inputs": [
        {
          "indexed": true,
          "internalType": "address",
          "name": "user",
          "type": "address"
        },
        {
          "indexed": false,
          "internalType": "uint256",
          "name": "amount",
          "type": "uint256"
        }
      ],
      "name": "Withdrawn",
      "type": "event"
    },
    {
      "inputs": [
        {
          "internalType": "address",
          "name": "account",
          "type": "address"
        }
      ],
      "name": "balanceOf",
      "outputs": [
        {
          "internalType": "uint256",
          "name": "",
          "type": "uint256"
        }
      ],
      "stateMutability": "view",
      "type": "function"
    },
    {
      "inputs": [],
      "name": "claimInterval",
      "outputs": [
        {
          "internalType": "uint256",
          "name": "",
          "type": "uint256"
        }
      ],
      "stateMutability": "view",
      "type": "function"
    },
    {
      "inputs": [
        {
          "internalType": "address",
          "name": "account",
          "type": "address"
        }
      ],
      "name": "earned",
      "outputs": [
        {
          "internalType": "uint256",
          "name": "",
          "type": "uint256"
        }
      ],
      "stateMutability": "view",
      "type": "function"
    },
    {
      "inputs": [
        {
          "internalType": "uint256",
          "name": "tokenId",
          "type": "uint256"
        },
        {
          "internalType": "string",
          "name": "retiringEntityString",
          "type": "string"
        },
        {
          "internalType": "string",
          "name": "beneficiaryString",
          "type": "string"
        },
        {
          "internalType": "string",
          "name": "retirementMessage",
          "type": "string"
        }
      ],
      "name": "exit",
      "outputs": [],
      "stateMutability": "nonpayable",
      "type": "function"
    },
    {
      "inputs": [
        {
          "internalType": "string",
          "name": "retiringEntityString",
          "type": "string"
        },
        {
          "internalType": "string",
          "name": "beneficiaryString",
          "type": "string"
        },
        {
          "internalType": "string",
          "name": "retirementMessage",
          "type": "string"
        }
      ],
      "name": "getReward",
      "outputs": [],
      "stateMutability": "nonpayable",
      "type": "function"
    },
    {
      "inputs": [],
      "name": "getRewardForDuration",
      "outputs": [
        {
          "internalType": "uint256",
          "name": "",
          "type": "uint256"
        }
      ],
      "stateMutability": "view",
      "type": "function"
    },
    {
      "inputs": [
        {
          "internalType": "address",
          "name": "",
          "type": "address"
        }
      ],
      "name": "lastClaimTimestamp",
      "outputs": [
        {
          "internalType": "uint256",
          "name": "",
          "type": "uint256"
        }
      ],
      "stateMutability": "view",
      "type": "function"
    },
    {
      "inputs": [],
      "name": "lastTimeRewardApplicable",
      "outputs": [
        {
          "internalType": "uint256",
          "name": "",
          "type": "uint256"
        }
      ],
      "stateMutability": "view",
      "type": "function"
    },
    {
      "inputs": [],
      "name": "lastUpdateTime",
      "outputs": [
        {
          "internalType": "uint256",
          "name": "",
          "type": "uint256"
        }
      ],
      "stateMutability": "view",
      "type": "function"
    },
    {
      "inputs": [
        {
          "internalType": "uint256",
          "name": "reward",
          "type": "uint256"
        }
      ],
      "name": "notifyRewardAmount",
      "outputs": [],
      "stateMutability": "nonpayable",
      "type": "function"
    },
    {
      "inputs": [],
      "name": "owner",
      "outputs": [
        {
          "internalType": "address",
          "name": "",
          "type": "address"
        }
      ],
      "stateMutability": "view",
      "type": "function"
    },
    {
      "inputs": [],
      "name": "periodFinish",
      "outputs": [
        {
          "internalType": "uint256",
          "name": "",
          "type": "uint256"
        }
      ],
      "stateMutability": "view",
      "type": "function"
    },
    {
      "inputs": [],
      "name": "renounceOwnership",
      "outputs": [],
      "stateMutability": "nonpayable",
      "type": "function"
    },
    {
      "inputs": [],
      "name": "retirementCertificate",
      "outputs": [
        {
          "internalType": "contract IRetirementCertificates",
          "name": "",
          "type": "address"
        }
      ],
      "stateMutability": "view",
      "type": "function"
    },
    {
      "inputs": [],
      "name": "retirementCertificateEscrow",
      "outputs": [
        {
          "internalType": "contract RetirementCertificateEscrow",
          "name": "",
          "type": "address"
        }
      ],
      "stateMutability": "view",
      "type": "function"
    },
    {
      "inputs": [],
      "name": "rewardPerToken",
      "outputs": [
        {
          "internalType": "uint256",
          "name": "",
          "type": "uint256"
        }
      ],
      "stateMutability": "view",
      "type": "function"
    },
    {
      "inputs": [],
      "name": "rewardPerTokenStored",
      "outputs": [
        {
          "internalType": "uint256",
          "name": "",
          "type": "uint256"
        }
      ],
      "stateMutability": "view",
      "type": "function"
    },
    {
      "inputs": [],
      "name": "rewardRate",
      "outputs": [
        {
          "internalType": "uint256",
          "name": "",
          "type": "uint256"
        }
      ],
      "stateMutability": "view",
      "type": "function"
    },
    {
      "inputs": [
        {
          "internalType": "address",
          "name": "",
          "type": "address"
        }
      ],
      "name": "rewards",
      "outputs": [
        {
          "internalType": "uint256",
          "name": "",
          "type": "uint256"
        }
      ],
      "stateMutability": "view",
      "type": "function"
    },
    {
      "inputs": [],
      "name": "rewardsDistribution",
      "outputs": [
        {
          "internalType": "address",
          "name": "",
          "type": "address"
        }
      ],
      "stateMutability": "view",
      "type": "function"
    },
    {
      "inputs": [],
      "name": "rewardsDuration",
      "outputs": [
        {
          "internalType": "uint256",
          "name": "",
          "type": "uint256"
        }
      ],
      "stateMutability": "view",
      "type": "function"
    },
    {
      "inputs": [],
      "name": "rewardsToken",
      "outputs": [
        {
          "internalType": "contract IERC20",
          "name": "",
          "type": "address"
        }
      ],
      "stateMutability": "view",
      "type": "function"
    },
    {
      "inputs": [
        {
          "internalType": "uint256",
          "name": "interval",
          "type": "uint256"
        }
      ],
      "name": "setClaimInterval",
      "outputs": [],
      "stateMutability": "nonpayable",
      "type": "function"
    },
    {
      "inputs": [
        {
          "internalType": "address",
          "name": "_escrow",
          "type": "address"
        }
      ],
      "name": "setRetirementCertificateEscrow",
      "outputs": [],
      "stateMutability": "nonpayable",
      "type": "function"
    },
    {
      "inputs": [
        {
          "internalType": "address",
          "name": "router",
          "type": "address"
        }
      ],
      "name": "setSwapRouter",
      "outputs": [],
      "stateMutability": "nonpayable",
      "type": "function"
    },
    {
      "inputs": [
        {
          "internalType": "address",
          "name": "_treeContract",
          "type": "address"
        }
      ],
      "name": "setTreeContract",
      "outputs": [],
      "stateMutability": "nonpayable",
      "type": "function"
    },
    {
      "inputs": [
        {
          "internalType": "uint256",
          "name": "tokenId",
          "type": "uint256"
        },
        {
          "internalType": "uint256",
          "name": "amount",
          "type": "uint256"
        }
      ],
      "name": "stake",
      "outputs": [],
      "stateMutability": "nonpayable",
      "type": "function"
    },
    {
      "inputs": [],
      "name": "stakingToken",
      "outputs": [
        {
          "internalType": "contract IERC20",
          "name": "",
          "type": "address"
        }
      ],
      "stateMutability": "view",
      "type": "function"
    },
    {
      "inputs": [],
      "name": "swapRotuer",
      "outputs": [
        {
          "internalType": "contract IUniswapV2Router02",
          "name": "",
          "type": "address"
        }
      ],
      "stateMutability": "view",
      "type": "function"
    },
    {
      "inputs": [],
      "name": "tc02",
      "outputs": [
        {
          "internalType": "contract ITC02",
          "name": "",
          "type": "address"
        }
      ],
      "stateMutability": "view",
      "type": "function"
    },
    {
      "inputs": [],
      "name": "totalSupply",
      "outputs": [
        {
          "internalType": "uint256",
          "name": "",
          "type": "uint256"
        }
      ],
      "stateMutability": "view",
      "type": "function"
    },
    {
      "inputs": [
        {
          "internalType": "address",
          "name": "newOwner",
          "type": "address"
        }
      ],
      "name": "transferOwnership",
      "outputs": [],
      "stateMutability": "nonpayable",
      "type": "function"
    },
    {
      "inputs": [],
      "name": "treeContract",
      "outputs": [
        {
          "internalType": "contract TreeContract",
          "name": "",
          "type": "address"
        }
      ],
      "stateMutability": "view",
      "type": "function"
    },
    {
      "inputs": [
        {
          "internalType": "address",
          "name": "",
          "type": "address"
        }
      ],
      "name": "userRewardPerTokenPaid",
      "outputs": [
        {
          "internalType": "uint256",
          "name": "",
          "type": "uint256"
        }
      ],
      "stateMutability": "view",
      "type": "function"
    },
    {
      "inputs": [
        {
          "internalType": "uint256",
          "name": "tokenId",
          "type": "uint256"
        },
        {
          "internalType": "uint256",
          "name": "amount",
          "type": "uint256"
        }
      ],
      "name": "withdraw",
      "outputs": [],
      "stateMutability": "nonpayable",
      "type": "function"
    }
  ],
  "bytecode": "0x60806040526000600555600060065562093a80600e553480156200002257600080fd5b5060405162003dbd38038062003dbd833981810160405281019062000048919062000547565b3360018081905550600073ffffffffffffffffffffffffffffffffffffffff168173ffffffffffffffffffffffffffffffffffffffff1603620000c55760006040517f1e4fbdf7000000000000000000000000000000000000000000000000000000008152600401620000bc919062000637565b60405180910390fd5b620000d681620003dc60201b60201c565b5087600360006101000a81548173ffffffffffffffffffffffffffffffffffffffff021916908373ffffffffffffffffffffffffffffffffffffffff16021790555086600460006101000a81548173ffffffffffffffffffffffffffffffffffffffff021916908373ffffffffffffffffffffffffffffffffffffffff160217905550886000806101000a81548173ffffffffffffffffffffffffffffffffffffffff021916908373ffffffffffffffffffffffffffffffffffffffff1602179055508560078190555084601260006101000a81548173ffffffffffffffffffffffffffffffffffffffff021916908373ffffffffffffffffffffffffffffffffffffffff16021790555083601060006101000a81548173ffffffffffffffffffffffffffffffffffffffff021916908373ffffffffffffffffffffffffffffffffffffffff16021790555081601160006101000a81548173ffffffffffffffffffffffffffffffffffffffff021916908373ffffffffffffffffffffffffffffffffffffffff16021790555082601360006101000a81548173ffffffffffffffffffffffffffffffffffffffff021916908373ffffffffffffffffffffffffffffffffffffffff16021790555080601460006101000a81548173ffffffffffffffffffffffffffffffffffffffff021916908373ffffffffffffffffffffffffffffffffffffffff160217905550600360009054906101000a900473ffffffffffffffffffffffffffffffffffffffff1673ffffffffffffffffffffffffffffffffffffffff1663095ea7b3601260009054906101000a900473ffffffffffffffffffffffffffffffffffffffff167fffffffffffffffffffffffffffffffffffffffffffffffffffffffffffffffff6040518363ffffffff1660e01b81526004016200038692919062000665565b6020604051808303816000875af1158015620003a6573d6000803e3d6000fd5b505050506040513d601f19601f82011682018060405250810190620003cc9190620006cf565b5050505050505050505062000701565b6000600260009054906101000a900473ffffffffffffffffffffffffffffffffffffffff16905081600260006101000a81548173ffffffffffffffffffffffffffffffffffffffff021916908373ffffffffffffffffffffffffffffffffffffffff1602179055508173ffffffffffffffffffffffffffffffffffffffff168173ffffffffffffffffffffffffffffffffffffffff167f8be0079c531659141344cd1fd0a4f28419497f9722a3daafe3b4186f6b6457e060405160405180910390a35050565b600080fd5b600073ffffffffffffffffffffffffffffffffffffffff82169050919050565b6000620004d482620004a7565b9050919050565b620004e681620004c7565b8114620004f257600080fd5b50565b6000815190506200050681620004db565b92915050565b6000819050919050565b62000521816200050c565b81146200052d57600080fd5b50565b600081519050620005418162000516565b92915050565b60008060008060008060008060006101208a8c0312156200056d576200056c620004a2565b5b60006200057d8c828d01620004f5565b9950506020620005908c828d01620004f5565b9850506040620005a38c828d01620004f5565b9750506060620005b68c828d0162000530565b9650506080620005c98c828d01620004f5565b95505060a0620005dc8c828d01620004f5565b94505060c0620005ef8c828d01620004f5565b93505060e0620006028c828d01620004f5565b925050610100620006168c828d01620004f5565b9150509295985092959850929598565b6200063181620004c7565b82525050565b60006020820190506200064e600083018462000626565b92915050565b6200065f816200050c565b82525050565b60006040820190506200067c600083018562000626565b6200068b602083018462000654565b9392505050565b60008115159050919050565b620006a98162000692565b8114620006b557600080fd5b50565b600081519050620006c9816200069e565b92915050565b600060208284031215620006e857620006e7620004a2565b5b6000620006f884828501620006b8565b91505092915050565b6136ac80620007116000396000f3fe608060405234801561001057600080fd5b50600436106102105760003560e01c80637b0472f011610125578063c8f33c91116100ad578063df136d651161007c578063df136d65146105cf578063ebe2b12b146105ed578063f2d57adf1461060b578063f2fde38b14610627578063f5b88ac21461064357610210565b8063c8f33c9114610559578063cd3daf9d14610577578063d1af0c7d14610595578063d9a29930146105b357610210565b80638da5cb5b116100f45780638da5cb5b146104b357806397dea7fc146104d15780639ce12ae5146104ed578063bc852d501461050b578063bd9d518b1461052957610210565b80637b0472f01461042b5780637b0a47ee1461044757806380faa57d146104655780638b8763471461048357610210565b80633c6b16ab116101a8578063441a3e7011610177578063441a3e701461039b57806358c83621146103b757806370a08231146103d3578063715018a61461040357806372f702f31461040d57610210565b80633c6b16ab146103275780633fc6df6e1461034357806340cf1c9514610361578063412736571461037f57610210565b8063188d2471116101e4578063188d2471146102b15780631c1f78eb146102cf5780631e57cf08146102ed578063386a95251461030957610210565b80628cc262146102155780630700037d146102455780630b433a121461027557806318160ddd14610293575b600080fd5b61022f600480360381019061022a91906126cc565b610661565b60405161023c9190612712565b60405180910390f35b61025f600480360381019061025a91906126cc565b61077f565b60405161026c9190612712565b60405180910390f35b61027d610797565b60405161028a9190612712565b60405180910390f35b61029b61079d565b6040516102a89190612712565b60405180910390f35b6102b96107a7565b6040516102c6919061278c565b60405180910390f35b6102d76107cd565b6040516102e49190612712565b60405180910390f35b6103076004803603810190610302919061280c565b6107eb565b005b610311610d3f565b60405161031e9190612712565b60405180910390f35b610341600480360381019061033c91906128ec565b610d45565b005b61034b61109a565b6040516103589190612928565b60405180910390f35b6103696110be565b6040516103769190612964565b60405180910390f35b610399600480360381019061039491906126cc565b6110e4565b005b6103b560048036038101906103b0919061297f565b61119b565b005b6103d160048036038101906103cc91906126cc565b6115b8565b005b6103ed60048036038101906103e891906126cc565b61166f565b6040516103fa9190612712565b60405180910390f35b61040b6116b8565b005b6104156116cc565b60405161042291906129e0565b60405180910390f35b6104456004803603810190610440919061297f565b6116f2565b005b61044f611a08565b60405161045c9190612712565b60405180910390f35b61046d611a0e565b60405161047a9190612712565b60405180910390f35b61049d600480360381019061049891906126cc565b611a21565b6040516104aa9190612712565b60405180910390f35b6104bb611a39565b6040516104c89190612928565b60405180910390f35b6104eb60048036038101906104e691906129fb565b611a63565b005b6104f5611ac3565b6040516105029190612ae5565b60405180910390f35b610513611ae9565b6040516105209190612b21565b60405180910390f35b610543600480360381019061053e91906126cc565b611b0f565b6040516105509190612712565b60405180910390f35b610561611b27565b60405161056e9190612712565b60405180910390f35b61057f611b2d565b60405161058c9190612712565b60405180910390f35b61059d611bba565b6040516105aa91906129e0565b60405180910390f35b6105cd60048036038101906105c891906126cc565b611be0565b005b6105d7611c97565b6040516105e49190612712565b60405180910390f35b6105f5611c9d565b6040516106029190612712565b60405180910390f35b610625600480360381019061062091906128ec565b611ca3565b005b610641600480360381019061063c91906126cc565b611d00565b005b61064b611d86565b6040516106589190612b5d565b60405180910390f35b6000610778600b60008473ffffffffffffffffffffffffffffffffffffffff1673ffffffffffffffffffffffffffffffffffffffff1681526020019081526020016000205461076a670de0b6b3a764000061075c61070e600a60008973ffffffffffffffffffffffffffffffffffffffff1673ffffffffffffffffffffffffffffffffffffffff16815260200190815260200160002054610700611b2d565b611dac90919063ffffffff16565b600d60008973ffffffffffffffffffffffffffffffffffffffff1673ffffffffffffffffffffffffffffffffffffffff16815260200190815260200160002054611dc290919063ffffffff16565b611dd890919063ffffffff16565b611dee90919063ffffffff16565b9050919050565b600b6020528060005260406000206000915090505481565b600e5481565b6000600c54905090565b601460009054906101000a900473ffffffffffffffffffffffffffffffffffffffff1681565b60006107e6600754600654611dc290919063ffffffff16565b905090565b6107f3611e04565b336107fc611b2d565b60098190555061080a611a0e565b600881905550600073ffffffffffffffffffffffffffffffffffffffff168173ffffffffffffffffffffffffffffffffffffffff16146108d75761084d81610661565b600b60008373ffffffffffffffffffffffffffffffffffffffff1673ffffffffffffffffffffffffffffffffffffffff16815260200190815260200160002081905550600954600a60008373ffffffffffffffffffffffffffffffffffffffff1673ffffffffffffffffffffffffffffffffffffffff168152602001908152602001600020819055505b3342600e54600f60008473ffffffffffffffffffffffffffffffffffffffff1673ffffffffffffffffffffffffffffffffffffffff168152602001908152602001600020546109269190612ba7565b1115610967576040517f08c379a000000000000000000000000000000000000000000000000000000000815260040161095e90612c5e565b60405180910390fd5b6000600b60003373ffffffffffffffffffffffffffffffffffffffff1673ffffffffffffffffffffffffffffffffffffffff1681526020019081526020016000205490506000811115610d2c576000600b60003373ffffffffffffffffffffffffffffffffffffffff1673ffffffffffffffffffffffffffffffffffffffff1681526020019081526020016000208190555042600f60003373ffffffffffffffffffffffffffffffffffffffff1673ffffffffffffffffffffffffffffffffffffffff168152602001908152602001600020819055506000610a666064610a58600a85611dc290919063ffffffff16565b611dd890919063ffffffff16565b9050610ac733610a7f8385611dac90919063ffffffff16565b600360009054906101000a900473ffffffffffffffffffffffffffffffffffffffff1673ffffffffffffffffffffffffffffffffffffffff16611e4a9092919063ffffffff16565b3373ffffffffffffffffffffffffffffffffffffffff167fe2403640ba68fed3a2f88b7557551d1993f84b99bb10ff833f0cf8db0c5e0486610b128385611dac90919063ffffffff16565b604051610b1f9190612712565b60405180910390a26000601360009054906101000a900473ffffffffffffffffffffffffffffffffffffffff1673ffffffffffffffffffffffffffffffffffffffff1663163c1319308d8d338e8e8e8e610b80610b7b8d611ec9565b6120ec565b6040518a63ffffffff1660e01b8152600401610ba499989796959493929190612d89565b6020604051808303816000875af1158015610bc3573d6000803e3d6000fd5b505050506040513d601f19601f82011682018060405250810190610be79190612e21565b9050601360009054906101000a900473ffffffffffffffffffffffffffffffffffffffff1673ffffffffffffffffffffffffffffffffffffffff1663095ea7b3601460009054906101000a900473ffffffffffffffffffffffffffffffffffffffff16836040518363ffffffff1660e01b8152600401610c68929190612e4e565b600060405180830381600087803b158015610c8257600080fd5b505af1158015610c96573d6000803e3d6000fd5b50505050601460009054906101000a900473ffffffffffffffffffffffffffffffffffffffff1673ffffffffffffffffffffffffffffffffffffffff1663d7cd94b333836040518363ffffffff1660e01b8152600401610cf7929190612e4e565b600060405180830381600087803b158015610d1157600080fd5b505af1158015610d25573d6000803e3d6000fd5b5050505050505b505050610d37612213565b505050505050565b60075481565b60008054906101000a900473ffffffffffffffffffffffffffffffffffffffff1673ffffffffffffffffffffffffffffffffffffffff163373ffffffffffffffffffffffffffffffffffffffff1614610dd3576040517f08c379a0000000000000000000000000000000000000000000000000000000008152600401610dca90612ee9565b60405180910390fd5b6000610ddd611b2d565b600981905550610deb611a0e565b600881905550600073ffffffffffffffffffffffffffffffffffffffff168173ffffffffffffffffffffffffffffffffffffffff1614610eb857610e2e81610661565b600b60008373ffffffffffffffffffffffffffffffffffffffff1673ffffffffffffffffffffffffffffffffffffffff16815260200190815260200160002081905550600954600a60008373ffffffffffffffffffffffffffffffffffffffff1673ffffffffffffffffffffffffffffffffffffffff168152602001908152602001600020819055505b6005544210610ee157610ed660075483611dd890919063ffffffff16565b600681905550610f43565b6000610ef842600554611dac90919063ffffffff16565b90506000610f1160065483611dc290919063ffffffff16565b9050610f3a600754610f2c8387611dee90919063ffffffff16565b611dd890919063ffffffff16565b60068190555050505b6000600360009054906101000a900473ffffffffffffffffffffffffffffffffffffffff1673ffffffffffffffffffffffffffffffffffffffff166370a08231306040518263ffffffff1660e01b8152600401610fa09190612928565b602060405180830381865afa158015610fbd573d6000803e3d6000fd5b505050506040513d601f19601f82011682018060405250810190610fe19190612e21565b9050610ff860075482611dd890919063ffffffff16565b600654111561103c576040517f08c379a000000000000000000000000000000000000000000000000000000000815260040161103390612f55565b60405180910390fd5b4260088190555061105860075442611dee90919063ffffffff16565b6005819055507fde88a922e0d3b88b24e9623efeb464919c6bf9f66857a65e2bfcf2ce87a9433d8360405161108d9190612712565b60405180910390a1505050565b60008054906101000a900473ffffffffffffffffffffffffffffffffffffffff1681565b601160009054906101000a900473ffffffffffffffffffffffffffffffffffffffff1681565b6110ec611e04565b6110f461221c565b7f363499fd428e59a25f711ed7c86a7e7029242e3f1066dcbc0bc0e49fb0bfb90e601260009054906101000a900473ffffffffffffffffffffffffffffffffffffffff1682604051611147929190612f75565b60405180910390a180601260006101000a81548173ffffffffffffffffffffffffffffffffffffffff021916908373ffffffffffffffffffffffffffffffffffffffff160217905550611198612213565b50565b6111a3611e04565b336111ac611b2d565b6009819055506111ba611a0e565b600881905550600073ffffffffffffffffffffffffffffffffffffffff168173ffffffffffffffffffffffffffffffffffffffff1614611287576111fd81610661565b600b60008373ffffffffffffffffffffffffffffffffffffffff1673ffffffffffffffffffffffffffffffffffffffff16815260200190815260200160002081905550600954600a60008373ffffffffffffffffffffffffffffffffffffffff1673ffffffffffffffffffffffffffffffffffffffff168152602001908152602001600020819055505b600082116112ca576040517f08c379a00000000000000000000000000000000000000000000000000000000081526004016112c190612fea565b60405180910390fd5b6112df82600c54611dac90919063ffffffff16565b600c8190555061133782600d60003373ffffffffffffffffffffffffffffffffffffffff1673ffffffffffffffffffffffffffffffffffffffff16815260200190815260200160002054611dac90919063ffffffff16565b600d60003373ffffffffffffffffffffffffffffffffffffffff1673ffffffffffffffffffffffffffffffffffffffff168152602001908152602001600020819055506113c73383600460009054906101000a900473ffffffffffffffffffffffffffffffffffffffff1673ffffffffffffffffffffffffffffffffffffffff16611e4a9092919063ffffffff16565b3373ffffffffffffffffffffffffffffffffffffffff167f7084f5476618d8e60b11ef0d7d3f06914655adb8793e28ff7f018d4c76d505d58360405161140d9190612712565b60405180910390a23373ffffffffffffffffffffffffffffffffffffffff16601160009054906101000a900473ffffffffffffffffffffffffffffffffffffffff1673ffffffffffffffffffffffffffffffffffffffff16636352211e856040518263ffffffff1660e01b81526004016114879190612712565b602060405180830381865afa1580156114a4573d6000803e3d6000fd5b505050506040513d601f19601f820116820180604052508101906114c8919061301f565b73ffffffffffffffffffffffffffffffffffffffff161461151e576040517f08c379a0000000000000000000000000000000000000000000000000000000008152600401611515906130be565b60405180910390fd5b601160009054906101000a900473ffffffffffffffffffffffffffffffffffffffff1673ffffffffffffffffffffffffffffffffffffffff1663e3a3ed75846040518263ffffffff1660e01b81526004016115799190612712565b600060405180830381600087803b15801561159357600080fd5b505af11580156115a7573d6000803e3d6000fd5b50505050506115b4612213565b5050565b6115c0611e04565b6115c861221c565b7f89bd2768fd7547268736aac7cd37faa074c71f109b7c98d22f28c55629c0279d601460009054906101000a900473ffffffffffffffffffffffffffffffffffffffff168260405161161b929190612f75565b60405180910390a180601460006101000a81548173ffffffffffffffffffffffffffffffffffffffff021916908373ffffffffffffffffffffffffffffffffffffffff16021790555061166c612213565b50565b6000600d60008373ffffffffffffffffffffffffffffffffffffffff1673ffffffffffffffffffffffffffffffffffffffff168152602001908152602001600020549050919050565b6116c061221c565b6116ca60006122a3565b565b600460009054906101000a900473ffffffffffffffffffffffffffffffffffffffff1681565b6116fa611e04565b33611703611b2d565b600981905550611711611a0e565b600881905550600073ffffffffffffffffffffffffffffffffffffffff168173ffffffffffffffffffffffffffffffffffffffff16146117de5761175481610661565b600b60008373ffffffffffffffffffffffffffffffffffffffff1673ffffffffffffffffffffffffffffffffffffffff16815260200190815260200160002081905550600954600a60008373ffffffffffffffffffffffffffffffffffffffff1673ffffffffffffffffffffffffffffffffffffffff168152602001908152602001600020819055505b60008211611821576040517f08c379a00000000000000000000000000000000000000000000000000000000081526004016118189061312a565b60405180910390fd5b61183682600c54611dee90919063ffffffff16565b600c8190555061188e82600d60003373ffffffffffffffffffffffffffffffffffffffff1673ffffffffffffffffffffffffffffffffffffffff16815260200190815260200160002054611dee90919063ffffffff16565b600d60003373ffffffffffffffffffffffffffffffffffffffff1673ffffffffffffffffffffffffffffffffffffffff16815260200190815260200160002081905550611920333084600460009054906101000a900473ffffffffffffffffffffffffffffffffffffffff1673ffffffffffffffffffffffffffffffffffffffff16612369909392919063ffffffff16565b3373ffffffffffffffffffffffffffffffffffffffff167f9e71bc8eea02a63969f509818f2dafb9254532904319f9dbda79b67bd34a5f3d836040516119669190612712565b60405180910390a2601160009054906101000a900473ffffffffffffffffffffffffffffffffffffffff1673ffffffffffffffffffffffffffffffffffffffff1663998b723b846040518263ffffffff1660e01b81526004016119c99190612712565b600060405180830381600087803b1580156119e357600080fd5b505af11580156119f7573d6000803e3d6000fd5b5050505050611a04612213565b5050565b60065481565b6000611a1c426005546123eb565b905090565b600a6020528060005260406000206000915090505481565b6000600260009054906101000a900473ffffffffffffffffffffffffffffffffffffffff16905090565b611aac87600d60003373ffffffffffffffffffffffffffffffffffffffff1673ffffffffffffffffffffffffffffffffffffffff1681526020019081526020016000205461119b565b611aba8686868686866107eb565b50505050505050565b601360009054906101000a900473ffffffffffffffffffffffffffffffffffffffff1681565b601260009054906101000a900473ffffffffffffffffffffffffffffffffffffffff1681565b600f6020528060005260406000206000915090505481565b60085481565b600080600c5403611b42576009549050611bb7565b611bb4611ba3600c54611b95670de0b6b3a7640000611b87600654611b79600854611b6b611a0e565b611dac90919063ffffffff16565b611dc290919063ffffffff16565b611dc290919063ffffffff16565b611dd890919063ffffffff16565b600954611dee90919063ffffffff16565b90505b90565b600360009054906101000a900473ffffffffffffffffffffffffffffffffffffffff1681565b611be8611e04565b611bf061221c565b7f97e184ff06e0f2dd43ea90aa42d61e72d7fe8934155b00bfd5a31c31e896878f601160009054906101000a900473ffffffffffffffffffffffffffffffffffffffff1682604051611c43929190612f75565b60405180910390a180601160006101000a81548173ffffffffffffffffffffffffffffffffffffffff021916908373ffffffffffffffffffffffffffffffffffffffff160217905550611c94612213565b50565b60095481565b60055481565b611cab611e04565b611cb361221c565b7f0d8e7a61135a0b471ca4c20f606c82e40bfdfa34727d5bb209bda99fdaf9d6c1600e5482604051611ce692919061314a565b60405180910390a180600e81905550611cfd612213565b50565b611d0861221c565b600073ffffffffffffffffffffffffffffffffffffffff168173ffffffffffffffffffffffffffffffffffffffff1603611d7a5760006040517f1e4fbdf7000000000000000000000000000000000000000000000000000000008152600401611d719190612928565b60405180910390fd5b611d83816122a3565b50565b601060009054906101000a900473ffffffffffffffffffffffffffffffffffffffff1681565b60008183611dba9190613173565b905092915050565b60008183611dd091906131a7565b905092915050565b60008183611de69190613218565b905092915050565b60008183611dfc9190612ba7565b905092915050565b600260015403611e40576040517f3ee5aeb500000000000000000000000000000000000000000000000000000000815260040160405180910390fd5b6002600181905550565b611ec4838473ffffffffffffffffffffffffffffffffffffffff1663a9059cbb8585604051602401611e7d929190612e4e565b604051602081830303815290604052915060e01b6020820180517bffffffffffffffffffffffffffffffffffffffffffffffffffffffff8381831617835250505050612404565b505050565b6000611ed3611e04565b6000600267ffffffffffffffff811115611ef057611eef613249565b5b604051908082528060200260200182016040528015611f1e5781602001602082028036833780820191505090505b509050600360009054906101000a900473ffffffffffffffffffffffffffffffffffffffff1681600081518110611f5857611f57613278565b5b602002602001019073ffffffffffffffffffffffffffffffffffffffff16908173ffffffffffffffffffffffffffffffffffffffff1681525050601060009054906101000a900473ffffffffffffffffffffffffffffffffffffffff1681600181518110611fc957611fc8613278565b5b602002602001019073ffffffffffffffffffffffffffffffffffffffff16908173ffffffffffffffffffffffffffffffffffffffff16815250506000601260009054906101000a900473ffffffffffffffffffffffffffffffffffffffff1673ffffffffffffffffffffffffffffffffffffffff166338ed17398560008530426040518663ffffffff1660e01b81526004016120699594939291906133a0565b6000604051808303816000875af1158015612088573d6000803e3d6000fd5b505050506040513d6000823e3d601f19601f820116820180604052508101906120b19190613509565b905080600182516120c29190613173565b815181106120d3576120d2613278565b5b6020026020010151925050506120e7612213565b919050565b60606120f6611e04565b6000600167ffffffffffffffff81111561211357612112613249565b5b6040519080825280602002602001820160405280156121415781602001602082028036833780820191505090505b509050601060009054906101000a900473ffffffffffffffffffffffffffffffffffffffff1673ffffffffffffffffffffffffffffffffffffffff16633790cf57846040518263ffffffff1660e01b815260040161219f9190612712565b6020604051808303816000875af11580156121be573d6000803e3d6000fd5b505050506040513d601f19601f820116820180604052508101906121e29190612e21565b816000815181106121f6576121f5613278565b5b6020026020010181815250508091505061220e612213565b919050565b60018081905550565b61222461249b565b73ffffffffffffffffffffffffffffffffffffffff16612242611a39565b73ffffffffffffffffffffffffffffffffffffffff16146122a15761226561249b565b6040517f118cdaa70000000000000000000000000000000000000000000000000000000081526004016122989190612928565b60405180910390fd5b565b6000600260009054906101000a900473ffffffffffffffffffffffffffffffffffffffff16905081600260006101000a81548173ffffffffffffffffffffffffffffffffffffffff021916908373ffffffffffffffffffffffffffffffffffffffff1602179055508173ffffffffffffffffffffffffffffffffffffffff168173ffffffffffffffffffffffffffffffffffffffff167f8be0079c531659141344cd1fd0a4f28419497f9722a3daafe3b4186f6b6457e060405160405180910390a35050565b6123e5848573ffffffffffffffffffffffffffffffffffffffff166323b872dd86868660405160240161239e93929190613552565b604051602081830303815290604052915060e01b6020820180517bffffffffffffffffffffffffffffffffffffffffffffffffffffffff8381831617835250505050612404565b50505050565b60008183106123fa57816123fc565b825b905092915050565b600061242f828473ffffffffffffffffffffffffffffffffffffffff166124a390919063ffffffff16565b9050600081511415801561245457508080602001905181019061245291906135c1565b155b1561249657826040517f5274afe700000000000000000000000000000000000000000000000000000000815260040161248d9190612928565b60405180910390fd5b505050565b600033905090565b60606124b1838360006124b9565b905092915050565b60608147101561250057306040517fcd7860590000000000000000000000000000000000000000000000000000000081526004016124f79190612928565b60405180910390fd5b6000808573ffffffffffffffffffffffffffffffffffffffff168486604051612529919061365f565b60006040518083038185875af1925050503d8060008114612566576040519150601f19603f3d011682016040523d82523d6000602084013e61256b565b606091505b509150915061257b868383612586565b925050509392505050565b60608261259b5761259682612615565b61260d565b600082511480156125c3575060008473ffffffffffffffffffffffffffffffffffffffff163b145b1561260557836040517f9996b3150000000000000000000000000000000000000000000000000000000081526004016125fc9190612928565b60405180910390fd5b81905061260e565b5b9392505050565b6000815111156126285780518082602001fd5b6040517f1425ea4200000000000000000000000000000000000000000000000000000000815260040160405180910390fd5b6000604051905090565b600080fd5b600080fd5b600073ffffffffffffffffffffffffffffffffffffffff82169050919050565b60006126998261266e565b9050919050565b6126a98161268e565b81146126b457600080fd5b50565b6000813590506126c6816126a0565b92915050565b6000602082840312156126e2576126e1612664565b5b60006126f0848285016126b7565b91505092915050565b6000819050919050565b61270c816126f9565b82525050565b60006020820190506127276000830184612703565b92915050565b6000819050919050565b600061275261274d6127488461266e565b61272d565b61266e565b9050919050565b600061276482612737565b9050919050565b600061277682612759565b9050919050565b6127868161276b565b82525050565b60006020820190506127a1600083018461277d565b92915050565b600080fd5b600080fd5b600080fd5b60008083601f8401126127cc576127cb6127a7565b5b8235905067ffffffffffffffff8111156127e9576127e86127ac565b5b602083019150836001820283011115612805576128046127b1565b5b9250929050565b6000806000806000806060878903121561282957612828612664565b5b600087013567ffffffffffffffff81111561284757612846612669565b5b61285389828a016127b6565b9650965050602087013567ffffffffffffffff81111561287657612875612669565b5b61288289828a016127b6565b9450945050604087013567ffffffffffffffff8111156128a5576128a4612669565b5b6128b189828a016127b6565b92509250509295509295509295565b6128c9816126f9565b81146128d457600080fd5b50565b6000813590506128e6816128c0565b92915050565b60006020828403121561290257612901612664565b5b6000612910848285016128d7565b91505092915050565b6129228161268e565b82525050565b600060208201905061293d6000830184612919565b92915050565b600061294e82612759565b9050919050565b61295e81612943565b82525050565b60006020820190506129796000830184612955565b92915050565b6000806040838503121561299657612995612664565b5b60006129a4858286016128d7565b92505060206129b5858286016128d7565b9150509250929050565b60006129ca82612759565b9050919050565b6129da816129bf565b82525050565b60006020820190506129f560008301846129d1565b92915050565b60008060008060008060006080888a031215612a1a57612a19612664565b5b6000612a288a828b016128d7565b975050602088013567ffffffffffffffff811115612a4957612a48612669565b5b612a558a828b016127b6565b9650965050604088013567ffffffffffffffff811115612a7857612a77612669565b5b612a848a828b016127b6565b9450945050606088013567ffffffffffffffff811115612aa757612aa6612669565b5b612ab38a828b016127b6565b925092505092959891949750929550565b6000612acf82612759565b9050919050565b612adf81612ac4565b82525050565b6000602082019050612afa6000830184612ad6565b92915050565b6000612b0b82612759565b9050919050565b612b1b81612b00565b82525050565b6000602082019050612b366000830184612b12565b92915050565b6000612b4782612759565b9050919050565b612b5781612b3c565b82525050565b6000602082019050612b726000830184612b4e565b92915050565b7f4e487b7100000000000000000000000000000000000000000000000000000000600052601160045260246000fd5b6000612bb2826126f9565b9150612bbd836126f9565b9250828201905080821115612bd557612bd4612b78565b5b92915050565b600082825260208201905092915050565b7f43616e6e6f7420636c61696d20747769636520696e2073616d6520636c61696d60008201527f2065706f63680000000000000000000000000000000000000000000000000000602082015250565b6000612c48602683612bdb565b9150612c5382612bec565b604082019050919050565b60006020820190508181036000830152612c7781612c3b565b9050919050565b82818337600083830152505050565b6000601f19601f8301169050919050565b6000612caa8385612bdb565b9350612cb7838584612c7e565b612cc083612c8d565b840190509392505050565b600081519050919050565b600082825260208201905092915050565b6000819050602082019050919050565b612d00816126f9565b82525050565b6000612d128383612cf7565b60208301905092915050565b6000602082019050919050565b6000612d3682612ccb565b612d408185612cd6565b9350612d4b83612ce7565b8060005b83811015612d7c578151612d638882612d06565b9750612d6e83612d1e565b925050600181019050612d4f565b5085935050505092915050565b600060c082019050612d9e600083018c612919565b8181036020830152612db1818a8c612c9e565b9050612dc06040830189612919565b8181036060830152612dd3818789612c9e565b90508181036080830152612de8818587612c9e565b905081810360a0830152612dfc8184612d2b565b90509a9950505050505050505050565b600081519050612e1b816128c0565b92915050565b600060208284031215612e3757612e36612664565b5b6000612e4584828501612e0c565b91505092915050565b6000604082019050612e636000830185612919565b612e706020830184612703565b9392505050565b7f43616c6c6572206973206e6f742052657761726473446973747269627574696f60008201527f6e20636f6e747261637400000000000000000000000000000000000000000000602082015250565b6000612ed3602a83612bdb565b9150612ede82612e77565b604082019050919050565b60006020820190508181036000830152612f0281612ec6565b9050919050565b7f50726f76696465642072657761726420746f6f20686967680000000000000000600082015250565b6000612f3f601883612bdb565b9150612f4a82612f09565b602082019050919050565b60006020820190508181036000830152612f6e81612f32565b9050919050565b6000604082019050612f8a6000830185612919565b612f976020830184612919565b9392505050565b7f43616e6e6f742077697468647261772030000000000000000000000000000000600082015250565b6000612fd4601183612bdb565b9150612fdf82612f9e565b602082019050919050565b6000602082019050818103600083015261300381612fc7565b9050919050565b600081519050613019816126a0565b92915050565b60006020828403121561303557613034612664565b5b60006130438482850161300a565b91505092915050565b7f43616e6e6f7420646f776e677261646520736f6d656f6e6520656c736573207460008201527f7265650000000000000000000000000000000000000000000000000000000000602082015250565b60006130a8602383612bdb565b91506130b38261304c565b604082019050919050565b600060208201905081810360008301526130d78161309b565b9050919050565b7f43616e6e6f74207374616b652030000000000000000000000000000000000000600082015250565b6000613114600e83612bdb565b915061311f826130de565b602082019050919050565b6000602082019050818103600083015261314381613107565b9050919050565b600060408201905061315f6000830185612703565b61316c6020830184612703565b9392505050565b600061317e826126f9565b9150613189836126f9565b92508282039050818111156131a1576131a0612b78565b5b92915050565b60006131b2826126f9565b91506131bd836126f9565b92508282026131cb816126f9565b915082820484148315176131e2576131e1612b78565b5b5092915050565b7f4e487b7100000000000000000000000000000000000000000000000000000000600052601260045260246000fd5b6000613223826126f9565b915061322e836126f9565b92508261323e5761323d6131e9565b5b828204905092915050565b7f4e487b7100000000000000000000000000000000000000000000000000000000600052604160045260246000fd5b7f4e487b7100000000000000000000000000000000000000000000000000000000600052603260045260246000fd5b6000819050919050565b60006132cc6132c76132c2846132a7565b61272d565b6126f9565b9050919050565b6132dc816132b1565b82525050565b600081519050919050565b600082825260208201905092915050565b6000819050602082019050919050565b6133178161268e565b82525050565b6000613329838361330e565b60208301905092915050565b6000602082019050919050565b600061334d826132e2565b61335781856132ed565b9350613362836132fe565b8060005b8381101561339357815161337a888261331d565b975061338583613335565b925050600181019050613366565b5085935050505092915050565b600060a0820190506133b56000830188612703565b6133c260208301876132d3565b81810360408301526133d48186613342565b90506133e36060830185612919565b6133f06080830184612703565b9695505050505050565b61340382612c8d565b810181811067ffffffffffffffff8211171561342257613421613249565b5b80604052505050565b600061343561265a565b905061344182826133fa565b919050565b600067ffffffffffffffff82111561346157613460613249565b5b602082029050602081019050919050565b600061348561348084613446565b61342b565b905080838252602082019050602084028301858111156134a8576134a76127b1565b5b835b818110156134d157806134bd8882612e0c565b8452602084019350506020810190506134aa565b5050509392505050565b600082601f8301126134f0576134ef6127a7565b5b8151613500848260208601613472565b91505092915050565b60006020828403121561351f5761351e612664565b5b600082015167ffffffffffffffff81111561353d5761353c612669565b5b613549848285016134db565b91505092915050565b60006060820190506135676000830186612919565b6135746020830185612919565b6135816040830184612703565b949350505050565b60008115159050919050565b61359e81613589565b81146135a957600080fd5b50565b6000815190506135bb81613595565b92915050565b6000602082840312156135d7576135d6612664565b5b60006135e5848285016135ac565b91505092915050565b600081519050919050565b600081905092915050565b60005b83811015613622578082015181840152602081019050613607565b60008484015250505050565b6000613639826135ee565b61364381856135f9565b9350613653818560208601613604565b80840191505092915050565b600061366b828461362e565b91508190509291505056fea26469706673582212201e160b98be04dd4c3c766eb0561ab85b4e59ea5c7785a8327f9e0cbb8a539d4f64736f6c63430008140033",
  "linkReferences": {},
  "deployedLinkReferences": {}
}