{
  "_format": "hh-sol-artifact-1",
  "contractName": "GreenDonation",
  "sourceName": "contracts/GreenDonation.sol",
  "abi": [
    {
      "inputs": [
        {
          "internalType": "address",
          "name": "_rewardsDistribution",
          "type": "address"
        },
        {
          "internalType": "address",
          "name": "_rewardsToken",
          "type": "address"
        },
        {
          "internalType": "address",
          "name": "_stakingToken",
          "type": "address"
        },
        {
          "internalType": "uint256",
          "name": "_rewardsDuration",
          "type": "uint256"
        },
        {
          "internalType": "address",
          "name": "_swapRouter",
          "type": "address"
        },
        {
          "internalType": "address",
          "name": "_tc02",
          "type": "address"
        },
        {
          "internalType": "address",
          "name": "_retirementCertificate",
          "type": "address"
        },
        {
          "internalType": "address",
          "name": "_treeContract",
          "type": "address"
        },
        {
          "internalType": "address",
          "name": "_retirementCertificateEscrow",
          "type": "address"
        }
      ],
      "stateMutability": "nonpayable",
      "type": "constructor"
    },
    {
      "inputs": [
        {
          "internalType": "address",
          "name": "target",
          "type": "address"
        }
      ],
      "name": "AddressEmptyCode",
      "type": "error"
    },
    {
      "inputs": [
        {
          "internalType": "address",
          "name": "account",
          "type": "address"
        }
      ],
      "name": "AddressInsufficientBalance",
      "type": "error"
    },
    {
      "inputs": [],
      "name": "FailedInnerCall",
      "type": "error"
    },
    {
      "inputs": [
        {
          "internalType": "address",
          "name": "owner",
          "type": "address"
        }
      ],
      "name": "OwnableInvalidOwner",
      "type": "error"
    },
    {
      "inputs": [
        {
          "internalType": "address",
          "name": "account",
          "type": "address"
        }
      ],
      "name": "OwnableUnauthorizedAccount",
      "type": "error"
    },
    {
      "inputs": [],
      "name": "ReentrancyGuardReentrantCall",
      "type": "error"
    },
    {
      "inputs": [
        {
          "internalType": "address",
          "name": "token",
          "type": "address"
        }
      ],
      "name": "SafeERC20FailedOperation",
      "type": "error"
    },
    {
      "anonymous": false,
      "inputs": [
        {
          "indexed": true,
          "internalType": "address",
          "name": "previousOwner",
          "type": "address"
        },
        {
          "indexed": true,
          "internalType": "address",
          "name": "newOwner",
          "type": "address"
        }
      ],
      "name": "OwnershipTransferred",
      "type": "event"
    },
    {
      "anonymous": false,
      "inputs": [
        {
          "indexed": false,
          "internalType": "uint256",
          "name": "reward",
          "type": "uint256"
        }
      ],
      "name": "RewardAdded",
      "type": "event"
    },
    {
      "anonymous": false,
      "inputs": [
        {
          "indexed": true,
          "internalType": "uint256",
          "name": "tree",
          "type": "uint256"
        },
        {
          "indexed": false,
          "internalType": "address",
          "name": "user",
          "type": "address"
        },
        {
          "indexed": false,
          "internalType": "uint256",
          "name": "reward",
          "type": "uint256"
        }
      ],
      "name": "RewardPaid",
      "type": "event"
    },
    {
      "anonymous": false,
      "inputs": [
        {
          "indexed": false,
          "internalType": "uint256",
          "name": "oldInterval",
          "type": "uint256"
        },
        {
          "indexed": false,
          "internalType": "uint256",
          "name": "newInterval",
          "type": "uint256"
        }
      ],
      "name": "SetClaimInterval",
      "type": "event"
    },
    {
      "anonymous": false,
      "inputs": [
        {
          "indexed": false,
          "internalType": "uint256",
          "name": "oldRate",
          "type": "uint256"
        },
        {
          "indexed": false,
          "internalType": "uint256",
          "name": "newRate",
          "type": "uint256"
        }
      ],
      "name": "SetRedemptionRate",
      "type": "event"
    },
    {
      "anonymous": false,
      "inputs": [
        {
          "indexed": false,
          "internalType": "address",
          "name": "oldEscrow",
          "type": "address"
        },
        {
          "indexed": false,
          "internalType": "address",
          "name": "newEscrow",
          "type": "address"
        }
      ],
      "name": "SetRetirementCertificateEscrow",
      "type": "event"
    },
    {
      "anonymous": false,
      "inputs": [
        {
          "indexed": false,
          "internalType": "uint256",
          "name": "oldInterval",
          "type": "uint256"
        },
        {
          "indexed": false,
          "internalType": "uint256",
          "name": "newInterval",
          "type": "uint256"
        }
      ],
      "name": "SetStakeInterval",
      "type": "event"
    },
    {
      "anonymous": false,
      "inputs": [
        {
          "indexed": false,
          "internalType": "address",
          "name": "oldRouter",
          "type": "address"
        },
        {
          "indexed": false,
          "internalType": "address",
          "name": "newRouter",
          "type": "address"
        }
      ],
      "name": "SetSwapRouter",
      "type": "event"
    },
    {
      "anonymous": false,
      "inputs": [
        {
          "indexed": false,
          "internalType": "address",
          "name": "oldTreeContract",
          "type": "address"
        },
        {
          "indexed": false,
          "internalType": "address",
          "name": "newTreeContract",
          "type": "address"
        }
      ],
      "name": "SetTreeContract",
      "type": "event"
    },
    {
      "anonymous": false,
      "inputs": [
        {
          "indexed": true,
          "internalType": "uint256",
          "name": "tree",
          "type": "uint256"
        },
        {
          "indexed": false,
          "internalType": "address",
          "name": "user",
          "type": "address"
        },
        {
          "indexed": false,
          "internalType": "uint256",
          "name": "amount",
          "type": "uint256"
        }
      ],
      "name": "Staked",
      "type": "event"
    },
    {
      "anonymous": false,
      "inputs": [
        {
          "indexed": true,
          "internalType": "uint256",
          "name": "tree",
          "type": "uint256"
        },
        {
          "indexed": false,
          "internalType": "address",
          "name": "user",
          "type": "address"
        },
        {
          "indexed": false,
          "internalType": "uint256",
          "name": "amount",
          "type": "uint256"
        }
      ],
      "name": "Withdrawn",
      "type": "event"
    },
    {
      "inputs": [
        {
          "internalType": "uint256",
          "name": "tree",
          "type": "uint256"
        }
      ],
      "name": "balanceOf",
      "outputs": [
        {
          "internalType": "uint256",
          "name": "",
          "type": "uint256"
        }
      ],
      "stateMutability": "view",
      "type": "function"
    },
    {
      "inputs": [],
      "name": "claimInterval",
      "outputs": [
        {
          "internalType": "uint256",
          "name": "",
          "type": "uint256"
        }
      ],
      "stateMutability": "view",
      "type": "function"
    },
    {
      "inputs": [
        {
          "internalType": "uint256",
          "name": "tree",
          "type": "uint256"
        }
      ],
      "name": "earned",
      "outputs": [
        {
          "internalType": "uint256",
          "name": "",
          "type": "uint256"
        }
      ],
      "stateMutability": "view",
      "type": "function"
    },
    {
      "inputs": [
        {
          "internalType": "uint256",
          "name": "tree",
          "type": "uint256"
        },
        {
          "internalType": "uint256",
          "name": "minOut",
          "type": "uint256"
        },
        {
          "internalType": "uint256",
          "name": "deadline",
          "type": "uint256"
        }
      ],
      "name": "exit",
      "outputs": [],
      "stateMutability": "nonpayable",
      "type": "function"
    },
    {
      "inputs": [],
      "name": "getMinimumStake",
      "outputs": [
        {
          "internalType": "uint256",
          "name": "",
          "type": "uint256"
        }
      ],
      "stateMutability": "view",
      "type": "function"
    },
    {
      "inputs": [
        {
          "internalType": "uint256",
          "name": "tree",
          "type": "uint256"
        }
      ],
      "name": "getNoOfTimesStakeForTree",
      "outputs": [
        {
          "internalType": "uint256",
          "name": "",
          "type": "uint256"
        }
      ],
      "stateMutability": "view",
      "type": "function"
    },
    {
      "inputs": [
        {
          "internalType": "uint256",
          "name": "tree",
          "type": "uint256"
        },
        {
          "internalType": "uint256",
          "name": "minOut",
          "type": "uint256"
        },
        {
          "internalType": "uint256",
          "name": "deadline",
          "type": "uint256"
        }
      ],
      "name": "getReward",
      "outputs": [],
      "stateMutability": "nonpayable",
      "type": "function"
    },
    {
      "inputs": [],
      "name": "getRewardForDuration",
      "outputs": [
        {
          "internalType": "uint256",
          "name": "",
          "type": "uint256"
        }
      ],
      "stateMutability": "view",
      "type": "function"
    },
    {
      "inputs": [
        {
          "internalType": "uint256",
          "name": "",
          "type": "uint256"
        }
      ],
      "name": "lastClaimTimestamp",
      "outputs": [
        {
          "internalType": "uint256",
          "name": "",
          "type": "uint256"
        }
      ],
      "stateMutability": "view",
      "type": "function"
    },
    {
      "inputs": [
        {
          "internalType": "uint256",
          "name": "",
          "type": "uint256"
        }
      ],
      "name": "lastStakeTimestamp",
      "outputs": [
        {
          "internalType": "uint256",
          "name": "",
          "type": "uint256"
        }
      ],
      "stateMutability": "view",
      "type": "function"
    },
    {
      "inputs": [],
      "name": "lastTimeRewardApplicable",
      "outputs": [
        {
          "internalType": "uint256",
          "name": "",
          "type": "uint256"
        }
      ],
      "stateMutability": "view",
      "type": "function"
    },
    {
      "inputs": [],
      "name": "lastUpdateTime",
      "outputs": [
        {
          "internalType": "uint256",
          "name": "",
          "type": "uint256"
        }
      ],
      "stateMutability": "view",
      "type": "function"
    },
    {
      "inputs": [],
      "name": "minimumStake",
      "outputs": [
        {
          "internalType": "uint256",
          "name": "",
          "type": "uint256"
        }
      ],
      "stateMutability": "view",
      "type": "function"
    },
    {
      "inputs": [
        {
          "internalType": "uint256",
          "name": "",
          "type": "uint256"
        }
      ],
      "name": "noOfTimesStakedForTree",
      "outputs": [
        {
          "internalType": "uint256",
          "name": "",
          "type": "uint256"
        }
      ],
      "stateMutability": "view",
      "type": "function"
    },
    {
      "inputs": [
        {
          "internalType": "uint256",
          "name": "reward",
          "type": "uint256"
        }
      ],
      "name": "notifyRewardAmount",
      "outputs": [],
      "stateMutability": "nonpayable",
      "type": "function"
    },
    {
      "inputs": [
        {
          "internalType": "address",
          "name": "",
          "type": "address"
        },
        {
          "internalType": "address",
          "name": "from",
          "type": "address"
        },
        {
          "internalType": "uint256",
          "name": "tokenId",
          "type": "uint256"
        },
        {
          "internalType": "bytes",
          "name": "",
          "type": "bytes"
        }
      ],
      "name": "onERC721Received",
      "outputs": [
        {
          "internalType": "bytes4",
          "name": "",
          "type": "bytes4"
        }
      ],
      "stateMutability": "nonpayable",
      "type": "function"
    },
    {
      "inputs": [],
      "name": "owner",
      "outputs": [
        {
          "internalType": "address",
          "name": "",
          "type": "address"
        }
      ],
      "stateMutability": "view",
      "type": "function"
    },
    {
      "inputs": [],
      "name": "periodFinish",
      "outputs": [
        {
          "internalType": "uint256",
          "name": "",
          "type": "uint256"
        }
      ],
      "stateMutability": "view",
      "type": "function"
    },
    {
      "inputs": [],
      "name": "redemptionRate",
      "outputs": [
        {
          "internalType": "uint256",
          "name": "",
          "type": "uint256"
        }
      ],
      "stateMutability": "view",
      "type": "function"
    },
    {
      "inputs": [],
      "name": "renounceOwnership",
      "outputs": [],
      "stateMutability": "nonpayable",
      "type": "function"
    },
    {
      "inputs": [],
      "name": "retirementCertificate",
      "outputs": [
        {
          "internalType": "contract IRetirementCertificates",
          "name": "",
          "type": "address"
        }
      ],
      "stateMutability": "view",
      "type": "function"
    },
    {
      "inputs": [],
      "name": "retirementCertificateEscrow",
      "outputs": [
        {
          "internalType": "contract RetirementCertificateEscrow",
          "name": "",
          "type": "address"
        }
      ],
      "stateMutability": "view",
      "type": "function"
    },
    {
      "inputs": [],
      "name": "rewardPerToken",
      "outputs": [
        {
          "internalType": "uint256",
          "name": "",
          "type": "uint256"
        }
      ],
      "stateMutability": "view",
      "type": "function"
    },
    {
      "inputs": [],
      "name": "rewardPerTokenStored",
      "outputs": [
        {
          "internalType": "uint256",
          "name": "",
          "type": "uint256"
        }
      ],
      "stateMutability": "view",
      "type": "function"
    },
    {
      "inputs": [],
      "name": "rewardRate",
      "outputs": [
        {
          "internalType": "uint256",
          "name": "",
          "type": "uint256"
        }
      ],
      "stateMutability": "view",
      "type": "function"
    },
    {
      "inputs": [
        {
          "internalType": "uint256",
          "name": "",
          "type": "uint256"
        }
      ],
      "name": "rewards",
      "outputs": [
        {
          "internalType": "uint256",
          "name": "",
          "type": "uint256"
        }
      ],
      "stateMutability": "view",
      "type": "function"
    },
    {
      "inputs": [],
      "name": "rewardsDistribution",
      "outputs": [
        {
          "internalType": "address",
          "name": "",
          "type": "address"
        }
      ],
      "stateMutability": "view",
      "type": "function"
    },
    {
      "inputs": [],
      "name": "rewardsDuration",
      "outputs": [
        {
          "internalType": "uint256",
          "name": "",
          "type": "uint256"
        }
      ],
      "stateMutability": "view",
      "type": "function"
    },
    {
      "inputs": [],
      "name": "rewardsToken",
      "outputs": [
        {
          "internalType": "contract IERC20",
          "name": "",
          "type": "address"
        }
      ],
      "stateMutability": "view",
      "type": "function"
    },
    {
      "inputs": [
        {
          "internalType": "uint256",
          "name": "interval",
          "type": "uint256"
        }
      ],
      "name": "setClaimInterval",
      "outputs": [],
      "stateMutability": "nonpayable",
      "type": "function"
    },
    {
      "inputs": [
        {
          "internalType": "uint256",
          "name": "rate",
          "type": "uint256"
        }
      ],
      "name": "setRedemptionRate",
      "outputs": [],
      "stateMutability": "nonpayable",
      "type": "function"
    },
    {
      "inputs": [
        {
          "internalType": "address",
          "name": "_escrow",
          "type": "address"
        }
      ],
      "name": "setRetirementCertificateEscrow",
      "outputs": [],
      "stateMutability": "nonpayable",
      "type": "function"
    },
    {
      "inputs": [
        {
          "internalType": "uint256",
          "name": "interval",
          "type": "uint256"
        }
      ],
      "name": "setStakeInterval",
      "outputs": [],
      "stateMutability": "nonpayable",
      "type": "function"
    },
    {
      "inputs": [
        {
          "internalType": "address",
          "name": "router",
          "type": "address"
        }
      ],
      "name": "setSwapRouter",
      "outputs": [],
      "stateMutability": "nonpayable",
      "type": "function"
    },
    {
      "inputs": [
        {
          "internalType": "address",
          "name": "_treeContract",
          "type": "address"
        }
      ],
      "name": "setTreeContract",
      "outputs": [],
      "stateMutability": "nonpayable",
      "type": "function"
    },
    {
      "inputs": [
        {
          "internalType": "uint256",
          "name": "tree",
          "type": "uint256"
        },
        {
          "internalType": "uint256",
          "name": "amount",
          "type": "uint256"
        }
      ],
      "name": "stake",
      "outputs": [],
      "stateMutability": "nonpayable",
      "type": "function"
    },
    {
      "inputs": [],
      "name": "stakeInterval",
      "outputs": [
        {
          "internalType": "uint256",
          "name": "",
          "type": "uint256"
        }
      ],
      "stateMutability": "view",
      "type": "function"
    },
    {
      "inputs": [],
      "name": "stakingToken",
      "outputs": [
        {
          "internalType": "contract IERC20",
          "name": "",
          "type": "address"
        }
      ],
      "stateMutability": "view",
      "type": "function"
    },
    {
      "inputs": [],
      "name": "swapRotuer",
      "outputs": [
        {
          "internalType": "contract IUniswapV2Router02",
          "name": "",
          "type": "address"
        }
      ],
      "stateMutability": "view",
      "type": "function"
    },
    {
      "inputs": [],
      "name": "tc02",
      "outputs": [
        {
          "internalType": "contract ITC02",
          "name": "",
          "type": "address"
        }
      ],
      "stateMutability": "view",
      "type": "function"
    },
    {
      "inputs": [],
      "name": "totalSupply",
      "outputs": [
        {
          "internalType": "uint256",
          "name": "",
          "type": "uint256"
        }
      ],
      "stateMutability": "view",
      "type": "function"
    },
    {
      "inputs": [
        {
          "internalType": "address",
          "name": "newOwner",
          "type": "address"
        }
      ],
      "name": "transferOwnership",
      "outputs": [],
      "stateMutability": "nonpayable",
      "type": "function"
    },
    {
      "inputs": [],
      "name": "treeContract",
      "outputs": [
        {
          "internalType": "contract TreeContract",
          "name": "",
          "type": "address"
        }
      ],
      "stateMutability": "view",
      "type": "function"
    },
    {
      "inputs": [
        {
          "internalType": "uint256",
          "name": "",
          "type": "uint256"
        }
      ],
      "name": "userRewardPerTokenPaid",
      "outputs": [
        {
          "internalType": "uint256",
          "name": "",
          "type": "uint256"
        }
      ],
      "stateMutability": "view",
      "type": "function"
    },
    {
      "inputs": [
        {
          "internalType": "uint256",
          "name": "tree",
          "type": "uint256"
        },
        {
          "internalType": "uint256",
          "name": "amount",
          "type": "uint256"
        }
      ],
      "name": "withdraw",
      "outputs": [],
      "stateMutability": "nonpayable",
      "type": "function"
    }
  ],
  "bytecode": "0x608060405260006005556000600855600a8055670de0b6b3a7640000600f5562093a8060105562093a806011553480156200003957600080fd5b5060405162002737380380620027378339810160408190526200005c916200028d565b6001805533806200008757604051631e4fbdf760e01b81526000600482015260240160405180910390fd5b62000092816200021e565b50600380546001600160a01b03199081166001600160a01b038b8116919091179092556004805482168a841690811782556000805484168e861617905560078a90556017805484168a861617905560158054841689861617905560168054841687861617905560188054841688861617905560198054909316938516939093179091556040805163313ce56760e01b8152905163313ce567928281019260209291908290030181865afa1580156200014e573d6000803e3d6000fd5b505050506040513d601f19601f820116820180604052508101906200017491906200033f565b6200018190600a62000480565b6200018e90600162000491565b600f5560035460175460405163095ea7b360e01b81526001600160a01b039182166004820152600019602482015291169063095ea7b3906044016020604051808303816000875af1158015620001e8573d6000803e3d6000fd5b505050506040513d601f19601f820116820180604052508101906200020e9190620004ab565b50505050505050505050620004cf565b600280546001600160a01b038381166001600160a01b0319831681179093556040519116919082907f8be0079c531659141344cd1fd0a4f28419497f9722a3daafe3b4186f6b6457e090600090a35050565b80516001600160a01b03811681146200028857600080fd5b919050565b60008060008060008060008060006101208a8c031215620002ad57600080fd5b620002b88a62000270565b9850620002c860208b0162000270565b9750620002d860408b0162000270565b965060608a01519550620002ef60808b0162000270565b9450620002ff60a08b0162000270565b93506200030f60c08b0162000270565b92506200031f60e08b0162000270565b9150620003306101008b0162000270565b90509295985092959850929598565b6000602082840312156200035257600080fd5b815160ff811681146200036457600080fd5b9392505050565b634e487b7160e01b600052601160045260246000fd5b600181815b80851115620003c2578160001904821115620003a657620003a66200036b565b80851615620003b457918102915b93841c939080029062000386565b509250929050565b600082620003db575060016200047a565b81620003ea575060006200047a565b81600181146200040357600281146200040e576200042e565b60019150506200047a565b60ff8411156200042257620004226200036b565b50506001821b6200047a565b5060208310610133831016604e8410600b841016171562000453575081810a6200047a565b6200045f838362000381565b80600019048211156200047657620004766200036b565b0290505b92915050565b60006200036460ff841683620003ca565b80820281158282048414176200047a576200047a6200036b565b600060208284031215620004be57600080fd5b815180151581146200036457600080fd5b61225880620004df6000396000f3fe608060405234801561001057600080fd5b50600436106102ff5760003560e01c806380faa57d1161019c578063d1af0c7d116100ee578063ebe2b12b11610097578063f2fde38b11610071578063f2fde38b14610630578063f301af4214610643578063f5b88ac21461066357600080fd5b8063ebe2b12b1461060b578063ec5ffac214610614578063f2d57adf1461061d57600080fd5b8063d9bbd278116100c8578063d9bbd278146105da578063df136d65146105e2578063e65cd766146105eb57600080fd5b8063d1af0c7d146105ab578063d65a5623146105be578063d9a29930146105c757600080fd5b80639ce12ae511610150578063bc852d501161012a578063bc852d5014610587578063c8f33c911461059a578063cd3daf9d146105a357600080fd5b80639ce12ae51461054e578063afd0ad2414610561578063b6b2196d1461057457600080fd5b80638da5cb5b116101815780638da5cb5b146104fd5780639a9003941461050e5780639cc7f7081461052e57600080fd5b806380faa57d146104d55780638b15c278146104dd57600080fd5b806340cf1c951161025557806358c836211161020957806372f702f3116101e357806372f702f3146104a65780637b0472f0146104b95780637b0a47ee146104cc57600080fd5b806358c836211461046b5780636c6f858b1461047e578063715018a61461049e57600080fd5b8063441a3e701161023a578063441a3e701461043c5780634d6ed8c41461044f578063540385a31461046257600080fd5b806340cf1c9514610416578063412736571461042957600080fd5b80631c1f78eb116102b757806339d8ad701161029157806339d8ad70146103dd5780633c6b16ab146103f05780633fc6df6e1461040357600080fd5b80631c1f78eb146103ac5780632b84bf0d146103b4578063386a9525146103d457600080fd5b8063150b7a02116102e8578063150b7a021461033557806318160ddd14610379578063188d24711461038157600080fd5b80630b433a12146103045780630bacec2114610320575b600080fd5b61030d60105481565b6040519081526020015b60405180910390f35b61033361032e366004611cf5565b610676565b005b610348610343366004611d36565b610a61565b6040517fffffffff000000000000000000000000000000000000000000000000000000009091168152602001610317565b600d5461030d565b601954610394906001600160a01b031681565b6040516001600160a01b039091168152602001610317565b61030d610ae9565b61030d6103c2366004611dd5565b60136020526000908152604090205481565b61030d60075481565b6103336103eb366004611cf5565b610b07565b6103336103fe366004611dd5565b610b2c565b600054610394906001600160a01b031681565b601654610394906001600160a01b031681565b610333610437366004611dee565b610d93565b61033361044a366004611e0b565b610e1c565b61030d61045d366004611dd5565b611085565b61030d600a5481565b610333610479366004611dee565b6110e9565b61030d61048c366004611dd5565b600b6020526000908152604090205481565b61033361116f565b600454610394906001600160a01b031681565b6103336104c7366004611e0b565b611183565b61030d60055481565b61030d6114f2565b61030d6104eb366004611dd5565b60009081526014602052604090205490565b6002546001600160a01b0316610394565b61030d61051c366004611dd5565b60126020526000908152604090205481565b61030d61053c366004611dd5565b6000908152600e602052604090205490565b601854610394906001600160a01b031681565b61033361056f366004611dd5565b611500565b610333610582366004611dd5565b61155a565b601754610394906001600160a01b031681565b61030d60065481565b61030d6115b4565b600354610394906001600160a01b031681565b61030d60115481565b6103336105d5366004611dee565b6115ff565b600f5461030d565b61030d60095481565b61030d6105f9366004611dd5565b60146020526000908152604090205481565b61030d60085481565b61030d600f5481565b61033361062b366004611dd5565b611685565b61033361063e366004611dee565b6116df565b61030d610651366004611dd5565b600c6020526000908152604090205481565b601554610394906001600160a01b031681565b61067e611733565b826106876115b4565b6009556106926114f2565b60065580156106c6576106a481611085565b6000828152600c6020908152604080832093909355600954600b909152919020555b601054600085815260136020526040902054859142916106e69190611e43565b11156107485760405162461bcd60e51b815260206004820152602660248201527f43616e6e6f7420636c61696d20747769636520696e2073616d6520636c61696d604482015265040cae0dec6d60d31b60648201526084015b60405180910390fd5b6016546040516331a9108f60e11b8152600481018790528691339182916001600160a01b031690636352211e90602401602060405180830381865afa158015610795573d6000803e3d6000fd5b505050506040513d601f19601f820116820180604052508101906107b99190611e56565b6001600160a01b0316146108005760405162461bcd60e51b815260206004820152600e60248201526d2737ba103a3932b29037bbb732b960911b604482015260640161073f565b6000878152600c60205260409020548015610a4e576000888152600c6020908152604080832083905560139091528120429055600a5461084e90606490610848908590611776565b90611789565b90506108713361085e8484611795565b6003546001600160a01b031691906117a1565b887f04492fab062412e7e4e5f46c9e919f1640652946a5e163ad6e6c1c03d87954d23361089e8585611795565b604080516001600160a01b03909316835260208301919091520160405180910390a26018546000906001600160a01b031663163c131930336108e96108e4878f8f611815565b611969565b6040518463ffffffff1660e01b815260040161090793929190611eae565b6020604051808303816000875af1158015610926573d6000803e3d6000fd5b505050506040513d601f19601f8201168201806040525081019061094a9190611ff8565b6018546019546040517f095ea7b30000000000000000000000000000000000000000000000000000000081526001600160a01b03918216600482015260248101849052929350169063095ea7b390604401600060405180830381600087803b1580156109b557600080fd5b505af11580156109c9573d6000803e3d6000fd5b50506019546040517f4261fbbc000000000000000000000000000000000000000000000000000000008152600481018e9052602481018590526001600160a01b039091169250634261fbbc9150604401600060405180830381600087803b158015610a3357600080fd5b505af1158015610a47573d6000803e3d6000fd5b5050505050505b5050505050610a5c60018055565b505050565b6018546000906001600160a01b03163314610abe5760405162461bcd60e51b815260206004820152601a60248201527f4e6f74207265746972656d656e74206365727469666963617465000000000000604482015260640161073f565b507f150b7a020000000000000000000000000000000000000000000000000000000095945050505050565b6000610b0260075460055461177690919063ffffffff16565b905090565b6000838152600e6020526040902054610b21908490610e1c565b610a5c838383610676565b6000546001600160a01b03163314610bac5760405162461bcd60e51b815260206004820152602a60248201527f43616c6c6572206973206e6f742052657761726473446973747269627574696f60448201527f6e20636f6e747261637400000000000000000000000000000000000000000000606482015260840161073f565b6000610bb66115b4565b600955610bc16114f2565b6006558015610bf557610bd381611085565b6000828152600c6020908152604080832093909355600954600b909152919020555b6008544210610c1457600754610c0c908390611789565b600555610c57565b600854600090610c249042611795565b90506000610c3d6005548361177690919063ffffffff16565b600754909150610c51906108488684611a3a565b60055550505b6003546040517f70a082310000000000000000000000000000000000000000000000000000000081523060048201526000916001600160a01b0316906370a0823190602401602060405180830381865afa158015610cb9573d6000803e3d6000fd5b505050506040513d601f19601f82011682018060405250810190610cdd9190611ff8565b9050610cf46007548261178990919063ffffffff16565b6005541115610d455760405162461bcd60e51b815260206004820152601860248201527f50726f76696465642072657761726420746f6f20686967680000000000000000604482015260640161073f565b426006819055600754610d589190611a3a565b6008556040518381527fde88a922e0d3b88b24e9623efeb464919c6bf9f66857a65e2bfcf2ce87a9433d9060200160405180910390a1505050565b610d9b611733565b610da3611a46565b601754604080516001600160a01b03928316815291831660208301527f363499fd428e59a25f711ed7c86a7e7029242e3f1066dcbc0bc0e49fb0bfb90e910160405180910390a16017805473ffffffffffffffffffffffffffffffffffffffff19166001600160a01b0383161790556001805550565b50565b610e24611733565b81610e2d6115b4565b600955610e386114f2565b6006558015610e6c57610e4a81611085565b6000828152600c6020908152604080832093909355600954600b909152919020555b6016546040516331a9108f60e11b8152600481018590528491339182916001600160a01b031690636352211e90602401602060405180830381865afa158015610eb9573d6000803e3d6000fd5b505050506040513d601f19601f82011682018060405250810190610edd9190611e56565b6001600160a01b031614610f245760405162461bcd60e51b815260206004820152600e60248201526d2737ba103a3932b29037bbb732b960911b604482015260640161073f565b60008411610f745760405162461bcd60e51b815260206004820152601160248201527f43616e6e6f742077697468647261772030000000000000000000000000000000604482015260640161073f565b600d54610f819085611795565b600d556000858152600e6020526040902054610f9d9085611795565b6000868152600e6020526040902055600454610fc3906001600160a01b031633866117a1565b604080513381526020810186905286917fcf7d23a3cbe4e8b36ff82fd1b05b1b17373dc7804b4ebbd6e2356716ef202372910160405180910390a26016546040517fe3a3ed75000000000000000000000000000000000000000000000000000000008152600481018790526001600160a01b039091169063e3a3ed7590602401600060405180830381600087803b15801561105d57600080fd5b505af1158015611071573d6000803e3d6000fd5b5050505050505061108160018055565b5050565b6000818152600c6020908152604080832054600b9092528220546110e391906110dd90670de0b6b3a764000090610848906110c8906110c26115b4565b90611795565b6000888152600e602052604090205490611776565b90611a3a565b92915050565b6110f1611733565b6110f9611a46565b601954604080516001600160a01b03928316815291831660208301527f89bd2768fd7547268736aac7cd37faa074c71f109b7c98d22f28c55629c0279d910160405180910390a16019805473ffffffffffffffffffffffffffffffffffffffff19166001600160a01b0383161790556001805550565b611177611a46565b6111816000611a8c565b565b61118b611733565b816111946115b4565b60095561119f6114f2565b60065580156111d3576111b181611085565b6000828152600c6020908152604080832093909355600954600b909152919020555b6016546040516331a9108f60e11b8152600481018590528491339182916001600160a01b031690636352211e90602401602060405180830381865afa158015611220573d6000803e3d6000fd5b505050506040513d601f19601f820116820180604052508101906112449190611e56565b6001600160a01b03161461128b5760405162461bcd60e51b815260206004820152600e60248201526d2737ba103a3932b29037bbb732b960911b604482015260640161073f565b601154600086815260126020526040902054869142916112ab9190611e43565b11156113085760405162461bcd60e51b815260206004820152602660248201527f43616e6e6f74207374616b6520747769636520696e2073616d65207374616b65604482015265040cae0dec6d60d31b606482015260840161073f565b600085116113585760405162461bcd60e51b815260206004820152600e60248201527f43616e6e6f74207374616b652030000000000000000000000000000000000000604482015260640161073f565b600f5485116113a95760405162461bcd60e51b815260206004820152601560248201527f4d696e696d756d207374616b65206e6f74206d65740000000000000000000000604482015260640161073f565b6000868152601260209081526040808320429055601490915281208054916113d083612011565b90915550600087815260146020526040902055600d546113f09086611a3a565b600d556000868152600e602052604090205461140c9086611a3a565b6000878152600e6020526040902055600454611433906001600160a01b0316333088611aeb565b604080513381526020810187905287917f18dcd430020e4d4899772fd94a8b40451dc5044dfb70bc46b532eeae431c864f910160405180910390a26016546040517f998b723b000000000000000000000000000000000000000000000000000000008152600481018890526001600160a01b039091169063998b723b90602401600060405180830381600087803b1580156114cd57600080fd5b505af11580156114e1573d6000803e3d6000fd5b505050505050505061108160018055565b6000610b0242600854611b2a565b611508611733565b611510611a46565b60115460408051918252602082018390527f81bcb02d68febf19da99b7f1865027fb3c7ee053a96432d25b73e9f1312db167910160405180910390a16011819055610e1960018055565b611562611733565b61156a611a46565b600a5460408051918252602082018390527fedefe983f89001709210ceef022f11cb0e311b7b13b70d7df8d0b2f6707cff86910160405180910390a1600a819055610e1960018055565b6000600d546000036115c7575060095490565b610b026115f6600d54610848670de0b6b3a76400006115f06005546115f06006546110c26114f2565b90611776565b60095490611a3a565b611607611733565b61160f611a46565b601654604080516001600160a01b03928316815291831660208301527f97e184ff06e0f2dd43ea90aa42d61e72d7fe8934155b00bfd5a31c31e896878f910160405180910390a16016805473ffffffffffffffffffffffffffffffffffffffff19166001600160a01b0383161790556001805550565b61168d611733565b611695611a46565b60105460408051918252602082018390527f0d8e7a61135a0b471ca4c20f606c82e40bfdfa34727d5bb209bda99fdaf9d6c1910160405180910390a16010819055610e1960018055565b6116e7611a46565b6001600160a01b03811661172a576040517f1e4fbdf70000000000000000000000000000000000000000000000000000000081526000600482015260240161073f565b610e1981611a8c565b60026001540361176f576040517f3ee5aeb500000000000000000000000000000000000000000000000000000000815260040160405180910390fd5b6002600155565b6000611782828461202a565b9392505050565b60006117828284612041565b60006117828284612063565b6040516001600160a01b03838116602483015260448201839052610a5c91859182169063a9059cbb906064015b604051602081830303815290604052915060e01b6020820180517bffffffffffffffffffffffffffffffffffffffffffffffffffffffff8381831617835250505050611b40565b60408051600280825260608201835260009283929190602083019080368337505060035482519293506001600160a01b03169183915060009061185a5761185a61208c565b6001600160a01b03928316602091820292909201015260155482519116908290600190811061188b5761188b61208c565b6001600160a01b0392831660209182029290920101526017546040517f38ed173900000000000000000000000000000000000000000000000000000000815260009291909116906338ed1739906118ee9089908990879030908b906004016120a2565b6000604051808303816000875af115801561190d573d6000803e3d6000fd5b505050506040513d6000823e601f3d908101601f191682016040526119359190810190612113565b905080600182516119469190612063565b815181106119565761195661208c565b6020026020010151925050509392505050565b6040805160018082528183019092526060916000919060208083019080368337019050506015546040517f3790cf57000000000000000000000000000000000000000000000000000000008152600481018690529192506001600160a01b031690633790cf57906024016020604051808303816000875af11580156119f2573d6000803e3d6000fd5b505050506040513d601f19601f82011682018060405250810190611a169190611ff8565b81600081518110611a2957611a2961208c565b602090810291909101015292915050565b60006117828284611e43565b6002546001600160a01b03163314611181576040517f118cdaa700000000000000000000000000000000000000000000000000000000815233600482015260240161073f565b600280546001600160a01b0383811673ffffffffffffffffffffffffffffffffffffffff19831681179093556040519116919082907f8be0079c531659141344cd1fd0a4f28419497f9722a3daafe3b4186f6b6457e090600090a35050565b6040516001600160a01b038481166024830152838116604483015260648201839052611b249186918216906323b872dd906084016117ce565b50505050565b6000818310611b395781611782565b5090919050565b6000611b556001600160a01b03841683611bbc565b90508051600014158015611b7a575080806020019051810190611b7891906121d1565b155b15610a5c576040517f5274afe70000000000000000000000000000000000000000000000000000000081526001600160a01b038416600482015260240161073f565b60606117828383600084600080856001600160a01b03168486604051611be291906121f3565b60006040518083038185875af1925050503d8060008114611c1f576040519150601f19603f3d011682016040523d82523d6000602084013e611c24565b606091505b5091509150611c34868383611c3e565b9695505050505050565b606082611c5357611c4e82611cb3565b611782565b8151158015611c6a57506001600160a01b0384163b155b15611cac576040517f9996b3150000000000000000000000000000000000000000000000000000000081526001600160a01b038516600482015260240161073f565b5080611782565b805115611cc35780518082602001fd5b6040517f1425ea4200000000000000000000000000000000000000000000000000000000815260040160405180910390fd5b600080600060608486031215611d0a57600080fd5b505081359360208301359350604090920135919050565b6001600160a01b0381168114610e1957600080fd5b600080600080600060808688031215611d4e57600080fd5b8535611d5981611d21565b94506020860135611d6981611d21565b935060408601359250606086013567ffffffffffffffff80821115611d8d57600080fd5b818801915088601f830112611da157600080fd5b813581811115611db057600080fd5b896020828501011115611dc257600080fd5b9699959850939650602001949392505050565b600060208284031215611de757600080fd5b5035919050565b600060208284031215611e0057600080fd5b813561178281611d21565b60008060408385031215611e1e57600080fd5b50508035926020909101359150565b634e487b7160e01b600052601160045260246000fd5b808201808211156110e3576110e3611e2d565b600060208284031215611e6857600080fd5b815161178281611d21565b600081518084526020808501945080840160005b83811015611ea357815187529582019590820190600101611e87565b509495945050505050565b60006001600160a01b03808616835260c06020840152602260c08401527f496e746f2054686520566572736520477265656e20446f6e6174696f6e20557360e08401527f6572000000000000000000000000000000000000000000000000000000000000610100840152610120818616604085015280606085015260298185015250507f496e746f2054686520566573726520477265656e20446f6e6174696f6e2042656101408301527f6e65666963696172790000000000000000000000000000000000000000000000610160830152610180806080840152611fe4818401602881527f496e746f2074686520566572736520477265656e20446f6e6174696f6e20526560208201527f746972656d656e74000000000000000000000000000000000000000000000000604082015260600190565b905082810360a0840152611c348185611e73565b60006020828403121561200a57600080fd5b5051919050565b60006001820161202357612023611e2d565b5060010190565b80820281158282048414176110e3576110e3611e2d565b60008261205e57634e487b7160e01b600052601260045260246000fd5b500490565b818103818111156110e3576110e3611e2d565b634e487b7160e01b600052604160045260246000fd5b634e487b7160e01b600052603260045260246000fd5b600060a082018783526020878185015260a0604085015281875180845260c086019150828901935060005b818110156120f25784516001600160a01b0316835293830193918301916001016120cd565b50506001600160a01b03969096166060850152505050608001529392505050565b6000602080838503121561212657600080fd5b825167ffffffffffffffff8082111561213e57600080fd5b818501915085601f83011261215257600080fd5b81518181111561216457612164612076565b8060051b604051601f19603f8301168101818110858211171561218957612189612076565b6040529182528482019250838101850191888311156121a757600080fd5b938501935b828510156121c5578451845293850193928501926121ac565b98975050505050505050565b6000602082840312156121e357600080fd5b8151801515811461178257600080fd5b6000825160005b8181101561221457602081860181015185830152016121fa565b50600092019182525091905056fea2646970667358221220631c705b18fa58c1a18651c1a3da54a7f542fc7e4ab03977068e2138cc51ecd164736f6c63430008140033",
  "linkReferences": {},
  "deployedLinkReferences": {}
}