{
  "_format": "hh-sol-artifact-1",
  "contractName": "NftMarketplace",
  "sourceName": "contracts/NftMarketplace.sol",
  "abi": [
    {
      "inputs": [
        {
          "internalType": "address",
          "name": "_swapRouter",
          "type": "address"
        },
        {
          "internalType": "address",
          "name": "_tc02",
          "type": "address"
        },
        {
          "internalType": "address",
          "name": "_retirementCertificate",
          "type": "address"
        },
        {
          "internalType": "address",
          "name": "_retirementCertificateEscrow",
          "type": "address"
        },
        {
          "internalType": "address",
          "name": "_wrappedNativeToken",
          "type": "address"
        }
      ],
      "stateMutability": "nonpayable",
      "type": "constructor"
    },
    {
      "inputs": [
        {
          "internalType": "address",
          "name": "nftAddress",
          "type": "address"
        },
        {
          "internalType": "uint256",
          "name": "tokenId",
          "type": "uint256"
        }
      ],
      "name": "AlreadyListed",
      "type": "error"
    },
    {
      "inputs": [
        {
          "internalType": "address",
          "name": "nftAddress",
          "type": "address"
        }
      ],
      "name": "NFTNotWhilelisted",
      "type": "error"
    },
    {
      "inputs": [],
      "name": "NoProceeds",
      "type": "error"
    },
    {
      "inputs": [],
      "name": "NotApprovedForMarketplace",
      "type": "error"
    },
    {
      "inputs": [
        {
          "internalType": "address",
          "name": "nftAddress",
          "type": "address"
        },
        {
          "internalType": "uint256",
          "name": "tokenId",
          "type": "uint256"
        }
      ],
      "name": "NotListed",
      "type": "error"
    },
    {
      "inputs": [],
      "name": "NotOwner",
      "type": "error"
    },
    {
      "inputs": [
        {
          "internalType": "address",
          "name": "owner",
          "type": "address"
        }
      ],
      "name": "OwnableInvalidOwner",
      "type": "error"
    },
    {
      "inputs": [
        {
          "internalType": "address",
          "name": "account",
          "type": "address"
        }
      ],
      "name": "OwnableUnauthorizedAccount",
      "type": "error"
    },
    {
      "inputs": [],
      "name": "PriceMustBeAboveZero",
      "type": "error"
    },
    {
      "inputs": [
        {
          "internalType": "address",
          "name": "nftAddress",
          "type": "address"
        },
        {
          "internalType": "uint256",
          "name": "tokenId",
          "type": "uint256"
        },
        {
          "internalType": "uint256",
          "name": "price",
          "type": "uint256"
        }
      ],
      "name": "PriceNotMet",
      "type": "error"
    },
    {
      "inputs": [],
      "name": "ReentrancyGuardReentrantCall",
      "type": "error"
    },
    {
      "anonymous": false,
      "inputs": [
        {
          "indexed": true,
          "internalType": "address",
          "name": "buyer",
          "type": "address"
        },
        {
          "indexed": true,
          "internalType": "address",
          "name": "nftAddress",
          "type": "address"
        },
        {
          "indexed": true,
          "internalType": "uint256",
          "name": "tokenId",
          "type": "uint256"
        },
        {
          "indexed": false,
          "internalType": "uint256",
          "name": "price",
          "type": "uint256"
        }
      ],
      "name": "ItemBought",
      "type": "event"
    },
    {
      "anonymous": false,
      "inputs": [
        {
          "indexed": true,
          "internalType": "address",
          "name": "seller",
          "type": "address"
        },
        {
          "indexed": true,
          "internalType": "address",
          "name": "nftAddress",
          "type": "address"
        },
        {
          "indexed": true,
          "internalType": "uint256",
          "name": "tokenId",
          "type": "uint256"
        }
      ],
      "name": "ItemCanceled",
      "type": "event"
    },
    {
      "anonymous": false,
      "inputs": [
        {
          "indexed": true,
          "internalType": "address",
          "name": "seller",
          "type": "address"
        },
        {
          "indexed": true,
          "internalType": "address",
          "name": "nftAddress",
          "type": "address"
        },
        {
          "indexed": true,
          "internalType": "uint256",
          "name": "tokenId",
          "type": "uint256"
        },
        {
          "indexed": false,
          "internalType": "uint256",
          "name": "price",
          "type": "uint256"
        }
      ],
      "name": "ItemListed",
      "type": "event"
    },
    {
      "anonymous": false,
      "inputs": [
        {
          "indexed": true,
          "internalType": "address",
          "name": "previousOwner",
          "type": "address"
        },
        {
          "indexed": true,
          "internalType": "address",
          "name": "newOwner",
          "type": "address"
        }
      ],
      "name": "OwnershipTransferred",
      "type": "event"
    },
    {
      "anonymous": false,
      "inputs": [
        {
          "indexed": false,
          "internalType": "address",
          "name": "nftAddress",
          "type": "address"
        },
        {
          "indexed": false,
          "internalType": "bool",
          "name": "oldValue",
          "type": "bool"
        },
        {
          "indexed": false,
          "internalType": "bool",
          "name": "newValue",
          "type": "bool"
        }
      ],
      "name": "SetNftWhitelistValue",
      "type": "event"
    },
    {
      "anonymous": false,
      "inputs": [
        {
          "indexed": false,
          "internalType": "uint256",
          "name": "oldRate",
          "type": "uint256"
        },
        {
          "indexed": false,
          "internalType": "uint256",
          "name": "rate",
          "type": "uint256"
        }
      ],
      "name": "SetRedemptionRate",
      "type": "event"
    },
    {
      "anonymous": false,
      "inputs": [
        {
          "indexed": false,
          "internalType": "address",
          "name": "oldEscrow",
          "type": "address"
        },
        {
          "indexed": false,
          "internalType": "address",
          "name": "newEscrow",
          "type": "address"
        }
      ],
      "name": "SetRetirementCertificateEscrow",
      "type": "event"
    },
    {
      "anonymous": false,
      "inputs": [
        {
          "indexed": false,
          "internalType": "address",
          "name": "swapRouter",
          "type": "address"
        },
        {
          "indexed": false,
          "internalType": "address",
          "name": "newSwapRouter",
          "type": "address"
        }
      ],
      "name": "SetSwapRouter",
      "type": "event"
    },
    {
      "inputs": [
        {
          "internalType": "address",
          "name": "nftAddress",
          "type": "address"
        },
        {
          "internalType": "uint256",
          "name": "tokenId",
          "type": "uint256"
        },
        {
          "internalType": "string",
          "name": "beneficiaryString",
          "type": "string"
        },
        {
          "internalType": "string",
          "name": "retirementMessage",
          "type": "string"
        }
      ],
      "name": "buyItem",
      "outputs": [],
      "stateMutability": "payable",
      "type": "function"
    },
    {
      "inputs": [
        {
          "internalType": "address",
          "name": "nftAddress",
          "type": "address"
        },
        {
          "internalType": "uint256",
          "name": "tokenId",
          "type": "uint256"
        }
      ],
      "name": "cancelListing",
      "outputs": [],
      "stateMutability": "nonpayable",
      "type": "function"
    },
    {
      "inputs": [
        {
          "internalType": "address",
          "name": "nftAddress",
          "type": "address"
        },
        {
          "internalType": "uint256",
          "name": "tokenId",
          "type": "uint256"
        }
      ],
      "name": "getListing",
      "outputs": [
        {
          "components": [
            {
              "internalType": "uint256",
              "name": "price",
              "type": "uint256"
            },
            {
              "internalType": "address",
              "name": "seller",
              "type": "address"
            }
          ],
          "internalType": "struct NftMarketplace.Listing",
          "name": "",
          "type": "tuple"
        }
      ],
      "stateMutability": "view",
      "type": "function"
    },
    {
      "inputs": [
        {
          "internalType": "address",
          "name": "seller",
          "type": "address"
        }
      ],
      "name": "getProceeds",
      "outputs": [
        {
          "internalType": "uint256",
          "name": "",
          "type": "uint256"
        }
      ],
      "stateMutability": "view",
      "type": "function"
    },
    {
      "inputs": [
        {
          "internalType": "address",
          "name": "nftAddress",
          "type": "address"
        },
        {
          "internalType": "uint256",
          "name": "tokenId",
          "type": "uint256"
        },
        {
          "internalType": "uint256",
          "name": "price",
          "type": "uint256"
        }
      ],
      "name": "listItem",
      "outputs": [],
      "stateMutability": "nonpayable",
      "type": "function"
    },
    {
      "inputs": [
        {
          "internalType": "address",
          "name": "",
          "type": "address"
        },
        {
          "internalType": "address",
          "name": "from",
          "type": "address"
        },
        {
          "internalType": "uint256",
          "name": "tokenId",
          "type": "uint256"
        },
        {
          "internalType": "bytes",
          "name": "",
          "type": "bytes"
        }
      ],
      "name": "onERC721Received",
      "outputs": [
        {
          "internalType": "bytes4",
          "name": "",
          "type": "bytes4"
        }
      ],
      "stateMutability": "nonpayable",
      "type": "function"
    },
    {
      "inputs": [],
      "name": "owner",
      "outputs": [
        {
          "internalType": "address",
          "name": "",
          "type": "address"
        }
      ],
      "stateMutability": "view",
      "type": "function"
    },
    {
      "inputs": [],
      "name": "redemptionRate",
      "outputs": [
        {
          "internalType": "uint256",
          "name": "",
          "type": "uint256"
        }
      ],
      "stateMutability": "view",
      "type": "function"
    },
    {
      "inputs": [],
      "name": "renounceOwnership",
      "outputs": [],
      "stateMutability": "nonpayable",
      "type": "function"
    },
    {
      "inputs": [],
      "name": "retirementCertificate",
      "outputs": [
        {
          "internalType": "contract IRetirementCertificates",
          "name": "",
          "type": "address"
        }
      ],
      "stateMutability": "view",
      "type": "function"
    },
    {
      "inputs": [],
      "name": "retirementCertificateEscrow",
      "outputs": [
        {
          "internalType": "contract MarketplaceRetirementCertificateEscrow",
          "name": "",
          "type": "address"
        }
      ],
      "stateMutability": "view",
      "type": "function"
    },
    {
      "inputs": [
        {
          "internalType": "uint256",
          "name": "_rate",
          "type": "uint256"
        }
      ],
      "name": "setRedemptionRate",
      "outputs": [],
      "stateMutability": "nonpayable",
      "type": "function"
    },
    {
      "inputs": [
        {
          "internalType": "address",
          "name": "_retirementCertificateEscrow",
          "type": "address"
        }
      ],
      "name": "setRetirementCertificateEscrow",
      "outputs": [],
      "stateMutability": "nonpayable",
      "type": "function"
    },
    {
      "inputs": [
        {
          "internalType": "address",
          "name": "router",
          "type": "address"
        }
      ],
      "name": "setSwapRouter",
      "outputs": [],
      "stateMutability": "nonpayable",
      "type": "function"
    },
    {
      "inputs": [],
      "name": "swapRouter",
      "outputs": [
        {
          "internalType": "contract IUniswapV2Router02",
          "name": "",
          "type": "address"
        }
      ],
      "stateMutability": "view",
      "type": "function"
    },
    {
      "inputs": [],
      "name": "tc02",
      "outputs": [
        {
          "internalType": "contract ITC02",
          "name": "",
          "type": "address"
        }
      ],
      "stateMutability": "view",
      "type": "function"
    },
    {
      "inputs": [
        {
          "internalType": "address",
          "name": "nftAddress",
          "type": "address"
        }
      ],
      "name": "toggleNftWhitelistValue",
      "outputs": [],
      "stateMutability": "nonpayable",
      "type": "function"
    },
    {
      "inputs": [
        {
          "internalType": "address",
          "name": "newOwner",
          "type": "address"
        }
      ],
      "name": "transferOwnership",
      "outputs": [],
      "stateMutability": "nonpayable",
      "type": "function"
    },
    {
      "inputs": [
        {
          "internalType": "address",
          "name": "nftAddress",
          "type": "address"
        },
        {
          "internalType": "uint256",
          "name": "tokenId",
          "type": "uint256"
        },
        {
          "internalType": "uint256",
          "name": "newPrice",
          "type": "uint256"
        }
      ],
      "name": "updateListing",
      "outputs": [],
      "stateMutability": "nonpayable",
      "type": "function"
    },
    {
      "inputs": [
        {
          "internalType": "address",
          "name": "",
          "type": "address"
        }
      ],
      "name": "whitelistedNfts",
      "outputs": [
        {
          "internalType": "bool",
          "name": "",
          "type": "bool"
        }
      ],
      "stateMutability": "view",
      "type": "function"
    },
    {
      "inputs": [],
      "name": "withdrawProceeds",
      "outputs": [],
      "stateMutability": "nonpayable",
      "type": "function"
    },
    {
      "inputs": [],
      "name": "wrappedNativeToken",
      "outputs": [
        {
          "internalType": "address",
          "name": "",
          "type": "address"
        }
      ],
      "stateMutability": "view",
      "type": "function"
    }
  ],
  "bytecode": "0x6080604052600a6002553480156200001657600080fd5b5060405162001eab38038062001eab8339810160408190526200003991620001a9565b600160005533806200006557604051631e4fbdf760e01b81526000600482015260240160405180910390fd5b62000070816200013a565b50600580546001600160a01b03199081166001600160a01b038881169182179093556004805483168885161781556006805484168886161790556007805484168786161790556003805490931693851693841790925560405163095ea7b360e01b815291820152600019602482015263095ea7b3906044016020604051808303816000875af115801562000108573d6000803e3d6000fd5b505050506040513d601f19601f820116820180604052508101906200012e919062000219565b50505050505062000244565b600180546001600160a01b038381166001600160a01b0319831681179093556040519116919082907f8be0079c531659141344cd1fd0a4f28419497f9722a3daafe3b4186f6b6457e090600090a35050565b80516001600160a01b0381168114620001a457600080fd5b919050565b600080600080600060a08688031215620001c257600080fd5b620001cd866200018c565b9450620001dd602087016200018c565b9350620001ed604087016200018c565b9250620001fd606087016200018c565b91506200020d608087016200018c565b90509295509295909350565b6000602082840312156200022c57600080fd5b815180151581146200023d57600080fd5b9392505050565b611c5780620002546000396000f3fe6080604052600436106101755760003560e01c80639038e693116100cb578063b2ddee061161007f578063f2fde38b11610059578063f2fde38b14610463578063f5b88ac214610483578063f772adf1146104a357600080fd5b8063b2ddee0614610403578063b6b2196d14610423578063c31c9c071461044357600080fd5b80639ce12ae5116100b05780639ce12ae514610383578063ae882a8a146103a3578063b025af0b146103e357600080fd5b80639038e6931461035b578063941a81781461037057600080fd5b8063540385a31161012d57806388700d1c1161010757806388700d1c146102d957806389bfd38f1461031d5780638da5cb5b1461033d57600080fd5b8063540385a31461028e57806358c83621146102a4578063715018a6146102c457600080fd5b8063188d24711161015e578063188d24711461020857806330cfeda914610228578063412736571461026c57600080fd5b8063150b7a021461017a57806317fcb39b146101d0575b600080fd5b34801561018657600080fd5b5061019a610195366004611796565b6104c3565b6040517fffffffff0000000000000000000000000000000000000000000000000000000090911681526020015b60405180910390f35b3480156101dc57600080fd5b506003546101f0906001600160a01b031681565b6040516001600160a01b0390911681526020016101c7565b34801561021457600080fd5b506007546101f0906001600160a01b031681565b34801561023457600080fd5b5061025e610243366004611809565b6001600160a01b031660009081526008602052604090205490565b6040519081526020016101c7565b34801561027857600080fd5b5061028c610287366004611809565b610550565b005b34801561029a57600080fd5b5061025e60025481565b3480156102b057600080fd5b5061028c6102bf366004611809565b6105da565b3480156102d057600080fd5b5061028c610661565b3480156102e557600080fd5b506102f96102f436600461182d565b610675565b60408051825181526020928301516001600160a01b031692810192909252016101c7565b34801561032957600080fd5b5061028c610338366004611859565b6106c4565b34801561034957600080fd5b506001546001600160a01b03166101f0565b34801561036757600080fd5b5061028c6109f7565b61028c61037e36600461188e565b610ae9565b34801561038f57600080fd5b506006546101f0906001600160a01b031681565b3480156103af57600080fd5b506103d36103be366004611809565b60096020526000908152604090205460ff1681565b60405190151581526020016101c7565b3480156103ef57600080fd5b5061028c6103fe366004611809565b610f8e565b34801561040f57600080fd5b5061028c61041e36600461182d565b611030565b34801561042f57600080fd5b5061028c61043e36600461191a565b6111c6565b34801561044f57600080fd5b506005546101f0906001600160a01b031681565b34801561046f57600080fd5b5061028c61047e366004611809565b611221565b34801561048f57600080fd5b506004546101f0906001600160a01b031681565b3480156104af57600080fd5b5061028c6104be366004611859565b611275565b6006546000906001600160a01b031633146105255760405162461bcd60e51b815260206004820152601a60248201527f4e6f74207265746972656d656e7420636572746966696361746500000000000060448201526064015b60405180910390fd5b507f150b7a020000000000000000000000000000000000000000000000000000000095945050505050565b61055861142c565b61056061146f565b600554604080516001600160a01b03928316815291831660208301527f363499fd428e59a25f711ed7c86a7e7029242e3f1066dcbc0bc0e49fb0bfb90e910160405180910390a16005805473ffffffffffffffffffffffffffffffffffffffff19166001600160a01b038316179055600160005550565b50565b6105e261142c565b6105ea61146f565b600754604080516001600160a01b03928316815291831660208301527f89bd2768fd7547268736aac7cd37faa074c71f109b7c98d22f28c55629c0279d910160405180910390a16007805473ffffffffffffffffffffffffffffffffffffffff19166001600160a01b038316179055600160005550565b61066961146f565b61067360006114b5565b565b604080518082018252600080825260209182018190526001600160a01b038581168252600a83528382208583528352908390208351808501909452805484526001015416908201525b92915050565b6001600160a01b0383166000908152600a6020908152604080832085845290915290205483908390339015610737576040517f4a5568d50000000000000000000000000000000000000000000000000000000081526001600160a01b03841660048201526024810183905260440161051c565b6040516331a9108f60e11b81526004810186905286908690339083906000906001600160a01b03831690636352211e90602401602060405180830381865afa158015610787573d6000803e3d6000fd5b505050506040513d601f19601f820116820180604052508101906107ab9190611933565b9050806001600160a01b0316836001600160a01b0316146107df576040516330cd747160e01b815260040160405180910390fd5b6001600160a01b038b166000908152600960205260409020548b9060ff16610825576040516303ef6afb60e51b81526001600160a01b038216600482015260240161051c565b60008a116108465760405163e1abbfc560e01b815260040160405180910390fd5b6040517f081812fc000000000000000000000000000000000000000000000000000000008152600481018c90528c9030906001600160a01b0383169063081812fc90602401602060405180830381865afa1580156108a8573d6000803e3d6000fd5b505050506040513d601f19601f820116820180604052508101906108cc9190611933565b6001600160a01b03161461090c576040517f4be3a2c500000000000000000000000000000000000000000000000000000000815260040160405180910390fd5b60405180604001604052808c8152602001336001600160a01b0316815250600a60008f6001600160a01b03166001600160a01b0316815260200190815260200160002060008e81526020019081526020016000206000820151816000015560208201518160010160006101000a8154816001600160a01b0302191690836001600160a01b031602179055509050508b8d6001600160a01b0316336001600160a01b03167fd547e933094f12a9159076970143ebe73234e64480317844b0dcb36117116de48e6040516109e091815260200190565b60405180910390a450505050505050505050505050565b3360009081526008602052604090205480610a3e576040517fc4d8fa8700000000000000000000000000000000000000000000000000000000815260040160405180910390fd5b336000818152600860205260408082208290555190919083908381818185875af1925050503d8060008114610a8f576040519150601f19603f3d011682016040523d82523d6000602084013e610a94565b606091505b5050905080610ae55760405162461bcd60e51b815260206004820152600f60248201527f5472616e73666572206661696c65640000000000000000000000000000000000604482015260640161051c565b5050565b6001600160a01b038087166000908152600a6020908152604080832089845282529182902082518084019093528054808452600190910154909316908201528791879190610b5c57604051631a0c522360e21b81526001600160a01b03841660048201526024810183905260440161051c565b6001600160a01b038916600090815260096020526040902054899060ff16610ba2576040516303ef6afb60e51b81526001600160a01b038216600482015260240161051c565b610baa61142c565b6001600160a01b03808b166000908152600a602090815260408083208d84528252918290208251808401909352805480845260019091015490931690820152903414610c3e5780516040517f7c9345650000000000000000000000000000000000000000000000000000000081526001600160a01b038d166004820152602481018c9052604481019190915260640161051c565b6000606460025434610c509190611966565b610c5a919061197d565b6006549091506000906001600160a01b031663163c131930338e8e8e8e610c88610c838b611514565b611666565b6040518863ffffffff1660e01b8152600401610caa97969594939291906119c8565b6020604051808303816000875af1158015610cc9573d6000803e3d6000fd5b505050506040513d601f19601f82011682018060405250810190610ced9190611a87565b6006546007546040517f095ea7b30000000000000000000000000000000000000000000000000000000081526001600160a01b03918216600482015260248101849052929350169063095ea7b390604401600060405180830381600087803b158015610d5857600080fd5b505af1158015610d6c573d6000803e3d6000fd5b50505050600760009054906101000a90046001600160a01b03166001600160a01b031663be5174918e8e846040518463ffffffff1660e01b8152600401610dd1939291906001600160a01b039390931683526020830191909152604082015260600190565b600060405180830381600087803b158015610deb57600080fd5b505af1158015610dff573d6000803e3d6000fd5b505050508134610e0f9190611aa0565b6020808501516001600160a01b031660009081526008909152604081208054909190610e3c908490611ab3565b92505081905550600a60008e6001600160a01b03166001600160a01b0316815260200190815260200160002060008d81526020019081526020016000206000808201600090556001820160006101000a8154906001600160a01b03021916905550508c6001600160a01b03166342842e0e8460200151338f6040518463ffffffff1660e01b8152600401610ef1939291906001600160a01b039384168152919092166020820152604081019190915260600190565b600060405180830381600087803b158015610f0b57600080fd5b505af1158015610f1f573d6000803e3d6000fd5b505050508b8d6001600160a01b0316336001600160a01b03167f263223b1dd81e51054a4e6f791d45a4a1ddb4aadcd93a2dfd892615c3fdac1878660000151604051610f6d91815260200190565b60405180910390a4505050610f826001600055565b50505050505050505050565b610f9661142c565b610f9e61146f565b6001600160a01b03811660008181526009602090815260409182902054825193845260ff16801580159285019290925291830152907fe1738f3d232a006771fd4055852c8a201884bc522eee1dc1322b7e4d262ad4e69060600160405180910390a16001600160a01b0382166000908152600960205260409020805460ff191691159190911790556105d76001600055565b6040516331a9108f60e11b81526004810182905282908290339083906000906001600160a01b03831690636352211e90602401602060405180830381865afa158015611080573d6000803e3d6000fd5b505050506040513d601f19601f820116820180604052508101906110a49190611933565b9050806001600160a01b0316836001600160a01b0316146110d8576040516330cd747160e01b815260040160405180910390fd5b6001600160a01b038088166000908152600a602090815260408083208a84528252918290208251808401909352805480845260019091015490931690820152889188919061114b57604051631a0c522360e21b81526001600160a01b03841660048201526024810183905260440161051c565b6001600160a01b038a166000818152600a602090815260408083208d8452909152808220828155600101805473ffffffffffffffffffffffffffffffffffffffff19169055518b929133917f9ba1a3cb55ce8d63d072a886f94d2a744f50cddf82128e897d0661f5ec6231589190a450505050505050505050565b6111ce61142c565b6111d661146f565b60025460408051918252602082018390527fedefe983f89001709210ceef022f11cb0e311b7b13b70d7df8d0b2f6707cff86910160405180910390a160028190556105d76001600055565b61122961146f565b6001600160a01b03811661126c576040517f1e4fbdf70000000000000000000000000000000000000000000000000000000081526000600482015260240161051c565b6105d7816114b5565b6001600160a01b038084166000908152600a60209081526040808320868452825291829020825180840190935280548084526001909101549093169082015284918491906112e857604051631a0c522360e21b81526001600160a01b03841660048201526024810183905260440161051c565b6112f061142c565b6040516331a9108f60e11b81526004810186905286908690339083906000906001600160a01b03831690636352211e90602401602060405180830381865afa158015611340573d6000803e3d6000fd5b505050506040513d601f19601f820116820180604052508101906113649190611933565b9050806001600160a01b0316836001600160a01b031614611398576040516330cd747160e01b815260040160405180910390fd5b886000036113b95760405163e1abbfc560e01b815260040160405180910390fd5b6001600160a01b038b166000818152600a602090815260408083208e84528252918290208c905590518b81528c929133917fd547e933094f12a9159076970143ebe73234e64480317844b0dcb36117116de4910160405180910390a450505050506114246001600055565b505050505050565b600260005403611468576040517f3ee5aeb500000000000000000000000000000000000000000000000000000000815260040160405180910390fd5b6002600055565b6001546001600160a01b03163314610673576040517f118cdaa700000000000000000000000000000000000000000000000000000000815233600482015260240161051c565b600180546001600160a01b0383811673ffffffffffffffffffffffffffffffffffffffff19831681179093556040519116919082907f8be0079c531659141344cd1fd0a4f28419497f9722a3daafe3b4186f6b6457e090600090a35050565b60408051600280825260608201835260009283929190602083019080368337505060035482519293506001600160a01b03169183915060009061155957611559611adc565b6001600160a01b03928316602091820292909201015260045482519116908290600190811061158a5761158a611adc565b6001600160a01b0392831660209182029290920101526005546040517f38ed173900000000000000000000000000000000000000000000000000000000815260009291909116906338ed1739906115ed9087908590879030904290600401611af2565b6000604051808303816000875af115801561160c573d6000803e3d6000fd5b505050506040513d6000823e601f3d908101601f191682016040526116349190810190611b63565b905080600182516116459190611aa0565b8151811061165557611655611adc565b602002602001015192505050919050565b60408051600180825281830190925260609160009190602080830190803683375050600480546040517f3790cf570000000000000000000000000000000000000000000000000000000081529182018790529293506001600160a01b0390921691633790cf5791506024016020604051808303816000875af11580156116f0573d6000803e3d6000fd5b505050506040513d601f19601f820116820180604052508101906117149190611a87565b8160008151811061172757611727611adc565b602090810291909101015292915050565b6001600160a01b03811681146105d757600080fd5b60008083601f84011261175f57600080fd5b50813567ffffffffffffffff81111561177757600080fd5b60208301915083602082850101111561178f57600080fd5b9250929050565b6000806000806000608086880312156117ae57600080fd5b85356117b981611738565b945060208601356117c981611738565b935060408601359250606086013567ffffffffffffffff8111156117ec57600080fd5b6117f88882890161174d565b969995985093965092949392505050565b60006020828403121561181b57600080fd5b813561182681611738565b9392505050565b6000806040838503121561184057600080fd5b823561184b81611738565b946020939093013593505050565b60008060006060848603121561186e57600080fd5b833561187981611738565b95602085013595506040909401359392505050565b600080600080600080608087890312156118a757600080fd5b86356118b281611738565b955060208701359450604087013567ffffffffffffffff808211156118d657600080fd5b6118e28a838b0161174d565b909650945060608901359150808211156118fb57600080fd5b5061190889828a0161174d565b979a9699509497509295939492505050565b60006020828403121561192c57600080fd5b5035919050565b60006020828403121561194557600080fd5b815161182681611738565b634e487b7160e01b600052601160045260246000fd5b80820281158282048414176106be576106be611950565b60008261199a57634e487b7160e01b600052601260045260246000fd5b500490565b81835281816020850137506000828201602090810191909152601f909101601f19169091010190565b60006001600160a01b03808a168352602060c081850152601f60c08501527f496e746f20546865205665727365204d61726b6574706c61636520557365720060e0850152610100828b166040860152806060860152611a2a8186018a8c61199f565b9250508382036080850152611a4082878961199f565b84810360a0860152855180825282870193509082019060005b81811015611a7557845183529383019391830191600101611a59565b50909c9b505050505050505050505050565b600060208284031215611a9957600080fd5b5051919050565b818103818111156106be576106be611950565b808201808211156106be576106be611950565b634e487b7160e01b600052604160045260246000fd5b634e487b7160e01b600052603260045260246000fd5b600060a082018783526020878185015260a0604085015281875180845260c086019150828901935060005b81811015611b425784516001600160a01b031683529383019391830191600101611b1d565b50506001600160a01b03969096166060850152505050608001529392505050565b60006020808385031215611b7657600080fd5b825167ffffffffffffffff80821115611b8e57600080fd5b818501915085601f830112611ba257600080fd5b815181811115611bb457611bb4611ac6565b8060051b604051601f19603f83011681018181108582111715611bd957611bd9611ac6565b604052918252848201925083810185019188831115611bf757600080fd5b938501935b82851015611c1557845184529385019392850192611bfc565b9897505050505050505056fea2646970667358221220f5d736cffe34cfc2152f64785ded19a6c3e98d27ca4695d0bffb027af393902064736f6c63430008140033",
  "linkReferences": {},
  "deployedLinkReferences": {}
}