{
  "_format": "hh-sol-artifact-1",
  "contractName": "Avatar",
  "sourceName": "contracts/Avatar.sol",
  "abi": [
    {
      "inputs": [
        {
          "internalType": "string",
          "name": "baseURI",
          "type": "string"
        }
      ],
      "stateMutability": "nonpayable",
      "type": "constructor"
    },
    {
      "inputs": [],
      "name": "ERC721EnumerableForbiddenBatchMint",
      "type": "error"
    },
    {
      "inputs": [
        {
          "internalType": "address",
          "name": "sender",
          "type": "address"
        },
        {
          "internalType": "uint256",
          "name": "tokenId",
          "type": "uint256"
        },
        {
          "internalType": "address",
          "name": "owner",
          "type": "address"
        }
      ],
      "name": "ERC721IncorrectOwner",
      "type": "error"
    },
    {
      "inputs": [
        {
          "internalType": "address",
          "name": "operator",
          "type": "address"
        },
        {
          "internalType": "uint256",
          "name": "tokenId",
          "type": "uint256"
        }
      ],
      "name": "ERC721InsufficientApproval",
      "type": "error"
    },
    {
      "inputs": [
        {
          "internalType": "address",
          "name": "approver",
          "type": "address"
        }
      ],
      "name": "ERC721InvalidApprover",
      "type": "error"
    },
    {
      "inputs": [
        {
          "internalType": "address",
          "name": "operator",
          "type": "address"
        }
      ],
      "name": "ERC721InvalidOperator",
      "type": "error"
    },
    {
      "inputs": [
        {
          "internalType": "address",
          "name": "owner",
          "type": "address"
        }
      ],
      "name": "ERC721InvalidOwner",
      "type": "error"
    },
    {
      "inputs": [
        {
          "internalType": "address",
          "name": "receiver",
          "type": "address"
        }
      ],
      "name": "ERC721InvalidReceiver",
      "type": "error"
    },
    {
      "inputs": [
        {
          "internalType": "address",
          "name": "sender",
          "type": "address"
        }
      ],
      "name": "ERC721InvalidSender",
      "type": "error"
    },
    {
      "inputs": [
        {
          "internalType": "uint256",
          "name": "tokenId",
          "type": "uint256"
        }
      ],
      "name": "ERC721NonexistentToken",
      "type": "error"
    },
    {
      "inputs": [
        {
          "internalType": "address",
          "name": "owner",
          "type": "address"
        },
        {
          "internalType": "uint256",
          "name": "index",
          "type": "uint256"
        }
      ],
      "name": "ERC721OutOfBoundsIndex",
      "type": "error"
    },
    {
      "inputs": [
        {
          "internalType": "address",
          "name": "owner",
          "type": "address"
        }
      ],
      "name": "OwnableInvalidOwner",
      "type": "error"
    },
    {
      "inputs": [
        {
          "internalType": "address",
          "name": "account",
          "type": "address"
        }
      ],
      "name": "OwnableUnauthorizedAccount",
      "type": "error"
    },
    {
      "anonymous": false,
      "inputs": [
        {
          "indexed": true,
          "internalType": "address",
          "name": "owner",
          "type": "address"
        },
        {
          "indexed": true,
          "internalType": "address",
          "name": "approved",
          "type": "address"
        },
        {
          "indexed": true,
          "internalType": "uint256",
          "name": "tokenId",
          "type": "uint256"
        }
      ],
      "name": "Approval",
      "type": "event"
    },
    {
      "anonymous": false,
      "inputs": [
        {
          "indexed": true,
          "internalType": "address",
          "name": "owner",
          "type": "address"
        },
        {
          "indexed": true,
          "internalType": "address",
          "name": "operator",
          "type": "address"
        },
        {
          "indexed": false,
          "internalType": "bool",
          "name": "approved",
          "type": "bool"
        }
      ],
      "name": "ApprovalForAll",
      "type": "event"
    },
    {
      "anonymous": false,
      "inputs": [
        {
          "indexed": true,
          "internalType": "address",
          "name": "previousOwner",
          "type": "address"
        },
        {
          "indexed": true,
          "internalType": "address",
          "name": "newOwner",
          "type": "address"
        }
      ],
      "name": "OwnershipTransferred",
      "type": "event"
    },
    {
      "anonymous": false,
      "inputs": [
        {
          "indexed": true,
          "internalType": "address",
          "name": "from",
          "type": "address"
        },
        {
          "indexed": true,
          "internalType": "address",
          "name": "to",
          "type": "address"
        },
        {
          "indexed": true,
          "internalType": "uint256",
          "name": "tokenId",
          "type": "uint256"
        }
      ],
      "name": "Transfer",
      "type": "event"
    },
    {
      "inputs": [],
      "name": "_baseTokenURI",
      "outputs": [
        {
          "internalType": "string",
          "name": "",
          "type": "string"
        }
      ],
      "stateMutability": "view",
      "type": "function"
    },
    {
      "inputs": [
        {
          "internalType": "address",
          "name": "",
          "type": "address"
        }
      ],
      "name": "_hasMintedAvatar",
      "outputs": [
        {
          "internalType": "bool",
          "name": "",
          "type": "bool"
        }
      ],
      "stateMutability": "view",
      "type": "function"
    },
    {
      "inputs": [
        {
          "internalType": "address",
          "name": "to",
          "type": "address"
        },
        {
          "internalType": "uint256",
          "name": "tokenId",
          "type": "uint256"
        }
      ],
      "name": "approve",
      "outputs": [],
      "stateMutability": "nonpayable",
      "type": "function"
    },
    {
      "inputs": [
        {
          "internalType": "uint256",
          "name": "",
          "type": "uint256"
        }
      ],
      "name": "avatars",
      "outputs": [
        {
          "internalType": "uint256",
          "name": "tokenId",
          "type": "uint256"
        },
        {
          "internalType": "string",
          "name": "image",
          "type": "string"
        },
        {
          "internalType": "uint256",
          "name": "xp",
          "type": "uint256"
        },
        {
          "internalType": "bool",
          "name": "isParticipatingInRef",
          "type": "bool"
        },
        {
          "internalType": "address",
          "name": "ownerAddress",
          "type": "address"
        }
      ],
      "stateMutability": "view",
      "type": "function"
    },
    {
      "inputs": [
        {
          "internalType": "uint256",
          "name": "tokenId",
          "type": "uint256"
        },
        {
          "internalType": "uint256",
          "name": "badgeId",
          "type": "uint256"
        }
      ],
      "name": "awardBadge",
      "outputs": [],
      "stateMutability": "nonpayable",
      "type": "function"
    },
    {
      "inputs": [
        {
          "internalType": "uint256",
          "name": "",
          "type": "uint256"
        },
        {
          "internalType": "uint256",
          "name": "",
          "type": "uint256"
        }
      ],
      "name": "badges",
      "outputs": [
        {
          "internalType": "uint256",
          "name": "",
          "type": "uint256"
        }
      ],
      "stateMutability": "view",
      "type": "function"
    },
    {
      "inputs": [
        {
          "internalType": "address",
          "name": "owner",
          "type": "address"
        }
      ],
      "name": "balanceOf",
      "outputs": [
        {
          "internalType": "uint256",
          "name": "",
          "type": "uint256"
        }
      ],
      "stateMutability": "view",
      "type": "function"
    },
    {
      "inputs": [
        {
          "internalType": "uint256",
          "name": "tokenId",
          "type": "uint256"
        },
        {
          "internalType": "string",
          "name": "newImage",
          "type": "string"
        }
      ],
      "name": "changeAvatarImage",
      "outputs": [],
      "stateMutability": "nonpayable",
      "type": "function"
    },
    {
      "inputs": [
        {
          "internalType": "uint256",
          "name": "tokenId",
          "type": "uint256"
        },
        {
          "internalType": "uint256",
          "name": "amount",
          "type": "uint256"
        }
      ],
      "name": "decrementXP",
      "outputs": [],
      "stateMutability": "nonpayable",
      "type": "function"
    },
    {
      "inputs": [
        {
          "internalType": "uint256",
          "name": "tokenId",
          "type": "uint256"
        },
        {
          "internalType": "uint256",
          "name": "equipmentId",
          "type": "uint256"
        }
      ],
      "name": "equip",
      "outputs": [],
      "stateMutability": "nonpayable",
      "type": "function"
    },
    {
      "inputs": [
        {
          "internalType": "uint256",
          "name": "",
          "type": "uint256"
        },
        {
          "internalType": "uint256",
          "name": "",
          "type": "uint256"
        }
      ],
      "name": "equipments",
      "outputs": [
        {
          "internalType": "uint256",
          "name": "",
          "type": "uint256"
        }
      ],
      "stateMutability": "view",
      "type": "function"
    },
    {
      "inputs": [
        {
          "internalType": "uint256",
          "name": "tokenId",
          "type": "uint256"
        }
      ],
      "name": "getApproved",
      "outputs": [
        {
          "internalType": "address",
          "name": "",
          "type": "address"
        }
      ],
      "stateMutability": "view",
      "type": "function"
    },
    {
      "inputs": [
        {
          "internalType": "uint256",
          "name": "tokenId",
          "type": "uint256"
        }
      ],
      "name": "getBadges",
      "outputs": [
        {
          "internalType": "uint256[]",
          "name": "",
          "type": "uint256[]"
        }
      ],
      "stateMutability": "view",
      "type": "function"
    },
    {
      "inputs": [],
      "name": "getDefaultImage",
      "outputs": [
        {
          "internalType": "string",
          "name": "",
          "type": "string"
        }
      ],
      "stateMutability": "view",
      "type": "function"
    },
    {
      "inputs": [
        {
          "internalType": "uint256",
          "name": "tokenId",
          "type": "uint256"
        }
      ],
      "name": "getEquipments",
      "outputs": [
        {
          "internalType": "uint256[]",
          "name": "",
          "type": "uint256[]"
        }
      ],
      "stateMutability": "view",
      "type": "function"
    },
    {
      "inputs": [
        {
          "internalType": "uint256",
          "name": "tokenId",
          "type": "uint256"
        }
      ],
      "name": "getXP",
      "outputs": [
        {
          "internalType": "uint256",
          "name": "",
          "type": "uint256"
        }
      ],
      "stateMutability": "view",
      "type": "function"
    },
    {
      "inputs": [
        {
          "internalType": "uint256",
          "name": "tokenId",
          "type": "uint256"
        },
        {
          "internalType": "uint256",
          "name": "amount",
          "type": "uint256"
        }
      ],
      "name": "incrementXP",
      "outputs": [],
      "stateMutability": "nonpayable",
      "type": "function"
    },
    {
      "inputs": [
        {
          "internalType": "address",
          "name": "owner",
          "type": "address"
        },
        {
          "internalType": "address",
          "name": "operator",
          "type": "address"
        }
      ],
      "name": "isApprovedForAll",
      "outputs": [
        {
          "internalType": "bool",
          "name": "",
          "type": "bool"
        }
      ],
      "stateMutability": "view",
      "type": "function"
    },
    {
      "inputs": [
        {
          "internalType": "uint256",
          "name": "tokenId",
          "type": "uint256"
        }
      ],
      "name": "isParticipatingInRef",
      "outputs": [
        {
          "internalType": "bool",
          "name": "",
          "type": "bool"
        }
      ],
      "stateMutability": "view",
      "type": "function"
    },
    {
      "inputs": [
        {
          "internalType": "string",
          "name": "image",
          "type": "string"
        }
      ],
      "name": "mint",
      "outputs": [],
      "stateMutability": "nonpayable",
      "type": "function"
    },
    {
      "inputs": [],
      "name": "name",
      "outputs": [
        {
          "internalType": "string",
          "name": "",
          "type": "string"
        }
      ],
      "stateMutability": "view",
      "type": "function"
    },
    {
      "inputs": [],
      "name": "owner",
      "outputs": [
        {
          "internalType": "address",
          "name": "",
          "type": "address"
        }
      ],
      "stateMutability": "view",
      "type": "function"
    },
    {
      "inputs": [
        {
          "internalType": "uint256",
          "name": "tokenId",
          "type": "uint256"
        }
      ],
      "name": "ownerOf",
      "outputs": [
        {
          "internalType": "address",
          "name": "",
          "type": "address"
        }
      ],
      "stateMutability": "view",
      "type": "function"
    },
    {
      "inputs": [
        {
          "internalType": "uint256",
          "name": "tokenId",
          "type": "uint256"
        }
      ],
      "name": "participateInRef",
      "outputs": [],
      "stateMutability": "nonpayable",
      "type": "function"
    },
    {
      "inputs": [
        {
          "internalType": "uint256",
          "name": "tokenId",
          "type": "uint256"
        },
        {
          "internalType": "uint256",
          "name": "badgeId",
          "type": "uint256"
        }
      ],
      "name": "removeBadge",
      "outputs": [],
      "stateMutability": "nonpayable",
      "type": "function"
    },
    {
      "inputs": [
        {
          "internalType": "uint256",
          "name": "tokenId",
          "type": "uint256"
        },
        {
          "internalType": "uint256",
          "name": "equipmentId",
          "type": "uint256"
        }
      ],
      "name": "removeEquipment",
      "outputs": [],
      "stateMutability": "nonpayable",
      "type": "function"
    },
    {
      "inputs": [],
      "name": "renounceOwnership",
      "outputs": [],
      "stateMutability": "nonpayable",
      "type": "function"
    },
    {
      "inputs": [
        {
          "internalType": "address",
          "name": "from",
          "type": "address"
        },
        {
          "internalType": "address",
          "name": "to",
          "type": "address"
        },
        {
          "internalType": "uint256",
          "name": "tokenId",
          "type": "uint256"
        }
      ],
      "name": "safeTransferFrom",
      "outputs": [],
      "stateMutability": "nonpayable",
      "type": "function"
    },
    {
      "inputs": [
        {
          "internalType": "address",
          "name": "from",
          "type": "address"
        },
        {
          "internalType": "address",
          "name": "to",
          "type": "address"
        },
        {
          "internalType": "uint256",
          "name": "tokenId",
          "type": "uint256"
        },
        {
          "internalType": "bytes",
          "name": "data",
          "type": "bytes"
        }
      ],
      "name": "safeTransferFrom",
      "outputs": [],
      "stateMutability": "nonpayable",
      "type": "function"
    },
    {
      "inputs": [
        {
          "internalType": "address",
          "name": "operator",
          "type": "address"
        },
        {
          "internalType": "bool",
          "name": "approved",
          "type": "bool"
        }
      ],
      "name": "setApprovalForAll",
      "outputs": [],
      "stateMutability": "nonpayable",
      "type": "function"
    },
    {
      "inputs": [
        {
          "internalType": "string",
          "name": "_uri",
          "type": "string"
        }
      ],
      "name": "setBaseURI",
      "outputs": [],
      "stateMutability": "nonpayable",
      "type": "function"
    },
    {
      "inputs": [
        {
          "internalType": "bytes4",
          "name": "interfaceId",
          "type": "bytes4"
        }
      ],
      "name": "supportsInterface",
      "outputs": [
        {
          "internalType": "bool",
          "name": "",
          "type": "bool"
        }
      ],
      "stateMutability": "view",
      "type": "function"
    },
    {
      "inputs": [],
      "name": "symbol",
      "outputs": [
        {
          "internalType": "string",
          "name": "",
          "type": "string"
        }
      ],
      "stateMutability": "view",
      "type": "function"
    },
    {
      "inputs": [
        {
          "internalType": "uint256",
          "name": "index",
          "type": "uint256"
        }
      ],
      "name": "tokenByIndex",
      "outputs": [
        {
          "internalType": "uint256",
          "name": "",
          "type": "uint256"
        }
      ],
      "stateMutability": "view",
      "type": "function"
    },
    {
      "inputs": [
        {
          "internalType": "address",
          "name": "owner",
          "type": "address"
        },
        {
          "internalType": "uint256",
          "name": "index",
          "type": "uint256"
        }
      ],
      "name": "tokenOfOwnerByIndex",
      "outputs": [
        {
          "internalType": "uint256",
          "name": "",
          "type": "uint256"
        }
      ],
      "stateMutability": "view",
      "type": "function"
    },
    {
      "inputs": [
        {
          "internalType": "uint256",
          "name": "tokenId",
          "type": "uint256"
        }
      ],
      "name": "tokenURI",
      "outputs": [
        {
          "internalType": "string",
          "name": "",
          "type": "string"
        }
      ],
      "stateMutability": "view",
      "type": "function"
    },
    {
      "inputs": [],
      "name": "totalSupply",
      "outputs": [
        {
          "internalType": "uint256",
          "name": "",
          "type": "uint256"
        }
      ],
      "stateMutability": "view",
      "type": "function"
    },
    {
      "inputs": [
        {
          "internalType": "address",
          "name": "from",
          "type": "address"
        },
        {
          "internalType": "address",
          "name": "to",
          "type": "address"
        },
        {
          "internalType": "uint256",
          "name": "tokenId",
          "type": "uint256"
        }
      ],
      "name": "transferFrom",
      "outputs": [],
      "stateMutability": "nonpayable",
      "type": "function"
    },
    {
      "inputs": [
        {
          "internalType": "address",
          "name": "newOwner",
          "type": "address"
        }
      ],
      "name": "transferOwnership",
      "outputs": [],
      "stateMutability": "nonpayable",
      "type": "function"
    }
  ],
  "bytecode": "0x60806040523480156200001157600080fd5b506040516200268d3803806200268d83398101604081905262000034916200018c565b604080518082018252600681526520ab20aa20a960d11b602080830191909152825180840190935260048352634954564160e01b908301529033806200009557604051631e4fbdf760e01b8152600060048201526024015b60405180910390fd5b620000a081620000d9565b506001620000af8382620002f0565b506002620000be8282620002f0565b505050620000d2816200012960201b60201c565b50620003bc565b600080546001600160a01b038381166001600160a01b0319831681178455604051919092169283917f8be0079c531659141344cd1fd0a4f28419497f9722a3daafe3b4186f6b6457e09190a35050565b6200013362000145565b600b620001418282620002f0565b5050565b6000546001600160a01b03163314620001745760405163118cdaa760e01b81523360048201526024016200008c565b565b634e487b7160e01b600052604160045260246000fd5b60006020808385031215620001a057600080fd5b82516001600160401b0380821115620001b857600080fd5b818501915085601f830112620001cd57600080fd5b815181811115620001e257620001e262000176565b604051601f8201601f19908116603f011681019083821181831017156200020d576200020d62000176565b8160405282815288868487010111156200022657600080fd5b600093505b828410156200024a57848401860151818501870152928501926200022b565b600086848301015280965050505050505092915050565b600181811c908216806200027657607f821691505b6020821081036200029757634e487b7160e01b600052602260045260246000fd5b50919050565b601f821115620002eb57600081815260208120601f850160051c81016020861015620002c65750805b601f850160051c820191505b81811015620002e757828155600101620002d2565b5050505b505050565b81516001600160401b038111156200030c576200030c62000176565b62000324816200031d845462000261565b846200029d565b602080601f8311600181146200035c5760008415620003435750858301515b600019600386901b1c1916600185901b178555620002e7565b600085815260208120601f198616915b828110156200038d578886015182559484019460019091019084016200036c565b5085821015620003ac5787850151600019600388901b60f8161c191681555b5050505050600190811b01905550565b6122c180620003cc6000396000f3fe608060405234801561001057600080fd5b50600436106102ad5760003560e01c8063811a59e71161017b578063b88d4fde116100d8578063e6a845961161008c578063f25e18df11610071578063f25e18df146105da578063f2fde38b146105ed578063fc78ad001461060057600080fd5b8063e6a845961461058b578063e985e9c51461059e57600080fd5b8063cfc86f7b116100bd578063cfc86f7b1461054d578063d4cae94514610555578063d85d3d271461057857600080fd5b8063b88d4fde14610527578063c87b56dd1461053a57600080fd5b80638da5cb5b1161012f5780639f1b0cf0116101145780639f1b0cf0146104ee578063a22cb46514610501578063b4e4c5db1461051457600080fd5b80638da5cb5b146104d557806395d89b41146104e657600080fd5b806382b13aa01161016057806382b13aa014610478578063834d5fac1461048b57806386800621146104af57600080fd5b8063811a59e71461045d578063821606ec1461047057600080fd5b80632ee2af04116102295780634f6ccce7116101dd5780636352211e116101c25780636352211e1461042f57806370a0823114610442578063715018a61461045557600080fd5b80634f6ccce71461040957806355f804b31461041c57600080fd5b80632f745c591161020e5780632f745c59146103d05780633872c8a2146103e357806342842e0e146103f657600080fd5b80632ee2af041461039a5780632ee67d3e146103ad57600080fd5b8063095ea7b31161028057806318160ddd1161026557806318160ddd1461036257806323b872dd14610374578063282575321461038757600080fd5b8063095ea7b31461032f578063096a4c5c1461034257600080fd5b806301ffc9a7146102b257806306fdde03146102da578063081812fc146102ef57806308cc8a521461031a575b600080fd5b6102c56102c0366004611c4c565b610613565b60405190151581526020015b60405180910390f35b6102e2610657565b6040516102d19190611cb9565b6103026102fd366004611ccc565b6106e9565b6040516001600160a01b0390911681526020016102d1565b61032d610328366004611ce5565b610712565b005b61032d61033d366004611d23565b6107aa565b610355610350366004611ccc565b6107b9565b6040516102d19190611d4d565b6009545b6040519081526020016102d1565b61032d610382366004611d91565b61081b565b61032d610395366004611ce5565b6108bf565b61032d6103a8366004611ccc565b6108ea565b6102c56103bb366004611dcd565b600f6020526000908152604090205460ff1681565b6103666103de366004611d23565b610910565b61032d6103f1366004611ce5565b610975565b61032d610404366004611d91565b61099e565b610366610417366004611ccc565b6109be565b61032d61042a366004611e94565b610a17565b61030261043d366004611ccc565b610a2b565b610366610450366004611dcd565b610a36565b61032d610a97565b61032d61046b366004611ce5565b610aab565b6102e2610ad6565b610366610486366004611ce5565b610ae5565b61049e610499366004611ccc565b610b16565b6040516102d1959493929190611ec9565b6102c56104bd366004611ccc565b6000908152600e602052604090206003015460ff1690565b6000546001600160a01b0316610302565b6102e2610bda565b6103666104fc366004611ce5565b610be9565b61032d61050f366004611f08565b610c05565b610355610522366004611ccc565b610c10565b61032d610535366004611f44565b610c70565b6102e2610548366004611ccc565b610c87565b6102e2610cfc565b610366610563366004611ccc565b6000908152600e602052604090206002015490565b61032d610586366004611e94565b610d8a565b61032d610599366004611ce5565b610ef3565b6102c56105ac366004611fc0565b6001600160a01b03918216600090815260066020908152604080832093909416825291909152205460ff1690565b61032d6105e8366004611ff3565b610fc0565b61032d6105fb366004611dcd565b611049565b61032d61060e366004611ce5565b6110a0565b60006001600160e01b031982167f780e9d63000000000000000000000000000000000000000000000000000000001480610651575061065182611106565b92915050565b6060600180546106669061203a565b80601f01602080910402602001604051908101604052809291908181526020018280546106929061203a565b80156106df5780601f106106b4576101008083540402835291602001916106df565b820191906000526020600020905b8154815290600101906020018083116106c257829003601f168201915b5050505050905090565b60006106f4826111a1565b506000828152600560205260409020546001600160a01b0316610651565b61071a6111da565b6000828152600e60205260409020600201548111156107805760405162461bcd60e51b815260206004820152601560248201527f58502063616e6e6f74206265206e65676174697665000000000000000000000060448201526064015b60405180910390fd5b6000828152600e6020526040812060020180548392906107a190849061208a565b90915550505050565b6107b5828233611220565b5050565b6000818152600d602090815260409182902080548351818402810184019094528084526060939283018282801561080f57602002820191906000526020600020905b8154815260200190600101908083116107fb575b50505050509050919050565b6001600160a01b03821661084557604051633250574960e11b815260006004820152602401610777565b600061085283833361122d565b9050836001600160a01b0316816001600160a01b0316146108b9576040517f64283d7b0000000000000000000000000000000000000000000000000000000081526001600160a01b0380861660048301526024820184905282166044820152606401610777565b50505050565b6108c76111da565b6000918252600c6020908152604083208054600181018255908452922090910155565b6108f26111da565b6000908152600e60205260409020600301805460ff19166001179055565b600061091b83610a36565b821061094c5760405163295f44f760e21b81526001600160a01b038416600482015260248101839052604401610777565b506001600160a01b03919091166000908152600760209081526040808320938352929052205490565b61097d6111da565b6000828152600e6020526040812060020180548392906107a190849061209d565b6109b983838360405180602001604052806000815250610c70565b505050565b60006109c960095490565b82106109f25760405163295f44f760e21b81526000600482015260248101839052604401610777565b60098281548110610a0557610a056120b0565b90600052602060002001549050919050565b610a1f6111da565b600b6107b58282612114565b6000610651826111a1565b60006001600160a01b038216610a7b576040517f89c62b6400000000000000000000000000000000000000000000000000000000815260006004820152602401610777565b506001600160a01b031660009081526004602052604090205490565b610a9f6111da565b610aa96000611302565b565b610ab36111da565b6000918252600d6020908152604083208054600181018255908452922090910155565b6060600b80546106669061203a565b600d6020528160005260406000208181548110610b0157600080fd5b90600052602060002001600091509150505481565b600e6020526000908152604090208054600182018054919291610b389061203a565b80601f0160208091040260200160405190810160405280929190818152602001828054610b649061203a565b8015610bb15780601f10610b8657610100808354040283529160200191610bb1565b820191906000526020600020905b815481529060010190602001808311610b9457829003601f168201915b50505050600283015460039093015491929160ff8116915061010090046001600160a01b031685565b6060600280546106669061203a565b600c6020528160005260406000208181548110610b0157600080fd5b6107b533838361135f565b6000818152600c602090815260409182902080548351818402810184019094528084526060939283018282801561080f57602002820191906000526020600020908154815260200190600101908083116107fb5750505050509050919050565b610c7b84848461081b565b6108b984848484611417565b6060610c92826111a1565b506000610caa60408051602081019091526000815290565b90506000815111610cca5760405180602001604052806000815250610cf5565b80610cd484611540565b604051602001610ce59291906121d4565b6040516020818303038152906040525b9392505050565b600b8054610d099061203a565b80601f0160208091040260200160405190810160405280929190818152602001828054610d359061203a565b8015610d825780601f10610d5757610100808354040283529160200191610d82565b820191906000526020600020905b815481529060010190602001808311610d6557829003601f168201915b505050505081565b336000908152600f602052604090205460ff1615610dea5760405162461bcd60e51b815260206004820152601a60248201527f596f7520616c7265616479206861766520616e206176617461720000000000006044820152606401610777565b6000610df560095490565b610e0090600161209d565b9050610e0c33826115e0565b336000818152600f60209081526040808320805460ff19166001908117909155815160a081018352868152808401888152818401869052606082018690526080820196909652868552600e9093529220815181559251909291820190610e729082612114565b50604082015160028201556060820151600390910180546080909301516001600160a01b0316610100027fffffffffffffffffffffff0000000000000000000000000000000000000000ff921515929092167fffffffffffffffffffffff000000000000000000000000000000000000000000909316929092171790555050565b610efb6111da565b6000828152600c60205260408120905b81548110156108b95782828281548110610f2757610f276120b0565b906000526020600020015403610fae5781548290610f479060019061208a565b81548110610f5757610f576120b0565b9060005260206000200154828281548110610f7457610f746120b0565b906000526020600020018190555081805480610f9257610f92612203565b6001900381819060005260206000200160009055905550505050565b80610fb881612219565b915050610f0b565b6000828152600e602052604090206003015461010090046001600160a01b0316331461102e5760405162461bcd60e51b815260206004820152600d60248201527f4e6f7420746865206f776e6572000000000000000000000000000000000000006044820152606401610777565b6000828152600e602052604090206001016109b98282612114565b6110516111da565b6001600160a01b038116611094576040517f1e4fbdf700000000000000000000000000000000000000000000000000000000815260006004820152602401610777565b61109d81611302565b50565b6110a86111da565b6000828152600d60205260408120905b81548110156108b957828282815481106110d4576110d46120b0565b9060005260206000200154036110f45781548290610f479060019061208a565b806110fe81612219565b9150506110b8565b60006001600160e01b031982167f80ac58cd00000000000000000000000000000000000000000000000000000000148061116957506001600160e01b031982167f5b5e139f00000000000000000000000000000000000000000000000000000000145b8061065157507f01ffc9a7000000000000000000000000000000000000000000000000000000006001600160e01b0319831614610651565b6000818152600360205260408120546001600160a01b03168061065157604051637e27328960e01b815260048101849052602401610777565b6000546001600160a01b03163314610aa9576040517f118cdaa7000000000000000000000000000000000000000000000000000000008152336004820152602401610777565b6109b983838360016115fa565b60008061123b858585611745565b90506001600160a01b0381166112985761129384600980546000838152600a60205260408120829055600182018355919091527f6e1540171b6c0c960b71a7020d9f60077f6af931a8bbf590da0223dacf75c7af0155565b6112bb565b846001600160a01b0316816001600160a01b0316146112bb576112bb818561184b565b6001600160a01b0385166112d7576112d2846118dc565b6112fa565b846001600160a01b0316816001600160a01b0316146112fa576112fa858561196f565b949350505050565b600080546001600160a01b0383811673ffffffffffffffffffffffffffffffffffffffff19831681178455604051919092169283917f8be0079c531659141344cd1fd0a4f28419497f9722a3daafe3b4186f6b6457e09190a35050565b6001600160a01b0382166113aa576040517f5b08ba180000000000000000000000000000000000000000000000000000000081526001600160a01b0383166004820152602401610777565b6001600160a01b03838116600081815260066020908152604080832094871680845294825291829020805460ff191686151590811790915591519182527f17307eab39ab6107e8899845ad3d59bd9653f200f220920489ca2b5937696c31910160405180910390a3505050565b6001600160a01b0383163b156108b957604051630a85bd0160e11b81526001600160a01b0384169063150b7a0290611459903390889087908790600401612232565b6020604051808303816000875af1925050508015611494575060408051601f3d908101601f191682019092526114919181019061226e565b60015b6114fd573d8080156114c2576040519150601f19603f3d011682016040523d82523d6000602084013e6114c7565b606091505b5080516000036114f557604051633250574960e11b81526001600160a01b0385166004820152602401610777565b805181602001fd5b6001600160e01b03198116630a85bd0160e11b1461153957604051633250574960e11b81526001600160a01b0385166004820152602401610777565b5050505050565b6060600061154d836119bf565b600101905060008167ffffffffffffffff81111561156d5761156d611de8565b6040519080825280601f01601f191660200182016040528015611597576020820181803683370190505b5090508181016020015b600019017f3031323334353637383961626364656600000000000000000000000000000000600a86061a8153600a85049450846115a157509392505050565b6107b5828260405180602001604052806000815250611aa1565b808061160e57506001600160a01b03821615155b1561170857600061161e846111a1565b90506001600160a01b0383161580159061164a5750826001600160a01b0316816001600160a01b031614155b801561167c57506001600160a01b0380821660009081526006602090815260408083209387168352929052205460ff16155b156116be576040517fa9fbf51f0000000000000000000000000000000000000000000000000000000081526001600160a01b0384166004820152602401610777565b81156117065783856001600160a01b0316826001600160a01b03167f8c5be1e5ebec7d5bd14f71427d1e84f3dd0314c0f7b2291e5b200ac8c7c3b92560405160405180910390a45b505b50506000908152600560205260409020805473ffffffffffffffffffffffffffffffffffffffff19166001600160a01b0392909216919091179055565b6000828152600360205260408120546001600160a01b039081169083161561177257611772818486611ab8565b6001600160a01b038116156117b05761178f6000856000806115fa565b6001600160a01b038116600090815260046020526040902080546000190190555b6001600160a01b038516156117df576001600160a01b0385166000908152600460205260409020805460010190555b600084815260036020526040808220805473ffffffffffffffffffffffffffffffffffffffff19166001600160a01b0389811691821790925591518793918516917fddf252ad1be2c89b69c2b068fc378daa952ba7f163c4a11628f55a4df523b3ef91a4949350505050565b600061185683610a36565b6000838152600860205260409020549091508082146118a9576001600160a01b03841660009081526007602090815260408083208584528252808320548484528184208190558352600890915290208190555b5060009182526008602090815260408084208490556001600160a01b039094168352600781528383209183525290812055565b6009546000906118ee9060019061208a565b6000838152600a602052604081205460098054939450909284908110611916576119166120b0565b906000526020600020015490508060098381548110611937576119376120b0565b6000918252602080832090910192909255828152600a90915260408082208490558582528120556009805480610f9257610f92612203565b6000600161197c84610a36565b611986919061208a565b6001600160a01b039093166000908152600760209081526040808320868452825280832085905593825260089052919091209190915550565b6000807a184f03e93ff9f4daa797ed6e38ed64bf6a1f0100000000000000008310611a08577a184f03e93ff9f4daa797ed6e38ed64bf6a1f010000000000000000830492506040015b6d04ee2d6d415b85acef81000000008310611a34576d04ee2d6d415b85acef8100000000830492506020015b662386f26fc100008310611a5257662386f26fc10000830492506010015b6305f5e1008310611a6a576305f5e100830492506008015b6127108310611a7e57612710830492506004015b60648310611a90576064830492506002015b600a83106106515760010192915050565b611aab8383611b35565b6109b96000848484611417565b611ac3838383611bb3565b6109b9576001600160a01b038316611af157604051637e27328960e01b815260048101829052602401610777565b6040517f177e802f0000000000000000000000000000000000000000000000000000000081526001600160a01b038316600482015260248101829052604401610777565b6001600160a01b038216611b5f57604051633250574960e11b815260006004820152602401610777565b6000611b6d8383600061122d565b90506001600160a01b038116156109b9576040517f73c6ac6e00000000000000000000000000000000000000000000000000000000815260006004820152602401610777565b60006001600160a01b038316158015906112fa5750826001600160a01b0316846001600160a01b03161480611c0d57506001600160a01b0380851660009081526006602090815260408083209387168352929052205460ff165b806112fa5750506000908152600560205260409020546001600160a01b03908116911614919050565b6001600160e01b03198116811461109d57600080fd5b600060208284031215611c5e57600080fd5b8135610cf581611c36565b60005b83811015611c84578181015183820152602001611c6c565b50506000910152565b60008151808452611ca5816020860160208601611c69565b601f01601f19169290920160200192915050565b602081526000610cf56020830184611c8d565b600060208284031215611cde57600080fd5b5035919050565b60008060408385031215611cf857600080fd5b50508035926020909101359150565b80356001600160a01b0381168114611d1e57600080fd5b919050565b60008060408385031215611d3657600080fd5b611d3f83611d07565b946020939093013593505050565b6020808252825182820181905260009190848201906040850190845b81811015611d8557835183529284019291840191600101611d69565b50909695505050505050565b600080600060608486031215611da657600080fd5b611daf84611d07565b9250611dbd60208501611d07565b9150604084013590509250925092565b600060208284031215611ddf57600080fd5b610cf582611d07565b634e487b7160e01b600052604160045260246000fd5b600067ffffffffffffffff80841115611e1957611e19611de8565b604051601f8501601f19908116603f01168101908282118183101715611e4157611e41611de8565b81604052809350858152868686011115611e5a57600080fd5b858560208301376000602087830101525050509392505050565b600082601f830112611e8557600080fd5b610cf583833560208501611dfe565b600060208284031215611ea657600080fd5b813567ffffffffffffffff811115611ebd57600080fd5b6112fa84828501611e74565b85815260a060208201526000611ee260a0830187611c8d565b60408301959095525091151560608301526001600160a01b031660809091015292915050565b60008060408385031215611f1b57600080fd5b611f2483611d07565b915060208301358015158114611f3957600080fd5b809150509250929050565b60008060008060808587031215611f5a57600080fd5b611f6385611d07565b9350611f7160208601611d07565b925060408501359150606085013567ffffffffffffffff811115611f9457600080fd5b8501601f81018713611fa557600080fd5b611fb487823560208401611dfe565b91505092959194509250565b60008060408385031215611fd357600080fd5b611fdc83611d07565b9150611fea60208401611d07565b90509250929050565b6000806040838503121561200657600080fd5b82359150602083013567ffffffffffffffff81111561202457600080fd5b61203085828601611e74565b9150509250929050565b600181811c9082168061204e57607f821691505b60208210810361206e57634e487b7160e01b600052602260045260246000fd5b50919050565b634e487b7160e01b600052601160045260246000fd5b8181038181111561065157610651612074565b8082018082111561065157610651612074565b634e487b7160e01b600052603260045260246000fd5b601f8211156109b957600081815260208120601f850160051c810160208610156120ed5750805b601f850160051c820191505b8181101561210c578281556001016120f9565b505050505050565b815167ffffffffffffffff81111561212e5761212e611de8565b6121428161213c845461203a565b846120c6565b602080601f831160018114612177576000841561215f5750858301515b600019600386901b1c1916600185901b17855561210c565b600085815260208120601f198616915b828110156121a657888601518255948401946001909101908401612187565b50858210156121c45787850151600019600388901b60f8161c191681555b5050505050600190811b01905550565b600083516121e6818460208801611c69565b8351908301906121fa818360208801611c69565b01949350505050565b634e487b7160e01b600052603160045260246000fd5b60006001820161222b5761222b612074565b5060010190565b60006001600160a01b038087168352808616602084015250836040830152608060608301526122646080830184611c8d565b9695505050505050565b60006020828403121561228057600080fd5b8151610cf581611c3656fea264697066735822122062c574da2c333652b205f8e462502a7ed9218ad8d9069e287934b10052a0fed064736f6c63430008140033",
  "linkReferences": {},
  "deployedLinkReferences": {}
}