{
  "_format": "hh-sol-artifact-1",
  "contractName": "Avatar",
  "sourceName": "contracts/Avatar.sol",
  "abi": [
    {
      "inputs": [
        {
          "internalType": "string",
          "name": "baseURI",
          "type": "string"
        }
      ],
      "stateMutability": "nonpayable",
      "type": "constructor"
    },
    {
      "inputs": [],
      "name": "ERC721EnumerableForbiddenBatchMint",
      "type": "error"
    },
    {
      "inputs": [
        {
          "internalType": "address",
          "name": "sender",
          "type": "address"
        },
        {
          "internalType": "uint256",
          "name": "tokenId",
          "type": "uint256"
        },
        {
          "internalType": "address",
          "name": "owner",
          "type": "address"
        }
      ],
      "name": "ERC721IncorrectOwner",
      "type": "error"
    },
    {
      "inputs": [
        {
          "internalType": "address",
          "name": "operator",
          "type": "address"
        },
        {
          "internalType": "uint256",
          "name": "tokenId",
          "type": "uint256"
        }
      ],
      "name": "ERC721InsufficientApproval",
      "type": "error"
    },
    {
      "inputs": [
        {
          "internalType": "address",
          "name": "approver",
          "type": "address"
        }
      ],
      "name": "ERC721InvalidApprover",
      "type": "error"
    },
    {
      "inputs": [
        {
          "internalType": "address",
          "name": "operator",
          "type": "address"
        }
      ],
      "name": "ERC721InvalidOperator",
      "type": "error"
    },
    {
      "inputs": [
        {
          "internalType": "address",
          "name": "owner",
          "type": "address"
        }
      ],
      "name": "ERC721InvalidOwner",
      "type": "error"
    },
    {
      "inputs": [
        {
          "internalType": "address",
          "name": "receiver",
          "type": "address"
        }
      ],
      "name": "ERC721InvalidReceiver",
      "type": "error"
    },
    {
      "inputs": [
        {
          "internalType": "address",
          "name": "sender",
          "type": "address"
        }
      ],
      "name": "ERC721InvalidSender",
      "type": "error"
    },
    {
      "inputs": [
        {
          "internalType": "uint256",
          "name": "tokenId",
          "type": "uint256"
        }
      ],
      "name": "ERC721NonexistentToken",
      "type": "error"
    },
    {
      "inputs": [
        {
          "internalType": "address",
          "name": "owner",
          "type": "address"
        },
        {
          "internalType": "uint256",
          "name": "index",
          "type": "uint256"
        }
      ],
      "name": "ERC721OutOfBoundsIndex",
      "type": "error"
    },
    {
      "inputs": [
        {
          "internalType": "address",
          "name": "owner",
          "type": "address"
        }
      ],
      "name": "OwnableInvalidOwner",
      "type": "error"
    },
    {
      "inputs": [
        {
          "internalType": "address",
          "name": "account",
          "type": "address"
        }
      ],
      "name": "OwnableUnauthorizedAccount",
      "type": "error"
    },
    {
      "anonymous": false,
      "inputs": [
        {
          "indexed": true,
          "internalType": "address",
          "name": "owner",
          "type": "address"
        },
        {
          "indexed": true,
          "internalType": "address",
          "name": "approved",
          "type": "address"
        },
        {
          "indexed": true,
          "internalType": "uint256",
          "name": "tokenId",
          "type": "uint256"
        }
      ],
      "name": "Approval",
      "type": "event"
    },
    {
      "anonymous": false,
      "inputs": [
        {
          "indexed": true,
          "internalType": "address",
          "name": "owner",
          "type": "address"
        },
        {
          "indexed": true,
          "internalType": "address",
          "name": "operator",
          "type": "address"
        },
        {
          "indexed": false,
          "internalType": "bool",
          "name": "approved",
          "type": "bool"
        }
      ],
      "name": "ApprovalForAll",
      "type": "event"
    },
    {
      "anonymous": false,
      "inputs": [
        {
          "indexed": true,
          "internalType": "address",
          "name": "previousOwner",
          "type": "address"
        },
        {
          "indexed": true,
          "internalType": "address",
          "name": "newOwner",
          "type": "address"
        }
      ],
      "name": "OwnershipTransferred",
      "type": "event"
    },
    {
      "anonymous": false,
      "inputs": [
        {
          "indexed": true,
          "internalType": "address",
          "name": "from",
          "type": "address"
        },
        {
          "indexed": true,
          "internalType": "address",
          "name": "to",
          "type": "address"
        },
        {
          "indexed": true,
          "internalType": "uint256",
          "name": "tokenId",
          "type": "uint256"
        }
      ],
      "name": "Transfer",
      "type": "event"
    },
    {
      "inputs": [],
      "name": "_baseTokenURI",
      "outputs": [
        {
          "internalType": "string",
          "name": "",
          "type": "string"
        }
      ],
      "stateMutability": "view",
      "type": "function"
    },
    {
      "inputs": [
        {
          "internalType": "address",
          "name": "to",
          "type": "address"
        },
        {
          "internalType": "uint256",
          "name": "tokenId",
          "type": "uint256"
        }
      ],
      "name": "approve",
      "outputs": [],
      "stateMutability": "nonpayable",
      "type": "function"
    },
    {
      "inputs": [
        {
          "internalType": "uint256",
          "name": "",
          "type": "uint256"
        }
      ],
      "name": "avatars",
      "outputs": [
        {
          "internalType": "uint256",
          "name": "tokenId",
          "type": "uint256"
        },
        {
          "internalType": "string",
          "name": "image",
          "type": "string"
        },
        {
          "internalType": "uint256",
          "name": "xp",
          "type": "uint256"
        },
        {
          "internalType": "bool",
          "name": "isParticipatingInRef",
          "type": "bool"
        }
      ],
      "stateMutability": "view",
      "type": "function"
    },
    {
      "inputs": [
        {
          "internalType": "uint256",
          "name": "tokenId",
          "type": "uint256"
        },
        {
          "internalType": "uint256",
          "name": "badgeId",
          "type": "uint256"
        }
      ],
      "name": "awardBadge",
      "outputs": [],
      "stateMutability": "nonpayable",
      "type": "function"
    },
    {
      "inputs": [
        {
          "internalType": "uint256",
          "name": "",
          "type": "uint256"
        },
        {
          "internalType": "uint256",
          "name": "",
          "type": "uint256"
        }
      ],
      "name": "badges",
      "outputs": [
        {
          "internalType": "uint256",
          "name": "",
          "type": "uint256"
        }
      ],
      "stateMutability": "view",
      "type": "function"
    },
    {
      "inputs": [
        {
          "internalType": "address",
          "name": "owner",
          "type": "address"
        }
      ],
      "name": "balanceOf",
      "outputs": [
        {
          "internalType": "uint256",
          "name": "",
          "type": "uint256"
        }
      ],
      "stateMutability": "view",
      "type": "function"
    },
    {
      "inputs": [
        {
          "internalType": "uint256",
          "name": "tokenId",
          "type": "uint256"
        },
        {
          "internalType": "string",
          "name": "newImage",
          "type": "string"
        }
      ],
      "name": "changeAvatarImage",
      "outputs": [],
      "stateMutability": "nonpayable",
      "type": "function"
    },
    {
      "inputs": [
        {
          "internalType": "uint256",
          "name": "tokenId",
          "type": "uint256"
        },
        {
          "internalType": "uint256",
          "name": "amount",
          "type": "uint256"
        }
      ],
      "name": "decrementXP",
      "outputs": [],
      "stateMutability": "nonpayable",
      "type": "function"
    },
    {
      "inputs": [
        {
          "internalType": "uint256",
          "name": "tokenId",
          "type": "uint256"
        },
        {
          "internalType": "uint256",
          "name": "equipmentId",
          "type": "uint256"
        }
      ],
      "name": "equip",
      "outputs": [],
      "stateMutability": "nonpayable",
      "type": "function"
    },
    {
      "inputs": [
        {
          "internalType": "uint256",
          "name": "",
          "type": "uint256"
        },
        {
          "internalType": "uint256",
          "name": "",
          "type": "uint256"
        }
      ],
      "name": "equipments",
      "outputs": [
        {
          "internalType": "uint256",
          "name": "",
          "type": "uint256"
        }
      ],
      "stateMutability": "view",
      "type": "function"
    },
    {
      "inputs": [
        {
          "internalType": "uint256",
          "name": "tokenId",
          "type": "uint256"
        }
      ],
      "name": "getApproved",
      "outputs": [
        {
          "internalType": "address",
          "name": "",
          "type": "address"
        }
      ],
      "stateMutability": "view",
      "type": "function"
    },
    {
      "inputs": [
        {
          "internalType": "uint256",
          "name": "tokenId",
          "type": "uint256"
        }
      ],
      "name": "getBadges",
      "outputs": [
        {
          "internalType": "uint256[]",
          "name": "",
          "type": "uint256[]"
        }
      ],
      "stateMutability": "view",
      "type": "function"
    },
    {
      "inputs": [],
      "name": "getDefaultImage",
      "outputs": [
        {
          "internalType": "string",
          "name": "",
          "type": "string"
        }
      ],
      "stateMutability": "view",
      "type": "function"
    },
    {
      "inputs": [
        {
          "internalType": "uint256",
          "name": "tokenId",
          "type": "uint256"
        }
      ],
      "name": "getEquipments",
      "outputs": [
        {
          "internalType": "uint256[]",
          "name": "",
          "type": "uint256[]"
        }
      ],
      "stateMutability": "view",
      "type": "function"
    },
    {
      "inputs": [
        {
          "internalType": "uint256",
          "name": "tokenId",
          "type": "uint256"
        }
      ],
      "name": "getXP",
      "outputs": [
        {
          "internalType": "uint256",
          "name": "",
          "type": "uint256"
        }
      ],
      "stateMutability": "view",
      "type": "function"
    },
    {
      "inputs": [
        {
          "internalType": "uint256",
          "name": "tokenId",
          "type": "uint256"
        },
        {
          "internalType": "uint256",
          "name": "amount",
          "type": "uint256"
        }
      ],
      "name": "incrementXP",
      "outputs": [],
      "stateMutability": "nonpayable",
      "type": "function"
    },
    {
      "inputs": [
        {
          "internalType": "address",
          "name": "owner",
          "type": "address"
        },
        {
          "internalType": "address",
          "name": "operator",
          "type": "address"
        }
      ],
      "name": "isApprovedForAll",
      "outputs": [
        {
          "internalType": "bool",
          "name": "",
          "type": "bool"
        }
      ],
      "stateMutability": "view",
      "type": "function"
    },
    {
      "inputs": [
        {
          "internalType": "uint256",
          "name": "tokenId",
          "type": "uint256"
        }
      ],
      "name": "isParticipatingInRef",
      "outputs": [
        {
          "internalType": "bool",
          "name": "",
          "type": "bool"
        }
      ],
      "stateMutability": "view",
      "type": "function"
    },
    {
      "inputs": [
        {
          "internalType": "string",
          "name": "image",
          "type": "string"
        }
      ],
      "name": "mint",
      "outputs": [],
      "stateMutability": "nonpayable",
      "type": "function"
    },
    {
      "inputs": [],
      "name": "name",
      "outputs": [
        {
          "internalType": "string",
          "name": "",
          "type": "string"
        }
      ],
      "stateMutability": "view",
      "type": "function"
    },
    {
      "inputs": [],
      "name": "owner",
      "outputs": [
        {
          "internalType": "address",
          "name": "",
          "type": "address"
        }
      ],
      "stateMutability": "view",
      "type": "function"
    },
    {
      "inputs": [
        {
          "internalType": "uint256",
          "name": "tokenId",
          "type": "uint256"
        }
      ],
      "name": "ownerOf",
      "outputs": [
        {
          "internalType": "address",
          "name": "",
          "type": "address"
        }
      ],
      "stateMutability": "view",
      "type": "function"
    },
    {
      "inputs": [
        {
          "internalType": "uint256",
          "name": "tokenId",
          "type": "uint256"
        }
      ],
      "name": "participateInRef",
      "outputs": [],
      "stateMutability": "nonpayable",
      "type": "function"
    },
    {
      "inputs": [
        {
          "internalType": "uint256",
          "name": "tokenId",
          "type": "uint256"
        },
        {
          "internalType": "uint256",
          "name": "badgeId",
          "type": "uint256"
        }
      ],
      "name": "removeBadge",
      "outputs": [],
      "stateMutability": "nonpayable",
      "type": "function"
    },
    {
      "inputs": [
        {
          "internalType": "uint256",
          "name": "tokenId",
          "type": "uint256"
        },
        {
          "internalType": "uint256",
          "name": "equipmentId",
          "type": "uint256"
        }
      ],
      "name": "removeEquipment",
      "outputs": [],
      "stateMutability": "nonpayable",
      "type": "function"
    },
    {
      "inputs": [],
      "name": "renounceOwnership",
      "outputs": [],
      "stateMutability": "nonpayable",
      "type": "function"
    },
    {
      "inputs": [
        {
          "internalType": "address",
          "name": "from",
          "type": "address"
        },
        {
          "internalType": "address",
          "name": "to",
          "type": "address"
        },
        {
          "internalType": "uint256",
          "name": "tokenId",
          "type": "uint256"
        }
      ],
      "name": "safeTransferFrom",
      "outputs": [],
      "stateMutability": "nonpayable",
      "type": "function"
    },
    {
      "inputs": [
        {
          "internalType": "address",
          "name": "from",
          "type": "address"
        },
        {
          "internalType": "address",
          "name": "to",
          "type": "address"
        },
        {
          "internalType": "uint256",
          "name": "tokenId",
          "type": "uint256"
        },
        {
          "internalType": "bytes",
          "name": "data",
          "type": "bytes"
        }
      ],
      "name": "safeTransferFrom",
      "outputs": [],
      "stateMutability": "nonpayable",
      "type": "function"
    },
    {
      "inputs": [
        {
          "internalType": "address",
          "name": "operator",
          "type": "address"
        },
        {
          "internalType": "bool",
          "name": "approved",
          "type": "bool"
        }
      ],
      "name": "setApprovalForAll",
      "outputs": [],
      "stateMutability": "nonpayable",
      "type": "function"
    },
    {
      "inputs": [
        {
          "internalType": "string",
          "name": "_uri",
          "type": "string"
        }
      ],
      "name": "setBaseURI",
      "outputs": [],
      "stateMutability": "nonpayable",
      "type": "function"
    },
    {
      "inputs": [
        {
          "internalType": "bytes4",
          "name": "interfaceId",
          "type": "bytes4"
        }
      ],
      "name": "supportsInterface",
      "outputs": [
        {
          "internalType": "bool",
          "name": "",
          "type": "bool"
        }
      ],
      "stateMutability": "view",
      "type": "function"
    },
    {
      "inputs": [],
      "name": "symbol",
      "outputs": [
        {
          "internalType": "string",
          "name": "",
          "type": "string"
        }
      ],
      "stateMutability": "view",
      "type": "function"
    },
    {
      "inputs": [
        {
          "internalType": "uint256",
          "name": "index",
          "type": "uint256"
        }
      ],
      "name": "tokenByIndex",
      "outputs": [
        {
          "internalType": "uint256",
          "name": "",
          "type": "uint256"
        }
      ],
      "stateMutability": "view",
      "type": "function"
    },
    {
      "inputs": [
        {
          "internalType": "address",
          "name": "owner",
          "type": "address"
        },
        {
          "internalType": "uint256",
          "name": "index",
          "type": "uint256"
        }
      ],
      "name": "tokenOfOwnerByIndex",
      "outputs": [
        {
          "internalType": "uint256",
          "name": "",
          "type": "uint256"
        }
      ],
      "stateMutability": "view",
      "type": "function"
    },
    {
      "inputs": [
        {
          "internalType": "uint256",
          "name": "tokenId",
          "type": "uint256"
        }
      ],
      "name": "tokenURI",
      "outputs": [
        {
          "internalType": "string",
          "name": "",
          "type": "string"
        }
      ],
      "stateMutability": "view",
      "type": "function"
    },
    {
      "inputs": [],
      "name": "totalSupply",
      "outputs": [
        {
          "internalType": "uint256",
          "name": "",
          "type": "uint256"
        }
      ],
      "stateMutability": "view",
      "type": "function"
    },
    {
      "inputs": [
        {
          "internalType": "address",
          "name": "from",
          "type": "address"
        },
        {
          "internalType": "address",
          "name": "to",
          "type": "address"
        },
        {
          "internalType": "uint256",
          "name": "tokenId",
          "type": "uint256"
        }
      ],
      "name": "transferFrom",
      "outputs": [],
      "stateMutability": "nonpayable",
      "type": "function"
    },
    {
      "inputs": [
        {
          "internalType": "address",
          "name": "newOwner",
          "type": "address"
        }
      ],
      "name": "transferOwnership",
      "outputs": [],
      "stateMutability": "nonpayable",
      "type": "function"
    }
  ],
  "bytecode": "0x60806040523480156200001157600080fd5b5060405162004267380380620042678339818101604052810190620000379190620004b8565b6040518060400160405280600681526020017f41564154415200000000000000000000000000000000000000000000000000008152506040518060400160405280600481526020017f495456410000000000000000000000000000000000000000000000000000000081525033600073ffffffffffffffffffffffffffffffffffffffff168173ffffffffffffffffffffffffffffffffffffffff1603620001195760006040517f1e4fbdf70000000000000000000000000000000000000000000000000000000081526004016200011091906200054e565b60405180910390fd5b6200012a816200016960201b60201c565b5081600190816200013c9190620007b6565b5080600290816200014e9190620007b6565b50505062000162816200022d60201b60201c565b506200089d565b60008060009054906101000a900473ffffffffffffffffffffffffffffffffffffffff169050816000806101000a81548173ffffffffffffffffffffffffffffffffffffffff021916908373ffffffffffffffffffffffffffffffffffffffff1602179055508173ffffffffffffffffffffffffffffffffffffffff168173ffffffffffffffffffffffffffffffffffffffff167f8be0079c531659141344cd1fd0a4f28419497f9722a3daafe3b4186f6b6457e060405160405180910390a35050565b6200023d6200025260201b60201c565b80600b90816200024e9190620007b6565b5050565b62000262620002f460201b60201c565b73ffffffffffffffffffffffffffffffffffffffff1662000288620002fc60201b60201c565b73ffffffffffffffffffffffffffffffffffffffff1614620002f257620002b4620002f460201b60201c565b6040517f118cdaa7000000000000000000000000000000000000000000000000000000008152600401620002e991906200054e565b60405180910390fd5b565b600033905090565b60008060009054906101000a900473ffffffffffffffffffffffffffffffffffffffff16905090565b6000604051905090565b600080fd5b600080fd5b600080fd5b600080fd5b6000601f19601f8301169050919050565b7f4e487b7100000000000000000000000000000000000000000000000000000000600052604160045260246000fd5b6200038e8262000343565b810181811067ffffffffffffffff82111715620003b057620003af62000354565b5b80604052505050565b6000620003c562000325565b9050620003d3828262000383565b919050565b600067ffffffffffffffff821115620003f657620003f562000354565b5b620004018262000343565b9050602081019050919050565b60005b838110156200042e57808201518184015260208101905062000411565b60008484015250505050565b6000620004516200044b84620003d8565b620003b9565b90508281526020810184848401111562000470576200046f6200033e565b5b6200047d8482856200040e565b509392505050565b600082601f8301126200049d576200049c62000339565b5b8151620004af8482602086016200043a565b91505092915050565b600060208284031215620004d157620004d06200032f565b5b600082015167ffffffffffffffff811115620004f257620004f162000334565b5b620005008482850162000485565b91505092915050565b600073ffffffffffffffffffffffffffffffffffffffff82169050919050565b6000620005368262000509565b9050919050565b620005488162000529565b82525050565b60006020820190506200056560008301846200053d565b92915050565b600081519050919050565b7f4e487b7100000000000000000000000000000000000000000000000000000000600052602260045260246000fd5b60006002820490506001821680620005be57607f821691505b602082108103620005d457620005d362000576565b5b50919050565b60008190508160005260206000209050919050565b60006020601f8301049050919050565b600082821b905092915050565b6000600883026200063e7fffffffffffffffffffffffffffffffffffffffffffffffffffffffffffffffff82620005ff565b6200064a8683620005ff565b95508019841693508086168417925050509392505050565b6000819050919050565b6000819050919050565b600062000697620006916200068b8462000662565b6200066c565b62000662565b9050919050565b6000819050919050565b620006b38362000676565b620006cb620006c2826200069e565b8484546200060c565b825550505050565b600090565b620006e2620006d3565b620006ef818484620006a8565b505050565b5b8181101562000717576200070b600082620006d8565b600181019050620006f5565b5050565b601f82111562000766576200073081620005da565b6200073b84620005ef565b810160208510156200074b578190505b620007636200075a85620005ef565b830182620006f4565b50505b505050565b600082821c905092915050565b60006200078b600019846008026200076b565b1980831691505092915050565b6000620007a6838362000778565b9150826002028217905092915050565b620007c1826200056b565b67ffffffffffffffff811115620007dd57620007dc62000354565b5b620007e98254620005a5565b620007f68282856200071b565b600060209050601f8311600181146200082e576000841562000819578287015190505b62000825858262000798565b86555062000895565b601f1984166200083e86620005da565b60005b82811015620008685784890151825560018201915060208501945060208101905062000841565b8683101562000888578489015162000884601f89168262000778565b8355505b6001600288020188555050505b505050505050565b6139ba80620008ad6000396000f3fe608060405234801561001057600080fd5b50600436106102325760003560e01c8063821606ec11610130578063b88d4fde116100b8578063e6a845961161007c578063e6a84596146106e8578063e985e9c514610704578063f25e18df14610734578063f2fde38b14610750578063fc78ad001461076c57610232565b8063b88d4fde14610632578063c87b56dd1461064e578063cfc86f7b1461067e578063d4cae9451461069c578063d85d3d27146106cc57610232565b80638da5cb5b116100ff5780638da5cb5b1461057a57806395d89b41146105985780639f1b0cf0146105b6578063a22cb465146105e6578063b4e4c5db1461060257610232565b8063821606ec146104c957806382b13aa0146104e7578063834d5fac14610517578063868006211461054a57610232565b80632ee2af04116101be57806355f804b31161018257806355f804b3146104275780636352211e1461044357806370a0823114610473578063715018a6146104a3578063811a59e7146104ad57610232565b80632ee2af04146103735780632f745c591461038f5780633872c8a2146103bf57806342842e0e146103db5780634f6ccce7146103f757610232565b8063095ea7b311610205578063095ea7b3146102d1578063096a4c5c146102ed57806318160ddd1461031d57806323b872dd1461033b578063282575321461035757610232565b806301ffc9a71461023757806306fdde0314610267578063081812fc1461028557806308cc8a52146102b5575b600080fd5b610251600480360381019061024c9190612abf565b610788565b60405161025e9190612b07565b60405180910390f35b61026f610802565b60405161027c9190612bb2565b60405180910390f35b61029f600480360381019061029a9190612c0a565b610894565b6040516102ac9190612c78565b60405180910390f35b6102cf60048036038101906102ca9190612c93565b6108b0565b005b6102eb60048036038101906102e69190612cff565b610942565b005b61030760048036038101906103029190612c0a565b610958565b6040516103149190612dfd565b60405180910390f35b6103256109c3565b6040516103329190612e2e565b60405180910390f35b61035560048036038101906103509190612e49565b6109d0565b005b610371600480360381019061036c9190612c93565b610ad2565b005b61038d60048036038101906103889190612c0a565b610b18565b005b6103a960048036038101906103a49190612cff565b610b52565b6040516103b69190612e2e565b60405180910390f35b6103d960048036038101906103d49190612c93565b610bfb565b005b6103f560048036038101906103f09190612e49565b610c34565b005b610411600480360381019061040c9190612c0a565b610c54565b60405161041e9190612e2e565b60405180910390f35b610441600480360381019061043c9190612fd1565b610cca565b005b61045d60048036038101906104589190612c0a565b610ce5565b60405161046a9190612c78565b60405180910390f35b61048d6004803603810190610488919061301a565b610cf7565b60405161049a9190612e2e565b60405180910390f35b6104ab610db1565b005b6104c760048036038101906104c29190612c93565b610dc5565b005b6104d1610e0b565b6040516104de9190612bb2565b60405180910390f35b61050160048036038101906104fc9190612c93565b610e9d565b60405161050e9190612e2e565b60405180910390f35b610531600480360381019061052c9190612c0a565b610ece565b6040516105419493929190613047565b60405180910390f35b610564600480360381019061055f9190612c0a565b610f93565b6040516105719190612b07565b60405180910390f35b610582610fc0565b60405161058f9190612c78565b60405180910390f35b6105a0610fe9565b6040516105ad9190612bb2565b60405180910390f35b6105d060048036038101906105cb9190612c93565b61107b565b6040516105dd9190612e2e565b60405180910390f35b61060060048036038101906105fb91906130bf565b6110ac565b005b61061c60048036038101906106179190612c0a565b6110c2565b6040516106299190612dfd565b60405180910390f35b61064c600480360381019061064791906131a0565b61112d565b005b61066860048036038101906106639190612c0a565b61114a565b6040516106759190612bb2565b60405180910390f35b6106866111b3565b6040516106939190612bb2565b60405180910390f35b6106b660048036038101906106b19190612c0a565b611241565b6040516106c39190612e2e565b60405180910390f35b6106e660048036038101906106e19190612fd1565b611261565b005b61070260048036038101906106fd9190612c93565b611314565b005b61071e60048036038101906107199190613223565b6113fd565b60405161072b9190612b07565b60405180910390f35b61074e60048036038101906107499190613263565b611491565b005b61076a6004803603810190610765919061301a565b611519565b005b61078660048036038101906107819190612c93565b61159f565b005b60007f780e9d63000000000000000000000000000000000000000000000000000000007bffffffffffffffffffffffffffffffffffffffffffffffffffffffff1916827bffffffffffffffffffffffffffffffffffffffffffffffffffffffff191614806107fb57506107fa82611688565b5b9050919050565b606060018054610811906132ee565b80601f016020809104026020016040519081016040528092919081815260200182805461083d906132ee565b801561088a5780601f1061085f5761010080835404028352916020019161088a565b820191906000526020600020905b81548152906001019060200180831161086d57829003601f168201915b5050505050905090565b600061089f8261176a565b506108a9826117f2565b9050919050565b6108b861182f565b80600e6000848152602001908152602001600020600201541015610911576040517f08c379a00000000000000000000000000000000000000000000000000000000081526004016109089061336b565b60405180910390fd5b80600e6000848152602001908152602001600020600201600082825461093791906133ba565b925050819055505050565b610954828261094f6118b6565b6118be565b5050565b6060600d60008381526020019081526020016000208054806020026020016040519081016040528092919081815260200182805480156109b757602002820191906000526020600020905b8154815260200190600101908083116109a3575b50505050509050919050565b6000600980549050905090565b600073ffffffffffffffffffffffffffffffffffffffff168273ffffffffffffffffffffffffffffffffffffffff1603610a425760006040517f64a0ae92000000000000000000000000000000000000000000000000000000008152600401610a399190612c78565b60405180910390fd5b6000610a568383610a516118b6565b6118d0565b90508373ffffffffffffffffffffffffffffffffffffffff168173ffffffffffffffffffffffffffffffffffffffff1614610acc578382826040517f64283d7b000000000000000000000000000000000000000000000000000000008152600401610ac3939291906133ee565b60405180910390fd5b50505050565b610ada61182f565b600c60008381526020019081526020016000208190806001815401808255809150506001900390600052602060002001600090919091909150555050565b610b2061182f565b6001600e600083815260200190815260200160002060030160006101000a81548160ff02191690831515021790555050565b6000610b5d83610cf7565b8210610ba25782826040517fa57d13dc000000000000000000000000000000000000000000000000000000008152600401610b99929190613425565b60405180910390fd5b600760008473ffffffffffffffffffffffffffffffffffffffff1673ffffffffffffffffffffffffffffffffffffffff168152602001908152602001600020600083815260200190815260200160002054905092915050565b610c0361182f565b80600e60008481526020019081526020016000206002016000828254610c29919061344e565b925050819055505050565b610c4f8383836040518060200160405280600081525061112d565b505050565b6000610c5e6109c3565b8210610ca4576000826040517fa57d13dc000000000000000000000000000000000000000000000000000000008152600401610c9b929190613425565b60405180910390fd5b60098281548110610cb857610cb7613482565b5b90600052602060002001549050919050565b610cd261182f565b80600b9081610ce1919061365d565b5050565b6000610cf08261176a565b9050919050565b60008073ffffffffffffffffffffffffffffffffffffffff168273ffffffffffffffffffffffffffffffffffffffff1603610d6a5760006040517f89c62b64000000000000000000000000000000000000000000000000000000008152600401610d619190612c78565b60405180910390fd5b600460008373ffffffffffffffffffffffffffffffffffffffff1673ffffffffffffffffffffffffffffffffffffffff168152602001908152602001600020549050919050565b610db961182f565b610dc360006119ed565b565b610dcd61182f565b600d60008381526020019081526020016000208190806001815401808255809150506001900390600052602060002001600090919091909150555050565b6060600b8054610e1a906132ee565b80601f0160208091040260200160405190810160405280929190818152602001828054610e46906132ee565b8015610e935780601f10610e6857610100808354040283529160200191610e93565b820191906000526020600020905b815481529060010190602001808311610e7657829003601f168201915b5050505050905090565b600d6020528160005260406000208181548110610eb957600080fd5b90600052602060002001600091509150505481565b600e602052806000526040600020600091509050806000015490806001018054610ef7906132ee565b80601f0160208091040260200160405190810160405280929190818152602001828054610f23906132ee565b8015610f705780601f10610f4557610100808354040283529160200191610f70565b820191906000526020600020905b815481529060010190602001808311610f5357829003601f168201915b5050505050908060020154908060030160009054906101000a900460ff16905084565b6000600e600083815260200190815260200160002060030160009054906101000a900460ff169050919050565b60008060009054906101000a900473ffffffffffffffffffffffffffffffffffffffff16905090565b606060028054610ff8906132ee565b80601f0160208091040260200160405190810160405280929190818152602001828054611024906132ee565b80156110715780601f1061104657610100808354040283529160200191611071565b820191906000526020600020905b81548152906001019060200180831161105457829003601f168201915b5050505050905090565b600c602052816000526040600020818154811061109757600080fd5b90600052602060002001600091509150505481565b6110be6110b76118b6565b8383611ab1565b5050565b6060600c600083815260200190815260200160002080548060200260200160405190810160405280929190818152602001828054801561112157602002820191906000526020600020905b81548152602001906001019080831161110d575b50505050509050919050565b6111388484846109d0565b61114484848484611c20565b50505050565b60606111558261176a565b506000611160611dd7565b9050600081511161118057604051806020016040528060008152506111ab565b8061118a84611dee565b60405160200161119b92919061376b565b6040516020818303038152906040525b915050919050565b600b80546111c0906132ee565b80601f01602080910402602001604051908101604052809291908181526020018280546111ec906132ee565b80156112395780601f1061120e57610100808354040283529160200191611239565b820191906000526020600020905b81548152906001019060200180831161121c57829003601f168201915b505050505081565b6000600e6000838152602001908152602001600020600201549050919050565b61126961182f565b600060016112756109c3565b61127f919061344e565b905061128b3382611ebc565b60405180608001604052808281526020018381526020016000815260200160001515815250600e60008381526020019081526020016000206000820151816000015560208201518160010190816112e2919061365d565b506040820151816002015560608201518160030160006101000a81548160ff0219169083151502179055509050505050565b61131c61182f565b6000600c6000848152602001908152602001600020905060005b81805490508110156113f6578282828154811061135657611355613482565b5b9060005260206000200154036113e357816001838054905061137891906133ba565b8154811061138957611388613482565b5b90600052602060002001548282815481106113a7576113a6613482565b5b9060005260206000200181905550818054806113c6576113c561378f565b5b6001900381819060005260206000200160009055905550506113f9565b80806113ee906137be565b915050611336565b50505b5050565b6000600660008473ffffffffffffffffffffffffffffffffffffffff1673ffffffffffffffffffffffffffffffffffffffff16815260200190815260200160002060008373ffffffffffffffffffffffffffffffffffffffff1673ffffffffffffffffffffffffffffffffffffffff16815260200190815260200160002060009054906101000a900460ff16905092915050565b61149961182f565b81600e600084815260200190815260200160002060000154146114f1576040517f08c379a00000000000000000000000000000000000000000000000000000000081526004016114e890613852565b60405180910390fd5b80600e60008481526020019081526020016000206001019081611514919061365d565b505050565b61152161182f565b600073ffffffffffffffffffffffffffffffffffffffff168173ffffffffffffffffffffffffffffffffffffffff16036115935760006040517f1e4fbdf700000000000000000000000000000000000000000000000000000000815260040161158a9190612c78565b60405180910390fd5b61159c816119ed565b50565b6115a761182f565b6000600d6000848152602001908152602001600020905060005b818054905081101561168157828282815481106115e1576115e0613482565b5b90600052602060002001540361166e57816001838054905061160391906133ba565b8154811061161457611613613482565b5b906000526020600020015482828154811061163257611631613482565b5b9060005260206000200181905550818054806116515761165061378f565b5b600190038181906000526020600020016000905590555050611684565b8080611679906137be565b9150506115c1565b50505b5050565b60007f80ac58cd000000000000000000000000000000000000000000000000000000007bffffffffffffffffffffffffffffffffffffffffffffffffffffffff1916827bffffffffffffffffffffffffffffffffffffffffffffffffffffffff1916148061175357507f5b5e139f000000000000000000000000000000000000000000000000000000007bffffffffffffffffffffffffffffffffffffffffffffffffffffffff1916827bffffffffffffffffffffffffffffffffffffffffffffffffffffffff1916145b80611763575061176282611eda565b5b9050919050565b60008061177683611f44565b9050600073ffffffffffffffffffffffffffffffffffffffff168173ffffffffffffffffffffffffffffffffffffffff16036117e957826040517f7e2732890000000000000000000000000000000000000000000000000000000081526004016117e09190612e2e565b60405180910390fd5b80915050919050565b60006005600083815260200190815260200160002060009054906101000a900473ffffffffffffffffffffffffffffffffffffffff169050919050565b6118376118b6565b73ffffffffffffffffffffffffffffffffffffffff16611855610fc0565b73ffffffffffffffffffffffffffffffffffffffff16146118b4576118786118b6565b6040517f118cdaa70000000000000000000000000000000000000000000000000000000081526004016118ab9190612c78565b60405180910390fd5b565b600033905090565b6118cb8383836001611f81565b505050565b6000806118de858585612146565b9050600073ffffffffffffffffffffffffffffffffffffffff168173ffffffffffffffffffffffffffffffffffffffff16036119225761191d84612360565b611961565b8473ffffffffffffffffffffffffffffffffffffffff168173ffffffffffffffffffffffffffffffffffffffff16146119605761195f81856123a9565b5b5b600073ffffffffffffffffffffffffffffffffffffffff168573ffffffffffffffffffffffffffffffffffffffff16036119a35761199e8461250a565b6119e2565b8473ffffffffffffffffffffffffffffffffffffffff168173ffffffffffffffffffffffffffffffffffffffff16146119e1576119e085856125db565b5b5b809150509392505050565b60008060009054906101000a900473ffffffffffffffffffffffffffffffffffffffff169050816000806101000a81548173ffffffffffffffffffffffffffffffffffffffff021916908373ffffffffffffffffffffffffffffffffffffffff1602179055508173ffffffffffffffffffffffffffffffffffffffff168173ffffffffffffffffffffffffffffffffffffffff167f8be0079c531659141344cd1fd0a4f28419497f9722a3daafe3b4186f6b6457e060405160405180910390a35050565b600073ffffffffffffffffffffffffffffffffffffffff168273ffffffffffffffffffffffffffffffffffffffff1603611b2257816040517f5b08ba18000000000000000000000000000000000000000000000000000000008152600401611b199190612c78565b60405180910390fd5b80600660008573ffffffffffffffffffffffffffffffffffffffff1673ffffffffffffffffffffffffffffffffffffffff16815260200190815260200160002060008473ffffffffffffffffffffffffffffffffffffffff1673ffffffffffffffffffffffffffffffffffffffff16815260200190815260200160002060006101000a81548160ff0219169083151502179055508173ffffffffffffffffffffffffffffffffffffffff168373ffffffffffffffffffffffffffffffffffffffff167f17307eab39ab6107e8899845ad3d59bd9653f200f220920489ca2b5937696c3183604051611c139190612b07565b60405180910390a3505050565b60008373ffffffffffffffffffffffffffffffffffffffff163b1115611dd1578273ffffffffffffffffffffffffffffffffffffffff1663150b7a02611c646118b6565b8685856040518563ffffffff1660e01b8152600401611c8694939291906138c7565b6020604051808303816000875af1925050508015611cc257506040513d601f19601f82011682018060405250810190611cbf9190613928565b60015b611d46573d8060008114611cf2576040519150601f19603f3d011682016040523d82523d6000602084013e611cf7565b606091505b506000815103611d3e57836040517f64a0ae92000000000000000000000000000000000000000000000000000000008152600401611d359190612c78565b60405180910390fd5b805181602001fd5b63150b7a0260e01b7bffffffffffffffffffffffffffffffffffffffffffffffffffffffff1916817bffffffffffffffffffffffffffffffffffffffffffffffffffffffff191614611dcf57836040517f64a0ae92000000000000000000000000000000000000000000000000000000008152600401611dc69190612c78565b60405180910390fd5b505b50505050565b606060405180602001604052806000815250905090565b606060006001611dfd84612666565b01905060008167ffffffffffffffff811115611e1c57611e1b612ea6565b5b6040519080825280601f01601f191660200182016040528015611e4e5781602001600182028036833780820191505090505b509050600082602001820190505b600115611eb1578080600190039150507f3031323334353637383961626364656600000000000000000000000000000000600a86061a8153600a8581611ea557611ea4613955565b5b04945060008503611e5c575b819350505050919050565b611ed68282604051806020016040528060008152506127b9565b5050565b60007f01ffc9a7000000000000000000000000000000000000000000000000000000007bffffffffffffffffffffffffffffffffffffffffffffffffffffffff1916827bffffffffffffffffffffffffffffffffffffffffffffffffffffffff1916149050919050565b60006003600083815260200190815260200160002060009054906101000a900473ffffffffffffffffffffffffffffffffffffffff169050919050565b8080611fba5750600073ffffffffffffffffffffffffffffffffffffffff168273ffffffffffffffffffffffffffffffffffffffff1614155b156120ee576000611fca8461176a565b9050600073ffffffffffffffffffffffffffffffffffffffff168373ffffffffffffffffffffffffffffffffffffffff161415801561203557508273ffffffffffffffffffffffffffffffffffffffff168173ffffffffffffffffffffffffffffffffffffffff1614155b8015612048575061204681846113fd565b155b1561208a57826040517fa9fbf51f0000000000000000000000000000000000000000000000000000000081526004016120819190612c78565b60405180910390fd5b81156120ec57838573ffffffffffffffffffffffffffffffffffffffff168273ffffffffffffffffffffffffffffffffffffffff167f8c5be1e5ebec7d5bd14f71427d1e84f3dd0314c0f7b2291e5b200ac8c7c3b92560405160405180910390a45b505b836005600085815260200190815260200160002060006101000a81548173ffffffffffffffffffffffffffffffffffffffff021916908373ffffffffffffffffffffffffffffffffffffffff16021790555050505050565b60008061215284611f44565b9050600073ffffffffffffffffffffffffffffffffffffffff168373ffffffffffffffffffffffffffffffffffffffff1614612194576121938184866127d5565b5b600073ffffffffffffffffffffffffffffffffffffffff168173ffffffffffffffffffffffffffffffffffffffff1614612225576121d6600085600080611f81565b6001600460008373ffffffffffffffffffffffffffffffffffffffff1673ffffffffffffffffffffffffffffffffffffffff168152602001908152602001600020600082825403925050819055505b600073ffffffffffffffffffffffffffffffffffffffff168573ffffffffffffffffffffffffffffffffffffffff16146122a8576001600460008773ffffffffffffffffffffffffffffffffffffffff1673ffffffffffffffffffffffffffffffffffffffff168152602001908152602001600020600082825401925050819055505b846003600086815260200190815260200160002060006101000a81548173ffffffffffffffffffffffffffffffffffffffff021916908373ffffffffffffffffffffffffffffffffffffffff160217905550838573ffffffffffffffffffffffffffffffffffffffff168273ffffffffffffffffffffffffffffffffffffffff167fddf252ad1be2c89b69c2b068fc378daa952ba7f163c4a11628f55a4df523b3ef60405160405180910390a4809150509392505050565b600980549050600a600083815260200190815260200160002081905550600981908060018154018082558091505060019003906000526020600020016000909190919091505550565b60006123b483610cf7565b9050600060086000848152602001908152602001600020549050818114612499576000600760008673ffffffffffffffffffffffffffffffffffffffff1673ffffffffffffffffffffffffffffffffffffffff168152602001908152602001600020600084815260200190815260200160002054905080600760008773ffffffffffffffffffffffffffffffffffffffff1673ffffffffffffffffffffffffffffffffffffffff168152602001908152602001600020600084815260200190815260200160002081905550816008600083815260200190815260200160002081905550505b6008600084815260200190815260200160002060009055600760008573ffffffffffffffffffffffffffffffffffffffff1673ffffffffffffffffffffffffffffffffffffffff16815260200190815260200160002060008381526020019081526020016000206000905550505050565b6000600160098054905061251e91906133ba565b90506000600a600084815260200190815260200160002054905060006009838154811061254e5761254d613482565b5b9060005260206000200154905080600983815481106125705761256f613482565b5b906000526020600020018190555081600a600083815260200190815260200160002081905550600a60008581526020019081526020016000206000905560098054806125bf576125be61378f565b5b6001900381819060005260206000200160009055905550505050565b600060016125e884610cf7565b6125f291906133ba565b905081600760008573ffffffffffffffffffffffffffffffffffffffff1673ffffffffffffffffffffffffffffffffffffffff168152602001908152602001600020600083815260200190815260200160002081905550806008600084815260200190815260200160002081905550505050565b600080600090507a184f03e93ff9f4daa797ed6e38ed64bf6a1f01000000000000000083106126c4577a184f03e93ff9f4daa797ed6e38ed64bf6a1f01000000000000000083816126ba576126b9613955565b5b0492506040810190505b6d04ee2d6d415b85acef81000000008310612701576d04ee2d6d415b85acef810000000083816126f7576126f6613955565b5b0492506020810190505b662386f26fc10000831061273057662386f26fc10000838161272657612725613955565b5b0492506010810190505b6305f5e1008310612759576305f5e100838161274f5761274e613955565b5b0492506008810190505b612710831061277e57612710838161277457612773613955565b5b0492506004810190505b606483106127a1576064838161279757612796613955565b5b0492506002810190505b600a83106127b0576001810190505b80915050919050565b6127c38383612899565b6127d06000848484611c20565b505050565b6127e0838383612992565b61289457600073ffffffffffffffffffffffffffffffffffffffff168373ffffffffffffffffffffffffffffffffffffffff160361285557806040517f7e27328900000000000000000000000000000000000000000000000000000000815260040161284c9190612e2e565b60405180910390fd5b81816040517f177e802f00000000000000000000000000000000000000000000000000000000815260040161288b929190613425565b60405180910390fd5b505050565b600073ffffffffffffffffffffffffffffffffffffffff168273ffffffffffffffffffffffffffffffffffffffff160361290b5760006040517f64a0ae920000000000000000000000000000000000000000000000000000000081526004016129029190612c78565b60405180910390fd5b6000612919838360006118d0565b9050600073ffffffffffffffffffffffffffffffffffffffff168173ffffffffffffffffffffffffffffffffffffffff161461298d5760006040517f73c6ac6e0000000000000000000000000000000000000000000000000000000081526004016129849190612c78565b60405180910390fd5b505050565b60008073ffffffffffffffffffffffffffffffffffffffff168373ffffffffffffffffffffffffffffffffffffffff1614158015612a4a57508273ffffffffffffffffffffffffffffffffffffffff168473ffffffffffffffffffffffffffffffffffffffff161480612a0b5750612a0a84846113fd565b5b80612a4957508273ffffffffffffffffffffffffffffffffffffffff16612a31836117f2565b73ffffffffffffffffffffffffffffffffffffffff16145b5b90509392505050565b6000604051905090565b600080fd5b600080fd5b60007fffffffff0000000000000000000000000000000000000000000000000000000082169050919050565b612a9c81612a67565b8114612aa757600080fd5b50565b600081359050612ab981612a93565b92915050565b600060208284031215612ad557612ad4612a5d565b5b6000612ae384828501612aaa565b91505092915050565b60008115159050919050565b612b0181612aec565b82525050565b6000602082019050612b1c6000830184612af8565b92915050565b600081519050919050565b600082825260208201905092915050565b60005b83811015612b5c578082015181840152602081019050612b41565b60008484015250505050565b6000601f19601f8301169050919050565b6000612b8482612b22565b612b8e8185612b2d565b9350612b9e818560208601612b3e565b612ba781612b68565b840191505092915050565b60006020820190508181036000830152612bcc8184612b79565b905092915050565b6000819050919050565b612be781612bd4565b8114612bf257600080fd5b50565b600081359050612c0481612bde565b92915050565b600060208284031215612c2057612c1f612a5d565b5b6000612c2e84828501612bf5565b91505092915050565b600073ffffffffffffffffffffffffffffffffffffffff82169050919050565b6000612c6282612c37565b9050919050565b612c7281612c57565b82525050565b6000602082019050612c8d6000830184612c69565b92915050565b60008060408385031215612caa57612ca9612a5d565b5b6000612cb885828601612bf5565b9250506020612cc985828601612bf5565b9150509250929050565b612cdc81612c57565b8114612ce757600080fd5b50565b600081359050612cf981612cd3565b92915050565b60008060408385031215612d1657612d15612a5d565b5b6000612d2485828601612cea565b9250506020612d3585828601612bf5565b9150509250929050565b600081519050919050565b600082825260208201905092915050565b6000819050602082019050919050565b612d7481612bd4565b82525050565b6000612d868383612d6b565b60208301905092915050565b6000602082019050919050565b6000612daa82612d3f565b612db48185612d4a565b9350612dbf83612d5b565b8060005b83811015612df0578151612dd78882612d7a565b9750612de283612d92565b925050600181019050612dc3565b5085935050505092915050565b60006020820190508181036000830152612e178184612d9f565b905092915050565b612e2881612bd4565b82525050565b6000602082019050612e436000830184612e1f565b92915050565b600080600060608486031215612e6257612e61612a5d565b5b6000612e7086828701612cea565b9350506020612e8186828701612cea565b9250506040612e9286828701612bf5565b9150509250925092565b600080fd5b600080fd5b7f4e487b7100000000000000000000000000000000000000000000000000000000600052604160045260246000fd5b612ede82612b68565b810181811067ffffffffffffffff82111715612efd57612efc612ea6565b5b80604052505050565b6000612f10612a53565b9050612f1c8282612ed5565b919050565b600067ffffffffffffffff821115612f3c57612f3b612ea6565b5b612f4582612b68565b9050602081019050919050565b82818337600083830152505050565b6000612f74612f6f84612f21565b612f06565b905082815260208101848484011115612f9057612f8f612ea1565b5b612f9b848285612f52565b509392505050565b600082601f830112612fb857612fb7612e9c565b5b8135612fc8848260208601612f61565b91505092915050565b600060208284031215612fe757612fe6612a5d565b5b600082013567ffffffffffffffff81111561300557613004612a62565b5b61301184828501612fa3565b91505092915050565b6000602082840312156130305761302f612a5d565b5b600061303e84828501612cea565b91505092915050565b600060808201905061305c6000830187612e1f565b818103602083015261306e8186612b79565b905061307d6040830185612e1f565b61308a6060830184612af8565b95945050505050565b61309c81612aec565b81146130a757600080fd5b50565b6000813590506130b981613093565b92915050565b600080604083850312156130d6576130d5612a5d565b5b60006130e485828601612cea565b92505060206130f5858286016130aa565b9150509250929050565b600067ffffffffffffffff82111561311a57613119612ea6565b5b61312382612b68565b9050602081019050919050565b600061314361313e846130ff565b612f06565b90508281526020810184848401111561315f5761315e612ea1565b5b61316a848285612f52565b509392505050565b600082601f83011261318757613186612e9c565b5b8135613197848260208601613130565b91505092915050565b600080600080608085870312156131ba576131b9612a5d565b5b60006131c887828801612cea565b94505060206131d987828801612cea565b93505060406131ea87828801612bf5565b925050606085013567ffffffffffffffff81111561320b5761320a612a62565b5b61321787828801613172565b91505092959194509250565b6000806040838503121561323a57613239612a5d565b5b600061324885828601612cea565b925050602061325985828601612cea565b9150509250929050565b6000806040838503121561327a57613279612a5d565b5b600061328885828601612bf5565b925050602083013567ffffffffffffffff8111156132a9576132a8612a62565b5b6132b585828601612fa3565b9150509250929050565b7f4e487b7100000000000000000000000000000000000000000000000000000000600052602260045260246000fd5b6000600282049050600182168061330657607f821691505b602082108103613319576133186132bf565b5b50919050565b7f58502063616e6e6f74206265206e656761746976650000000000000000000000600082015250565b6000613355601583612b2d565b91506133608261331f565b602082019050919050565b6000602082019050818103600083015261338481613348565b9050919050565b7f4e487b7100000000000000000000000000000000000000000000000000000000600052601160045260246000fd5b60006133c582612bd4565b91506133d083612bd4565b92508282039050818111156133e8576133e761338b565b5b92915050565b60006060820190506134036000830186612c69565b6134106020830185612e1f565b61341d6040830184612c69565b949350505050565b600060408201905061343a6000830185612c69565b6134476020830184612e1f565b9392505050565b600061345982612bd4565b915061346483612bd4565b925082820190508082111561347c5761347b61338b565b5b92915050565b7f4e487b7100000000000000000000000000000000000000000000000000000000600052603260045260246000fd5b60008190508160005260206000209050919050565b60006020601f8301049050919050565b600082821b905092915050565b6000600883026135137fffffffffffffffffffffffffffffffffffffffffffffffffffffffffffffffff826134d6565b61351d86836134d6565b95508019841693508086168417925050509392505050565b6000819050919050565b600061355a61355561355084612bd4565b613535565b612bd4565b9050919050565b6000819050919050565b6135748361353f565b61358861358082613561565b8484546134e3565b825550505050565b600090565b61359d613590565b6135a881848461356b565b505050565b5b818110156135cc576135c1600082613595565b6001810190506135ae565b5050565b601f821115613611576135e2816134b1565b6135eb846134c6565b810160208510156135fa578190505b61360e613606856134c6565b8301826135ad565b50505b505050565b600082821c905092915050565b600061363460001984600802613616565b1980831691505092915050565b600061364d8383613623565b9150826002028217905092915050565b61366682612b22565b67ffffffffffffffff81111561367f5761367e612ea6565b5b61368982546132ee565b6136948282856135d0565b600060209050601f8311600181146136c757600084156136b5578287015190505b6136bf8582613641565b865550613727565b601f1984166136d5866134b1565b60005b828110156136fd578489015182556001820191506020850194506020810190506136d8565b8683101561371a5784890151613716601f891682613623565b8355505b6001600288020188555050505b505050505050565b600081905092915050565b600061374582612b22565b61374f818561372f565b935061375f818560208601612b3e565b80840191505092915050565b6000613777828561373a565b9150613783828461373a565b91508190509392505050565b7f4e487b7100000000000000000000000000000000000000000000000000000000600052603160045260246000fd5b60006137c982612bd4565b91507fffffffffffffffffffffffffffffffffffffffffffffffffffffffffffffffff82036137fb576137fa61338b565b5b600182019050919050565b7f41766174617220646f6573206e6f742065786973740000000000000000000000600082015250565b600061383c601583612b2d565b915061384782613806565b602082019050919050565b6000602082019050818103600083015261386b8161382f565b9050919050565b600081519050919050565b600082825260208201905092915050565b600061389982613872565b6138a3818561387d565b93506138b3818560208601612b3e565b6138bc81612b68565b840191505092915050565b60006080820190506138dc6000830187612c69565b6138e96020830186612c69565b6138f66040830185612e1f565b8181036060830152613908818461388e565b905095945050505050565b60008151905061392281612a93565b92915050565b60006020828403121561393e5761393d612a5d565b5b600061394c84828501613913565b91505092915050565b7f4e487b7100000000000000000000000000000000000000000000000000000000600052601260045260246000fdfea2646970667358221220ea90c940f8469bb51d8a6100f1dce4ac2693026c1b20e5b2f6cb506888bcffb264736f6c63430008140033",
  "linkReferences": {},
  "deployedLinkReferences": {}
}