{
  "_format": "hh-sol-artifact-1",
  "contractName": "Avatar",
  "sourceName": "contracts/Avatar.sol",
  "abi": [
    {
      "inputs": [
        {
          "internalType": "string",
          "name": "baseURI",
          "type": "string"
        }
      ],
      "stateMutability": "nonpayable",
      "type": "constructor"
    },
    {
      "inputs": [],
      "name": "ERC721EnumerableForbiddenBatchMint",
      "type": "error"
    },
    {
      "inputs": [
        {
          "internalType": "address",
          "name": "sender",
          "type": "address"
        },
        {
          "internalType": "uint256",
          "name": "tokenId",
          "type": "uint256"
        },
        {
          "internalType": "address",
          "name": "owner",
          "type": "address"
        }
      ],
      "name": "ERC721IncorrectOwner",
      "type": "error"
    },
    {
      "inputs": [
        {
          "internalType": "address",
          "name": "operator",
          "type": "address"
        },
        {
          "internalType": "uint256",
          "name": "tokenId",
          "type": "uint256"
        }
      ],
      "name": "ERC721InsufficientApproval",
      "type": "error"
    },
    {
      "inputs": [
        {
          "internalType": "address",
          "name": "approver",
          "type": "address"
        }
      ],
      "name": "ERC721InvalidApprover",
      "type": "error"
    },
    {
      "inputs": [
        {
          "internalType": "address",
          "name": "operator",
          "type": "address"
        }
      ],
      "name": "ERC721InvalidOperator",
      "type": "error"
    },
    {
      "inputs": [
        {
          "internalType": "address",
          "name": "owner",
          "type": "address"
        }
      ],
      "name": "ERC721InvalidOwner",
      "type": "error"
    },
    {
      "inputs": [
        {
          "internalType": "address",
          "name": "receiver",
          "type": "address"
        }
      ],
      "name": "ERC721InvalidReceiver",
      "type": "error"
    },
    {
      "inputs": [
        {
          "internalType": "address",
          "name": "sender",
          "type": "address"
        }
      ],
      "name": "ERC721InvalidSender",
      "type": "error"
    },
    {
      "inputs": [
        {
          "internalType": "uint256",
          "name": "tokenId",
          "type": "uint256"
        }
      ],
      "name": "ERC721NonexistentToken",
      "type": "error"
    },
    {
      "inputs": [
        {
          "internalType": "address",
          "name": "owner",
          "type": "address"
        },
        {
          "internalType": "uint256",
          "name": "index",
          "type": "uint256"
        }
      ],
      "name": "ERC721OutOfBoundsIndex",
      "type": "error"
    },
    {
      "inputs": [
        {
          "internalType": "address",
          "name": "owner",
          "type": "address"
        }
      ],
      "name": "OwnableInvalidOwner",
      "type": "error"
    },
    {
      "inputs": [
        {
          "internalType": "address",
          "name": "account",
          "type": "address"
        }
      ],
      "name": "OwnableUnauthorizedAccount",
      "type": "error"
    },
    {
      "anonymous": false,
      "inputs": [
        {
          "indexed": true,
          "internalType": "address",
          "name": "owner",
          "type": "address"
        },
        {
          "indexed": true,
          "internalType": "address",
          "name": "approved",
          "type": "address"
        },
        {
          "indexed": true,
          "internalType": "uint256",
          "name": "tokenId",
          "type": "uint256"
        }
      ],
      "name": "Approval",
      "type": "event"
    },
    {
      "anonymous": false,
      "inputs": [
        {
          "indexed": true,
          "internalType": "address",
          "name": "owner",
          "type": "address"
        },
        {
          "indexed": true,
          "internalType": "address",
          "name": "operator",
          "type": "address"
        },
        {
          "indexed": false,
          "internalType": "bool",
          "name": "approved",
          "type": "bool"
        }
      ],
      "name": "ApprovalForAll",
      "type": "event"
    },
    {
      "anonymous": false,
      "inputs": [
        {
          "indexed": true,
          "internalType": "address",
          "name": "previousOwner",
          "type": "address"
        },
        {
          "indexed": true,
          "internalType": "address",
          "name": "newOwner",
          "type": "address"
        }
      ],
      "name": "OwnershipTransferred",
      "type": "event"
    },
    {
      "anonymous": false,
      "inputs": [
        {
          "indexed": true,
          "internalType": "address",
          "name": "from",
          "type": "address"
        },
        {
          "indexed": true,
          "internalType": "address",
          "name": "to",
          "type": "address"
        },
        {
          "indexed": true,
          "internalType": "uint256",
          "name": "tokenId",
          "type": "uint256"
        }
      ],
      "name": "Transfer",
      "type": "event"
    },
    {
      "inputs": [],
      "name": "_baseTokenURI",
      "outputs": [
        {
          "internalType": "string",
          "name": "",
          "type": "string"
        }
      ],
      "stateMutability": "view",
      "type": "function"
    },
    {
      "inputs": [
        {
          "internalType": "address",
          "name": "",
          "type": "address"
        }
      ],
      "name": "_hasMintedAvatar",
      "outputs": [
        {
          "internalType": "bool",
          "name": "",
          "type": "bool"
        }
      ],
      "stateMutability": "view",
      "type": "function"
    },
    {
      "inputs": [
        {
          "internalType": "address",
          "name": "to",
          "type": "address"
        },
        {
          "internalType": "uint256",
          "name": "tokenId",
          "type": "uint256"
        }
      ],
      "name": "approve",
      "outputs": [],
      "stateMutability": "nonpayable",
      "type": "function"
    },
    {
      "inputs": [
        {
          "internalType": "uint256",
          "name": "",
          "type": "uint256"
        }
      ],
      "name": "avatars",
      "outputs": [
        {
          "internalType": "uint256",
          "name": "tokenId",
          "type": "uint256"
        },
        {
          "internalType": "string",
          "name": "image",
          "type": "string"
        },
        {
          "internalType": "uint256",
          "name": "xp",
          "type": "uint256"
        },
        {
          "internalType": "bool",
          "name": "isParticipatingInRef",
          "type": "bool"
        },
        {
          "internalType": "address",
          "name": "ownerAddress",
          "type": "address"
        }
      ],
      "stateMutability": "view",
      "type": "function"
    },
    {
      "inputs": [
        {
          "internalType": "uint256",
          "name": "tokenId",
          "type": "uint256"
        },
        {
          "internalType": "uint256",
          "name": "badgeId",
          "type": "uint256"
        }
      ],
      "name": "awardBadge",
      "outputs": [],
      "stateMutability": "nonpayable",
      "type": "function"
    },
    {
      "inputs": [
        {
          "internalType": "uint256",
          "name": "",
          "type": "uint256"
        },
        {
          "internalType": "uint256",
          "name": "",
          "type": "uint256"
        }
      ],
      "name": "badges",
      "outputs": [
        {
          "internalType": "uint256",
          "name": "",
          "type": "uint256"
        }
      ],
      "stateMutability": "view",
      "type": "function"
    },
    {
      "inputs": [
        {
          "internalType": "address",
          "name": "owner",
          "type": "address"
        }
      ],
      "name": "balanceOf",
      "outputs": [
        {
          "internalType": "uint256",
          "name": "",
          "type": "uint256"
        }
      ],
      "stateMutability": "view",
      "type": "function"
    },
    {
      "inputs": [
        {
          "internalType": "uint256",
          "name": "tokenId",
          "type": "uint256"
        },
        {
          "internalType": "string",
          "name": "newImage",
          "type": "string"
        }
      ],
      "name": "changeAvatarImage",
      "outputs": [],
      "stateMutability": "nonpayable",
      "type": "function"
    },
    {
      "inputs": [
        {
          "internalType": "uint256",
          "name": "tokenId",
          "type": "uint256"
        },
        {
          "internalType": "uint256",
          "name": "amount",
          "type": "uint256"
        }
      ],
      "name": "decrementXP",
      "outputs": [],
      "stateMutability": "nonpayable",
      "type": "function"
    },
    {
      "inputs": [
        {
          "internalType": "uint256",
          "name": "tokenId",
          "type": "uint256"
        },
        {
          "internalType": "uint256",
          "name": "equipmentId",
          "type": "uint256"
        }
      ],
      "name": "equip",
      "outputs": [],
      "stateMutability": "nonpayable",
      "type": "function"
    },
    {
      "inputs": [
        {
          "internalType": "uint256",
          "name": "",
          "type": "uint256"
        },
        {
          "internalType": "uint256",
          "name": "",
          "type": "uint256"
        }
      ],
      "name": "equipments",
      "outputs": [
        {
          "internalType": "uint256",
          "name": "",
          "type": "uint256"
        }
      ],
      "stateMutability": "view",
      "type": "function"
    },
    {
      "inputs": [
        {
          "internalType": "uint256",
          "name": "tokenId",
          "type": "uint256"
        }
      ],
      "name": "getApproved",
      "outputs": [
        {
          "internalType": "address",
          "name": "",
          "type": "address"
        }
      ],
      "stateMutability": "view",
      "type": "function"
    },
    {
      "inputs": [
        {
          "internalType": "uint256",
          "name": "tokenId",
          "type": "uint256"
        }
      ],
      "name": "getBadges",
      "outputs": [
        {
          "internalType": "uint256[]",
          "name": "",
          "type": "uint256[]"
        }
      ],
      "stateMutability": "view",
      "type": "function"
    },
    {
      "inputs": [],
      "name": "getDefaultImage",
      "outputs": [
        {
          "internalType": "string",
          "name": "",
          "type": "string"
        }
      ],
      "stateMutability": "view",
      "type": "function"
    },
    {
      "inputs": [
        {
          "internalType": "uint256",
          "name": "tokenId",
          "type": "uint256"
        }
      ],
      "name": "getEquipments",
      "outputs": [
        {
          "internalType": "uint256[]",
          "name": "",
          "type": "uint256[]"
        }
      ],
      "stateMutability": "view",
      "type": "function"
    },
    {
      "inputs": [
        {
          "internalType": "uint256",
          "name": "tokenId",
          "type": "uint256"
        }
      ],
      "name": "getXP",
      "outputs": [
        {
          "internalType": "uint256",
          "name": "",
          "type": "uint256"
        }
      ],
      "stateMutability": "view",
      "type": "function"
    },
    {
      "inputs": [
        {
          "internalType": "uint256",
          "name": "tokenId",
          "type": "uint256"
        },
        {
          "internalType": "uint256",
          "name": "amount",
          "type": "uint256"
        }
      ],
      "name": "incrementXP",
      "outputs": [],
      "stateMutability": "nonpayable",
      "type": "function"
    },
    {
      "inputs": [
        {
          "internalType": "address",
          "name": "owner",
          "type": "address"
        },
        {
          "internalType": "address",
          "name": "operator",
          "type": "address"
        }
      ],
      "name": "isApprovedForAll",
      "outputs": [
        {
          "internalType": "bool",
          "name": "",
          "type": "bool"
        }
      ],
      "stateMutability": "view",
      "type": "function"
    },
    {
      "inputs": [
        {
          "internalType": "uint256",
          "name": "tokenId",
          "type": "uint256"
        }
      ],
      "name": "isParticipatingInRef",
      "outputs": [
        {
          "internalType": "bool",
          "name": "",
          "type": "bool"
        }
      ],
      "stateMutability": "view",
      "type": "function"
    },
    {
      "inputs": [
        {
          "internalType": "string",
          "name": "image",
          "type": "string"
        }
      ],
      "name": "mint",
      "outputs": [],
      "stateMutability": "nonpayable",
      "type": "function"
    },
    {
      "inputs": [],
      "name": "name",
      "outputs": [
        {
          "internalType": "string",
          "name": "",
          "type": "string"
        }
      ],
      "stateMutability": "view",
      "type": "function"
    },
    {
      "inputs": [],
      "name": "owner",
      "outputs": [
        {
          "internalType": "address",
          "name": "",
          "type": "address"
        }
      ],
      "stateMutability": "view",
      "type": "function"
    },
    {
      "inputs": [
        {
          "internalType": "uint256",
          "name": "tokenId",
          "type": "uint256"
        }
      ],
      "name": "ownerOf",
      "outputs": [
        {
          "internalType": "address",
          "name": "",
          "type": "address"
        }
      ],
      "stateMutability": "view",
      "type": "function"
    },
    {
      "inputs": [
        {
          "internalType": "uint256",
          "name": "tokenId",
          "type": "uint256"
        }
      ],
      "name": "participateInRef",
      "outputs": [],
      "stateMutability": "nonpayable",
      "type": "function"
    },
    {
      "inputs": [
        {
          "internalType": "uint256",
          "name": "tokenId",
          "type": "uint256"
        },
        {
          "internalType": "uint256",
          "name": "badgeId",
          "type": "uint256"
        }
      ],
      "name": "removeBadge",
      "outputs": [],
      "stateMutability": "nonpayable",
      "type": "function"
    },
    {
      "inputs": [
        {
          "internalType": "uint256",
          "name": "tokenId",
          "type": "uint256"
        },
        {
          "internalType": "uint256",
          "name": "equipmentId",
          "type": "uint256"
        }
      ],
      "name": "removeEquipment",
      "outputs": [],
      "stateMutability": "nonpayable",
      "type": "function"
    },
    {
      "inputs": [],
      "name": "renounceOwnership",
      "outputs": [],
      "stateMutability": "nonpayable",
      "type": "function"
    },
    {
      "inputs": [
        {
          "internalType": "address",
          "name": "from",
          "type": "address"
        },
        {
          "internalType": "address",
          "name": "to",
          "type": "address"
        },
        {
          "internalType": "uint256",
          "name": "tokenId",
          "type": "uint256"
        }
      ],
      "name": "safeTransferFrom",
      "outputs": [],
      "stateMutability": "nonpayable",
      "type": "function"
    },
    {
      "inputs": [
        {
          "internalType": "address",
          "name": "from",
          "type": "address"
        },
        {
          "internalType": "address",
          "name": "to",
          "type": "address"
        },
        {
          "internalType": "uint256",
          "name": "tokenId",
          "type": "uint256"
        },
        {
          "internalType": "bytes",
          "name": "data",
          "type": "bytes"
        }
      ],
      "name": "safeTransferFrom",
      "outputs": [],
      "stateMutability": "nonpayable",
      "type": "function"
    },
    {
      "inputs": [
        {
          "internalType": "address",
          "name": "operator",
          "type": "address"
        },
        {
          "internalType": "bool",
          "name": "approved",
          "type": "bool"
        }
      ],
      "name": "setApprovalForAll",
      "outputs": [],
      "stateMutability": "nonpayable",
      "type": "function"
    },
    {
      "inputs": [
        {
          "internalType": "string",
          "name": "_uri",
          "type": "string"
        }
      ],
      "name": "setBaseURI",
      "outputs": [],
      "stateMutability": "nonpayable",
      "type": "function"
    },
    {
      "inputs": [
        {
          "internalType": "bytes4",
          "name": "interfaceId",
          "type": "bytes4"
        }
      ],
      "name": "supportsInterface",
      "outputs": [
        {
          "internalType": "bool",
          "name": "",
          "type": "bool"
        }
      ],
      "stateMutability": "view",
      "type": "function"
    },
    {
      "inputs": [],
      "name": "symbol",
      "outputs": [
        {
          "internalType": "string",
          "name": "",
          "type": "string"
        }
      ],
      "stateMutability": "view",
      "type": "function"
    },
    {
      "inputs": [
        {
          "internalType": "uint256",
          "name": "index",
          "type": "uint256"
        }
      ],
      "name": "tokenByIndex",
      "outputs": [
        {
          "internalType": "uint256",
          "name": "",
          "type": "uint256"
        }
      ],
      "stateMutability": "view",
      "type": "function"
    },
    {
      "inputs": [
        {
          "internalType": "address",
          "name": "owner",
          "type": "address"
        },
        {
          "internalType": "uint256",
          "name": "index",
          "type": "uint256"
        }
      ],
      "name": "tokenOfOwnerByIndex",
      "outputs": [
        {
          "internalType": "uint256",
          "name": "",
          "type": "uint256"
        }
      ],
      "stateMutability": "view",
      "type": "function"
    },
    {
      "inputs": [
        {
          "internalType": "uint256",
          "name": "tokenId",
          "type": "uint256"
        }
      ],
      "name": "tokenURI",
      "outputs": [
        {
          "internalType": "string",
          "name": "",
          "type": "string"
        }
      ],
      "stateMutability": "view",
      "type": "function"
    },
    {
      "inputs": [],
      "name": "totalSupply",
      "outputs": [
        {
          "internalType": "uint256",
          "name": "",
          "type": "uint256"
        }
      ],
      "stateMutability": "view",
      "type": "function"
    },
    {
      "inputs": [
        {
          "internalType": "address",
          "name": "from",
          "type": "address"
        },
        {
          "internalType": "address",
          "name": "to",
          "type": "address"
        },
        {
          "internalType": "uint256",
          "name": "tokenId",
          "type": "uint256"
        }
      ],
      "name": "transferFrom",
      "outputs": [],
      "stateMutability": "nonpayable",
      "type": "function"
    },
    {
      "inputs": [
        {
          "internalType": "address",
          "name": "newOwner",
          "type": "address"
        }
      ],
      "name": "transferOwnership",
      "outputs": [],
      "stateMutability": "nonpayable",
      "type": "function"
    }
  ],
  "bytecode": "0x60806040523480156200001157600080fd5b506040516200448f3803806200448f8339818101604052810190620000379190620004b8565b6040518060400160405280600681526020017f41564154415200000000000000000000000000000000000000000000000000008152506040518060400160405280600481526020017f495456410000000000000000000000000000000000000000000000000000000081525033600073ffffffffffffffffffffffffffffffffffffffff168173ffffffffffffffffffffffffffffffffffffffff1603620001195760006040517f1e4fbdf70000000000000000000000000000000000000000000000000000000081526004016200011091906200054e565b60405180910390fd5b6200012a816200016960201b60201c565b5081600190816200013c9190620007b6565b5080600290816200014e9190620007b6565b50505062000162816200022d60201b60201c565b506200089d565b60008060009054906101000a900473ffffffffffffffffffffffffffffffffffffffff169050816000806101000a81548173ffffffffffffffffffffffffffffffffffffffff021916908373ffffffffffffffffffffffffffffffffffffffff1602179055508173ffffffffffffffffffffffffffffffffffffffff168173ffffffffffffffffffffffffffffffffffffffff167f8be0079c531659141344cd1fd0a4f28419497f9722a3daafe3b4186f6b6457e060405160405180910390a35050565b6200023d6200025260201b60201c565b80600b90816200024e9190620007b6565b5050565b62000262620002f460201b60201c565b73ffffffffffffffffffffffffffffffffffffffff1662000288620002fc60201b60201c565b73ffffffffffffffffffffffffffffffffffffffff1614620002f257620002b4620002f460201b60201c565b6040517f118cdaa7000000000000000000000000000000000000000000000000000000008152600401620002e991906200054e565b60405180910390fd5b565b600033905090565b60008060009054906101000a900473ffffffffffffffffffffffffffffffffffffffff16905090565b6000604051905090565b600080fd5b600080fd5b600080fd5b600080fd5b6000601f19601f8301169050919050565b7f4e487b7100000000000000000000000000000000000000000000000000000000600052604160045260246000fd5b6200038e8262000343565b810181811067ffffffffffffffff82111715620003b057620003af62000354565b5b80604052505050565b6000620003c562000325565b9050620003d3828262000383565b919050565b600067ffffffffffffffff821115620003f657620003f562000354565b5b620004018262000343565b9050602081019050919050565b60005b838110156200042e57808201518184015260208101905062000411565b60008484015250505050565b6000620004516200044b84620003d8565b620003b9565b90508281526020810184848401111562000470576200046f6200033e565b5b6200047d8482856200040e565b509392505050565b600082601f8301126200049d576200049c62000339565b5b8151620004af8482602086016200043a565b91505092915050565b600060208284031215620004d157620004d06200032f565b5b600082015167ffffffffffffffff811115620004f257620004f162000334565b5b620005008482850162000485565b91505092915050565b600073ffffffffffffffffffffffffffffffffffffffff82169050919050565b6000620005368262000509565b9050919050565b620005488162000529565b82525050565b60006020820190506200056560008301846200053d565b92915050565b600081519050919050565b7f4e487b7100000000000000000000000000000000000000000000000000000000600052602260045260246000fd5b60006002820490506001821680620005be57607f821691505b602082108103620005d457620005d362000576565b5b50919050565b60008190508160005260206000209050919050565b60006020601f8301049050919050565b600082821b905092915050565b6000600883026200063e7fffffffffffffffffffffffffffffffffffffffffffffffffffffffffffffffff82620005ff565b6200064a8683620005ff565b95508019841693508086168417925050509392505050565b6000819050919050565b6000819050919050565b600062000697620006916200068b8462000662565b6200066c565b62000662565b9050919050565b6000819050919050565b620006b38362000676565b620006cb620006c2826200069e565b8484546200060c565b825550505050565b600090565b620006e2620006d3565b620006ef818484620006a8565b505050565b5b8181101562000717576200070b600082620006d8565b600181019050620006f5565b5050565b601f82111562000766576200073081620005da565b6200073b84620005ef565b810160208510156200074b578190505b620007636200075a85620005ef565b830182620006f4565b50505b505050565b600082821c905092915050565b60006200078b600019846008026200076b565b1980831691505092915050565b6000620007a6838362000778565b9150826002028217905092915050565b620007c1826200056b565b67ffffffffffffffff811115620007dd57620007dc62000354565b5b620007e98254620005a5565b620007f68282856200071b565b600060209050601f8311600181146200082e576000841562000819578287015190505b62000825858262000798565b86555062000895565b601f1984166200083e86620005da565b60005b82811015620008685784890151825560018201915060208501945060208101905062000841565b8683101562000888578489015162000884601f89168262000778565b8355505b6001600288020188555050505b505050505050565b613be280620008ad6000396000f3fe608060405234801561001057600080fd5b506004361061023d5760003560e01c8063811a59e71161013b578063b88d4fde116100b8578063e6a845961161007c578063e6a8459614610724578063e985e9c514610740578063f25e18df14610770578063f2fde38b1461078c578063fc78ad00146107a85761023d565b8063b88d4fde1461066e578063c87b56dd1461068a578063cfc86f7b146106ba578063d4cae945146106d8578063d85d3d27146107085761023d565b80638da5cb5b116100ff5780638da5cb5b146105b657806395d89b41146105d45780639f1b0cf0146105f2578063a22cb46514610622578063b4e4c5db1461063e5761023d565b8063811a59e7146104e8578063821606ec1461050457806382b13aa014610522578063834d5fac1461055257806386800621146105865761023d565b80632ee2af04116101c95780634f6ccce71161018d5780634f6ccce71461043257806355f804b3146104625780636352211e1461047e57806370a08231146104ae578063715018a6146104de5761023d565b80632ee2af041461037e5780632ee67d3e1461039a5780632f745c59146103ca5780633872c8a2146103fa57806342842e0e146104165761023d565b8063095ea7b311610210578063095ea7b3146102dc578063096a4c5c146102f857806318160ddd1461032857806323b872dd1461034657806328257532146103625761023d565b806301ffc9a71461024257806306fdde0314610272578063081812fc1461029057806308cc8a52146102c0575b600080fd5b61025c60048036038101906102579190612c6d565b6107c4565b6040516102699190612cb5565b60405180910390f35b61027a61083e565b6040516102879190612d60565b60405180910390f35b6102aa60048036038101906102a59190612db8565b6108d0565b6040516102b79190612e26565b60405180910390f35b6102da60048036038101906102d59190612e41565b6108ec565b005b6102f660048036038101906102f19190612ead565b61097e565b005b610312600480360381019061030d9190612db8565b610994565b60405161031f9190612fab565b60405180910390f35b6103306109ff565b60405161033d9190612fdc565b60405180910390f35b610360600480360381019061035b9190612ff7565b610a0c565b005b61037c60048036038101906103779190612e41565b610b0e565b005b61039860048036038101906103939190612db8565b610b54565b005b6103b460048036038101906103af919061304a565b610b8e565b6040516103c19190612cb5565b60405180910390f35b6103e460048036038101906103df9190612ead565b610bae565b6040516103f19190612fdc565b60405180910390f35b610414600480360381019061040f9190612e41565b610c57565b005b610430600480360381019061042b9190612ff7565b610c90565b005b61044c60048036038101906104479190612db8565b610cb0565b6040516104599190612fdc565b60405180910390f35b61047c600480360381019061047791906131ac565b610d26565b005b61049860048036038101906104939190612db8565b610d41565b6040516104a59190612e26565b60405180910390f35b6104c860048036038101906104c3919061304a565b610d53565b6040516104d59190612fdc565b60405180910390f35b6104e6610e0d565b005b61050260048036038101906104fd9190612e41565b610e21565b005b61050c610e67565b6040516105199190612d60565b60405180910390f35b61053c60048036038101906105379190612e41565b610ef9565b6040516105499190612fdc565b60405180910390f35b61056c60048036038101906105679190612db8565b610f2a565b60405161057d9594939291906131f5565b60405180910390f35b6105a0600480360381019061059b9190612db8565b611015565b6040516105ad9190612cb5565b60405180910390f35b6105be611042565b6040516105cb9190612e26565b60405180910390f35b6105dc61106b565b6040516105e99190612d60565b60405180910390f35b61060c60048036038101906106079190612e41565b6110fd565b6040516106199190612fdc565b60405180910390f35b61063c6004803603810190610637919061327b565b61112e565b005b61065860048036038101906106539190612db8565b611144565b6040516106659190612fab565b60405180910390f35b6106886004803603810190610683919061335c565b6111af565b005b6106a4600480360381019061069f9190612db8565b6111cc565b6040516106b19190612d60565b60405180910390f35b6106c2611235565b6040516106cf9190612d60565b60405180910390f35b6106f260048036038101906106ed9190612db8565b6112c3565b6040516106ff9190612fdc565b60405180910390f35b610722600480360381019061071d91906131ac565b6112e3565b005b61073e60048036038101906107399190612e41565b61147e565b005b61075a600480360381019061075591906133df565b611567565b6040516107679190612cb5565b60405180910390f35b61078a6004803603810190610785919061341f565b6115fb565b005b6107a660048036038101906107a1919061304a565b6116c7565b005b6107c260048036038101906107bd9190612e41565b61174d565b005b60007f780e9d63000000000000000000000000000000000000000000000000000000007bffffffffffffffffffffffffffffffffffffffffffffffffffffffff1916827bffffffffffffffffffffffffffffffffffffffffffffffffffffffff19161480610837575061083682611836565b5b9050919050565b60606001805461084d906134aa565b80601f0160208091040260200160405190810160405280929190818152602001828054610879906134aa565b80156108c65780601f1061089b576101008083540402835291602001916108c6565b820191906000526020600020905b8154815290600101906020018083116108a957829003601f168201915b5050505050905090565b60006108db82611918565b506108e5826119a0565b9050919050565b6108f46119dd565b80600e600084815260200190815260200160002060020154101561094d576040517f08c379a000000000000000000000000000000000000000000000000000000000815260040161094490613527565b60405180910390fd5b80600e600084815260200190815260200160002060020160008282546109739190613576565b925050819055505050565b610990828261098b611a64565b611a6c565b5050565b6060600d60008381526020019081526020016000208054806020026020016040519081016040528092919081815260200182805480156109f357602002820191906000526020600020905b8154815260200190600101908083116109df575b50505050509050919050565b6000600980549050905090565b600073ffffffffffffffffffffffffffffffffffffffff168273ffffffffffffffffffffffffffffffffffffffff1603610a7e5760006040517f64a0ae92000000000000000000000000000000000000000000000000000000008152600401610a759190612e26565b60405180910390fd5b6000610a928383610a8d611a64565b611a7e565b90508373ffffffffffffffffffffffffffffffffffffffff168173ffffffffffffffffffffffffffffffffffffffff1614610b08578382826040517f64283d7b000000000000000000000000000000000000000000000000000000008152600401610aff939291906135aa565b60405180910390fd5b50505050565b610b166119dd565b600c60008381526020019081526020016000208190806001815401808255809150506001900390600052602060002001600090919091909150555050565b610b5c6119dd565b6001600e600083815260200190815260200160002060030160006101000a81548160ff02191690831515021790555050565b600f6020528060005260406000206000915054906101000a900460ff1681565b6000610bb983610d53565b8210610bfe5782826040517fa57d13dc000000000000000000000000000000000000000000000000000000008152600401610bf59291906135e1565b60405180910390fd5b600760008473ffffffffffffffffffffffffffffffffffffffff1673ffffffffffffffffffffffffffffffffffffffff168152602001908152602001600020600083815260200190815260200160002054905092915050565b610c5f6119dd565b80600e60008481526020019081526020016000206002016000828254610c85919061360a565b925050819055505050565b610cab838383604051806020016040528060008152506111af565b505050565b6000610cba6109ff565b8210610d00576000826040517fa57d13dc000000000000000000000000000000000000000000000000000000008152600401610cf79291906135e1565b60405180910390fd5b60098281548110610d1457610d1361363e565b5b90600052602060002001549050919050565b610d2e6119dd565b80600b9081610d3d9190613819565b5050565b6000610d4c82611918565b9050919050565b60008073ffffffffffffffffffffffffffffffffffffffff168273ffffffffffffffffffffffffffffffffffffffff1603610dc65760006040517f89c62b64000000000000000000000000000000000000000000000000000000008152600401610dbd9190612e26565b60405180910390fd5b600460008373ffffffffffffffffffffffffffffffffffffffff1673ffffffffffffffffffffffffffffffffffffffff168152602001908152602001600020549050919050565b610e156119dd565b610e1f6000611b9b565b565b610e296119dd565b600d60008381526020019081526020016000208190806001815401808255809150506001900390600052602060002001600090919091909150555050565b6060600b8054610e76906134aa565b80601f0160208091040260200160405190810160405280929190818152602001828054610ea2906134aa565b8015610eef5780601f10610ec457610100808354040283529160200191610eef565b820191906000526020600020905b815481529060010190602001808311610ed257829003601f168201915b5050505050905090565b600d6020528160005260406000208181548110610f1557600080fd5b90600052602060002001600091509150505481565b600e602052806000526040600020600091509050806000015490806001018054610f53906134aa565b80601f0160208091040260200160405190810160405280929190818152602001828054610f7f906134aa565b8015610fcc5780601f10610fa157610100808354040283529160200191610fcc565b820191906000526020600020905b815481529060010190602001808311610faf57829003601f168201915b5050505050908060020154908060030160009054906101000a900460ff16908060030160019054906101000a900473ffffffffffffffffffffffffffffffffffffffff16905085565b6000600e600083815260200190815260200160002060030160009054906101000a900460ff169050919050565b60008060009054906101000a900473ffffffffffffffffffffffffffffffffffffffff16905090565b60606002805461107a906134aa565b80601f01602080910402602001604051908101604052809291908181526020018280546110a6906134aa565b80156110f35780601f106110c8576101008083540402835291602001916110f3565b820191906000526020600020905b8154815290600101906020018083116110d657829003601f168201915b5050505050905090565b600c602052816000526040600020818154811061111957600080fd5b90600052602060002001600091509150505481565b611140611139611a64565b8383611c5f565b5050565b6060600c60008381526020019081526020016000208054806020026020016040519081016040528092919081815260200182805480156111a357602002820191906000526020600020905b81548152602001906001019080831161118f575b50505050509050919050565b6111ba848484610a0c565b6111c684848484611dce565b50505050565b60606111d782611918565b5060006111e2611f85565b90506000815111611202576040518060200160405280600081525061122d565b8061120c84611f9c565b60405160200161121d929190613927565b6040516020818303038152906040525b915050919050565b600b8054611242906134aa565b80601f016020809104026020016040519081016040528092919081815260200182805461126e906134aa565b80156112bb5780601f10611290576101008083540402835291602001916112bb565b820191906000526020600020905b81548152906001019060200180831161129e57829003601f168201915b505050505081565b6000600e6000838152602001908152602001600020600201549050919050565b600f60003373ffffffffffffffffffffffffffffffffffffffff1673ffffffffffffffffffffffffffffffffffffffff16815260200190815260200160002060009054906101000a900460ff1615611370576040517f08c379a000000000000000000000000000000000000000000000000000000000815260040161136790613997565b60405180910390fd5b6000600161137c6109ff565b611386919061360a565b9050611392338261206a565b6040518060a00160405280828152602001838152602001600081526020016000151581526020013373ffffffffffffffffffffffffffffffffffffffff16815250600e60008381526020019081526020016000206000820151816000015560208201518160010190816114059190613819565b506040820151816002015560608201518160030160006101000a81548160ff02191690831515021790555060808201518160030160016101000a81548173ffffffffffffffffffffffffffffffffffffffff021916908373ffffffffffffffffffffffffffffffffffffffff1602179055509050505050565b6114866119dd565b6000600c6000848152602001908152602001600020905060005b818054905081101561156057828282815481106114c0576114bf61363e565b5b90600052602060002001540361154d5781600183805490506114e29190613576565b815481106114f3576114f261363e565b5b90600052602060002001548282815481106115115761151061363e565b5b9060005260206000200181905550818054806115305761152f6139b7565b5b600190038181906000526020600020016000905590555050611563565b8080611558906139e6565b9150506114a0565b50505b5050565b6000600660008473ffffffffffffffffffffffffffffffffffffffff1673ffffffffffffffffffffffffffffffffffffffff16815260200190815260200160002060008373ffffffffffffffffffffffffffffffffffffffff1673ffffffffffffffffffffffffffffffffffffffff16815260200190815260200160002060009054906101000a900460ff16905092915050565b600e600083815260200190815260200160002060030160019054906101000a900473ffffffffffffffffffffffffffffffffffffffff1673ffffffffffffffffffffffffffffffffffffffff163373ffffffffffffffffffffffffffffffffffffffff161461169f576040517f08c379a000000000000000000000000000000000000000000000000000000000815260040161169690613a7a565b60405180910390fd5b80600e600084815260200190815260200160002060010190816116c29190613819565b505050565b6116cf6119dd565b600073ffffffffffffffffffffffffffffffffffffffff168173ffffffffffffffffffffffffffffffffffffffff16036117415760006040517f1e4fbdf70000000000000000000000000000000000000000000000000000000081526004016117389190612e26565b60405180910390fd5b61174a81611b9b565b50565b6117556119dd565b6000600d6000848152602001908152602001600020905060005b818054905081101561182f578282828154811061178f5761178e61363e565b5b90600052602060002001540361181c5781600183805490506117b19190613576565b815481106117c2576117c161363e565b5b90600052602060002001548282815481106117e0576117df61363e565b5b9060005260206000200181905550818054806117ff576117fe6139b7565b5b600190038181906000526020600020016000905590555050611832565b8080611827906139e6565b91505061176f565b50505b5050565b60007f80ac58cd000000000000000000000000000000000000000000000000000000007bffffffffffffffffffffffffffffffffffffffffffffffffffffffff1916827bffffffffffffffffffffffffffffffffffffffffffffffffffffffff1916148061190157507f5b5e139f000000000000000000000000000000000000000000000000000000007bffffffffffffffffffffffffffffffffffffffffffffffffffffffff1916827bffffffffffffffffffffffffffffffffffffffffffffffffffffffff1916145b80611911575061191082612088565b5b9050919050565b600080611924836120f2565b9050600073ffffffffffffffffffffffffffffffffffffffff168173ffffffffffffffffffffffffffffffffffffffff160361199757826040517f7e27328900000000000000000000000000000000000000000000000000000000815260040161198e9190612fdc565b60405180910390fd5b80915050919050565b60006005600083815260200190815260200160002060009054906101000a900473ffffffffffffffffffffffffffffffffffffffff169050919050565b6119e5611a64565b73ffffffffffffffffffffffffffffffffffffffff16611a03611042565b73ffffffffffffffffffffffffffffffffffffffff1614611a6257611a26611a64565b6040517f118cdaa7000000000000000000000000000000000000000000000000000000008152600401611a599190612e26565b60405180910390fd5b565b600033905090565b611a79838383600161212f565b505050565b600080611a8c8585856122f4565b9050600073ffffffffffffffffffffffffffffffffffffffff168173ffffffffffffffffffffffffffffffffffffffff1603611ad057611acb8461250e565b611b0f565b8473ffffffffffffffffffffffffffffffffffffffff168173ffffffffffffffffffffffffffffffffffffffff1614611b0e57611b0d8185612557565b5b5b600073ffffffffffffffffffffffffffffffffffffffff168573ffffffffffffffffffffffffffffffffffffffff1603611b5157611b4c846126b8565b611b90565b8473ffffffffffffffffffffffffffffffffffffffff168173ffffffffffffffffffffffffffffffffffffffff1614611b8f57611b8e8585612789565b5b5b809150509392505050565b60008060009054906101000a900473ffffffffffffffffffffffffffffffffffffffff169050816000806101000a81548173ffffffffffffffffffffffffffffffffffffffff021916908373ffffffffffffffffffffffffffffffffffffffff1602179055508173ffffffffffffffffffffffffffffffffffffffff168173ffffffffffffffffffffffffffffffffffffffff167f8be0079c531659141344cd1fd0a4f28419497f9722a3daafe3b4186f6b6457e060405160405180910390a35050565b600073ffffffffffffffffffffffffffffffffffffffff168273ffffffffffffffffffffffffffffffffffffffff1603611cd057816040517f5b08ba18000000000000000000000000000000000000000000000000000000008152600401611cc79190612e26565b60405180910390fd5b80600660008573ffffffffffffffffffffffffffffffffffffffff1673ffffffffffffffffffffffffffffffffffffffff16815260200190815260200160002060008473ffffffffffffffffffffffffffffffffffffffff1673ffffffffffffffffffffffffffffffffffffffff16815260200190815260200160002060006101000a81548160ff0219169083151502179055508173ffffffffffffffffffffffffffffffffffffffff168373ffffffffffffffffffffffffffffffffffffffff167f17307eab39ab6107e8899845ad3d59bd9653f200f220920489ca2b5937696c3183604051611dc19190612cb5565b60405180910390a3505050565b60008373ffffffffffffffffffffffffffffffffffffffff163b1115611f7f578273ffffffffffffffffffffffffffffffffffffffff1663150b7a02611e12611a64565b8685856040518563ffffffff1660e01b8152600401611e349493929190613aef565b6020604051808303816000875af1925050508015611e7057506040513d601f19601f82011682018060405250810190611e6d9190613b50565b60015b611ef4573d8060008114611ea0576040519150601f19603f3d011682016040523d82523d6000602084013e611ea5565b606091505b506000815103611eec57836040517f64a0ae92000000000000000000000000000000000000000000000000000000008152600401611ee39190612e26565b60405180910390fd5b805181602001fd5b63150b7a0260e01b7bffffffffffffffffffffffffffffffffffffffffffffffffffffffff1916817bffffffffffffffffffffffffffffffffffffffffffffffffffffffff191614611f7d57836040517f64a0ae92000000000000000000000000000000000000000000000000000000008152600401611f749190612e26565b60405180910390fd5b505b50505050565b606060405180602001604052806000815250905090565b606060006001611fab84612814565b01905060008167ffffffffffffffff811115611fca57611fc9613081565b5b6040519080825280601f01601f191660200182016040528015611ffc5781602001600182028036833780820191505090505b509050600082602001820190505b60011561205f578080600190039150507f3031323334353637383961626364656600000000000000000000000000000000600a86061a8153600a858161205357612052613b7d565b5b0494506000850361200a575b819350505050919050565b612084828260405180602001604052806000815250612967565b5050565b60007f01ffc9a7000000000000000000000000000000000000000000000000000000007bffffffffffffffffffffffffffffffffffffffffffffffffffffffff1916827bffffffffffffffffffffffffffffffffffffffffffffffffffffffff1916149050919050565b60006003600083815260200190815260200160002060009054906101000a900473ffffffffffffffffffffffffffffffffffffffff169050919050565b80806121685750600073ffffffffffffffffffffffffffffffffffffffff168273ffffffffffffffffffffffffffffffffffffffff1614155b1561229c57600061217884611918565b9050600073ffffffffffffffffffffffffffffffffffffffff168373ffffffffffffffffffffffffffffffffffffffff16141580156121e357508273ffffffffffffffffffffffffffffffffffffffff168173ffffffffffffffffffffffffffffffffffffffff1614155b80156121f657506121f48184611567565b155b1561223857826040517fa9fbf51f00000000000000000000000000000000000000000000000000000000815260040161222f9190612e26565b60405180910390fd5b811561229a57838573ffffffffffffffffffffffffffffffffffffffff168273ffffffffffffffffffffffffffffffffffffffff167f8c5be1e5ebec7d5bd14f71427d1e84f3dd0314c0f7b2291e5b200ac8c7c3b92560405160405180910390a45b505b836005600085815260200190815260200160002060006101000a81548173ffffffffffffffffffffffffffffffffffffffff021916908373ffffffffffffffffffffffffffffffffffffffff16021790555050505050565b600080612300846120f2565b9050600073ffffffffffffffffffffffffffffffffffffffff168373ffffffffffffffffffffffffffffffffffffffff161461234257612341818486612983565b5b600073ffffffffffffffffffffffffffffffffffffffff168173ffffffffffffffffffffffffffffffffffffffff16146123d35761238460008560008061212f565b6001600460008373ffffffffffffffffffffffffffffffffffffffff1673ffffffffffffffffffffffffffffffffffffffff168152602001908152602001600020600082825403925050819055505b600073ffffffffffffffffffffffffffffffffffffffff168573ffffffffffffffffffffffffffffffffffffffff1614612456576001600460008773ffffffffffffffffffffffffffffffffffffffff1673ffffffffffffffffffffffffffffffffffffffff168152602001908152602001600020600082825401925050819055505b846003600086815260200190815260200160002060006101000a81548173ffffffffffffffffffffffffffffffffffffffff021916908373ffffffffffffffffffffffffffffffffffffffff160217905550838573ffffffffffffffffffffffffffffffffffffffff168273ffffffffffffffffffffffffffffffffffffffff167fddf252ad1be2c89b69c2b068fc378daa952ba7f163c4a11628f55a4df523b3ef60405160405180910390a4809150509392505050565b600980549050600a600083815260200190815260200160002081905550600981908060018154018082558091505060019003906000526020600020016000909190919091505550565b600061256283610d53565b9050600060086000848152602001908152602001600020549050818114612647576000600760008673ffffffffffffffffffffffffffffffffffffffff1673ffffffffffffffffffffffffffffffffffffffff168152602001908152602001600020600084815260200190815260200160002054905080600760008773ffffffffffffffffffffffffffffffffffffffff1673ffffffffffffffffffffffffffffffffffffffff168152602001908152602001600020600084815260200190815260200160002081905550816008600083815260200190815260200160002081905550505b6008600084815260200190815260200160002060009055600760008573ffffffffffffffffffffffffffffffffffffffff1673ffffffffffffffffffffffffffffffffffffffff16815260200190815260200160002060008381526020019081526020016000206000905550505050565b600060016009805490506126cc9190613576565b90506000600a60008481526020019081526020016000205490506000600983815481106126fc576126fb61363e565b5b90600052602060002001549050806009838154811061271e5761271d61363e565b5b906000526020600020018190555081600a600083815260200190815260200160002081905550600a600085815260200190815260200160002060009055600980548061276d5761276c6139b7565b5b6001900381819060005260206000200160009055905550505050565b6000600161279684610d53565b6127a09190613576565b905081600760008573ffffffffffffffffffffffffffffffffffffffff1673ffffffffffffffffffffffffffffffffffffffff168152602001908152602001600020600083815260200190815260200160002081905550806008600084815260200190815260200160002081905550505050565b600080600090507a184f03e93ff9f4daa797ed6e38ed64bf6a1f0100000000000000008310612872577a184f03e93ff9f4daa797ed6e38ed64bf6a1f010000000000000000838161286857612867613b7d565b5b0492506040810190505b6d04ee2d6d415b85acef810000000083106128af576d04ee2d6d415b85acef810000000083816128a5576128a4613b7d565b5b0492506020810190505b662386f26fc1000083106128de57662386f26fc1000083816128d4576128d3613b7d565b5b0492506010810190505b6305f5e1008310612907576305f5e10083816128fd576128fc613b7d565b5b0492506008810190505b612710831061292c57612710838161292257612921613b7d565b5b0492506004810190505b6064831061294f576064838161294557612944613b7d565b5b0492506002810190505b600a831061295e576001810190505b80915050919050565b6129718383612a47565b61297e6000848484611dce565b505050565b61298e838383612b40565b612a4257600073ffffffffffffffffffffffffffffffffffffffff168373ffffffffffffffffffffffffffffffffffffffff1603612a0357806040517f7e2732890000000000000000000000000000000000000000000000000000000081526004016129fa9190612fdc565b60405180910390fd5b81816040517f177e802f000000000000000000000000000000000000000000000000000000008152600401612a399291906135e1565b60405180910390fd5b505050565b600073ffffffffffffffffffffffffffffffffffffffff168273ffffffffffffffffffffffffffffffffffffffff1603612ab95760006040517f64a0ae92000000000000000000000000000000000000000000000000000000008152600401612ab09190612e26565b60405180910390fd5b6000612ac783836000611a7e565b9050600073ffffffffffffffffffffffffffffffffffffffff168173ffffffffffffffffffffffffffffffffffffffff1614612b3b5760006040517f73c6ac6e000000000000000000000000000000000000000000000000000000008152600401612b329190612e26565b60405180910390fd5b505050565b60008073ffffffffffffffffffffffffffffffffffffffff168373ffffffffffffffffffffffffffffffffffffffff1614158015612bf857508273ffffffffffffffffffffffffffffffffffffffff168473ffffffffffffffffffffffffffffffffffffffff161480612bb95750612bb88484611567565b5b80612bf757508273ffffffffffffffffffffffffffffffffffffffff16612bdf836119a0565b73ffffffffffffffffffffffffffffffffffffffff16145b5b90509392505050565b6000604051905090565b600080fd5b600080fd5b60007fffffffff0000000000000000000000000000000000000000000000000000000082169050919050565b612c4a81612c15565b8114612c5557600080fd5b50565b600081359050612c6781612c41565b92915050565b600060208284031215612c8357612c82612c0b565b5b6000612c9184828501612c58565b91505092915050565b60008115159050919050565b612caf81612c9a565b82525050565b6000602082019050612cca6000830184612ca6565b92915050565b600081519050919050565b600082825260208201905092915050565b60005b83811015612d0a578082015181840152602081019050612cef565b60008484015250505050565b6000601f19601f8301169050919050565b6000612d3282612cd0565b612d3c8185612cdb565b9350612d4c818560208601612cec565b612d5581612d16565b840191505092915050565b60006020820190508181036000830152612d7a8184612d27565b905092915050565b6000819050919050565b612d9581612d82565b8114612da057600080fd5b50565b600081359050612db281612d8c565b92915050565b600060208284031215612dce57612dcd612c0b565b5b6000612ddc84828501612da3565b91505092915050565b600073ffffffffffffffffffffffffffffffffffffffff82169050919050565b6000612e1082612de5565b9050919050565b612e2081612e05565b82525050565b6000602082019050612e3b6000830184612e17565b92915050565b60008060408385031215612e5857612e57612c0b565b5b6000612e6685828601612da3565b9250506020612e7785828601612da3565b9150509250929050565b612e8a81612e05565b8114612e9557600080fd5b50565b600081359050612ea781612e81565b92915050565b60008060408385031215612ec457612ec3612c0b565b5b6000612ed285828601612e98565b9250506020612ee385828601612da3565b9150509250929050565b600081519050919050565b600082825260208201905092915050565b6000819050602082019050919050565b612f2281612d82565b82525050565b6000612f348383612f19565b60208301905092915050565b6000602082019050919050565b6000612f5882612eed565b612f628185612ef8565b9350612f6d83612f09565b8060005b83811015612f9e578151612f858882612f28565b9750612f9083612f40565b925050600181019050612f71565b5085935050505092915050565b60006020820190508181036000830152612fc58184612f4d565b905092915050565b612fd681612d82565b82525050565b6000602082019050612ff16000830184612fcd565b92915050565b6000806000606084860312156130105761300f612c0b565b5b600061301e86828701612e98565b935050602061302f86828701612e98565b925050604061304086828701612da3565b9150509250925092565b6000602082840312156130605761305f612c0b565b5b600061306e84828501612e98565b91505092915050565b600080fd5b600080fd5b7f4e487b7100000000000000000000000000000000000000000000000000000000600052604160045260246000fd5b6130b982612d16565b810181811067ffffffffffffffff821117156130d8576130d7613081565b5b80604052505050565b60006130eb612c01565b90506130f782826130b0565b919050565b600067ffffffffffffffff82111561311757613116613081565b5b61312082612d16565b9050602081019050919050565b82818337600083830152505050565b600061314f61314a846130fc565b6130e1565b90508281526020810184848401111561316b5761316a61307c565b5b61317684828561312d565b509392505050565b600082601f83011261319357613192613077565b5b81356131a384826020860161313c565b91505092915050565b6000602082840312156131c2576131c1612c0b565b5b600082013567ffffffffffffffff8111156131e0576131df612c10565b5b6131ec8482850161317e565b91505092915050565b600060a08201905061320a6000830188612fcd565b818103602083015261321c8187612d27565b905061322b6040830186612fcd565b6132386060830185612ca6565b6132456080830184612e17565b9695505050505050565b61325881612c9a565b811461326357600080fd5b50565b6000813590506132758161324f565b92915050565b6000806040838503121561329257613291612c0b565b5b60006132a085828601612e98565b92505060206132b185828601613266565b9150509250929050565b600067ffffffffffffffff8211156132d6576132d5613081565b5b6132df82612d16565b9050602081019050919050565b60006132ff6132fa846132bb565b6130e1565b90508281526020810184848401111561331b5761331a61307c565b5b61332684828561312d565b509392505050565b600082601f83011261334357613342613077565b5b81356133538482602086016132ec565b91505092915050565b6000806000806080858703121561337657613375612c0b565b5b600061338487828801612e98565b945050602061339587828801612e98565b93505060406133a687828801612da3565b925050606085013567ffffffffffffffff8111156133c7576133c6612c10565b5b6133d38782880161332e565b91505092959194509250565b600080604083850312156133f6576133f5612c0b565b5b600061340485828601612e98565b925050602061341585828601612e98565b9150509250929050565b6000806040838503121561343657613435612c0b565b5b600061344485828601612da3565b925050602083013567ffffffffffffffff81111561346557613464612c10565b5b6134718582860161317e565b9150509250929050565b7f4e487b7100000000000000000000000000000000000000000000000000000000600052602260045260246000fd5b600060028204905060018216806134c257607f821691505b6020821081036134d5576134d461347b565b5b50919050565b7f58502063616e6e6f74206265206e656761746976650000000000000000000000600082015250565b6000613511601583612cdb565b915061351c826134db565b602082019050919050565b6000602082019050818103600083015261354081613504565b9050919050565b7f4e487b7100000000000000000000000000000000000000000000000000000000600052601160045260246000fd5b600061358182612d82565b915061358c83612d82565b92508282039050818111156135a4576135a3613547565b5b92915050565b60006060820190506135bf6000830186612e17565b6135cc6020830185612fcd565b6135d96040830184612e17565b949350505050565b60006040820190506135f66000830185612e17565b6136036020830184612fcd565b9392505050565b600061361582612d82565b915061362083612d82565b925082820190508082111561363857613637613547565b5b92915050565b7f4e487b7100000000000000000000000000000000000000000000000000000000600052603260045260246000fd5b60008190508160005260206000209050919050565b60006020601f8301049050919050565b600082821b905092915050565b6000600883026136cf7fffffffffffffffffffffffffffffffffffffffffffffffffffffffffffffffff82613692565b6136d98683613692565b95508019841693508086168417925050509392505050565b6000819050919050565b600061371661371161370c84612d82565b6136f1565b612d82565b9050919050565b6000819050919050565b613730836136fb565b61374461373c8261371d565b84845461369f565b825550505050565b600090565b61375961374c565b613764818484613727565b505050565b5b818110156137885761377d600082613751565b60018101905061376a565b5050565b601f8211156137cd5761379e8161366d565b6137a784613682565b810160208510156137b6578190505b6137ca6137c285613682565b830182613769565b50505b505050565b600082821c905092915050565b60006137f0600019846008026137d2565b1980831691505092915050565b600061380983836137df565b9150826002028217905092915050565b61382282612cd0565b67ffffffffffffffff81111561383b5761383a613081565b5b61384582546134aa565b61385082828561378c565b600060209050601f8311600181146138835760008415613871578287015190505b61387b85826137fd565b8655506138e3565b601f1984166138918661366d565b60005b828110156138b957848901518255600182019150602085019450602081019050613894565b868310156138d657848901516138d2601f8916826137df565b8355505b6001600288020188555050505b505050505050565b600081905092915050565b600061390182612cd0565b61390b81856138eb565b935061391b818560208601612cec565b80840191505092915050565b600061393382856138f6565b915061393f82846138f6565b91508190509392505050565b7f596f7520616c7265616479206861766520616e20617661746172000000000000600082015250565b6000613981601a83612cdb565b915061398c8261394b565b602082019050919050565b600060208201905081810360008301526139b081613974565b9050919050565b7f4e487b7100000000000000000000000000000000000000000000000000000000600052603160045260246000fd5b60006139f182612d82565b91507fffffffffffffffffffffffffffffffffffffffffffffffffffffffffffffffff8203613a2357613a22613547565b5b600182019050919050565b7f4e6f7420746865206f776e657200000000000000000000000000000000000000600082015250565b6000613a64600d83612cdb565b9150613a6f82613a2e565b602082019050919050565b60006020820190508181036000830152613a9381613a57565b9050919050565b600081519050919050565b600082825260208201905092915050565b6000613ac182613a9a565b613acb8185613aa5565b9350613adb818560208601612cec565b613ae481612d16565b840191505092915050565b6000608082019050613b046000830187612e17565b613b116020830186612e17565b613b1e6040830185612fcd565b8181036060830152613b308184613ab6565b905095945050505050565b600081519050613b4a81612c41565b92915050565b600060208284031215613b6657613b65612c0b565b5b6000613b7484828501613b3b565b91505092915050565b7f4e487b7100000000000000000000000000000000000000000000000000000000600052601260045260246000fdfea2646970667358221220a152d3d25f7b7a652bc50e6082dfa3932b4d7672096aa063faff683dd45573ee64736f6c63430008140033",
  "linkReferences": {},
  "deployedLinkReferences": {}
}