{
  "_format": "hh-sol-artifact-1",
  "contractName": "MarketplaceRetirementCertificateEscrow",
  "sourceName": "contracts/MarketplaceRetirementCertificateEscrow.sol",
  "abi": [
    {
      "inputs": [],
      "stateMutability": "nonpayable",
      "type": "constructor"
    },
    {
      "inputs": [
        {
          "internalType": "address",
          "name": "owner",
          "type": "address"
        }
      ],
      "name": "OwnableInvalidOwner",
      "type": "error"
    },
    {
      "inputs": [
        {
          "internalType": "address",
          "name": "account",
          "type": "address"
        }
      ],
      "name": "OwnableUnauthorizedAccount",
      "type": "error"
    },
    {
      "inputs": [],
      "name": "ReentrancyGuardReentrantCall",
      "type": "error"
    },
    {
      "anonymous": false,
      "inputs": [
        {
          "indexed": true,
          "internalType": "uint256",
          "name": "retirementCertificate",
          "type": "uint256"
        },
        {
          "indexed": false,
          "internalType": "uint256",
          "name": "tokenId",
          "type": "uint256"
        },
        {
          "indexed": false,
          "internalType": "address",
          "name": "nftAddress",
          "type": "address"
        }
      ],
      "name": "AttachCertificateForClaim",
      "type": "event"
    },
    {
      "anonymous": false,
      "inputs": [
        {
          "indexed": true,
          "internalType": "address",
          "name": "previousOwner",
          "type": "address"
        },
        {
          "indexed": true,
          "internalType": "address",
          "name": "newOwner",
          "type": "address"
        }
      ],
      "name": "OwnershipTransferred",
      "type": "event"
    },
    {
      "anonymous": false,
      "inputs": [
        {
          "indexed": false,
          "internalType": "address",
          "name": "nftAddress",
          "type": "address"
        },
        {
          "indexed": true,
          "internalType": "uint256",
          "name": "retirementCertificate",
          "type": "uint256"
        },
        {
          "indexed": false,
          "internalType": "uint256",
          "name": "tokenId",
          "type": "uint256"
        },
        {
          "indexed": false,
          "internalType": "address",
          "name": "claimer",
          "type": "address"
        }
      ],
      "name": "RetirementCertificateClaimed",
      "type": "event"
    },
    {
      "anonymous": false,
      "inputs": [
        {
          "indexed": false,
          "internalType": "address",
          "name": "oldMarketplace",
          "type": "address"
        },
        {
          "indexed": false,
          "internalType": "address",
          "name": "newMarketplace",
          "type": "address"
        }
      ],
      "name": "SetNFTMarketplace",
      "type": "event"
    },
    {
      "anonymous": false,
      "inputs": [
        {
          "indexed": false,
          "internalType": "address",
          "name": "oldRetirementCertificate",
          "type": "address"
        },
        {
          "indexed": false,
          "internalType": "address",
          "name": "newRetirementCertificate",
          "type": "address"
        }
      ],
      "name": "SetRetirementCertificate",
      "type": "event"
    },
    {
      "inputs": [
        {
          "internalType": "address",
          "name": "nftAddress",
          "type": "address"
        },
        {
          "internalType": "uint256",
          "name": "tokenId",
          "type": "uint256"
        },
        {
          "internalType": "uint256[]",
          "name": "userRetirementCertificatesIndexes",
          "type": "uint256[]"
        }
      ],
      "name": "claimRetirementCertificate",
      "outputs": [],
      "stateMutability": "nonpayable",
      "type": "function"
    },
    {
      "inputs": [
        {
          "internalType": "address",
          "name": "nftAddress",
          "type": "address"
        },
        {
          "internalType": "uint256",
          "name": "tokenId",
          "type": "uint256"
        }
      ],
      "name": "getUserRetirementCertificates",
      "outputs": [
        {
          "components": [
            {
              "internalType": "uint256",
              "name": "tokenId",
              "type": "uint256"
            },
            {
              "internalType": "uint256",
              "name": "retirementCertificate",
              "type": "uint256"
            },
            {
              "internalType": "bool",
              "name": "claimed",
              "type": "bool"
            },
            {
              "internalType": "uint256",
              "name": "index",
              "type": "uint256"
            },
            {
              "internalType": "address",
              "name": "nftAddress",
              "type": "address"
            }
          ],
          "internalType": "struct MarketplaceRetirementCertificateEscrow.UserRetirementCertificate[]",
          "name": "",
          "type": "tuple[]"
        },
        {
          "internalType": "uint256",
          "name": "",
          "type": "uint256"
        }
      ],
      "stateMutability": "view",
      "type": "function"
    },
    {
      "inputs": [],
      "name": "nftMarketplace",
      "outputs": [
        {
          "internalType": "address",
          "name": "",
          "type": "address"
        }
      ],
      "stateMutability": "view",
      "type": "function"
    },
    {
      "inputs": [],
      "name": "owner",
      "outputs": [
        {
          "internalType": "address",
          "name": "",
          "type": "address"
        }
      ],
      "stateMutability": "view",
      "type": "function"
    },
    {
      "inputs": [
        {
          "internalType": "address",
          "name": "nftAddress",
          "type": "address"
        },
        {
          "internalType": "uint256",
          "name": "tokenId",
          "type": "uint256"
        },
        {
          "internalType": "uint256",
          "name": "_retirementCertificate",
          "type": "uint256"
        }
      ],
      "name": "registerCertificateForClaim",
      "outputs": [],
      "stateMutability": "nonpayable",
      "type": "function"
    },
    {
      "inputs": [],
      "name": "renounceOwnership",
      "outputs": [],
      "stateMutability": "nonpayable",
      "type": "function"
    },
    {
      "inputs": [],
      "name": "retirementCertificate",
      "outputs": [
        {
          "internalType": "contract ERC721Upgradeable",
          "name": "",
          "type": "address"
        }
      ],
      "stateMutability": "view",
      "type": "function"
    },
    {
      "inputs": [
        {
          "internalType": "address",
          "name": "_marketplace",
          "type": "address"
        }
      ],
      "name": "setNFTMarketplace",
      "outputs": [],
      "stateMutability": "nonpayable",
      "type": "function"
    },
    {
      "inputs": [
        {
          "internalType": "address",
          "name": "_retirementCertificate",
          "type": "address"
        }
      ],
      "name": "setRetirementCertificate",
      "outputs": [],
      "stateMutability": "nonpayable",
      "type": "function"
    },
    {
      "inputs": [
        {
          "internalType": "address",
          "name": "newOwner",
          "type": "address"
        }
      ],
      "name": "transferOwnership",
      "outputs": [],
      "stateMutability": "nonpayable",
      "type": "function"
    },
    {
      "inputs": [
        {
          "internalType": "bytes",
          "name": "",
          "type": "bytes"
        },
        {
          "internalType": "uint256",
          "name": "",
          "type": "uint256"
        }
      ],
      "name": "userRetirementCertificates",
      "outputs": [
        {
          "internalType": "uint256",
          "name": "tokenId",
          "type": "uint256"
        },
        {
          "internalType": "uint256",
          "name": "retirementCertificate",
          "type": "uint256"
        },
        {
          "internalType": "bool",
          "name": "claimed",
          "type": "bool"
        },
        {
          "internalType": "uint256",
          "name": "index",
          "type": "uint256"
        },
        {
          "internalType": "address",
          "name": "nftAddress",
          "type": "address"
        }
      ],
      "stateMutability": "view",
      "type": "function"
    }
  ],
  "bytecode": "0x608060405234801561001057600080fd5b50338061003757604051631e4fbdf760e01b81526000600482015260240160405180910390fd5b6100408161004a565b506001805561009a565b600080546001600160a01b038381166001600160a01b0319831681178455604051919092169283917f8be0079c531659141344cd1fd0a4f28419497f9722a3daafe3b4186f6b6457e09190a35050565b611080806100a96000396000f3fe608060405234801561001057600080fd5b50600436106100c95760003560e01c8063932e2d8111610081578063d1a924cf1161005b578063d1a924cf146101b0578063e68adc46146101c3578063f2fde38b146101e457600080fd5b8063932e2d81146101775780639ce12ae51461018a578063be5174911461019d57600080fd5b80635909d26a116100b25780635909d26a14610113578063715018a61461015e5780638da5cb5b1461016657600080fd5b80632f77c9d9146100ce57806351ef182d146100e3575b600080fd5b6100e16100dc366004610d5e565b6101f7565b005b6002546100f6906001600160a01b031681565b6040516001600160a01b0390911681526020015b60405180910390f35b610126610121366004610e22565b61077c565b60405161010a9594939291909485526020850193909352901515604084015260608301526001600160a01b0316608082015260a00190565b6100e16107e5565b6000546001600160a01b03166100f6565b6100e1610185366004610ebc565b6107f9565b6004546100f6906001600160a01b031681565b6100e16101ab366004610ee0565b610882565b6100e16101be366004610ebc565b610a4e565b6101d66101d1366004610f15565b610ad4565b60405161010a929190610f41565b6100e16101f2366004610ebc565b610bc8565b6101ff610c1c565b6040517f6352211e00000000000000000000000000000000000000000000000000000000815260048101839052839083903390839082906001600160a01b03831690636352211e90602401602060405180830381865afa158015610267573d6000803e3d6000fd5b505050506040513d601f19601f8201168201806040525081019061028b9190610fc1565b6001600160a01b0316146102e65760405162461bcd60e51b815260206004820152600f60248201527f4e6f7420746f6b656e206f776e6572000000000000000000000000000000000060448201526064015b60405180910390fd5b60025433906001600160a01b031681036103425760405162461bcd60e51b815260206004820152601560248201527f43616c6c6572204e46544d61726b6574706c616365000000000000000000000060448201526064016102dd565b6002546001600160a01b0316330361039c5760405162461bcd60e51b815260206004820152601860248201527f4d61726b6574706c6163652063616e6e6f7420636c61696d000000000000000060448201526064016102dd565b604080516001600160a01b038a166020820152908101889052600090606001604051602081830303815290604052905060006003826040516103de9190610fde565b908152604051908190036020019020805490915061043e5760405162461bcd60e51b815260206004820152601460248201527f4e6f20636572746966696361746520666f756e6400000000000000000000000060448201526064016102dd565b600088511161048f5760405162461bcd60e51b815260206004820152601e60248201527f4e6f20636572746966696361746520636c61696d20726571756573746564000060448201526064016102dd565b60005b88518110156107665760008982815181106104af576104af61100d565b6020026020010151905060008382815481106104cd576104cd61100d565b60009182526020918290206040805160a081018252600590930290910180548352600181015493830193909352600283015460ff1615801591830191909152600383015460608301526004909201546001600160a01b0316608082015291506105785760405162461bcd60e51b815260206004820152601b60248201527f436572746966696361746520616c726561647920636c61696d6564000000000060448201526064016102dd565b80518c146105c85760405162461bcd60e51b815260206004820152600c60248201527f4e6f7420796f7572206e6674000000000000000000000000000000000000000060448201526064016102dd565b80608001516001600160a01b03168d6001600160a01b03161461062d5760405162461bcd60e51b815260206004820152601760248201527f4e6f7420636f7272656374204e4654206164647265737300000000000000000060448201526064016102dd565b60018483815481106106415761064161100d565b6000918252602091829020600591909102016002908101805460ff191693151593909317909255600480549254918401516040517f42842e0e0000000000000000000000000000000000000000000000000000000081526001600160a01b039384169281019290925233602483015260448201529116906342842e0e90606401600060405180830381600087803b1580156106db57600080fd5b505af11580156106ef573d6000803e3d6000fd5b5050505080602001517f200936d76354606b13efc5fdf105495ce6e411bdfb079f2ee18d4ccd2db7b8488e8e33604051610749939291906001600160a01b0393841681526020810192909252909116604082015260600190565b60405180910390a25050808061075e90611023565b915050610492565b505050505050505061077760018055565b505050565b815160208184018101805160038252928201918501919091209190528054829081106107a757600080fd5b60009182526020909120600590910201805460018201546002830154600384015460049094015492955090935060ff1691906001600160a01b031685565b6107ed610c5f565b6107f76000610ca5565b565b610801610c5f565b610809610c1c565b600254604080516001600160a01b03928316815291831660208301527ff6bf0487324815ff54cbc5fba592e708cbf9b56cbc4a6ba0b24fccf131bfb77e910160405180910390a16002805473ffffffffffffffffffffffffffffffffffffffff19166001600160a01b0383161790556001805550565b50565b61088a610c1c565b60025433906001600160a01b031681146108e65760405162461bcd60e51b815260206004820152601960248201527f43616c6c6572206e6f74204e46544d61726b6574706c6163650000000000000060448201526064016102dd565b604080516001600160a01b0386166020820152908101849052600090606001604051602081830303815290604052905060006040518060a001604052808681526020018581526020016000151581526020016003846040516109489190610fde565b9081526020016040518091039020805490508152602001876001600160a01b0316815250905060038260405161097e9190610fde565b9081526040805160209281900383018120805460018082018355600092835291859020865160059092020190815585850151918101919091558483015160028201805460ff19169115159190911790556060850151600382015560808501516004909101805473ffffffffffffffffffffffffffffffffffffffff19166001600160a01b0392831617905588825289169281019290925285917f4eae81e97d427fae724d5d49012364ebe071c284a2df413222f8124ff416c9cc910160405180910390a250505061077760018055565b610a56610c5f565b610a5e610c1c565b600454604080516001600160a01b03928316815291831660208301527f91461b82e0312399e902249f31a0d69758cb92b7c9b2ed42ae0de85049529efb910160405180910390a16004805473ffffffffffffffffffffffffffffffffffffffff19166001600160a01b0383161790556001805550565b604080516001600160a01b03841660208201529081018290526060906000908190830160405160208183030381529060405290506000600382604051610b1a9190610fde565b9081526020016040518091039020805480602002602001604051908101604052809291908181526020016000905b82821015610bb45760008481526020908190206040805160a081018252600586029092018054835260018082015484860152600282015460ff1615159284019290925260038101546060840152600401546001600160a01b031660808301529083529092019101610b48565b505082519299929850919650505050505050565b610bd0610c5f565b6001600160a01b038116610c13576040517f1e4fbdf7000000000000000000000000000000000000000000000000000000008152600060048201526024016102dd565b61087f81610ca5565b600260015403610c58576040517f3ee5aeb500000000000000000000000000000000000000000000000000000000815260040160405180910390fd5b6002600155565b6000546001600160a01b031633146107f7576040517f118cdaa70000000000000000000000000000000000000000000000000000000081523360048201526024016102dd565b600080546001600160a01b0383811673ffffffffffffffffffffffffffffffffffffffff19831681178455604051919092169283917f8be0079c531659141344cd1fd0a4f28419497f9722a3daafe3b4186f6b6457e09190a35050565b6001600160a01b038116811461087f57600080fd5b634e487b7160e01b600052604160045260246000fd5b604051601f8201601f1916810167ffffffffffffffff81118282101715610d5657610d56610d17565b604052919050565b600080600060608486031215610d7357600080fd5b8335610d7e81610d02565b92506020848101359250604085013567ffffffffffffffff80821115610da357600080fd5b818701915087601f830112610db757600080fd5b813581811115610dc957610dc9610d17565b8060051b9150610dda848301610d2d565b818152918301840191848101908a841115610df457600080fd5b938501935b83851015610e1257843582529385019390850190610df9565b8096505050505050509250925092565b60008060408385031215610e3557600080fd5b823567ffffffffffffffff80821115610e4d57600080fd5b818501915085601f830112610e6157600080fd5b8135602082821115610e7557610e75610d17565b610e87601f8301601f19168201610d2d565b92508183528781838601011115610e9d57600080fd5b8181850182850137600091830181019190915290969401359450505050565b600060208284031215610ece57600080fd5b8135610ed981610d02565b9392505050565b600080600060608486031215610ef557600080fd5b8335610f0081610d02565b95602085013595506040909401359392505050565b60008060408385031215610f2857600080fd5b8235610f3381610d02565b946020939093013593505050565b6040808252835182820181905260009190606090818501906020808901865b83811015610fad5781518051865283810151848701528781015115158887015286810151878701526080908101516001600160a01b03169086015260a09094019390820190600101610f60565b505095909501959095525092949350505050565b600060208284031215610fd357600080fd5b8151610ed981610d02565b6000825160005b81811015610fff5760208186018101518583015201610fe5565b506000920191825250919050565b634e487b7160e01b600052603260045260246000fd5b60006001820161104357634e487b7160e01b600052601160045260246000fd5b506001019056fea26469706673582212208ba5fccb952a0f1ddb462c01badecf603e7ff9a8ad7228df70fa67edb57821a164736f6c63430008140033",
  "linkReferences": {},
  "deployedLinkReferences": {}
}